{
	"contracts/Lowlevel.sol": {
		"LowLevelExample": {
			"abi": [
				{
					"inputs": [
						{
							"internalType": "address",
							"name": "_otherContract",
							"type": "address"
						}
					],
					"name": "delegateToOtherContract",
					"outputs": [],
					"stateMutability": "nonpayable",
					"type": "function"
				},
				{
					"inputs": [
						{
							"internalType": "address",
							"name": "_otherContract",
							"type": "address"
						}
					],
					"name": "readDataFromOtherContract",
					"outputs": [
						{
							"internalType": "bytes",
							"name": "",
							"type": "bytes"
						}
					],
					"stateMutability": "view",
					"type": "function"
				},
				{
					"inputs": [
						{
							"internalType": "address payable",
							"name": "_to",
							"type": "address"
						}
					],
					"name": "sendEther",
					"outputs": [],
					"stateMutability": "payable",
					"type": "function"
				}
			],
			"devdoc": {
				"kind": "dev",
				"methods": {},
				"version": 1
			},
			"evm": {
				"assembly": "    /* \"contracts/Lowlevel.sol\":61:1055  contract LowLevelExample {... */\n  mstore(0x40, 0x80)\n  callvalue\n  dup1\n  iszero\n  tag_1\n  jumpi\n  0x00\n  dup1\n  revert\ntag_1:\n  pop\n  dataSize(sub_0)\n  dup1\n  dataOffset(sub_0)\n  0x00\n  codecopy\n  0x00\n  return\nstop\n\nsub_0: assembly {\n        /* \"contracts/Lowlevel.sol\":61:1055  contract LowLevelExample {... */\n      mstore(0x40, 0x80)\n      jumpi(tag_1, lt(calldatasize, 0x04))\n      shr(0xe0, calldataload(0x00))\n      dup1\n      0x48c981e2\n      eq\n      tag_2\n      jumpi\n      dup1\n      0x4973d485\n      eq\n      tag_3\n      jumpi\n      dup1\n      0x69dff55f\n      eq\n      tag_4\n      jumpi\n    tag_1:\n      0x00\n      dup1\n      revert\n        /* \"contracts/Lowlevel.sol\":93:341  function sendEther(address payable _to) public payable {... */\n    tag_2:\n      tag_5\n      0x04\n      dup1\n      calldatasize\n      sub\n      dup2\n      add\n      swap1\n      tag_6\n      swap2\n      swap1\n      tag_7\n      jump\t// in\n    tag_6:\n      tag_8\n      jump\t// in\n    tag_5:\n      stop\n        /* \"contracts/Lowlevel.sol\":680:1052  function readDataFromOtherContract(address _otherContract) public view returns (bytes memory) {... */\n    tag_3:\n      callvalue\n      dup1\n      iszero\n      tag_9\n      jumpi\n      0x00\n      dup1\n      revert\n    tag_9:\n      pop\n      tag_10\n      0x04\n      dup1\n      calldatasize\n      sub\n      dup2\n      add\n      swap1\n      tag_11\n      swap2\n      swap1\n      tag_12\n      jump\t// in\n    tag_11:\n      tag_13\n      jump\t// in\n    tag_10:\n      mload(0x40)\n      tag_14\n      swap2\n      swap1\n      tag_15\n      jump\t// in\n    tag_14:\n      mload(0x40)\n      dup1\n      swap2\n      sub\n      swap1\n      return\n        /* \"contracts/Lowlevel.sol\":349:672  function delegateToOtherContract(address _otherContract) public {... */\n    tag_4:\n      callvalue\n      dup1\n      iszero\n      tag_16\n      jumpi\n      0x00\n      dup1\n      revert\n    tag_16:\n      pop\n      tag_17\n      0x04\n      dup1\n      calldatasize\n      sub\n      dup2\n      add\n      swap1\n      tag_18\n      swap2\n      swap1\n      tag_12\n      jump\t// in\n    tag_18:\n      tag_19\n      jump\t// in\n    tag_17:\n      stop\n        /* \"contracts/Lowlevel.sol\":93:341  function sendEther(address payable _to) public payable {... */\n    tag_8:\n        /* \"contracts/Lowlevel.sol\":243:255  bool success */\n      0x00\n        /* \"contracts/Lowlevel.sol\":261:264  _to */\n      dup2\n        /* \"contracts/Lowlevel.sol\":261:269  _to.call */\n      0xffffffffffffffffffffffffffffffffffffffff\n      and\n        /* \"contracts/Lowlevel.sol\":277:286  msg.value */\n      callvalue\n        /* \"contracts/Lowlevel.sol\":261:291  _to.call{value: msg.value}(\"\") */\n      mload(0x40)\n      tag_21\n      swap1\n      tag_22\n      jump\t// in\n    tag_21:\n      0x00\n      mload(0x40)\n      dup1\n      dup4\n      sub\n      dup2\n      dup6\n      dup8\n      gas\n      call\n      swap3\n      pop\n      pop\n      pop\n      returndatasize\n      dup1\n      0x00\n      dup2\n      eq\n      tag_25\n      jumpi\n      mload(0x40)\n      swap2\n      pop\n      and(add(returndatasize, 0x3f), not(0x1f))\n      dup3\n      add\n      0x40\n      mstore\n      returndatasize\n      dup3\n      mstore\n      returndatasize\n      0x00\n      0x20\n      dup5\n      add\n      returndatacopy\n      jump(tag_24)\n    tag_25:\n      0x60\n      swap2\n      pop\n    tag_24:\n      pop\n        /* \"contracts/Lowlevel.sol\":242:291  (bool success, ) = _to.call{value: msg.value}(\"\") */\n      pop\n      swap1\n      pop\n        /* \"contracts/Lowlevel.sol\":310:317  success */\n      dup1\n        /* \"contracts/Lowlevel.sol\":302:333  require(success, \"Call failed\") */\n      tag_26\n      jumpi\n      mload(0x40)\n      0x08c379a000000000000000000000000000000000000000000000000000000000\n      dup2\n      mstore\n      0x04\n      add\n      tag_27\n      swap1\n      tag_28\n      jump\t// in\n    tag_27:\n      mload(0x40)\n      dup1\n      swap2\n      sub\n      swap1\n      revert\n    tag_26:\n        /* \"contracts/Lowlevel.sol\":148:341  {... */\n      pop\n        /* \"contracts/Lowlevel.sol\":93:341  function sendEther(address payable _to) public payable {... */\n      pop\n      jump\t// out\n        /* \"contracts/Lowlevel.sol\":680:1052  function readDataFromOtherContract(address _otherContract) public view returns (bytes memory) {... */\n    tag_13:\n        /* \"contracts/Lowlevel.sol\":760:772  bytes memory */\n      0x60\n        /* \"contracts/Lowlevel.sol\":843:855  bool success */\n      0x00\n        /* \"contracts/Lowlevel.sol\":857:874  bytes memory data */\n      dup1\n        /* \"contracts/Lowlevel.sol\":878:892  _otherContract */\n      dup4\n        /* \"contracts/Lowlevel.sol\":878:903  _otherContract.staticcall */\n      0xffffffffffffffffffffffffffffffffffffffff\n      and\n        /* \"contracts/Lowlevel.sol\":918:963  abi.encodeWithSignature(\"someViewFunction()\") */\n      add(0x24, mload(0x40))\n      mload(0x40)\n      0x20\n      dup2\n      dup4\n      sub\n      sub\n      dup2\n      mstore\n      swap1\n      0x40\n      mstore\n      and(not(0xffffffffffffffffffffffffffffffffffffffffffffffffffffffff), 0xe6f87dd500000000000000000000000000000000000000000000000000000000)\n      0x20\n      dup3\n      add\n      dup1\n      mload\n      0xffffffffffffffffffffffffffffffffffffffffffffffffffffffff\n      dup4\n      dup2\n      dup4\n      and\n      or\n      dup4\n      mstore\n      pop\n      pop\n      pop\n      pop\n        /* \"contracts/Lowlevel.sol\":878:974  _otherContract.staticcall(... */\n      mload(0x40)\n      tag_30\n      swap2\n      swap1\n      tag_31\n      jump\t// in\n    tag_30:\n      0x00\n      mload(0x40)\n      dup1\n      dup4\n      sub\n      dup2\n      dup6\n      gas\n      staticcall\n      swap2\n      pop\n      pop\n      returndatasize\n      dup1\n      0x00\n      dup2\n      eq\n      tag_34\n      jumpi\n      mload(0x40)\n      swap2\n      pop\n      and(add(returndatasize, 0x3f), not(0x1f))\n      dup3\n      add\n      0x40\n      mstore\n      returndatasize\n      dup3\n      mstore\n      returndatasize\n      0x00\n      0x20\n      dup5\n      add\n      returndatacopy\n      jump(tag_33)\n    tag_34:\n      0x60\n      swap2\n      pop\n    tag_33:\n      pop\n        /* \"contracts/Lowlevel.sol\":842:974  (bool success, bytes memory data) = _otherContract.staticcall(... */\n      swap2\n      pop\n      swap2\n      pop\n        /* \"contracts/Lowlevel.sol\":993:1000  success */\n      dup2\n        /* \"contracts/Lowlevel.sol\":985:1022  require(success, \"Staticcall failed\") */\n      tag_35\n      jumpi\n      mload(0x40)\n      0x08c379a000000000000000000000000000000000000000000000000000000000\n      dup2\n      mstore\n      0x04\n      add\n      tag_36\n      swap1\n      tag_37\n      jump\t// in\n    tag_36:\n      mload(0x40)\n      dup1\n      swap2\n      sub\n      swap1\n      revert\n    tag_35:\n        /* \"contracts/Lowlevel.sol\":1040:1044  data */\n      dup1\n        /* \"contracts/Lowlevel.sol\":1033:1044  return data */\n      swap3\n      pop\n      pop\n      pop\n        /* \"contracts/Lowlevel.sol\":680:1052  function readDataFromOtherContract(address _otherContract) public view returns (bytes memory) {... */\n      swap2\n      swap1\n      pop\n      jump\t// out\n        /* \"contracts/Lowlevel.sol\":349:672  function delegateToOtherContract(address _otherContract) public {... */\n    tag_19:\n        /* \"contracts/Lowlevel.sol\":502:514  bool success */\n      0x00\n        /* \"contracts/Lowlevel.sol\":520:534  _otherContract */\n      dup2\n        /* \"contracts/Lowlevel.sol\":520:547  _otherContract.delegatecall */\n      0xffffffffffffffffffffffffffffffffffffffff\n      and\n        /* \"contracts/Lowlevel.sol\":562:603  abi.encodeWithSignature(\"someFunction()\") */\n      add(0x24, mload(0x40))\n      mload(0x40)\n      0x20\n      dup2\n      dup4\n      sub\n      sub\n      dup2\n      mstore\n      swap1\n      0x40\n      mstore\n      and(not(0xffffffffffffffffffffffffffffffffffffffffffffffffffffffff), 0x35b09a6e00000000000000000000000000000000000000000000000000000000)\n      0x20\n      dup3\n      add\n      dup1\n      mload\n      0xffffffffffffffffffffffffffffffffffffffffffffffffffffffff\n      dup4\n      dup2\n      dup4\n      and\n      or\n      dup4\n      mstore\n      pop\n      pop\n      pop\n      pop\n        /* \"contracts/Lowlevel.sol\":520:614  _otherContract.delegatecall(... */\n      mload(0x40)\n      tag_39\n      swap2\n      swap1\n      tag_31\n      jump\t// in\n    tag_39:\n      0x00\n      mload(0x40)\n      dup1\n      dup4\n      sub\n      dup2\n      dup6\n      gas\n      delegatecall\n      swap2\n      pop\n      pop\n      returndatasize\n      dup1\n      0x00\n      dup2\n      eq\n      tag_42\n      jumpi\n      mload(0x40)\n      swap2\n      pop\n      and(add(returndatasize, 0x3f), not(0x1f))\n      dup3\n      add\n      0x40\n      mstore\n      returndatasize\n      dup3\n      mstore\n      returndatasize\n      0x00\n      0x20\n      dup5\n      add\n      returndatacopy\n      jump(tag_41)\n    tag_42:\n      0x60\n      swap2\n      pop\n    tag_41:\n      pop\n        /* \"contracts/Lowlevel.sol\":501:614  (bool success, ) = _otherContract.delegatecall(... */\n      pop\n      swap1\n      pop\n        /* \"contracts/Lowlevel.sol\":633:640  success */\n      dup1\n        /* \"contracts/Lowlevel.sol\":625:664  require(success, \"Delegatecall failed\") */\n      tag_43\n      jumpi\n      mload(0x40)\n      0x08c379a000000000000000000000000000000000000000000000000000000000\n      dup2\n      mstore\n      0x04\n      add\n      tag_44\n      swap1\n      tag_45\n      jump\t// in\n    tag_44:\n      mload(0x40)\n      dup1\n      swap2\n      sub\n      swap1\n      revert\n    tag_43:\n        /* \"contracts/Lowlevel.sol\":413:672  {... */\n      pop\n        /* \"contracts/Lowlevel.sol\":349:672  function delegateToOtherContract(address _otherContract) public {... */\n      pop\n      jump\t// out\n        /* \"#utility.yul\":88:205   */\n    tag_47:\n        /* \"#utility.yul\":197:198   */\n      0x00\n        /* \"#utility.yul\":194:195   */\n      dup1\n        /* \"#utility.yul\":187:199   */\n      revert\n        /* \"#utility.yul\":334:460   */\n    tag_49:\n        /* \"#utility.yul\":371:378   */\n      0x00\n        /* \"#utility.yul\":411:453   */\n      0xffffffffffffffffffffffffffffffffffffffff\n        /* \"#utility.yul\":404:409   */\n      dup3\n        /* \"#utility.yul\":400:454   */\n      and\n        /* \"#utility.yul\":389:454   */\n      swap1\n      pop\n        /* \"#utility.yul\":334:460   */\n      swap2\n      swap1\n      pop\n      jump\t// out\n        /* \"#utility.yul\":466:570   */\n    tag_50:\n        /* \"#utility.yul\":511:518   */\n      0x00\n        /* \"#utility.yul\":540:564   */\n      tag_78\n        /* \"#utility.yul\":558:563   */\n      dup3\n        /* \"#utility.yul\":540:564   */\n      tag_49\n      jump\t// in\n    tag_78:\n        /* \"#utility.yul\":529:564   */\n      swap1\n      pop\n        /* \"#utility.yul\":466:570   */\n      swap2\n      swap1\n      pop\n      jump\t// out\n        /* \"#utility.yul\":576:714   */\n    tag_51:\n        /* \"#utility.yul\":657:689   */\n      tag_80\n        /* \"#utility.yul\":683:688   */\n      dup2\n        /* \"#utility.yul\":657:689   */\n      tag_50\n      jump\t// in\n    tag_80:\n        /* \"#utility.yul\":650:655   */\n      dup2\n        /* \"#utility.yul\":647:690   */\n      eq\n        /* \"#utility.yul\":637:708   */\n      tag_81\n      jumpi\n        /* \"#utility.yul\":704:705   */\n      0x00\n        /* \"#utility.yul\":701:702   */\n      dup1\n        /* \"#utility.yul\":694:706   */\n      revert\n        /* \"#utility.yul\":637:708   */\n    tag_81:\n        /* \"#utility.yul\":576:714   */\n      pop\n      jump\t// out\n        /* \"#utility.yul\":720:875   */\n    tag_52:\n        /* \"#utility.yul\":774:779   */\n      0x00\n        /* \"#utility.yul\":812:818   */\n      dup2\n        /* \"#utility.yul\":799:819   */\n      calldataload\n        /* \"#utility.yul\":790:819   */\n      swap1\n      pop\n        /* \"#utility.yul\":828:869   */\n      tag_83\n        /* \"#utility.yul\":863:868   */\n      dup2\n        /* \"#utility.yul\":828:869   */\n      tag_51\n      jump\t// in\n    tag_83:\n        /* \"#utility.yul\":720:875   */\n      swap3\n      swap2\n      pop\n      pop\n      jump\t// out\n        /* \"#utility.yul\":881:1226   */\n    tag_7:\n        /* \"#utility.yul\":948:954   */\n      0x00\n        /* \"#utility.yul\":997:999   */\n      0x20\n        /* \"#utility.yul\":985:994   */\n      dup3\n        /* \"#utility.yul\":976:983   */\n      dup5\n        /* \"#utility.yul\":972:995   */\n      sub\n        /* \"#utility.yul\":968:1000   */\n      slt\n        /* \"#utility.yul\":965:1084   */\n      iszero\n      tag_85\n      jumpi\n        /* \"#utility.yul\":1003:1082   */\n      tag_86\n      tag_47\n      jump\t// in\n    tag_86:\n        /* \"#utility.yul\":965:1084   */\n    tag_85:\n        /* \"#utility.yul\":1123:1124   */\n      0x00\n        /* \"#utility.yul\":1148:1209   */\n      tag_87\n        /* \"#utility.yul\":1201:1208   */\n      dup5\n        /* \"#utility.yul\":1192:1198   */\n      dup3\n        /* \"#utility.yul\":1181:1190   */\n      dup6\n        /* \"#utility.yul\":1177:1199   */\n      add\n        /* \"#utility.yul\":1148:1209   */\n      tag_52\n      jump\t// in\n    tag_87:\n        /* \"#utility.yul\":1138:1209   */\n      swap2\n      pop\n        /* \"#utility.yul\":1094:1219   */\n      pop\n        /* \"#utility.yul\":881:1226   */\n      swap3\n      swap2\n      pop\n      pop\n      jump\t// out\n        /* \"#utility.yul\":1232:1328   */\n    tag_53:\n        /* \"#utility.yul\":1269:1276   */\n      0x00\n        /* \"#utility.yul\":1298:1322   */\n      tag_89\n        /* \"#utility.yul\":1316:1321   */\n      dup3\n        /* \"#utility.yul\":1298:1322   */\n      tag_49\n      jump\t// in\n    tag_89:\n        /* \"#utility.yul\":1287:1322   */\n      swap1\n      pop\n        /* \"#utility.yul\":1232:1328   */\n      swap2\n      swap1\n      pop\n      jump\t// out\n        /* \"#utility.yul\":1334:1456   */\n    tag_54:\n        /* \"#utility.yul\":1407:1431   */\n      tag_91\n        /* \"#utility.yul\":1425:1430   */\n      dup2\n        /* \"#utility.yul\":1407:1431   */\n      tag_53\n      jump\t// in\n    tag_91:\n        /* \"#utility.yul\":1400:1405   */\n      dup2\n        /* \"#utility.yul\":1397:1432   */\n      eq\n        /* \"#utility.yul\":1387:1450   */\n      tag_92\n      jumpi\n        /* \"#utility.yul\":1446:1447   */\n      0x00\n        /* \"#utility.yul\":1443:1444   */\n      dup1\n        /* \"#utility.yul\":1436:1448   */\n      revert\n        /* \"#utility.yul\":1387:1450   */\n    tag_92:\n        /* \"#utility.yul\":1334:1456   */\n      pop\n      jump\t// out\n        /* \"#utility.yul\":1462:1601   */\n    tag_55:\n        /* \"#utility.yul\":1508:1513   */\n      0x00\n        /* \"#utility.yul\":1546:1552   */\n      dup2\n        /* \"#utility.yul\":1533:1553   */\n      calldataload\n        /* \"#utility.yul\":1524:1553   */\n      swap1\n      pop\n        /* \"#utility.yul\":1562:1595   */\n      tag_94\n        /* \"#utility.yul\":1589:1594   */\n      dup2\n        /* \"#utility.yul\":1562:1595   */\n      tag_54\n      jump\t// in\n    tag_94:\n        /* \"#utility.yul\":1462:1601   */\n      swap3\n      swap2\n      pop\n      pop\n      jump\t// out\n        /* \"#utility.yul\":1607:1936   */\n    tag_12:\n        /* \"#utility.yul\":1666:1672   */\n      0x00\n        /* \"#utility.yul\":1715:1717   */\n      0x20\n        /* \"#utility.yul\":1703:1712   */\n      dup3\n        /* \"#utility.yul\":1694:1701   */\n      dup5\n        /* \"#utility.yul\":1690:1713   */\n      sub\n        /* \"#utility.yul\":1686:1718   */\n      slt\n        /* \"#utility.yul\":1683:1802   */\n      iszero\n      tag_96\n      jumpi\n        /* \"#utility.yul\":1721:1800   */\n      tag_97\n      tag_47\n      jump\t// in\n    tag_97:\n        /* \"#utility.yul\":1683:1802   */\n    tag_96:\n        /* \"#utility.yul\":1841:1842   */\n      0x00\n        /* \"#utility.yul\":1866:1919   */\n      tag_98\n        /* \"#utility.yul\":1911:1918   */\n      dup5\n        /* \"#utility.yul\":1902:1908   */\n      dup3\n        /* \"#utility.yul\":1891:1900   */\n      dup6\n        /* \"#utility.yul\":1887:1909   */\n      add\n        /* \"#utility.yul\":1866:1919   */\n      tag_55\n      jump\t// in\n    tag_98:\n        /* \"#utility.yul\":1856:1919   */\n      swap2\n      pop\n        /* \"#utility.yul\":1812:1929   */\n      pop\n        /* \"#utility.yul\":1607:1936   */\n      swap3\n      swap2\n      pop\n      pop\n      jump\t// out\n        /* \"#utility.yul\":1942:2040   */\n    tag_56:\n        /* \"#utility.yul\":1993:1999   */\n      0x00\n        /* \"#utility.yul\":2027:2032   */\n      dup2\n        /* \"#utility.yul\":2021:2033   */\n      mload\n        /* \"#utility.yul\":2011:2033   */\n      swap1\n      pop\n        /* \"#utility.yul\":1942:2040   */\n      swap2\n      swap1\n      pop\n      jump\t// out\n        /* \"#utility.yul\":2046:2214   */\n    tag_57:\n        /* \"#utility.yul\":2129:2140   */\n      0x00\n        /* \"#utility.yul\":2163:2169   */\n      dup3\n        /* \"#utility.yul\":2158:2161   */\n      dup3\n        /* \"#utility.yul\":2151:2170   */\n      mstore\n        /* \"#utility.yul\":2203:2207   */\n      0x20\n        /* \"#utility.yul\":2198:2201   */\n      dup3\n        /* \"#utility.yul\":2194:2208   */\n      add\n        /* \"#utility.yul\":2179:2208   */\n      swap1\n      pop\n        /* \"#utility.yul\":2046:2214   */\n      swap3\n      swap2\n      pop\n      pop\n      jump\t// out\n        /* \"#utility.yul\":2220:2527   */\n    tag_58:\n        /* \"#utility.yul\":2288:2289   */\n      0x00\n        /* \"#utility.yul\":2298:2411   */\n    tag_102:\n        /* \"#utility.yul\":2312:2318   */\n      dup4\n        /* \"#utility.yul\":2309:2310   */\n      dup2\n        /* \"#utility.yul\":2306:2319   */\n      lt\n        /* \"#utility.yul\":2298:2411   */\n      iszero\n      tag_104\n      jumpi\n        /* \"#utility.yul\":2397:2398   */\n      dup1\n        /* \"#utility.yul\":2392:2395   */\n      dup3\n        /* \"#utility.yul\":2388:2399   */\n      add\n        /* \"#utility.yul\":2382:2400   */\n      mload\n        /* \"#utility.yul\":2378:2379   */\n      dup2\n        /* \"#utility.yul\":2373:2376   */\n      dup5\n        /* \"#utility.yul\":2369:2380   */\n      add\n        /* \"#utility.yul\":2362:2401   */\n      mstore\n        /* \"#utility.yul\":2334:2336   */\n      0x20\n        /* \"#utility.yul\":2331:2332   */\n      dup2\n        /* \"#utility.yul\":2327:2337   */\n      add\n        /* \"#utility.yul\":2322:2337   */\n      swap1\n      pop\n        /* \"#utility.yul\":2298:2411   */\n      jump(tag_102)\n    tag_104:\n        /* \"#utility.yul\":2429:2435   */\n      dup4\n        /* \"#utility.yul\":2426:2427   */\n      dup2\n        /* \"#utility.yul\":2423:2436   */\n      gt\n        /* \"#utility.yul\":2420:2521   */\n      iszero\n      tag_105\n      jumpi\n        /* \"#utility.yul\":2509:2510   */\n      0x00\n        /* \"#utility.yul\":2500:2506   */\n      dup5\n        /* \"#utility.yul\":2495:2498   */\n      dup5\n        /* \"#utility.yul\":2491:2507   */\n      add\n        /* \"#utility.yul\":2484:2511   */\n      mstore\n        /* \"#utility.yul\":2420:2521   */\n    tag_105:\n        /* \"#utility.yul\":2269:2527   */\n      pop\n        /* \"#utility.yul\":2220:2527   */\n      pop\n      pop\n      pop\n      jump\t// out\n        /* \"#utility.yul\":2533:2635   */\n    tag_59:\n        /* \"#utility.yul\":2574:2580   */\n      0x00\n        /* \"#utility.yul\":2625:2627   */\n      0x1f\n        /* \"#utility.yul\":2621:2628   */\n      not\n        /* \"#utility.yul\":2616:2618   */\n      0x1f\n        /* \"#utility.yul\":2609:2614   */\n      dup4\n        /* \"#utility.yul\":2605:2619   */\n      add\n        /* \"#utility.yul\":2601:2629   */\n      and\n        /* \"#utility.yul\":2591:2629   */\n      swap1\n      pop\n        /* \"#utility.yul\":2533:2635   */\n      swap2\n      swap1\n      pop\n      jump\t// out\n        /* \"#utility.yul\":2641:3001   */\n    tag_60:\n        /* \"#utility.yul\":2727:2730   */\n      0x00\n        /* \"#utility.yul\":2755:2793   */\n      tag_108\n        /* \"#utility.yul\":2787:2792   */\n      dup3\n        /* \"#utility.yul\":2755:2793   */\n      tag_56\n      jump\t// in\n    tag_108:\n        /* \"#utility.yul\":2809:2879   */\n      tag_109\n        /* \"#utility.yul\":2872:2878   */\n      dup2\n        /* \"#utility.yul\":2867:2870   */\n      dup6\n        /* \"#utility.yul\":2809:2879   */\n      tag_57\n      jump\t// in\n    tag_109:\n        /* \"#utility.yul\":2802:2879   */\n      swap4\n      pop\n        /* \"#utility.yul\":2888:2940   */\n      tag_110\n        /* \"#utility.yul\":2933:2939   */\n      dup2\n        /* \"#utility.yul\":2928:2931   */\n      dup6\n        /* \"#utility.yul\":2921:2925   */\n      0x20\n        /* \"#utility.yul\":2914:2919   */\n      dup7\n        /* \"#utility.yul\":2910:2926   */\n      add\n        /* \"#utility.yul\":2888:2940   */\n      tag_58\n      jump\t// in\n    tag_110:\n        /* \"#utility.yul\":2965:2994   */\n      tag_111\n        /* \"#utility.yul\":2987:2993   */\n      dup2\n        /* \"#utility.yul\":2965:2994   */\n      tag_59\n      jump\t// in\n    tag_111:\n        /* \"#utility.yul\":2960:2963   */\n      dup5\n        /* \"#utility.yul\":2956:2995   */\n      add\n        /* \"#utility.yul\":2949:2995   */\n      swap2\n      pop\n        /* \"#utility.yul\":2731:3001   */\n      pop\n        /* \"#utility.yul\":2641:3001   */\n      swap3\n      swap2\n      pop\n      pop\n      jump\t// out\n        /* \"#utility.yul\":3007:3316   */\n    tag_15:\n        /* \"#utility.yul\":3118:3122   */\n      0x00\n        /* \"#utility.yul\":3156:3158   */\n      0x20\n        /* \"#utility.yul\":3145:3154   */\n      dup3\n        /* \"#utility.yul\":3141:3159   */\n      add\n        /* \"#utility.yul\":3133:3159   */\n      swap1\n      pop\n        /* \"#utility.yul\":3205:3214   */\n      dup2\n        /* \"#utility.yul\":3199:3203   */\n      dup2\n        /* \"#utility.yul\":3195:3215   */\n      sub\n        /* \"#utility.yul\":3191:3192   */\n      0x00\n        /* \"#utility.yul\":3180:3189   */\n      dup4\n        /* \"#utility.yul\":3176:3193   */\n      add\n        /* \"#utility.yul\":3169:3216   */\n      mstore\n        /* \"#utility.yul\":3233:3309   */\n      tag_113\n        /* \"#utility.yul\":3304:3308   */\n      dup2\n        /* \"#utility.yul\":3295:3301   */\n      dup5\n        /* \"#utility.yul\":3233:3309   */\n      tag_60\n      jump\t// in\n    tag_113:\n        /* \"#utility.yul\":3225:3309   */\n      swap1\n      pop\n        /* \"#utility.yul\":3007:3316   */\n      swap3\n      swap2\n      pop\n      pop\n      jump\t// out\n        /* \"#utility.yul\":3322:3469   */\n    tag_61:\n        /* \"#utility.yul\":3423:3434   */\n      0x00\n        /* \"#utility.yul\":3460:3463   */\n      dup2\n        /* \"#utility.yul\":3445:3463   */\n      swap1\n      pop\n        /* \"#utility.yul\":3322:3469   */\n      swap3\n      swap2\n      pop\n      pop\n      jump\t// out\n        /* \"#utility.yul\":3475:3589   */\n    tag_62:\n      pop\n      jump\t// out\n        /* \"#utility.yul\":3595:3993   */\n    tag_63:\n        /* \"#utility.yul\":3754:3757   */\n      0x00\n        /* \"#utility.yul\":3775:3858   */\n      tag_117\n        /* \"#utility.yul\":3856:3857   */\n      0x00\n        /* \"#utility.yul\":3851:3854   */\n      dup4\n        /* \"#utility.yul\":3775:3858   */\n      tag_61\n      jump\t// in\n    tag_117:\n        /* \"#utility.yul\":3768:3858   */\n      swap2\n      pop\n        /* \"#utility.yul\":3867:3960   */\n      tag_118\n        /* \"#utility.yul\":3956:3959   */\n      dup3\n        /* \"#utility.yul\":3867:3960   */\n      tag_62\n      jump\t// in\n    tag_118:\n        /* \"#utility.yul\":3985:3986   */\n      0x00\n        /* \"#utility.yul\":3980:3983   */\n      dup3\n        /* \"#utility.yul\":3976:3987   */\n      add\n        /* \"#utility.yul\":3969:3987   */\n      swap1\n      pop\n        /* \"#utility.yul\":3595:3993   */\n      swap2\n      swap1\n      pop\n      jump\t// out\n        /* \"#utility.yul\":3999:4378   */\n    tag_22:\n        /* \"#utility.yul\":4183:4186   */\n      0x00\n        /* \"#utility.yul\":4205:4352   */\n      tag_120\n        /* \"#utility.yul\":4348:4351   */\n      dup3\n        /* \"#utility.yul\":4205:4352   */\n      tag_63\n      jump\t// in\n    tag_120:\n        /* \"#utility.yul\":4198:4352   */\n      swap2\n      pop\n        /* \"#utility.yul\":4369:4372   */\n      dup2\n        /* \"#utility.yul\":4362:4372   */\n      swap1\n      pop\n        /* \"#utility.yul\":3999:4378   */\n      swap2\n      swap1\n      pop\n      jump\t// out\n        /* \"#utility.yul\":4384:4553   */\n    tag_64:\n        /* \"#utility.yul\":4468:4479   */\n      0x00\n        /* \"#utility.yul\":4502:4508   */\n      dup3\n        /* \"#utility.yul\":4497:4500   */\n      dup3\n        /* \"#utility.yul\":4490:4509   */\n      mstore\n        /* \"#utility.yul\":4542:4546   */\n      0x20\n        /* \"#utility.yul\":4537:4540   */\n      dup3\n        /* \"#utility.yul\":4533:4547   */\n      add\n        /* \"#utility.yul\":4518:4547   */\n      swap1\n      pop\n        /* \"#utility.yul\":4384:4553   */\n      swap3\n      swap2\n      pop\n      pop\n      jump\t// out\n        /* \"#utility.yul\":4559:4720   */\n    tag_65:\n        /* \"#utility.yul\":4699:4712   */\n      0x43616c6c206661696c6564000000000000000000000000000000000000000000\n        /* \"#utility.yul\":4695:4696   */\n      0x00\n        /* \"#utility.yul\":4687:4693   */\n      dup3\n        /* \"#utility.yul\":4683:4697   */\n      add\n        /* \"#utility.yul\":4676:4713   */\n      mstore\n        /* \"#utility.yul\":4559:4720   */\n      pop\n      jump\t// out\n        /* \"#utility.yul\":4726:5092   */\n    tag_66:\n        /* \"#utility.yul\":4868:4871   */\n      0x00\n        /* \"#utility.yul\":4889:4956   */\n      tag_124\n        /* \"#utility.yul\":4953:4955   */\n      0x0b\n        /* \"#utility.yul\":4948:4951   */\n      dup4\n        /* \"#utility.yul\":4889:4956   */\n      tag_64\n      jump\t// in\n    tag_124:\n        /* \"#utility.yul\":4882:4956   */\n      swap2\n      pop\n        /* \"#utility.yul\":4965:5058   */\n      tag_125\n        /* \"#utility.yul\":5054:5057   */\n      dup3\n        /* \"#utility.yul\":4965:5058   */\n      tag_65\n      jump\t// in\n    tag_125:\n        /* \"#utility.yul\":5083:5085   */\n      0x20\n        /* \"#utility.yul\":5078:5081   */\n      dup3\n        /* \"#utility.yul\":5074:5086   */\n      add\n        /* \"#utility.yul\":5067:5086   */\n      swap1\n      pop\n        /* \"#utility.yul\":4726:5092   */\n      swap2\n      swap1\n      pop\n      jump\t// out\n        /* \"#utility.yul\":5098:5517   */\n    tag_28:\n        /* \"#utility.yul\":5264:5268   */\n      0x00\n        /* \"#utility.yul\":5302:5304   */\n      0x20\n        /* \"#utility.yul\":5291:5300   */\n      dup3\n        /* \"#utility.yul\":5287:5305   */\n      add\n        /* \"#utility.yul\":5279:5305   */\n      swap1\n      pop\n        /* \"#utility.yul\":5351:5360   */\n      dup2\n        /* \"#utility.yul\":5345:5349   */\n      dup2\n        /* \"#utility.yul\":5341:5361   */\n      sub\n        /* \"#utility.yul\":5337:5338   */\n      0x00\n        /* \"#utility.yul\":5326:5335   */\n      dup4\n        /* \"#utility.yul\":5322:5339   */\n      add\n        /* \"#utility.yul\":5315:5362   */\n      mstore\n        /* \"#utility.yul\":5379:5510   */\n      tag_127\n        /* \"#utility.yul\":5505:5509   */\n      dup2\n        /* \"#utility.yul\":5379:5510   */\n      tag_66\n      jump\t// in\n    tag_127:\n        /* \"#utility.yul\":5371:5510   */\n      swap1\n      pop\n        /* \"#utility.yul\":5098:5517   */\n      swap2\n      swap1\n      pop\n      jump\t// out\n        /* \"#utility.yul\":5523:5896   */\n    tag_67:\n        /* \"#utility.yul\":5627:5630   */\n      0x00\n        /* \"#utility.yul\":5655:5693   */\n      tag_129\n        /* \"#utility.yul\":5687:5692   */\n      dup3\n        /* \"#utility.yul\":5655:5693   */\n      tag_56\n      jump\t// in\n    tag_129:\n        /* \"#utility.yul\":5709:5797   */\n      tag_130\n        /* \"#utility.yul\":5790:5796   */\n      dup2\n        /* \"#utility.yul\":5785:5788   */\n      dup6\n        /* \"#utility.yul\":5709:5797   */\n      tag_61\n      jump\t// in\n    tag_130:\n        /* \"#utility.yul\":5702:5797   */\n      swap4\n      pop\n        /* \"#utility.yul\":5806:5858   */\n      tag_131\n        /* \"#utility.yul\":5851:5857   */\n      dup2\n        /* \"#utility.yul\":5846:5849   */\n      dup6\n        /* \"#utility.yul\":5839:5843   */\n      0x20\n        /* \"#utility.yul\":5832:5837   */\n      dup7\n        /* \"#utility.yul\":5828:5844   */\n      add\n        /* \"#utility.yul\":5806:5858   */\n      tag_58\n      jump\t// in\n    tag_131:\n        /* \"#utility.yul\":5883:5889   */\n      dup1\n        /* \"#utility.yul\":5878:5881   */\n      dup5\n        /* \"#utility.yul\":5874:5890   */\n      add\n        /* \"#utility.yul\":5867:5890   */\n      swap2\n      pop\n        /* \"#utility.yul\":5631:5896   */\n      pop\n        /* \"#utility.yul\":5523:5896   */\n      swap3\n      swap2\n      pop\n      pop\n      jump\t// out\n        /* \"#utility.yul\":5902:6173   */\n    tag_31:\n        /* \"#utility.yul\":6032:6035   */\n      0x00\n        /* \"#utility.yul\":6054:6147   */\n      tag_133\n        /* \"#utility.yul\":6143:6146   */\n      dup3\n        /* \"#utility.yul\":6134:6140   */\n      dup5\n        /* \"#utility.yul\":6054:6147   */\n      tag_67\n      jump\t// in\n    tag_133:\n        /* \"#utility.yul\":6047:6147   */\n      swap2\n      pop\n        /* \"#utility.yul\":6164:6167   */\n      dup2\n        /* \"#utility.yul\":6157:6167   */\n      swap1\n      pop\n        /* \"#utility.yul\":5902:6173   */\n      swap3\n      swap2\n      pop\n      pop\n      jump\t// out\n        /* \"#utility.yul\":6179:6346   */\n    tag_68:\n        /* \"#utility.yul\":6319:6338   */\n      0x53746174696363616c6c206661696c6564000000000000000000000000000000\n        /* \"#utility.yul\":6315:6316   */\n      0x00\n        /* \"#utility.yul\":6307:6313   */\n      dup3\n        /* \"#utility.yul\":6303:6317   */\n      add\n        /* \"#utility.yul\":6296:6339   */\n      mstore\n        /* \"#utility.yul\":6179:6346   */\n      pop\n      jump\t// out\n        /* \"#utility.yul\":6352:6718   */\n    tag_69:\n        /* \"#utility.yul\":6494:6497   */\n      0x00\n        /* \"#utility.yul\":6515:6582   */\n      tag_136\n        /* \"#utility.yul\":6579:6581   */\n      0x11\n        /* \"#utility.yul\":6574:6577   */\n      dup4\n        /* \"#utility.yul\":6515:6582   */\n      tag_64\n      jump\t// in\n    tag_136:\n        /* \"#utility.yul\":6508:6582   */\n      swap2\n      pop\n        /* \"#utility.yul\":6591:6684   */\n      tag_137\n        /* \"#utility.yul\":6680:6683   */\n      dup3\n        /* \"#utility.yul\":6591:6684   */\n      tag_68\n      jump\t// in\n    tag_137:\n        /* \"#utility.yul\":6709:6711   */\n      0x20\n        /* \"#utility.yul\":6704:6707   */\n      dup3\n        /* \"#utility.yul\":6700:6712   */\n      add\n        /* \"#utility.yul\":6693:6712   */\n      swap1\n      pop\n        /* \"#utility.yul\":6352:6718   */\n      swap2\n      swap1\n      pop\n      jump\t// out\n        /* \"#utility.yul\":6724:7143   */\n    tag_37:\n        /* \"#utility.yul\":6890:6894   */\n      0x00\n        /* \"#utility.yul\":6928:6930   */\n      0x20\n        /* \"#utility.yul\":6917:6926   */\n      dup3\n        /* \"#utility.yul\":6913:6931   */\n      add\n        /* \"#utility.yul\":6905:6931   */\n      swap1\n      pop\n        /* \"#utility.yul\":6977:6986   */\n      dup2\n        /* \"#utility.yul\":6971:6975   */\n      dup2\n        /* \"#utility.yul\":6967:6987   */\n      sub\n        /* \"#utility.yul\":6963:6964   */\n      0x00\n        /* \"#utility.yul\":6952:6961   */\n      dup4\n        /* \"#utility.yul\":6948:6965   */\n      add\n        /* \"#utility.yul\":6941:6988   */\n      mstore\n        /* \"#utility.yul\":7005:7136   */\n      tag_139\n        /* \"#utility.yul\":7131:7135   */\n      dup2\n        /* \"#utility.yul\":7005:7136   */\n      tag_69\n      jump\t// in\n    tag_139:\n        /* \"#utility.yul\":6997:7136   */\n      swap1\n      pop\n        /* \"#utility.yul\":6724:7143   */\n      swap2\n      swap1\n      pop\n      jump\t// out\n        /* \"#utility.yul\":7149:7318   */\n    tag_70:\n        /* \"#utility.yul\":7289:7310   */\n      0x44656c656761746563616c6c206661696c656400000000000000000000000000\n        /* \"#utility.yul\":7285:7286   */\n      0x00\n        /* \"#utility.yul\":7277:7283   */\n      dup3\n        /* \"#utility.yul\":7273:7287   */\n      add\n        /* \"#utility.yul\":7266:7311   */\n      mstore\n        /* \"#utility.yul\":7149:7318   */\n      pop\n      jump\t// out\n        /* \"#utility.yul\":7324:7690   */\n    tag_71:\n        /* \"#utility.yul\":7466:7469   */\n      0x00\n        /* \"#utility.yul\":7487:7554   */\n      tag_142\n        /* \"#utility.yul\":7551:7553   */\n      0x13\n        /* \"#utility.yul\":7546:7549   */\n      dup4\n        /* \"#utility.yul\":7487:7554   */\n      tag_64\n      jump\t// in\n    tag_142:\n        /* \"#utility.yul\":7480:7554   */\n      swap2\n      pop\n        /* \"#utility.yul\":7563:7656   */\n      tag_143\n        /* \"#utility.yul\":7652:7655   */\n      dup3\n        /* \"#utility.yul\":7563:7656   */\n      tag_70\n      jump\t// in\n    tag_143:\n        /* \"#utility.yul\":7681:7683   */\n      0x20\n        /* \"#utility.yul\":7676:7679   */\n      dup3\n        /* \"#utility.yul\":7672:7684   */\n      add\n        /* \"#utility.yul\":7665:7684   */\n      swap1\n      pop\n        /* \"#utility.yul\":7324:7690   */\n      swap2\n      swap1\n      pop\n      jump\t// out\n        /* \"#utility.yul\":7696:8115   */\n    tag_45:\n        /* \"#utility.yul\":7862:7866   */\n      0x00\n        /* \"#utility.yul\":7900:7902   */\n      0x20\n        /* \"#utility.yul\":7889:7898   */\n      dup3\n        /* \"#utility.yul\":7885:7903   */\n      add\n        /* \"#utility.yul\":7877:7903   */\n      swap1\n      pop\n        /* \"#utility.yul\":7949:7958   */\n      dup2\n        /* \"#utility.yul\":7943:7947   */\n      dup2\n        /* \"#utility.yul\":7939:7959   */\n      sub\n        /* \"#utility.yul\":7935:7936   */\n      0x00\n        /* \"#utility.yul\":7924:7933   */\n      dup4\n        /* \"#utility.yul\":7920:7937   */\n      add\n        /* \"#utility.yul\":7913:7960   */\n      mstore\n        /* \"#utility.yul\":7977:8108   */\n      tag_145\n        /* \"#utility.yul\":8103:8107   */\n      dup2\n        /* \"#utility.yul\":7977:8108   */\n      tag_71\n      jump\t// in\n    tag_145:\n        /* \"#utility.yul\":7969:8108   */\n      swap1\n      pop\n        /* \"#utility.yul\":7696:8115   */\n      swap2\n      swap1\n      pop\n      jump\t// out\n\n    auxdata: 0xa2646970667358221220fe679fba600c8980c4bda1e91a96e509bb44e86dae1a47ba7ded97eea1cb2f1964736f6c634300080f0033\n}\n",
				"bytecode": {
					"linkReferences": {},
					"object": "608060405234801561001057600080fd5b506107a6806100206000396000f3fe6080604052600436106100345760003560e01c806348c981e2146100395780634973d4851461005557806369dff55f14610092575b600080fd5b610053600480360381019061004e919061043a565b6100bb565b005b34801561006157600080fd5b5061007c600480360381019061007791906104a5565b61016b565b604051610089919061056b565b60405180910390f35b34801561009e57600080fd5b506100b960048036038101906100b491906104a5565b6102a6565b005b60008173ffffffffffffffffffffffffffffffffffffffff16346040516100e1906105be565b60006040518083038185875af1925050503d806000811461011e576040519150601f19603f3d011682016040523d82523d6000602084013e610123565b606091505b5050905080610167576040517f08c379a000000000000000000000000000000000000000000000000000000000815260040161015e90610630565b60405180910390fd5b5050565b60606000808373ffffffffffffffffffffffffffffffffffffffff166040516024016040516020818303038152906040527fe6f87dd5000000000000000000000000000000000000000000000000000000007bffffffffffffffffffffffffffffffffffffffffffffffffffffffff19166020820180517bffffffffffffffffffffffffffffffffffffffffffffffffffffffff83818316178352505050506040516102179190610681565b600060405180830381855afa9150503d8060008114610252576040519150601f19603f3d011682016040523d82523d6000602084013e610257565b606091505b50915091508161029c576040517f08c379a0000000000000000000000000000000000000000000000000000000008152600401610293906106e4565b60405180910390fd5b8092505050919050565b60008173ffffffffffffffffffffffffffffffffffffffff166040516024016040516020818303038152906040527f35b09a6e000000000000000000000000000000000000000000000000000000007bffffffffffffffffffffffffffffffffffffffffffffffffffffffff19166020820180517bffffffffffffffffffffffffffffffffffffffffffffffffffffffff838183161783525050505060405161034f9190610681565b600060405180830381855af49150503d806000811461038a576040519150601f19603f3d011682016040523d82523d6000602084013e61038f565b606091505b50509050806103d3576040517f08c379a00000000000000000000000000000000000000000000000000000000081526004016103ca90610750565b60405180910390fd5b5050565b600080fd5b600073ffffffffffffffffffffffffffffffffffffffff82169050919050565b6000610407826103dc565b9050919050565b610417816103fc565b811461042257600080fd5b50565b6000813590506104348161040e565b92915050565b6000602082840312156104505761044f6103d7565b5b600061045e84828501610425565b91505092915050565b6000610472826103dc565b9050919050565b61048281610467565b811461048d57600080fd5b50565b60008135905061049f81610479565b92915050565b6000602082840312156104bb576104ba6103d7565b5b60006104c984828501610490565b91505092915050565b600081519050919050565b600082825260208201905092915050565b60005b8381101561050c5780820151818401526020810190506104f1565b8381111561051b576000848401525b50505050565b6000601f19601f8301169050919050565b600061053d826104d2565b61054781856104dd565b93506105578185602086016104ee565b61056081610521565b840191505092915050565b600060208201905081810360008301526105858184610532565b905092915050565b600081905092915050565b50565b60006105a860008361058d565b91506105b382610598565b600082019050919050565b60006105c98261059b565b9150819050919050565b600082825260208201905092915050565b7f43616c6c206661696c6564000000000000000000000000000000000000000000600082015250565b600061061a600b836105d3565b9150610625826105e4565b602082019050919050565b600060208201905081810360008301526106498161060d565b9050919050565b600061065b826104d2565b610665818561058d565b93506106758185602086016104ee565b80840191505092915050565b600061068d8284610650565b915081905092915050565b7f53746174696363616c6c206661696c6564000000000000000000000000000000600082015250565b60006106ce6011836105d3565b91506106d982610698565b602082019050919050565b600060208201905081810360008301526106fd816106c1565b9050919050565b7f44656c656761746563616c6c206661696c656400000000000000000000000000600082015250565b600061073a6013836105d3565b915061074582610704565b602082019050919050565b600060208201905081810360008301526107698161072d565b905091905056fea2646970667358221220fe679fba600c8980c4bda1e91a96e509bb44e86dae1a47ba7ded97eea1cb2f1964736f6c634300080f0033",
					"opcodes": "PUSH1 0x80 PUSH1 0x40 MSTORE CALLVALUE DUP1 ISZERO PUSH2 0x10 JUMPI PUSH1 0x0 DUP1 REVERT JUMPDEST POP PUSH2 0x7A6 DUP1 PUSH2 0x20 PUSH1 0x0 CODECOPY PUSH1 0x0 RETURN INVALID PUSH1 0x80 PUSH1 0x40 MSTORE PUSH1 0x4 CALLDATASIZE LT PUSH2 0x34 JUMPI PUSH1 0x0 CALLDATALOAD PUSH1 0xE0 SHR DUP1 PUSH4 0x48C981E2 EQ PUSH2 0x39 JUMPI DUP1 PUSH4 0x4973D485 EQ PUSH2 0x55 JUMPI DUP1 PUSH4 0x69DFF55F EQ PUSH2 0x92 JUMPI JUMPDEST PUSH1 0x0 DUP1 REVERT JUMPDEST PUSH2 0x53 PUSH1 0x4 DUP1 CALLDATASIZE SUB DUP2 ADD SWAP1 PUSH2 0x4E SWAP2 SWAP1 PUSH2 0x43A JUMP JUMPDEST PUSH2 0xBB JUMP JUMPDEST STOP JUMPDEST CALLVALUE DUP1 ISZERO PUSH2 0x61 JUMPI PUSH1 0x0 DUP1 REVERT JUMPDEST POP PUSH2 0x7C PUSH1 0x4 DUP1 CALLDATASIZE SUB DUP2 ADD SWAP1 PUSH2 0x77 SWAP2 SWAP1 PUSH2 0x4A5 JUMP JUMPDEST PUSH2 0x16B JUMP JUMPDEST PUSH1 0x40 MLOAD PUSH2 0x89 SWAP2 SWAP1 PUSH2 0x56B JUMP JUMPDEST PUSH1 0x40 MLOAD DUP1 SWAP2 SUB SWAP1 RETURN JUMPDEST CALLVALUE DUP1 ISZERO PUSH2 0x9E JUMPI PUSH1 0x0 DUP1 REVERT JUMPDEST POP PUSH2 0xB9 PUSH1 0x4 DUP1 CALLDATASIZE SUB DUP2 ADD SWAP1 PUSH2 0xB4 SWAP2 SWAP1 PUSH2 0x4A5 JUMP JUMPDEST PUSH2 0x2A6 JUMP JUMPDEST STOP JUMPDEST PUSH1 0x0 DUP2 PUSH20 0xFFFFFFFFFFFFFFFFFFFFFFFFFFFFFFFFFFFFFFFF AND CALLVALUE PUSH1 0x40 MLOAD PUSH2 0xE1 SWAP1 PUSH2 0x5BE JUMP JUMPDEST PUSH1 0x0 PUSH1 0x40 MLOAD DUP1 DUP4 SUB DUP2 DUP6 DUP8 GAS CALL SWAP3 POP POP POP RETURNDATASIZE DUP1 PUSH1 0x0 DUP2 EQ PUSH2 0x11E JUMPI PUSH1 0x40 MLOAD SWAP2 POP PUSH1 0x1F NOT PUSH1 0x3F RETURNDATASIZE ADD AND DUP3 ADD PUSH1 0x40 MSTORE RETURNDATASIZE DUP3 MSTORE RETURNDATASIZE PUSH1 0x0 PUSH1 0x20 DUP5 ADD RETURNDATACOPY PUSH2 0x123 JUMP JUMPDEST PUSH1 0x60 SWAP2 POP JUMPDEST POP POP SWAP1 POP DUP1 PUSH2 0x167 JUMPI PUSH1 0x40 MLOAD PUSH32 0x8C379A000000000000000000000000000000000000000000000000000000000 DUP2 MSTORE PUSH1 0x4 ADD PUSH2 0x15E SWAP1 PUSH2 0x630 JUMP JUMPDEST PUSH1 0x40 MLOAD DUP1 SWAP2 SUB SWAP1 REVERT JUMPDEST POP POP JUMP JUMPDEST PUSH1 0x60 PUSH1 0x0 DUP1 DUP4 PUSH20 0xFFFFFFFFFFFFFFFFFFFFFFFFFFFFFFFFFFFFFFFF AND PUSH1 0x40 MLOAD PUSH1 0x24 ADD PUSH1 0x40 MLOAD PUSH1 0x20 DUP2 DUP4 SUB SUB DUP2 MSTORE SWAP1 PUSH1 0x40 MSTORE PUSH32 0xE6F87DD500000000000000000000000000000000000000000000000000000000 PUSH28 0xFFFFFFFFFFFFFFFFFFFFFFFFFFFFFFFFFFFFFFFFFFFFFFFFFFFFFFFF NOT AND PUSH1 0x20 DUP3 ADD DUP1 MLOAD PUSH28 0xFFFFFFFFFFFFFFFFFFFFFFFFFFFFFFFFFFFFFFFFFFFFFFFFFFFFFFFF DUP4 DUP2 DUP4 AND OR DUP4 MSTORE POP POP POP POP PUSH1 0x40 MLOAD PUSH2 0x217 SWAP2 SWAP1 PUSH2 0x681 JUMP JUMPDEST PUSH1 0x0 PUSH1 0x40 MLOAD DUP1 DUP4 SUB DUP2 DUP6 GAS STATICCALL SWAP2 POP POP RETURNDATASIZE DUP1 PUSH1 0x0 DUP2 EQ PUSH2 0x252 JUMPI PUSH1 0x40 MLOAD SWAP2 POP PUSH1 0x1F NOT PUSH1 0x3F RETURNDATASIZE ADD AND DUP3 ADD PUSH1 0x40 MSTORE RETURNDATASIZE DUP3 MSTORE RETURNDATASIZE PUSH1 0x0 PUSH1 0x20 DUP5 ADD RETURNDATACOPY PUSH2 0x257 JUMP JUMPDEST PUSH1 0x60 SWAP2 POP JUMPDEST POP SWAP2 POP SWAP2 POP DUP2 PUSH2 0x29C JUMPI PUSH1 0x40 MLOAD PUSH32 0x8C379A000000000000000000000000000000000000000000000000000000000 DUP2 MSTORE PUSH1 0x4 ADD PUSH2 0x293 SWAP1 PUSH2 0x6E4 JUMP JUMPDEST PUSH1 0x40 MLOAD DUP1 SWAP2 SUB SWAP1 REVERT JUMPDEST DUP1 SWAP3 POP POP POP SWAP2 SWAP1 POP JUMP JUMPDEST PUSH1 0x0 DUP2 PUSH20 0xFFFFFFFFFFFFFFFFFFFFFFFFFFFFFFFFFFFFFFFF AND PUSH1 0x40 MLOAD PUSH1 0x24 ADD PUSH1 0x40 MLOAD PUSH1 0x20 DUP2 DUP4 SUB SUB DUP2 MSTORE SWAP1 PUSH1 0x40 MSTORE PUSH32 0x35B09A6E00000000000000000000000000000000000000000000000000000000 PUSH28 0xFFFFFFFFFFFFFFFFFFFFFFFFFFFFFFFFFFFFFFFFFFFFFFFFFFFFFFFF NOT AND PUSH1 0x20 DUP3 ADD DUP1 MLOAD PUSH28 0xFFFFFFFFFFFFFFFFFFFFFFFFFFFFFFFFFFFFFFFFFFFFFFFFFFFFFFFF DUP4 DUP2 DUP4 AND OR DUP4 MSTORE POP POP POP POP PUSH1 0x40 MLOAD PUSH2 0x34F SWAP2 SWAP1 PUSH2 0x681 JUMP JUMPDEST PUSH1 0x0 PUSH1 0x40 MLOAD DUP1 DUP4 SUB DUP2 DUP6 GAS DELEGATECALL SWAP2 POP POP RETURNDATASIZE DUP1 PUSH1 0x0 DUP2 EQ PUSH2 0x38A JUMPI PUSH1 0x40 MLOAD SWAP2 POP PUSH1 0x1F NOT PUSH1 0x3F RETURNDATASIZE ADD AND DUP3 ADD PUSH1 0x40 MSTORE RETURNDATASIZE DUP3 MSTORE RETURNDATASIZE PUSH1 0x0 PUSH1 0x20 DUP5 ADD RETURNDATACOPY PUSH2 0x38F JUMP JUMPDEST PUSH1 0x60 SWAP2 POP JUMPDEST POP POP SWAP1 POP DUP1 PUSH2 0x3D3 JUMPI PUSH1 0x40 MLOAD PUSH32 0x8C379A000000000000000000000000000000000000000000000000000000000 DUP2 MSTORE PUSH1 0x4 ADD PUSH2 0x3CA SWAP1 PUSH2 0x750 JUMP JUMPDEST PUSH1 0x40 MLOAD DUP1 SWAP2 SUB SWAP1 REVERT JUMPDEST POP POP JUMP JUMPDEST PUSH1 0x0 DUP1 REVERT JUMPDEST PUSH1 0x0 PUSH20 0xFFFFFFFFFFFFFFFFFFFFFFFFFFFFFFFFFFFFFFFF DUP3 AND SWAP1 POP SWAP2 SWAP1 POP JUMP JUMPDEST PUSH1 0x0 PUSH2 0x407 DUP3 PUSH2 0x3DC JUMP JUMPDEST SWAP1 POP SWAP2 SWAP1 POP JUMP JUMPDEST PUSH2 0x417 DUP2 PUSH2 0x3FC JUMP JUMPDEST DUP2 EQ PUSH2 0x422 JUMPI PUSH1 0x0 DUP1 REVERT JUMPDEST POP JUMP JUMPDEST PUSH1 0x0 DUP2 CALLDATALOAD SWAP1 POP PUSH2 0x434 DUP2 PUSH2 0x40E JUMP JUMPDEST SWAP3 SWAP2 POP POP JUMP JUMPDEST PUSH1 0x0 PUSH1 0x20 DUP3 DUP5 SUB SLT ISZERO PUSH2 0x450 JUMPI PUSH2 0x44F PUSH2 0x3D7 JUMP JUMPDEST JUMPDEST PUSH1 0x0 PUSH2 0x45E DUP5 DUP3 DUP6 ADD PUSH2 0x425 JUMP JUMPDEST SWAP2 POP POP SWAP3 SWAP2 POP POP JUMP JUMPDEST PUSH1 0x0 PUSH2 0x472 DUP3 PUSH2 0x3DC JUMP JUMPDEST SWAP1 POP SWAP2 SWAP1 POP JUMP JUMPDEST PUSH2 0x482 DUP2 PUSH2 0x467 JUMP JUMPDEST DUP2 EQ PUSH2 0x48D JUMPI PUSH1 0x0 DUP1 REVERT JUMPDEST POP JUMP JUMPDEST PUSH1 0x0 DUP2 CALLDATALOAD SWAP1 POP PUSH2 0x49F DUP2 PUSH2 0x479 JUMP JUMPDEST SWAP3 SWAP2 POP POP JUMP JUMPDEST PUSH1 0x0 PUSH1 0x20 DUP3 DUP5 SUB SLT ISZERO PUSH2 0x4BB JUMPI PUSH2 0x4BA PUSH2 0x3D7 JUMP JUMPDEST JUMPDEST PUSH1 0x0 PUSH2 0x4C9 DUP5 DUP3 DUP6 ADD PUSH2 0x490 JUMP JUMPDEST SWAP2 POP POP SWAP3 SWAP2 POP POP JUMP JUMPDEST PUSH1 0x0 DUP2 MLOAD SWAP1 POP SWAP2 SWAP1 POP JUMP JUMPDEST PUSH1 0x0 DUP3 DUP3 MSTORE PUSH1 0x20 DUP3 ADD SWAP1 POP SWAP3 SWAP2 POP POP JUMP JUMPDEST PUSH1 0x0 JUMPDEST DUP4 DUP2 LT ISZERO PUSH2 0x50C JUMPI DUP1 DUP3 ADD MLOAD DUP2 DUP5 ADD MSTORE PUSH1 0x20 DUP2 ADD SWAP1 POP PUSH2 0x4F1 JUMP JUMPDEST DUP4 DUP2 GT ISZERO PUSH2 0x51B JUMPI PUSH1 0x0 DUP5 DUP5 ADD MSTORE JUMPDEST POP POP POP POP JUMP JUMPDEST PUSH1 0x0 PUSH1 0x1F NOT PUSH1 0x1F DUP4 ADD AND SWAP1 POP SWAP2 SWAP1 POP JUMP JUMPDEST PUSH1 0x0 PUSH2 0x53D DUP3 PUSH2 0x4D2 JUMP JUMPDEST PUSH2 0x547 DUP2 DUP6 PUSH2 0x4DD JUMP JUMPDEST SWAP4 POP PUSH2 0x557 DUP2 DUP6 PUSH1 0x20 DUP7 ADD PUSH2 0x4EE JUMP JUMPDEST PUSH2 0x560 DUP2 PUSH2 0x521 JUMP JUMPDEST DUP5 ADD SWAP2 POP POP SWAP3 SWAP2 POP POP JUMP JUMPDEST PUSH1 0x0 PUSH1 0x20 DUP3 ADD SWAP1 POP DUP2 DUP2 SUB PUSH1 0x0 DUP4 ADD MSTORE PUSH2 0x585 DUP2 DUP5 PUSH2 0x532 JUMP JUMPDEST SWAP1 POP SWAP3 SWAP2 POP POP JUMP JUMPDEST PUSH1 0x0 DUP2 SWAP1 POP SWAP3 SWAP2 POP POP JUMP JUMPDEST POP JUMP JUMPDEST PUSH1 0x0 PUSH2 0x5A8 PUSH1 0x0 DUP4 PUSH2 0x58D JUMP JUMPDEST SWAP2 POP PUSH2 0x5B3 DUP3 PUSH2 0x598 JUMP JUMPDEST PUSH1 0x0 DUP3 ADD SWAP1 POP SWAP2 SWAP1 POP JUMP JUMPDEST PUSH1 0x0 PUSH2 0x5C9 DUP3 PUSH2 0x59B JUMP JUMPDEST SWAP2 POP DUP2 SWAP1 POP SWAP2 SWAP1 POP JUMP JUMPDEST PUSH1 0x0 DUP3 DUP3 MSTORE PUSH1 0x20 DUP3 ADD SWAP1 POP SWAP3 SWAP2 POP POP JUMP JUMPDEST PUSH32 0x43616C6C206661696C6564000000000000000000000000000000000000000000 PUSH1 0x0 DUP3 ADD MSTORE POP JUMP JUMPDEST PUSH1 0x0 PUSH2 0x61A PUSH1 0xB DUP4 PUSH2 0x5D3 JUMP JUMPDEST SWAP2 POP PUSH2 0x625 DUP3 PUSH2 0x5E4 JUMP JUMPDEST PUSH1 0x20 DUP3 ADD SWAP1 POP SWAP2 SWAP1 POP JUMP JUMPDEST PUSH1 0x0 PUSH1 0x20 DUP3 ADD SWAP1 POP DUP2 DUP2 SUB PUSH1 0x0 DUP4 ADD MSTORE PUSH2 0x649 DUP2 PUSH2 0x60D JUMP JUMPDEST SWAP1 POP SWAP2 SWAP1 POP JUMP JUMPDEST PUSH1 0x0 PUSH2 0x65B DUP3 PUSH2 0x4D2 JUMP JUMPDEST PUSH2 0x665 DUP2 DUP6 PUSH2 0x58D JUMP JUMPDEST SWAP4 POP PUSH2 0x675 DUP2 DUP6 PUSH1 0x20 DUP7 ADD PUSH2 0x4EE JUMP JUMPDEST DUP1 DUP5 ADD SWAP2 POP POP SWAP3 SWAP2 POP POP JUMP JUMPDEST PUSH1 0x0 PUSH2 0x68D DUP3 DUP5 PUSH2 0x650 JUMP JUMPDEST SWAP2 POP DUP2 SWAP1 POP SWAP3 SWAP2 POP POP JUMP JUMPDEST PUSH32 0x53746174696363616C6C206661696C6564000000000000000000000000000000 PUSH1 0x0 DUP3 ADD MSTORE POP JUMP JUMPDEST PUSH1 0x0 PUSH2 0x6CE PUSH1 0x11 DUP4 PUSH2 0x5D3 JUMP JUMPDEST SWAP2 POP PUSH2 0x6D9 DUP3 PUSH2 0x698 JUMP JUMPDEST PUSH1 0x20 DUP3 ADD SWAP1 POP SWAP2 SWAP1 POP JUMP JUMPDEST PUSH1 0x0 PUSH1 0x20 DUP3 ADD SWAP1 POP DUP2 DUP2 SUB PUSH1 0x0 DUP4 ADD MSTORE PUSH2 0x6FD DUP2 PUSH2 0x6C1 JUMP JUMPDEST SWAP1 POP SWAP2 SWAP1 POP JUMP JUMPDEST PUSH32 0x44656C656761746563616C6C206661696C656400000000000000000000000000 PUSH1 0x0 DUP3 ADD MSTORE POP JUMP JUMPDEST PUSH1 0x0 PUSH2 0x73A PUSH1 0x13 DUP4 PUSH2 0x5D3 JUMP JUMPDEST SWAP2 POP PUSH2 0x745 DUP3 PUSH2 0x704 JUMP JUMPDEST PUSH1 0x20 DUP3 ADD SWAP1 POP SWAP2 SWAP1 POP JUMP JUMPDEST PUSH1 0x0 PUSH1 0x20 DUP3 ADD SWAP1 POP DUP2 DUP2 SUB PUSH1 0x0 DUP4 ADD MSTORE PUSH2 0x769 DUP2 PUSH2 0x72D JUMP JUMPDEST SWAP1 POP SWAP2 SWAP1 POP JUMP INVALID LOG2 PUSH5 0x6970667358 0x22 SLT KECCAK256 INVALID PUSH8 0x9FBA600C8980C4BD LOG1 0xE9 BYTE SWAP7 0xE5 MULMOD 0xBB DIFFICULTY 0xE8 PUSH14 0xAE1A47BA7DED97EEA1CB2F196473 PUSH16 0x6C634300080F00330000000000000000 "
				},
				"gasEstimates": {
					"creation": {
						"codeDepositCost": "391600",
						"executionCost": "430",
						"totalCost": "392030"
					},
					"external": {
						"delegateToOtherContract(address)": "infinite",
						"readDataFromOtherContract(address)": "infinite",
						"sendEther(address)": "infinite"
					}
				},
				"methodIdentifiers": {
					"delegateToOtherContract(address)": "69dff55f",
					"readDataFromOtherContract(address)": "4973d485",
					"sendEther(address)": "48c981e2"
				}
			},
			"storageLayout": {
				"storage": [],
				"types": null
			},
			"userdoc": {
				"kind": "user",
				"methods": {},
				"version": 1
			}
		}
	}
}