{
	"contracts/CrowdFunding.sol": {
		"Crowdfunding": {
			"abi": [
				{
					"inputs": [
						{
							"internalType": "uint256",
							"name": "_goal",
							"type": "uint256"
						},
						{
							"internalType": "uint256",
							"name": "_duration",
							"type": "uint256"
						}
					],
					"stateMutability": "nonpayable",
					"type": "constructor"
				},
				{
					"anonymous": false,
					"inputs": [
						{
							"indexed": false,
							"internalType": "address",
							"name": "contributor",
							"type": "address"
						},
						{
							"indexed": false,
							"internalType": "uint256",
							"name": "amount",
							"type": "uint256"
						}
					],
					"name": "ContributionReceived",
					"type": "event"
				},
				{
					"anonymous": false,
					"inputs": [
						{
							"indexed": false,
							"internalType": "address",
							"name": "owner",
							"type": "address"
						},
						{
							"indexed": false,
							"internalType": "uint256",
							"name": "amount",
							"type": "uint256"
						}
					],
					"name": "FundsWithdrawn",
					"type": "event"
				},
				{
					"anonymous": false,
					"inputs": [
						{
							"indexed": false,
							"internalType": "uint256",
							"name": "totalFunds",
							"type": "uint256"
						}
					],
					"name": "GoalReached",
					"type": "event"
				},
				{
					"anonymous": false,
					"inputs": [
						{
							"indexed": false,
							"internalType": "address",
							"name": "contributor",
							"type": "address"
						},
						{
							"indexed": false,
							"internalType": "uint256",
							"name": "amount",
							"type": "uint256"
						}
					],
					"name": "RefundIssued",
					"type": "event"
				},
				{
					"inputs": [],
					"name": "amountNeeded",
					"outputs": [
						{
							"internalType": "uint256",
							"name": "",
							"type": "uint256"
						}
					],
					"stateMutability": "view",
					"type": "function"
				},
				{
					"inputs": [],
					"name": "contribute",
					"outputs": [],
					"stateMutability": "payable",
					"type": "function"
				},
				{
					"inputs": [
						{
							"internalType": "address",
							"name": "",
							"type": "address"
						}
					],
					"name": "contributions",
					"outputs": [
						{
							"internalType": "uint256",
							"name": "",
							"type": "uint256"
						}
					],
					"stateMutability": "view",
					"type": "function"
				},
				{
					"inputs": [],
					"name": "deadline",
					"outputs": [
						{
							"internalType": "uint256",
							"name": "",
							"type": "uint256"
						}
					],
					"stateMutability": "view",
					"type": "function"
				},
				{
					"inputs": [],
					"name": "goal",
					"outputs": [
						{
							"internalType": "uint256",
							"name": "",
							"type": "uint256"
						}
					],
					"stateMutability": "view",
					"type": "function"
				},
				{
					"inputs": [],
					"name": "owner",
					"outputs": [
						{
							"internalType": "address",
							"name": "",
							"type": "address"
						}
					],
					"stateMutability": "view",
					"type": "function"
				},
				{
					"inputs": [],
					"name": "refund",
					"outputs": [],
					"stateMutability": "nonpayable",
					"type": "function"
				},
				{
					"inputs": [],
					"name": "timeLeft",
					"outputs": [
						{
							"internalType": "uint256",
							"name": "",
							"type": "uint256"
						}
					],
					"stateMutability": "view",
					"type": "function"
				},
				{
					"inputs": [],
					"name": "totalFunds",
					"outputs": [
						{
							"internalType": "uint256",
							"name": "",
							"type": "uint256"
						}
					],
					"stateMutability": "view",
					"type": "function"
				},
				{
					"inputs": [],
					"name": "withdrawFunds",
					"outputs": [],
					"stateMutability": "nonpayable",
					"type": "function"
				}
			],
			"devdoc": {
				"kind": "dev",
				"methods": {},
				"version": 1
			},
			"evm": {
				"assembly": "    /* \"contracts/CrowdFunding.sol\":62:3204  contract Crowdfunding {... */\n  mstore(0x40, 0x80)\n    /* \"contracts/CrowdFunding.sol\":1121:1276  constructor(uint256 _goal, uint256 _duration) {... */\n  callvalue\n  dup1\n  iszero\n  tag_1\n  jumpi\n  0x00\n  dup1\n  revert\ntag_1:\n  pop\n  mload(0x40)\n  sub(codesize, bytecodeSize)\n  dup1\n  bytecodeSize\n  dup4\n  codecopy\n  dup2\n  dup2\n  add\n  0x40\n  mstore\n  dup2\n  add\n  swap1\n  tag_2\n  swap2\n  swap1\n  tag_3\n  jump\t// in\ntag_2:\n    /* \"contracts/CrowdFunding.sol\":1186:1196  msg.sender */\n  caller\n    /* \"contracts/CrowdFunding.sol\":1178:1183  owner */\n  0x00\n  dup1\n    /* \"contracts/CrowdFunding.sol\":1178:1196  owner = msg.sender */\n  0x0100\n  exp\n  dup2\n  sload\n  dup2\n  0xffffffffffffffffffffffffffffffffffffffff\n  mul\n  not\n  and\n  swap1\n  dup4\n  0xffffffffffffffffffffffffffffffffffffffff\n  and\n  mul\n  or\n  swap1\n  sstore\n  pop\n    /* \"contracts/CrowdFunding.sol\":1214:1219  _goal */\n  dup2\n    /* \"contracts/CrowdFunding.sol\":1207:1211  goal */\n  0x01\n    /* \"contracts/CrowdFunding.sol\":1207:1219  goal = _goal */\n  dup2\n  swap1\n  sstore\n  pop\n    /* \"contracts/CrowdFunding.sol\":1259:1268  _duration */\n  dup1\n    /* \"contracts/CrowdFunding.sol\":1241:1256  block.timestamp */\n  timestamp\n    /* \"contracts/CrowdFunding.sol\":1241:1268  block.timestamp + _duration */\n  tag_6\n  swap2\n  swap1\n  tag_7\n  jump\t// in\ntag_6:\n    /* \"contracts/CrowdFunding.sol\":1230:1238  deadline */\n  0x02\n    /* \"contracts/CrowdFunding.sol\":1230:1268  deadline = block.timestamp + _duration */\n  dup2\n  swap1\n  sstore\n  pop\n    /* \"contracts/CrowdFunding.sol\":1121:1276  constructor(uint256 _goal, uint256 _duration) {... */\n  pop\n  pop\n    /* \"contracts/CrowdFunding.sol\":62:3204  contract Crowdfunding {... */\n  jump(tag_8)\n    /* \"#utility.yul\":88:205   */\ntag_10:\n    /* \"#utility.yul\":197:198   */\n  0x00\n    /* \"#utility.yul\":194:195   */\n  dup1\n    /* \"#utility.yul\":187:199   */\n  revert\n    /* \"#utility.yul\":334:411   */\ntag_12:\n    /* \"#utility.yul\":371:378   */\n  0x00\n    /* \"#utility.yul\":400:405   */\n  dup2\n    /* \"#utility.yul\":389:405   */\n  swap1\n  pop\n    /* \"#utility.yul\":334:411   */\n  swap2\n  swap1\n  pop\n  jump\t// out\n    /* \"#utility.yul\":417:539   */\ntag_13:\n    /* \"#utility.yul\":490:514   */\n  tag_22\n    /* \"#utility.yul\":508:513   */\n  dup2\n    /* \"#utility.yul\":490:514   */\n  tag_12\n  jump\t// in\ntag_22:\n    /* \"#utility.yul\":483:488   */\n  dup2\n    /* \"#utility.yul\":480:515   */\n  eq\n    /* \"#utility.yul\":470:533   */\n  tag_23\n  jumpi\n    /* \"#utility.yul\":529:530   */\n  0x00\n    /* \"#utility.yul\":526:527   */\n  dup1\n    /* \"#utility.yul\":519:531   */\n  revert\n    /* \"#utility.yul\":470:533   */\ntag_23:\n    /* \"#utility.yul\":417:539   */\n  pop\n  jump\t// out\n    /* \"#utility.yul\":545:688   */\ntag_14:\n    /* \"#utility.yul\":602:607   */\n  0x00\n    /* \"#utility.yul\":633:639   */\n  dup2\n    /* \"#utility.yul\":627:640   */\n  mload\n    /* \"#utility.yul\":618:640   */\n  swap1\n  pop\n    /* \"#utility.yul\":649:682   */\n  tag_25\n    /* \"#utility.yul\":676:681   */\n  dup2\n    /* \"#utility.yul\":649:682   */\n  tag_13\n  jump\t// in\ntag_25:\n    /* \"#utility.yul\":545:688   */\n  swap3\n  swap2\n  pop\n  pop\n  jump\t// out\n    /* \"#utility.yul\":694:1201   */\ntag_3:\n    /* \"#utility.yul\":773:779   */\n  0x00\n    /* \"#utility.yul\":781:787   */\n  dup1\n    /* \"#utility.yul\":830:832   */\n  0x40\n    /* \"#utility.yul\":818:827   */\n  dup4\n    /* \"#utility.yul\":809:816   */\n  dup6\n    /* \"#utility.yul\":805:828   */\n  sub\n    /* \"#utility.yul\":801:833   */\n  slt\n    /* \"#utility.yul\":798:917   */\n  iszero\n  tag_27\n  jumpi\n    /* \"#utility.yul\":836:915   */\n  tag_28\n  tag_10\n  jump\t// in\ntag_28:\n    /* \"#utility.yul\":798:917   */\ntag_27:\n    /* \"#utility.yul\":956:957   */\n  0x00\n    /* \"#utility.yul\":981:1045   */\n  tag_29\n    /* \"#utility.yul\":1037:1044   */\n  dup6\n    /* \"#utility.yul\":1028:1034   */\n  dup3\n    /* \"#utility.yul\":1017:1026   */\n  dup7\n    /* \"#utility.yul\":1013:1035   */\n  add\n    /* \"#utility.yul\":981:1045   */\n  tag_14\n  jump\t// in\ntag_29:\n    /* \"#utility.yul\":971:1045   */\n  swap3\n  pop\n    /* \"#utility.yul\":927:1055   */\n  pop\n    /* \"#utility.yul\":1094:1096   */\n  0x20\n    /* \"#utility.yul\":1120:1184   */\n  tag_30\n    /* \"#utility.yul\":1176:1183   */\n  dup6\n    /* \"#utility.yul\":1167:1173   */\n  dup3\n    /* \"#utility.yul\":1156:1165   */\n  dup7\n    /* \"#utility.yul\":1152:1174   */\n  add\n    /* \"#utility.yul\":1120:1184   */\n  tag_14\n  jump\t// in\ntag_30:\n    /* \"#utility.yul\":1110:1184   */\n  swap2\n  pop\n    /* \"#utility.yul\":1065:1194   */\n  pop\n    /* \"#utility.yul\":694:1201   */\n  swap3\n  pop\n  swap3\n  swap1\n  pop\n  jump\t// out\n    /* \"#utility.yul\":1207:1387   */\ntag_15:\n    /* \"#utility.yul\":1255:1332   */\n  0x4e487b7100000000000000000000000000000000000000000000000000000000\n    /* \"#utility.yul\":1252:1253   */\n  0x00\n    /* \"#utility.yul\":1245:1333   */\n  mstore\n    /* \"#utility.yul\":1352:1356   */\n  0x11\n    /* \"#utility.yul\":1349:1350   */\n  0x04\n    /* \"#utility.yul\":1342:1357   */\n  mstore\n    /* \"#utility.yul\":1376:1380   */\n  0x24\n    /* \"#utility.yul\":1373:1374   */\n  0x00\n    /* \"#utility.yul\":1366:1381   */\n  revert\n    /* \"#utility.yul\":1393:1698   */\ntag_7:\n    /* \"#utility.yul\":1433:1436   */\n  0x00\n    /* \"#utility.yul\":1452:1472   */\n  tag_33\n    /* \"#utility.yul\":1470:1471   */\n  dup3\n    /* \"#utility.yul\":1452:1472   */\n  tag_12\n  jump\t// in\ntag_33:\n    /* \"#utility.yul\":1447:1472   */\n  swap2\n  pop\n    /* \"#utility.yul\":1486:1506   */\n  tag_34\n    /* \"#utility.yul\":1504:1505   */\n  dup4\n    /* \"#utility.yul\":1486:1506   */\n  tag_12\n  jump\t// in\ntag_34:\n    /* \"#utility.yul\":1481:1506   */\n  swap3\n  pop\n    /* \"#utility.yul\":1640:1641   */\n  dup3\n    /* \"#utility.yul\":1572:1638   */\n  0xffffffffffffffffffffffffffffffffffffffffffffffffffffffffffffffff\n    /* \"#utility.yul\":1568:1642   */\n  sub\n    /* \"#utility.yul\":1565:1566   */\n  dup3\n    /* \"#utility.yul\":1562:1643   */\n  gt\n    /* \"#utility.yul\":1559:1666   */\n  iszero\n  tag_35\n  jumpi\n    /* \"#utility.yul\":1646:1664   */\n  tag_36\n  tag_15\n  jump\t// in\ntag_36:\n    /* \"#utility.yul\":1559:1666   */\ntag_35:\n    /* \"#utility.yul\":1690:1691   */\n  dup3\n    /* \"#utility.yul\":1687:1688   */\n  dup3\n    /* \"#utility.yul\":1683:1692   */\n  add\n    /* \"#utility.yul\":1676:1692   */\n  swap1\n  pop\n    /* \"#utility.yul\":1393:1698   */\n  swap3\n  swap2\n  pop\n  pop\n  jump\t// out\n    /* \"contracts/CrowdFunding.sol\":62:3204  contract Crowdfunding {... */\ntag_8:\n  dataSize(sub_0)\n  dup1\n  dataOffset(sub_0)\n  0x00\n  codecopy\n  0x00\n  return\nstop\n\nsub_0: assembly {\n        /* \"contracts/CrowdFunding.sol\":62:3204  contract Crowdfunding {... */\n      mstore(0x40, 0x80)\n      jumpi(tag_1, lt(calldatasize, 0x04))\n      shr(0xe0, calldataload(0x00))\n      dup1\n      0x42e94c90\n      gt\n      tag_12\n      jumpi\n      dup1\n      0x42e94c90\n      eq\n      tag_7\n      jumpi\n      dup1\n      0x590e1ae3\n      eq\n      tag_8\n      jumpi\n      dup1\n      0x8da5cb5b\n      eq\n      tag_9\n      jumpi\n      dup1\n      0x968ed600\n      eq\n      tag_10\n      jumpi\n      dup1\n      0xd7bb99ba\n      eq\n      tag_11\n      jumpi\n      jump(tag_1)\n    tag_12:\n      dup1\n      0x1300a6d1\n      eq\n      tag_2\n      jumpi\n      dup1\n      0x1ba11f44\n      eq\n      tag_3\n      jumpi\n      dup1\n      0x24600fc3\n      eq\n      tag_4\n      jumpi\n      dup1\n      0x29dcb0cf\n      eq\n      tag_5\n      jumpi\n      dup1\n      0x40193883\n      eq\n      tag_6\n      jumpi\n    tag_1:\n      0x00\n      dup1\n      revert\n        /* \"contracts/CrowdFunding.sol\":2777:2957  function timeLeft() public view returns (uint256) {... */\n    tag_2:\n      callvalue\n      dup1\n      iszero\n      tag_13\n      jumpi\n      0x00\n      dup1\n      revert\n    tag_13:\n      pop\n      tag_14\n      tag_15\n      jump\t// in\n    tag_14:\n      mload(0x40)\n      tag_16\n      swap2\n      swap1\n      tag_17\n      jump\t// in\n    tag_16:\n      mload(0x40)\n      dup1\n      swap2\n      sub\n      swap1\n      return\n        /* \"contracts/CrowdFunding.sol\":3035:3201  function amountNeeded() public view returns (uint256) {... */\n    tag_3:\n      callvalue\n      dup1\n      iszero\n      tag_18\n      jumpi\n      0x00\n      dup1\n      revert\n    tag_18:\n      pop\n      tag_19\n      tag_20\n      jump\t// in\n    tag_19:\n      mload(0x40)\n      tag_21\n      swap2\n      swap1\n      tag_17\n      jump\t// in\n    tag_21:\n      mload(0x40)\n      dup1\n      swap2\n      sub\n      swap1\n      return\n        /* \"contracts/CrowdFunding.sol\":1839:2182  function withdrawFunds() external onlyOwner {... */\n    tag_4:\n      callvalue\n      dup1\n      iszero\n      tag_22\n      jumpi\n      0x00\n      dup1\n      revert\n    tag_22:\n      pop\n      tag_23\n      tag_24\n      jump\t// in\n    tag_23:\n      stop\n        /* \"contracts/CrowdFunding.sol\":202:225  uint256 public deadline */\n    tag_5:\n      callvalue\n      dup1\n      iszero\n      tag_25\n      jumpi\n      0x00\n      dup1\n      revert\n    tag_25:\n      pop\n      tag_26\n      tag_27\n      jump\t// in\n    tag_26:\n      mload(0x40)\n      tag_28\n      swap2\n      swap1\n      tag_17\n      jump\t// in\n    tag_28:\n      mload(0x40)\n      dup1\n      swap2\n      sub\n      swap1\n      return\n        /* \"contracts/CrowdFunding.sol\":153:172  uint256 public goal */\n    tag_6:\n      callvalue\n      dup1\n      iszero\n      tag_29\n      jumpi\n      0x00\n      dup1\n      revert\n    tag_29:\n      pop\n      tag_30\n      tag_31\n      jump\t// in\n    tag_30:\n      mload(0x40)\n      tag_32\n      swap2\n      swap1\n      tag_17\n      jump\t// in\n    tag_32:\n      mload(0x40)\n      dup1\n      swap2\n      sub\n      swap1\n      return\n        /* \"contracts/CrowdFunding.sol\":315:363  mapping(address => uint256) public contributions */\n    tag_7:\n      callvalue\n      dup1\n      iszero\n      tag_33\n      jumpi\n      0x00\n      dup1\n      revert\n    tag_33:\n      pop\n      tag_34\n      0x04\n      dup1\n      calldatasize\n      sub\n      dup2\n      add\n      swap1\n      tag_35\n      swap2\n      swap1\n      tag_36\n      jump\t// in\n    tag_35:\n      tag_37\n      jump\t// in\n    tag_34:\n      mload(0x40)\n      tag_38\n      swap2\n      swap1\n      tag_17\n      jump\t// in\n    tag_38:\n      mload(0x40)\n      dup1\n      swap2\n      sub\n      swap1\n      return\n        /* \"contracts/CrowdFunding.sol\":2253:2707  function refund() external {... */\n    tag_8:\n      callvalue\n      dup1\n      iszero\n      tag_39\n      jumpi\n      0x00\n      dup1\n      revert\n    tag_39:\n      pop\n      tag_40\n      tag_41\n      jump\t// in\n    tag_40:\n      stop\n        /* \"contracts/CrowdFunding.sol\":109:129  address public owner */\n    tag_9:\n      callvalue\n      dup1\n      iszero\n      tag_42\n      jumpi\n      0x00\n      dup1\n      revert\n    tag_42:\n      pop\n      tag_43\n      tag_44\n      jump\t// in\n    tag_43:\n      mload(0x40)\n      tag_45\n      swap2\n      swap1\n      tag_46\n      jump\t// in\n    tag_45:\n      mload(0x40)\n      dup1\n      swap2\n      sub\n      swap1\n      return\n        /* \"contracts/CrowdFunding.sol\":259:284  uint256 public totalFunds */\n    tag_10:\n      callvalue\n      dup1\n      iszero\n      tag_47\n      jumpi\n      0x00\n      dup1\n      revert\n    tag_47:\n      pop\n      tag_48\n      tag_49\n      jump\t// in\n    tag_48:\n      mload(0x40)\n      tag_50\n      swap2\n      swap1\n      tag_17\n      jump\t// in\n    tag_50:\n      mload(0x40)\n      dup1\n      swap2\n      sub\n      swap1\n      return\n        /* \"contracts/CrowdFunding.sol\":1344:1763  function contribute() external payable ongoingCampaign {... */\n    tag_11:\n      tag_51\n      tag_52\n      jump\t// in\n    tag_51:\n      stop\n        /* \"contracts/CrowdFunding.sol\":2777:2957  function timeLeft() public view returns (uint256) {... */\n    tag_15:\n        /* \"contracts/CrowdFunding.sol\":2818:2825  uint256 */\n      0x00\n        /* \"contracts/CrowdFunding.sol\":2861:2869  deadline */\n      sload(0x02)\n        /* \"contracts/CrowdFunding.sol\":2842:2857  block.timestamp */\n      timestamp\n        /* \"contracts/CrowdFunding.sol\":2842:2869  block.timestamp >= deadline */\n      lt\n        /* \"contracts/CrowdFunding.sol\":2838:2906  if (block.timestamp >= deadline) {... */\n      tag_54\n      jumpi\n        /* \"contracts/CrowdFunding.sol\":2893:2894  0 */\n      0x00\n        /* \"contracts/CrowdFunding.sol\":2886:2894  return 0 */\n      swap1\n      pop\n      jump(tag_53)\n        /* \"contracts/CrowdFunding.sol\":2838:2906  if (block.timestamp >= deadline) {... */\n    tag_54:\n        /* \"contracts/CrowdFunding.sol\":2934:2949  block.timestamp */\n      timestamp\n        /* \"contracts/CrowdFunding.sol\":2923:2931  deadline */\n      sload(0x02)\n        /* \"contracts/CrowdFunding.sol\":2923:2949  deadline - block.timestamp */\n      tag_55\n      swap2\n      swap1\n      tag_56\n      jump\t// in\n    tag_55:\n        /* \"contracts/CrowdFunding.sol\":2916:2949  return deadline - block.timestamp */\n      swap1\n      pop\n        /* \"contracts/CrowdFunding.sol\":2777:2957  function timeLeft() public view returns (uint256) {... */\n    tag_53:\n      swap1\n      jump\t// out\n        /* \"contracts/CrowdFunding.sol\":3035:3201  function amountNeeded() public view returns (uint256) {... */\n    tag_20:\n        /* \"contracts/CrowdFunding.sol\":3080:3087  uint256 */\n      0x00\n        /* \"contracts/CrowdFunding.sol\":3118:3122  goal */\n      sload(0x01)\n        /* \"contracts/CrowdFunding.sol\":3104:3114  totalFunds */\n      sload(0x03)\n        /* \"contracts/CrowdFunding.sol\":3104:3122  totalFunds >= goal */\n      lt\n        /* \"contracts/CrowdFunding.sol\":3100:3159  if (totalFunds >= goal) {... */\n      tag_58\n      jumpi\n        /* \"contracts/CrowdFunding.sol\":3146:3147  0 */\n      0x00\n        /* \"contracts/CrowdFunding.sol\":3139:3147  return 0 */\n      swap1\n      pop\n      jump(tag_57)\n        /* \"contracts/CrowdFunding.sol\":3100:3159  if (totalFunds >= goal) {... */\n    tag_58:\n        /* \"contracts/CrowdFunding.sol\":3183:3193  totalFunds */\n      sload(0x03)\n        /* \"contracts/CrowdFunding.sol\":3176:3180  goal */\n      sload(0x01)\n        /* \"contracts/CrowdFunding.sol\":3176:3193  goal - totalFunds */\n      tag_59\n      swap2\n      swap1\n      tag_56\n      jump\t// in\n    tag_59:\n        /* \"contracts/CrowdFunding.sol\":3169:3193  return goal - totalFunds */\n      swap1\n      pop\n        /* \"contracts/CrowdFunding.sol\":3035:3201  function amountNeeded() public view returns (uint256) {... */\n    tag_57:\n      swap1\n      jump\t// out\n        /* \"contracts/CrowdFunding.sol\":1839:2182  function withdrawFunds() external onlyOwner {... */\n    tag_24:\n        /* \"contracts/CrowdFunding.sol\":772:777  owner */\n      0x00\n      dup1\n      sload\n      swap1\n      0x0100\n      exp\n      swap1\n      div\n      0xffffffffffffffffffffffffffffffffffffffff\n      and\n        /* \"contracts/CrowdFunding.sol\":758:777  msg.sender == owner */\n      0xffffffffffffffffffffffffffffffffffffffff\n      and\n        /* \"contracts/CrowdFunding.sol\":758:768  msg.sender */\n      caller\n        /* \"contracts/CrowdFunding.sol\":758:777  msg.sender == owner */\n      0xffffffffffffffffffffffffffffffffffffffff\n      and\n      eq\n        /* \"contracts/CrowdFunding.sol\":750:820  require(msg.sender == owner, \"Only the owner can perform this action\") */\n      tag_61\n      jumpi\n      mload(0x40)\n      0x08c379a000000000000000000000000000000000000000000000000000000000\n      dup2\n      mstore\n      0x04\n      add\n      tag_62\n      swap1\n      tag_63\n      jump\t// in\n    tag_62:\n      mload(0x40)\n      dup1\n      swap2\n      sub\n      swap1\n      revert\n    tag_61:\n        /* \"contracts/CrowdFunding.sol\":1920:1928  deadline */\n      sload(0x02)\n        /* \"contracts/CrowdFunding.sol\":1902:1917  block.timestamp */\n      timestamp\n        /* \"contracts/CrowdFunding.sol\":1902:1928  block.timestamp > deadline */\n      gt\n        /* \"contracts/CrowdFunding.sol\":1894:1958  require(block.timestamp > deadline, \"Campaign is still ongoing\") */\n      tag_65\n      jumpi\n      mload(0x40)\n      0x08c379a000000000000000000000000000000000000000000000000000000000\n      dup2\n      mstore\n      0x04\n      add\n      tag_66\n      swap1\n      tag_67\n      jump\t// in\n    tag_66:\n      mload(0x40)\n      dup1\n      swap2\n      sub\n      swap1\n      revert\n    tag_65:\n        /* \"contracts/CrowdFunding.sol\":1991:1995  goal */\n      sload(0x01)\n        /* \"contracts/CrowdFunding.sol\":1977:1987  totalFunds */\n      sload(0x03)\n        /* \"contracts/CrowdFunding.sol\":1977:1995  totalFunds >= goal */\n      lt\n      iszero\n        /* \"contracts/CrowdFunding.sol\":1969:2020  require(totalFunds >= goal, \"Funding goal not met\") */\n      tag_68\n      jumpi\n      mload(0x40)\n      0x08c379a000000000000000000000000000000000000000000000000000000000\n      dup2\n      mstore\n      0x04\n      add\n      tag_69\n      swap1\n      tag_70\n      jump\t// in\n    tag_69:\n      mload(0x40)\n      dup1\n      swap2\n      sub\n      swap1\n      revert\n    tag_68:\n        /* \"contracts/CrowdFunding.sol\":2033:2047  uint256 amount */\n      0x00\n        /* \"contracts/CrowdFunding.sol\":2050:2060  totalFunds */\n      sload(0x03)\n        /* \"contracts/CrowdFunding.sol\":2033:2060  uint256 amount = totalFunds */\n      swap1\n      pop\n        /* \"contracts/CrowdFunding.sol\":2084:2085  0 */\n      0x00\n        /* \"contracts/CrowdFunding.sol\":2071:2081  totalFunds */\n      0x03\n        /* \"contracts/CrowdFunding.sol\":2071:2085  totalFunds = 0 */\n      dup2\n      swap1\n      sstore\n      pop\n        /* \"contracts/CrowdFunding.sol\":2106:2111  owner */\n      0x00\n      dup1\n      sload\n      swap1\n      0x0100\n      exp\n      swap1\n      div\n      0xffffffffffffffffffffffffffffffffffffffff\n      and\n        /* \"contracts/CrowdFunding.sol\":2098:2121  payable(owner).transfer */\n      0xffffffffffffffffffffffffffffffffffffffff\n      and\n        /* \"contracts/CrowdFunding.sol\":2098:2129  payable(owner).transfer(amount) */\n      0x08fc\n        /* \"contracts/CrowdFunding.sol\":2122:2128  amount */\n      dup3\n        /* \"contracts/CrowdFunding.sol\":2098:2129  payable(owner).transfer(amount) */\n      swap1\n      dup2\n      iszero\n      mul\n      swap1\n      mload(0x40)\n      0x00\n      mload(0x40)\n      dup1\n      dup4\n      sub\n      dup2\n      dup6\n      dup9\n      dup9\n      call\n      swap4\n      pop\n      pop\n      pop\n      pop\n      iszero\n      dup1\n      iszero\n      tag_72\n      jumpi\n      returndatasize\n      0x00\n      dup1\n      returndatacopy\n      revert(0x00, returndatasize)\n    tag_72:\n      pop\n        /* \"contracts/CrowdFunding.sol\":2145:2174  FundsWithdrawn(owner, amount) */\n      0xeaff4b37086828766ad3268786972c0cd24259d4c87a80f9d3963a3c3d999b0d\n        /* \"contracts/CrowdFunding.sol\":2160:2165  owner */\n      0x00\n      dup1\n      sload\n      swap1\n      0x0100\n      exp\n      swap1\n      div\n      0xffffffffffffffffffffffffffffffffffffffff\n      and\n        /* \"contracts/CrowdFunding.sol\":2167:2173  amount */\n      dup3\n        /* \"contracts/CrowdFunding.sol\":2145:2174  FundsWithdrawn(owner, amount) */\n      mload(0x40)\n      tag_73\n      swap3\n      swap2\n      swap1\n      tag_74\n      jump\t// in\n    tag_73:\n      mload(0x40)\n      dup1\n      swap2\n      sub\n      swap1\n      log1\n        /* \"contracts/CrowdFunding.sol\":1883:2182  {... */\n      pop\n        /* \"contracts/CrowdFunding.sol\":1839:2182  function withdrawFunds() external onlyOwner {... */\n      jump\t// out\n        /* \"contracts/CrowdFunding.sol\":202:225  uint256 public deadline */\n    tag_27:\n      sload(0x02)\n      dup2\n      jump\t// out\n        /* \"contracts/CrowdFunding.sol\":153:172  uint256 public goal */\n    tag_31:\n      sload(0x01)\n      dup2\n      jump\t// out\n        /* \"contracts/CrowdFunding.sol\":315:363  mapping(address => uint256) public contributions */\n    tag_37:\n      mstore(0x20, 0x04)\n      dup1\n      0x00\n      mstore\n      keccak256(0x00, 0x40)\n      0x00\n      swap2\n      pop\n      swap1\n      pop\n      sload\n      dup2\n      jump\t// out\n        /* \"contracts/CrowdFunding.sol\":2253:2707  function refund() external {... */\n    tag_41:\n        /* \"contracts/CrowdFunding.sol\":2317:2325  deadline */\n      sload(0x02)\n        /* \"contracts/CrowdFunding.sol\":2299:2314  block.timestamp */\n      timestamp\n        /* \"contracts/CrowdFunding.sol\":2299:2325  block.timestamp > deadline */\n      gt\n        /* \"contracts/CrowdFunding.sol\":2291:2355  require(block.timestamp > deadline, \"Campaign is still ongoing\") */\n      tag_76\n      jumpi\n      mload(0x40)\n      0x08c379a000000000000000000000000000000000000000000000000000000000\n      dup2\n      mstore\n      0x04\n      add\n      tag_77\n      swap1\n      tag_67\n      jump\t// in\n    tag_77:\n      mload(0x40)\n      dup1\n      swap2\n      sub\n      swap1\n      revert\n    tag_76:\n        /* \"contracts/CrowdFunding.sol\":2387:2391  goal */\n      sload(0x01)\n        /* \"contracts/CrowdFunding.sol\":2374:2384  totalFunds */\n      sload(0x03)\n        /* \"contracts/CrowdFunding.sol\":2374:2391  totalFunds < goal */\n      lt\n        /* \"contracts/CrowdFunding.sol\":2366:2421  require(totalFunds < goal, \"Funding goal has been met\") */\n      tag_78\n      jumpi\n      mload(0x40)\n      0x08c379a000000000000000000000000000000000000000000000000000000000\n      dup2\n      mstore\n      0x04\n      add\n      tag_79\n      swap1\n      tag_80\n      jump\t// in\n    tag_79:\n      mload(0x40)\n      dup1\n      swap2\n      sub\n      swap1\n      revert\n    tag_78:\n        /* \"contracts/CrowdFunding.sol\":2434:2454  uint256 contribution */\n      0x00\n        /* \"contracts/CrowdFunding.sol\":2457:2470  contributions */\n      0x04\n        /* \"contracts/CrowdFunding.sol\":2457:2482  contributions[msg.sender] */\n      0x00\n        /* \"contracts/CrowdFunding.sol\":2471:2481  msg.sender */\n      caller\n        /* \"contracts/CrowdFunding.sol\":2457:2482  contributions[msg.sender] */\n      0xffffffffffffffffffffffffffffffffffffffff\n      and\n      0xffffffffffffffffffffffffffffffffffffffff\n      and\n      dup2\n      mstore\n      0x20\n      add\n      swap1\n      dup2\n      mstore\n      0x20\n      add\n      0x00\n      keccak256\n      sload\n        /* \"contracts/CrowdFunding.sol\":2434:2482  uint256 contribution = contributions[msg.sender] */\n      swap1\n      pop\n        /* \"contracts/CrowdFunding.sol\":2516:2517  0 */\n      0x00\n        /* \"contracts/CrowdFunding.sol\":2501:2513  contribution */\n      dup2\n        /* \"contracts/CrowdFunding.sol\":2501:2517  contribution > 0 */\n      gt\n        /* \"contracts/CrowdFunding.sol\":2493:2548  require(contribution > 0, \"No contributions to refund\") */\n      tag_81\n      jumpi\n      mload(0x40)\n      0x08c379a000000000000000000000000000000000000000000000000000000000\n      dup2\n      mstore\n      0x04\n      add\n      tag_82\n      swap1\n      tag_83\n      jump\t// in\n    tag_82:\n      mload(0x40)\n      dup1\n      swap2\n      sub\n      swap1\n      revert\n    tag_81:\n        /* \"contracts/CrowdFunding.sol\":2589:2590  0 */\n      0x00\n        /* \"contracts/CrowdFunding.sol\":2561:2574  contributions */\n      0x04\n        /* \"contracts/CrowdFunding.sol\":2561:2586  contributions[msg.sender] */\n      0x00\n        /* \"contracts/CrowdFunding.sol\":2575:2585  msg.sender */\n      caller\n        /* \"contracts/CrowdFunding.sol\":2561:2586  contributions[msg.sender] */\n      0xffffffffffffffffffffffffffffffffffffffff\n      and\n      0xffffffffffffffffffffffffffffffffffffffff\n      and\n      dup2\n      mstore\n      0x20\n      add\n      swap1\n      dup2\n      mstore\n      0x20\n      add\n      0x00\n      keccak256\n        /* \"contracts/CrowdFunding.sol\":2561:2590  contributions[msg.sender] = 0 */\n      dup2\n      swap1\n      sstore\n      pop\n        /* \"contracts/CrowdFunding.sol\":2609:2619  msg.sender */\n      caller\n        /* \"contracts/CrowdFunding.sol\":2601:2629  payable(msg.sender).transfer */\n      0xffffffffffffffffffffffffffffffffffffffff\n      and\n        /* \"contracts/CrowdFunding.sol\":2601:2643  payable(msg.sender).transfer(contribution) */\n      0x08fc\n        /* \"contracts/CrowdFunding.sol\":2630:2642  contribution */\n      dup3\n        /* \"contracts/CrowdFunding.sol\":2601:2643  payable(msg.sender).transfer(contribution) */\n      swap1\n      dup2\n      iszero\n      mul\n      swap1\n      mload(0x40)\n      0x00\n      mload(0x40)\n      dup1\n      dup4\n      sub\n      dup2\n      dup6\n      dup9\n      dup9\n      call\n      swap4\n      pop\n      pop\n      pop\n      pop\n      iszero\n      dup1\n      iszero\n      tag_85\n      jumpi\n      returndatasize\n      0x00\n      dup1\n      returndatacopy\n      revert(0x00, returndatasize)\n    tag_85:\n      pop\n        /* \"contracts/CrowdFunding.sol\":2661:2699  RefundIssued(msg.sender, contribution) */\n      0xa171b6942063c6f2800ce40a780edce37baa2b618571b11eedd1e69e626e7d76\n        /* \"contracts/CrowdFunding.sol\":2674:2684  msg.sender */\n      caller\n        /* \"contracts/CrowdFunding.sol\":2686:2698  contribution */\n      dup3\n        /* \"contracts/CrowdFunding.sol\":2661:2699  RefundIssued(msg.sender, contribution) */\n      mload(0x40)\n      tag_86\n      swap3\n      swap2\n      swap1\n      tag_74\n      jump\t// in\n    tag_86:\n      mload(0x40)\n      dup1\n      swap2\n      sub\n      swap1\n      log1\n        /* \"contracts/CrowdFunding.sol\":2280:2707  {... */\n      pop\n        /* \"contracts/CrowdFunding.sol\":2253:2707  function refund() external {... */\n      jump\t// out\n        /* \"contracts/CrowdFunding.sol\":109:129  address public owner */\n    tag_44:\n      0x00\n      dup1\n      sload\n      swap1\n      0x0100\n      exp\n      swap1\n      div\n      0xffffffffffffffffffffffffffffffffffffffff\n      and\n      dup2\n      jump\t// out\n        /* \"contracts/CrowdFunding.sol\":259:284  uint256 public totalFunds */\n    tag_49:\n      sload(0x03)\n      dup2\n      jump\t// out\n        /* \"contracts/CrowdFunding.sol\":1344:1763  function contribute() external payable ongoingCampaign {... */\n    tag_52:\n        /* \"contracts/CrowdFunding.sol\":998:1006  deadline */\n      sload(0x02)\n        /* \"contracts/CrowdFunding.sol\":979:994  block.timestamp */\n      timestamp\n        /* \"contracts/CrowdFunding.sol\":979:1006  block.timestamp <= deadline */\n      gt\n      iszero\n        /* \"contracts/CrowdFunding.sol\":971:1046  require(block.timestamp <= deadline, \"The crowdfunding campaign has ended\") */\n      tag_88\n      jumpi\n      mload(0x40)\n      0x08c379a000000000000000000000000000000000000000000000000000000000\n      dup2\n      mstore\n      0x04\n      add\n      tag_89\n      swap1\n      tag_90\n      jump\t// in\n    tag_89:\n      mload(0x40)\n      dup1\n      swap2\n      sub\n      swap1\n      revert\n    tag_88:\n        /* \"contracts/CrowdFunding.sol\":1430:1431  0 */\n      0x00\n        /* \"contracts/CrowdFunding.sol\":1418:1427  msg.value */\n      callvalue\n        /* \"contracts/CrowdFunding.sol\":1418:1431  msg.value > 0 */\n      gt\n        /* \"contracts/CrowdFunding.sol\":1410:1471  require(msg.value > 0, \"Contribution must be greater than 0\") */\n      tag_92\n      jumpi\n      mload(0x40)\n      0x08c379a000000000000000000000000000000000000000000000000000000000\n      dup2\n      mstore\n      0x04\n      add\n      tag_93\n      swap1\n      tag_94\n      jump\t// in\n    tag_93:\n      mload(0x40)\n      dup1\n      swap2\n      sub\n      swap1\n      revert\n    tag_92:\n        /* \"contracts/CrowdFunding.sol\":1513:1522  msg.value */\n      callvalue\n        /* \"contracts/CrowdFunding.sol\":1484:1497  contributions */\n      0x04\n        /* \"contracts/CrowdFunding.sol\":1484:1509  contributions[msg.sender] */\n      0x00\n        /* \"contracts/CrowdFunding.sol\":1498:1508  msg.sender */\n      caller\n        /* \"contracts/CrowdFunding.sol\":1484:1509  contributions[msg.sender] */\n      0xffffffffffffffffffffffffffffffffffffffff\n      and\n      0xffffffffffffffffffffffffffffffffffffffff\n      and\n      dup2\n      mstore\n      0x20\n      add\n      swap1\n      dup2\n      mstore\n      0x20\n      add\n      0x00\n      keccak256\n      0x00\n        /* \"contracts/CrowdFunding.sol\":1484:1522  contributions[msg.sender] += msg.value */\n      dup3\n      dup3\n      sload\n      tag_95\n      swap2\n      swap1\n      tag_96\n      jump\t// in\n    tag_95:\n      swap3\n      pop\n      pop\n      dup2\n      swap1\n      sstore\n      pop\n        /* \"contracts/CrowdFunding.sol\":1547:1556  msg.value */\n      callvalue\n        /* \"contracts/CrowdFunding.sol\":1533:1543  totalFunds */\n      0x03\n      0x00\n        /* \"contracts/CrowdFunding.sol\":1533:1556  totalFunds += msg.value */\n      dup3\n      dup3\n      sload\n      tag_97\n      swap2\n      swap1\n      tag_96\n      jump\t// in\n    tag_97:\n      swap3\n      pop\n      pop\n      dup2\n      swap1\n      sstore\n      pop\n        /* \"contracts/CrowdFunding.sol\":1574:1617  ContributionReceived(msg.sender, msg.value) */\n      0x1bb460ccaaf70fbacfec17a376f8acbd278c1405590ffcc8ebe4b88daf4f64ad\n        /* \"contracts/CrowdFunding.sol\":1595:1605  msg.sender */\n      caller\n        /* \"contracts/CrowdFunding.sol\":1607:1616  msg.value */\n      callvalue\n        /* \"contracts/CrowdFunding.sol\":1574:1617  ContributionReceived(msg.sender, msg.value) */\n      mload(0x40)\n      tag_98\n      swap3\n      swap2\n      swap1\n      tag_74\n      jump\t// in\n    tag_98:\n      mload(0x40)\n      dup1\n      swap2\n      sub\n      swap1\n      log1\n        /* \"contracts/CrowdFunding.sol\":1695:1699  goal */\n      sload(0x01)\n        /* \"contracts/CrowdFunding.sol\":1681:1691  totalFunds */\n      sload(0x03)\n        /* \"contracts/CrowdFunding.sol\":1681:1699  totalFunds >= goal */\n      lt\n        /* \"contracts/CrowdFunding.sol\":1677:1756  if (totalFunds >= goal) {... */\n      tag_99\n      jumpi\n        /* \"contracts/CrowdFunding.sol\":1721:1744  GoalReached(totalFunds) */\n      0xfbfd8ab7c24300fa9888cd721c8565a7da56759384781283684dcf7c7c4a846b\n        /* \"contracts/CrowdFunding.sol\":1733:1743  totalFunds */\n      sload(0x03)\n        /* \"contracts/CrowdFunding.sol\":1721:1744  GoalReached(totalFunds) */\n      mload(0x40)\n      tag_100\n      swap2\n      swap1\n      tag_17\n      jump\t// in\n    tag_100:\n      mload(0x40)\n      dup1\n      swap2\n      sub\n      swap1\n      log1\n        /* \"contracts/CrowdFunding.sol\":1677:1756  if (totalFunds >= goal) {... */\n    tag_99:\n        /* \"contracts/CrowdFunding.sol\":1344:1763  function contribute() external payable ongoingCampaign {... */\n      jump\t// out\n        /* \"#utility.yul\":7:84   */\n    tag_101:\n        /* \"#utility.yul\":44:51   */\n      0x00\n        /* \"#utility.yul\":73:78   */\n      dup2\n        /* \"#utility.yul\":62:78   */\n      swap1\n      pop\n        /* \"#utility.yul\":7:84   */\n      swap2\n      swap1\n      pop\n      jump\t// out\n        /* \"#utility.yul\":90:208   */\n    tag_102:\n        /* \"#utility.yul\":177:201   */\n      tag_130\n        /* \"#utility.yul\":195:200   */\n      dup2\n        /* \"#utility.yul\":177:201   */\n      tag_101\n      jump\t// in\n    tag_130:\n        /* \"#utility.yul\":172:175   */\n      dup3\n        /* \"#utility.yul\":165:202   */\n      mstore\n        /* \"#utility.yul\":90:208   */\n      pop\n      pop\n      jump\t// out\n        /* \"#utility.yul\":214:436   */\n    tag_17:\n        /* \"#utility.yul\":307:311   */\n      0x00\n        /* \"#utility.yul\":345:347   */\n      0x20\n        /* \"#utility.yul\":334:343   */\n      dup3\n        /* \"#utility.yul\":330:348   */\n      add\n        /* \"#utility.yul\":322:348   */\n      swap1\n      pop\n        /* \"#utility.yul\":358:429   */\n      tag_132\n        /* \"#utility.yul\":426:427   */\n      0x00\n        /* \"#utility.yul\":415:424   */\n      dup4\n        /* \"#utility.yul\":411:428   */\n      add\n        /* \"#utility.yul\":402:408   */\n      dup5\n        /* \"#utility.yul\":358:429   */\n      tag_102\n      jump\t// in\n    tag_132:\n        /* \"#utility.yul\":214:436   */\n      swap3\n      swap2\n      pop\n      pop\n      jump\t// out\n        /* \"#utility.yul\":523:640   */\n    tag_104:\n        /* \"#utility.yul\":632:633   */\n      0x00\n        /* \"#utility.yul\":629:630   */\n      dup1\n        /* \"#utility.yul\":622:634   */\n      revert\n        /* \"#utility.yul\":769:895   */\n    tag_106:\n        /* \"#utility.yul\":806:813   */\n      0x00\n        /* \"#utility.yul\":846:888   */\n      0xffffffffffffffffffffffffffffffffffffffff\n        /* \"#utility.yul\":839:844   */\n      dup3\n        /* \"#utility.yul\":835:889   */\n      and\n        /* \"#utility.yul\":824:889   */\n      swap1\n      pop\n        /* \"#utility.yul\":769:895   */\n      swap2\n      swap1\n      pop\n      jump\t// out\n        /* \"#utility.yul\":901:997   */\n    tag_107:\n        /* \"#utility.yul\":938:945   */\n      0x00\n        /* \"#utility.yul\":967:991   */\n      tag_138\n        /* \"#utility.yul\":985:990   */\n      dup3\n        /* \"#utility.yul\":967:991   */\n      tag_106\n      jump\t// in\n    tag_138:\n        /* \"#utility.yul\":956:991   */\n      swap1\n      pop\n        /* \"#utility.yul\":901:997   */\n      swap2\n      swap1\n      pop\n      jump\t// out\n        /* \"#utility.yul\":1003:1125   */\n    tag_108:\n        /* \"#utility.yul\":1076:1100   */\n      tag_140\n        /* \"#utility.yul\":1094:1099   */\n      dup2\n        /* \"#utility.yul\":1076:1100   */\n      tag_107\n      jump\t// in\n    tag_140:\n        /* \"#utility.yul\":1069:1074   */\n      dup2\n        /* \"#utility.yul\":1066:1101   */\n      eq\n        /* \"#utility.yul\":1056:1119   */\n      tag_141\n      jumpi\n        /* \"#utility.yul\":1115:1116   */\n      0x00\n        /* \"#utility.yul\":1112:1113   */\n      dup1\n        /* \"#utility.yul\":1105:1117   */\n      revert\n        /* \"#utility.yul\":1056:1119   */\n    tag_141:\n        /* \"#utility.yul\":1003:1125   */\n      pop\n      jump\t// out\n        /* \"#utility.yul\":1131:1270   */\n    tag_109:\n        /* \"#utility.yul\":1177:1182   */\n      0x00\n        /* \"#utility.yul\":1215:1221   */\n      dup2\n        /* \"#utility.yul\":1202:1222   */\n      calldataload\n        /* \"#utility.yul\":1193:1222   */\n      swap1\n      pop\n        /* \"#utility.yul\":1231:1264   */\n      tag_143\n        /* \"#utility.yul\":1258:1263   */\n      dup2\n        /* \"#utility.yul\":1231:1264   */\n      tag_108\n      jump\t// in\n    tag_143:\n        /* \"#utility.yul\":1131:1270   */\n      swap3\n      swap2\n      pop\n      pop\n      jump\t// out\n        /* \"#utility.yul\":1276:1605   */\n    tag_36:\n        /* \"#utility.yul\":1335:1341   */\n      0x00\n        /* \"#utility.yul\":1384:1386   */\n      0x20\n        /* \"#utility.yul\":1372:1381   */\n      dup3\n        /* \"#utility.yul\":1363:1370   */\n      dup5\n        /* \"#utility.yul\":1359:1382   */\n      sub\n        /* \"#utility.yul\":1355:1387   */\n      slt\n        /* \"#utility.yul\":1352:1471   */\n      iszero\n      tag_145\n      jumpi\n        /* \"#utility.yul\":1390:1469   */\n      tag_146\n      tag_104\n      jump\t// in\n    tag_146:\n        /* \"#utility.yul\":1352:1471   */\n    tag_145:\n        /* \"#utility.yul\":1510:1511   */\n      0x00\n        /* \"#utility.yul\":1535:1588   */\n      tag_147\n        /* \"#utility.yul\":1580:1587   */\n      dup5\n        /* \"#utility.yul\":1571:1577   */\n      dup3\n        /* \"#utility.yul\":1560:1569   */\n      dup6\n        /* \"#utility.yul\":1556:1578   */\n      add\n        /* \"#utility.yul\":1535:1588   */\n      tag_109\n      jump\t// in\n    tag_147:\n        /* \"#utility.yul\":1525:1588   */\n      swap2\n      pop\n        /* \"#utility.yul\":1481:1598   */\n      pop\n        /* \"#utility.yul\":1276:1605   */\n      swap3\n      swap2\n      pop\n      pop\n      jump\t// out\n        /* \"#utility.yul\":1611:1729   */\n    tag_110:\n        /* \"#utility.yul\":1698:1722   */\n      tag_149\n        /* \"#utility.yul\":1716:1721   */\n      dup2\n        /* \"#utility.yul\":1698:1722   */\n      tag_107\n      jump\t// in\n    tag_149:\n        /* \"#utility.yul\":1693:1696   */\n      dup3\n        /* \"#utility.yul\":1686:1723   */\n      mstore\n        /* \"#utility.yul\":1611:1729   */\n      pop\n      pop\n      jump\t// out\n        /* \"#utility.yul\":1735:1957   */\n    tag_46:\n        /* \"#utility.yul\":1828:1832   */\n      0x00\n        /* \"#utility.yul\":1866:1868   */\n      0x20\n        /* \"#utility.yul\":1855:1864   */\n      dup3\n        /* \"#utility.yul\":1851:1869   */\n      add\n        /* \"#utility.yul\":1843:1869   */\n      swap1\n      pop\n        /* \"#utility.yul\":1879:1950   */\n      tag_151\n        /* \"#utility.yul\":1947:1948   */\n      0x00\n        /* \"#utility.yul\":1936:1945   */\n      dup4\n        /* \"#utility.yul\":1932:1949   */\n      add\n        /* \"#utility.yul\":1923:1929   */\n      dup5\n        /* \"#utility.yul\":1879:1950   */\n      tag_110\n      jump\t// in\n    tag_151:\n        /* \"#utility.yul\":1735:1957   */\n      swap3\n      swap2\n      pop\n      pop\n      jump\t// out\n        /* \"#utility.yul\":1963:2143   */\n    tag_111:\n        /* \"#utility.yul\":2011:2088   */\n      0x4e487b7100000000000000000000000000000000000000000000000000000000\n        /* \"#utility.yul\":2008:2009   */\n      0x00\n        /* \"#utility.yul\":2001:2089   */\n      mstore\n        /* \"#utility.yul\":2108:2112   */\n      0x11\n        /* \"#utility.yul\":2105:2106   */\n      0x04\n        /* \"#utility.yul\":2098:2113   */\n      mstore\n        /* \"#utility.yul\":2132:2136   */\n      0x24\n        /* \"#utility.yul\":2129:2130   */\n      0x00\n        /* \"#utility.yul\":2122:2137   */\n      revert\n        /* \"#utility.yul\":2149:2340   */\n    tag_56:\n        /* \"#utility.yul\":2189:2193   */\n      0x00\n        /* \"#utility.yul\":2209:2229   */\n      tag_154\n        /* \"#utility.yul\":2227:2228   */\n      dup3\n        /* \"#utility.yul\":2209:2229   */\n      tag_101\n      jump\t// in\n    tag_154:\n        /* \"#utility.yul\":2204:2229   */\n      swap2\n      pop\n        /* \"#utility.yul\":2243:2263   */\n      tag_155\n        /* \"#utility.yul\":2261:2262   */\n      dup4\n        /* \"#utility.yul\":2243:2263   */\n      tag_101\n      jump\t// in\n    tag_155:\n        /* \"#utility.yul\":2238:2263   */\n      swap3\n      pop\n        /* \"#utility.yul\":2282:2283   */\n      dup3\n        /* \"#utility.yul\":2279:2280   */\n      dup3\n        /* \"#utility.yul\":2276:2284   */\n      lt\n        /* \"#utility.yul\":2273:2307   */\n      iszero\n      tag_156\n      jumpi\n        /* \"#utility.yul\":2287:2305   */\n      tag_157\n      tag_111\n      jump\t// in\n    tag_157:\n        /* \"#utility.yul\":2273:2307   */\n    tag_156:\n        /* \"#utility.yul\":2332:2333   */\n      dup3\n        /* \"#utility.yul\":2329:2330   */\n      dup3\n        /* \"#utility.yul\":2325:2334   */\n      sub\n        /* \"#utility.yul\":2317:2334   */\n      swap1\n      pop\n        /* \"#utility.yul\":2149:2340   */\n      swap3\n      swap2\n      pop\n      pop\n      jump\t// out\n        /* \"#utility.yul\":2346:2515   */\n    tag_112:\n        /* \"#utility.yul\":2430:2441   */\n      0x00\n        /* \"#utility.yul\":2464:2470   */\n      dup3\n        /* \"#utility.yul\":2459:2462   */\n      dup3\n        /* \"#utility.yul\":2452:2471   */\n      mstore\n        /* \"#utility.yul\":2504:2508   */\n      0x20\n        /* \"#utility.yul\":2499:2502   */\n      dup3\n        /* \"#utility.yul\":2495:2509   */\n      add\n        /* \"#utility.yul\":2480:2509   */\n      swap1\n      pop\n        /* \"#utility.yul\":2346:2515   */\n      swap3\n      swap2\n      pop\n      pop\n      jump\t// out\n        /* \"#utility.yul\":2521:2746   */\n    tag_113:\n        /* \"#utility.yul\":2661:2695   */\n      0x4f6e6c7920746865206f776e65722063616e20706572666f726d207468697320\n        /* \"#utility.yul\":2657:2658   */\n      0x00\n        /* \"#utility.yul\":2649:2655   */\n      dup3\n        /* \"#utility.yul\":2645:2659   */\n      add\n        /* \"#utility.yul\":2638:2696   */\n      mstore\n        /* \"#utility.yul\":2730:2738   */\n      0x616374696f6e0000000000000000000000000000000000000000000000000000\n        /* \"#utility.yul\":2725:2727   */\n      0x20\n        /* \"#utility.yul\":2717:2723   */\n      dup3\n        /* \"#utility.yul\":2713:2728   */\n      add\n        /* \"#utility.yul\":2706:2739   */\n      mstore\n        /* \"#utility.yul\":2521:2746   */\n      pop\n      jump\t// out\n        /* \"#utility.yul\":2752:3118   */\n    tag_114:\n        /* \"#utility.yul\":2894:2897   */\n      0x00\n        /* \"#utility.yul\":2915:2982   */\n      tag_161\n        /* \"#utility.yul\":2979:2981   */\n      0x26\n        /* \"#utility.yul\":2974:2977   */\n      dup4\n        /* \"#utility.yul\":2915:2982   */\n      tag_112\n      jump\t// in\n    tag_161:\n        /* \"#utility.yul\":2908:2982   */\n      swap2\n      pop\n        /* \"#utility.yul\":2991:3084   */\n      tag_162\n        /* \"#utility.yul\":3080:3083   */\n      dup3\n        /* \"#utility.yul\":2991:3084   */\n      tag_113\n      jump\t// in\n    tag_162:\n        /* \"#utility.yul\":3109:3111   */\n      0x40\n        /* \"#utility.yul\":3104:3107   */\n      dup3\n        /* \"#utility.yul\":3100:3112   */\n      add\n        /* \"#utility.yul\":3093:3112   */\n      swap1\n      pop\n        /* \"#utility.yul\":2752:3118   */\n      swap2\n      swap1\n      pop\n      jump\t// out\n        /* \"#utility.yul\":3124:3543   */\n    tag_63:\n        /* \"#utility.yul\":3290:3294   */\n      0x00\n        /* \"#utility.yul\":3328:3330   */\n      0x20\n        /* \"#utility.yul\":3317:3326   */\n      dup3\n        /* \"#utility.yul\":3313:3331   */\n      add\n        /* \"#utility.yul\":3305:3331   */\n      swap1\n      pop\n        /* \"#utility.yul\":3377:3386   */\n      dup2\n        /* \"#utility.yul\":3371:3375   */\n      dup2\n        /* \"#utility.yul\":3367:3387   */\n      sub\n        /* \"#utility.yul\":3363:3364   */\n      0x00\n        /* \"#utility.yul\":3352:3361   */\n      dup4\n        /* \"#utility.yul\":3348:3365   */\n      add\n        /* \"#utility.yul\":3341:3388   */\n      mstore\n        /* \"#utility.yul\":3405:3536   */\n      tag_164\n        /* \"#utility.yul\":3531:3535   */\n      dup2\n        /* \"#utility.yul\":3405:3536   */\n      tag_114\n      jump\t// in\n    tag_164:\n        /* \"#utility.yul\":3397:3536   */\n      swap1\n      pop\n        /* \"#utility.yul\":3124:3543   */\n      swap2\n      swap1\n      pop\n      jump\t// out\n        /* \"#utility.yul\":3549:3724   */\n    tag_115:\n        /* \"#utility.yul\":3689:3716   */\n      0x43616d706169676e206973207374696c6c206f6e676f696e6700000000000000\n        /* \"#utility.yul\":3685:3686   */\n      0x00\n        /* \"#utility.yul\":3677:3683   */\n      dup3\n        /* \"#utility.yul\":3673:3687   */\n      add\n        /* \"#utility.yul\":3666:3717   */\n      mstore\n        /* \"#utility.yul\":3549:3724   */\n      pop\n      jump\t// out\n        /* \"#utility.yul\":3730:4096   */\n    tag_116:\n        /* \"#utility.yul\":3872:3875   */\n      0x00\n        /* \"#utility.yul\":3893:3960   */\n      tag_167\n        /* \"#utility.yul\":3957:3959   */\n      0x19\n        /* \"#utility.yul\":3952:3955   */\n      dup4\n        /* \"#utility.yul\":3893:3960   */\n      tag_112\n      jump\t// in\n    tag_167:\n        /* \"#utility.yul\":3886:3960   */\n      swap2\n      pop\n        /* \"#utility.yul\":3969:4062   */\n      tag_168\n        /* \"#utility.yul\":4058:4061   */\n      dup3\n        /* \"#utility.yul\":3969:4062   */\n      tag_115\n      jump\t// in\n    tag_168:\n        /* \"#utility.yul\":4087:4089   */\n      0x20\n        /* \"#utility.yul\":4082:4085   */\n      dup3\n        /* \"#utility.yul\":4078:4090   */\n      add\n        /* \"#utility.yul\":4071:4090   */\n      swap1\n      pop\n        /* \"#utility.yul\":3730:4096   */\n      swap2\n      swap1\n      pop\n      jump\t// out\n        /* \"#utility.yul\":4102:4521   */\n    tag_67:\n        /* \"#utility.yul\":4268:4272   */\n      0x00\n        /* \"#utility.yul\":4306:4308   */\n      0x20\n        /* \"#utility.yul\":4295:4304   */\n      dup3\n        /* \"#utility.yul\":4291:4309   */\n      add\n        /* \"#utility.yul\":4283:4309   */\n      swap1\n      pop\n        /* \"#utility.yul\":4355:4364   */\n      dup2\n        /* \"#utility.yul\":4349:4353   */\n      dup2\n        /* \"#utility.yul\":4345:4365   */\n      sub\n        /* \"#utility.yul\":4341:4342   */\n      0x00\n        /* \"#utility.yul\":4330:4339   */\n      dup4\n        /* \"#utility.yul\":4326:4343   */\n      add\n        /* \"#utility.yul\":4319:4366   */\n      mstore\n        /* \"#utility.yul\":4383:4514   */\n      tag_170\n        /* \"#utility.yul\":4509:4513   */\n      dup2\n        /* \"#utility.yul\":4383:4514   */\n      tag_116\n      jump\t// in\n    tag_170:\n        /* \"#utility.yul\":4375:4514   */\n      swap1\n      pop\n        /* \"#utility.yul\":4102:4521   */\n      swap2\n      swap1\n      pop\n      jump\t// out\n        /* \"#utility.yul\":4527:4697   */\n    tag_117:\n        /* \"#utility.yul\":4667:4689   */\n      0x46756e64696e6720676f616c206e6f74206d6574000000000000000000000000\n        /* \"#utility.yul\":4663:4664   */\n      0x00\n        /* \"#utility.yul\":4655:4661   */\n      dup3\n        /* \"#utility.yul\":4651:4665   */\n      add\n        /* \"#utility.yul\":4644:4690   */\n      mstore\n        /* \"#utility.yul\":4527:4697   */\n      pop\n      jump\t// out\n        /* \"#utility.yul\":4703:5069   */\n    tag_118:\n        /* \"#utility.yul\":4845:4848   */\n      0x00\n        /* \"#utility.yul\":4866:4933   */\n      tag_173\n        /* \"#utility.yul\":4930:4932   */\n      0x14\n        /* \"#utility.yul\":4925:4928   */\n      dup4\n        /* \"#utility.yul\":4866:4933   */\n      tag_112\n      jump\t// in\n    tag_173:\n        /* \"#utility.yul\":4859:4933   */\n      swap2\n      pop\n        /* \"#utility.yul\":4942:5035   */\n      tag_174\n        /* \"#utility.yul\":5031:5034   */\n      dup3\n        /* \"#utility.yul\":4942:5035   */\n      tag_117\n      jump\t// in\n    tag_174:\n        /* \"#utility.yul\":5060:5062   */\n      0x20\n        /* \"#utility.yul\":5055:5058   */\n      dup3\n        /* \"#utility.yul\":5051:5063   */\n      add\n        /* \"#utility.yul\":5044:5063   */\n      swap1\n      pop\n        /* \"#utility.yul\":4703:5069   */\n      swap2\n      swap1\n      pop\n      jump\t// out\n        /* \"#utility.yul\":5075:5494   */\n    tag_70:\n        /* \"#utility.yul\":5241:5245   */\n      0x00\n        /* \"#utility.yul\":5279:5281   */\n      0x20\n        /* \"#utility.yul\":5268:5277   */\n      dup3\n        /* \"#utility.yul\":5264:5282   */\n      add\n        /* \"#utility.yul\":5256:5282   */\n      swap1\n      pop\n        /* \"#utility.yul\":5328:5337   */\n      dup2\n        /* \"#utility.yul\":5322:5326   */\n      dup2\n        /* \"#utility.yul\":5318:5338   */\n      sub\n        /* \"#utility.yul\":5314:5315   */\n      0x00\n        /* \"#utility.yul\":5303:5312   */\n      dup4\n        /* \"#utility.yul\":5299:5316   */\n      add\n        /* \"#utility.yul\":5292:5339   */\n      mstore\n        /* \"#utility.yul\":5356:5487   */\n      tag_176\n        /* \"#utility.yul\":5482:5486   */\n      dup2\n        /* \"#utility.yul\":5356:5487   */\n      tag_118\n      jump\t// in\n    tag_176:\n        /* \"#utility.yul\":5348:5487   */\n      swap1\n      pop\n        /* \"#utility.yul\":5075:5494   */\n      swap2\n      swap1\n      pop\n      jump\t// out\n        /* \"#utility.yul\":5500:5832   */\n    tag_74:\n        /* \"#utility.yul\":5621:5625   */\n      0x00\n        /* \"#utility.yul\":5659:5661   */\n      0x40\n        /* \"#utility.yul\":5648:5657   */\n      dup3\n        /* \"#utility.yul\":5644:5662   */\n      add\n        /* \"#utility.yul\":5636:5662   */\n      swap1\n      pop\n        /* \"#utility.yul\":5672:5743   */\n      tag_178\n        /* \"#utility.yul\":5740:5741   */\n      0x00\n        /* \"#utility.yul\":5729:5738   */\n      dup4\n        /* \"#utility.yul\":5725:5742   */\n      add\n        /* \"#utility.yul\":5716:5722   */\n      dup6\n        /* \"#utility.yul\":5672:5743   */\n      tag_110\n      jump\t// in\n    tag_178:\n        /* \"#utility.yul\":5753:5825   */\n      tag_179\n        /* \"#utility.yul\":5821:5823   */\n      0x20\n        /* \"#utility.yul\":5810:5819   */\n      dup4\n        /* \"#utility.yul\":5806:5824   */\n      add\n        /* \"#utility.yul\":5797:5803   */\n      dup5\n        /* \"#utility.yul\":5753:5825   */\n      tag_102\n      jump\t// in\n    tag_179:\n        /* \"#utility.yul\":5500:5832   */\n      swap4\n      swap3\n      pop\n      pop\n      pop\n      jump\t// out\n        /* \"#utility.yul\":5838:6013   */\n    tag_119:\n        /* \"#utility.yul\":5978:6005   */\n      0x46756e64696e6720676f616c20686173206265656e206d657400000000000000\n        /* \"#utility.yul\":5974:5975   */\n      0x00\n        /* \"#utility.yul\":5966:5972   */\n      dup3\n        /* \"#utility.yul\":5962:5976   */\n      add\n        /* \"#utility.yul\":5955:6006   */\n      mstore\n        /* \"#utility.yul\":5838:6013   */\n      pop\n      jump\t// out\n        /* \"#utility.yul\":6019:6385   */\n    tag_120:\n        /* \"#utility.yul\":6161:6164   */\n      0x00\n        /* \"#utility.yul\":6182:6249   */\n      tag_182\n        /* \"#utility.yul\":6246:6248   */\n      0x19\n        /* \"#utility.yul\":6241:6244   */\n      dup4\n        /* \"#utility.yul\":6182:6249   */\n      tag_112\n      jump\t// in\n    tag_182:\n        /* \"#utility.yul\":6175:6249   */\n      swap2\n      pop\n        /* \"#utility.yul\":6258:6351   */\n      tag_183\n        /* \"#utility.yul\":6347:6350   */\n      dup3\n        /* \"#utility.yul\":6258:6351   */\n      tag_119\n      jump\t// in\n    tag_183:\n        /* \"#utility.yul\":6376:6378   */\n      0x20\n        /* \"#utility.yul\":6371:6374   */\n      dup3\n        /* \"#utility.yul\":6367:6379   */\n      add\n        /* \"#utility.yul\":6360:6379   */\n      swap1\n      pop\n        /* \"#utility.yul\":6019:6385   */\n      swap2\n      swap1\n      pop\n      jump\t// out\n        /* \"#utility.yul\":6391:6810   */\n    tag_80:\n        /* \"#utility.yul\":6557:6561   */\n      0x00\n        /* \"#utility.yul\":6595:6597   */\n      0x20\n        /* \"#utility.yul\":6584:6593   */\n      dup3\n        /* \"#utility.yul\":6580:6598   */\n      add\n        /* \"#utility.yul\":6572:6598   */\n      swap1\n      pop\n        /* \"#utility.yul\":6644:6653   */\n      dup2\n        /* \"#utility.yul\":6638:6642   */\n      dup2\n        /* \"#utility.yul\":6634:6654   */\n      sub\n        /* \"#utility.yul\":6630:6631   */\n      0x00\n        /* \"#utility.yul\":6619:6628   */\n      dup4\n        /* \"#utility.yul\":6615:6632   */\n      add\n        /* \"#utility.yul\":6608:6655   */\n      mstore\n        /* \"#utility.yul\":6672:6803   */\n      tag_185\n        /* \"#utility.yul\":6798:6802   */\n      dup2\n        /* \"#utility.yul\":6672:6803   */\n      tag_120\n      jump\t// in\n    tag_185:\n        /* \"#utility.yul\":6664:6803   */\n      swap1\n      pop\n        /* \"#utility.yul\":6391:6810   */\n      swap2\n      swap1\n      pop\n      jump\t// out\n        /* \"#utility.yul\":6816:6992   */\n    tag_121:\n        /* \"#utility.yul\":6956:6984   */\n      0x4e6f20636f6e747269627574696f6e7320746f20726566756e64000000000000\n        /* \"#utility.yul\":6952:6953   */\n      0x00\n        /* \"#utility.yul\":6944:6950   */\n      dup3\n        /* \"#utility.yul\":6940:6954   */\n      add\n        /* \"#utility.yul\":6933:6985   */\n      mstore\n        /* \"#utility.yul\":6816:6992   */\n      pop\n      jump\t// out\n        /* \"#utility.yul\":6998:7364   */\n    tag_122:\n        /* \"#utility.yul\":7140:7143   */\n      0x00\n        /* \"#utility.yul\":7161:7228   */\n      tag_188\n        /* \"#utility.yul\":7225:7227   */\n      0x1a\n        /* \"#utility.yul\":7220:7223   */\n      dup4\n        /* \"#utility.yul\":7161:7228   */\n      tag_112\n      jump\t// in\n    tag_188:\n        /* \"#utility.yul\":7154:7228   */\n      swap2\n      pop\n        /* \"#utility.yul\":7237:7330   */\n      tag_189\n        /* \"#utility.yul\":7326:7329   */\n      dup3\n        /* \"#utility.yul\":7237:7330   */\n      tag_121\n      jump\t// in\n    tag_189:\n        /* \"#utility.yul\":7355:7357   */\n      0x20\n        /* \"#utility.yul\":7350:7353   */\n      dup3\n        /* \"#utility.yul\":7346:7358   */\n      add\n        /* \"#utility.yul\":7339:7358   */\n      swap1\n      pop\n        /* \"#utility.yul\":6998:7364   */\n      swap2\n      swap1\n      pop\n      jump\t// out\n        /* \"#utility.yul\":7370:7789   */\n    tag_83:\n        /* \"#utility.yul\":7536:7540   */\n      0x00\n        /* \"#utility.yul\":7574:7576   */\n      0x20\n        /* \"#utility.yul\":7563:7572   */\n      dup3\n        /* \"#utility.yul\":7559:7577   */\n      add\n        /* \"#utility.yul\":7551:7577   */\n      swap1\n      pop\n        /* \"#utility.yul\":7623:7632   */\n      dup2\n        /* \"#utility.yul\":7617:7621   */\n      dup2\n        /* \"#utility.yul\":7613:7633   */\n      sub\n        /* \"#utility.yul\":7609:7610   */\n      0x00\n        /* \"#utility.yul\":7598:7607   */\n      dup4\n        /* \"#utility.yul\":7594:7611   */\n      add\n        /* \"#utility.yul\":7587:7634   */\n      mstore\n        /* \"#utility.yul\":7651:7782   */\n      tag_191\n        /* \"#utility.yul\":7777:7781   */\n      dup2\n        /* \"#utility.yul\":7651:7782   */\n      tag_122\n      jump\t// in\n    tag_191:\n        /* \"#utility.yul\":7643:7782   */\n      swap1\n      pop\n        /* \"#utility.yul\":7370:7789   */\n      swap2\n      swap1\n      pop\n      jump\t// out\n        /* \"#utility.yul\":7795:8017   */\n    tag_123:\n        /* \"#utility.yul\":7935:7969   */\n      0x5468652063726f776466756e64696e672063616d706169676e2068617320656e\n        /* \"#utility.yul\":7931:7932   */\n      0x00\n        /* \"#utility.yul\":7923:7929   */\n      dup3\n        /* \"#utility.yul\":7919:7933   */\n      add\n        /* \"#utility.yul\":7912:7970   */\n      mstore\n        /* \"#utility.yul\":8004:8009   */\n      0x6465640000000000000000000000000000000000000000000000000000000000\n        /* \"#utility.yul\":7999:8001   */\n      0x20\n        /* \"#utility.yul\":7991:7997   */\n      dup3\n        /* \"#utility.yul\":7987:8002   */\n      add\n        /* \"#utility.yul\":7980:8010   */\n      mstore\n        /* \"#utility.yul\":7795:8017   */\n      pop\n      jump\t// out\n        /* \"#utility.yul\":8023:8389   */\n    tag_124:\n        /* \"#utility.yul\":8165:8168   */\n      0x00\n        /* \"#utility.yul\":8186:8253   */\n      tag_194\n        /* \"#utility.yul\":8250:8252   */\n      0x23\n        /* \"#utility.yul\":8245:8248   */\n      dup4\n        /* \"#utility.yul\":8186:8253   */\n      tag_112\n      jump\t// in\n    tag_194:\n        /* \"#utility.yul\":8179:8253   */\n      swap2\n      pop\n        /* \"#utility.yul\":8262:8355   */\n      tag_195\n        /* \"#utility.yul\":8351:8354   */\n      dup3\n        /* \"#utility.yul\":8262:8355   */\n      tag_123\n      jump\t// in\n    tag_195:\n        /* \"#utility.yul\":8380:8382   */\n      0x40\n        /* \"#utility.yul\":8375:8378   */\n      dup3\n        /* \"#utility.yul\":8371:8383   */\n      add\n        /* \"#utility.yul\":8364:8383   */\n      swap1\n      pop\n        /* \"#utility.yul\":8023:8389   */\n      swap2\n      swap1\n      pop\n      jump\t// out\n        /* \"#utility.yul\":8395:8814   */\n    tag_90:\n        /* \"#utility.yul\":8561:8565   */\n      0x00\n        /* \"#utility.yul\":8599:8601   */\n      0x20\n        /* \"#utility.yul\":8588:8597   */\n      dup3\n        /* \"#utility.yul\":8584:8602   */\n      add\n        /* \"#utility.yul\":8576:8602   */\n      swap1\n      pop\n        /* \"#utility.yul\":8648:8657   */\n      dup2\n        /* \"#utility.yul\":8642:8646   */\n      dup2\n        /* \"#utility.yul\":8638:8658   */\n      sub\n        /* \"#utility.yul\":8634:8635   */\n      0x00\n        /* \"#utility.yul\":8623:8632   */\n      dup4\n        /* \"#utility.yul\":8619:8636   */\n      add\n        /* \"#utility.yul\":8612:8659   */\n      mstore\n        /* \"#utility.yul\":8676:8807   */\n      tag_197\n        /* \"#utility.yul\":8802:8806   */\n      dup2\n        /* \"#utility.yul\":8676:8807   */\n      tag_124\n      jump\t// in\n    tag_197:\n        /* \"#utility.yul\":8668:8807   */\n      swap1\n      pop\n        /* \"#utility.yul\":8395:8814   */\n      swap2\n      swap1\n      pop\n      jump\t// out\n        /* \"#utility.yul\":8820:9042   */\n    tag_125:\n        /* \"#utility.yul\":8960:8994   */\n      0x436f6e747269627574696f6e206d757374206265206772656174657220746861\n        /* \"#utility.yul\":8956:8957   */\n      0x00\n        /* \"#utility.yul\":8948:8954   */\n      dup3\n        /* \"#utility.yul\":8944:8958   */\n      add\n        /* \"#utility.yul\":8937:8995   */\n      mstore\n        /* \"#utility.yul\":9029:9034   */\n      0x6e20300000000000000000000000000000000000000000000000000000000000\n        /* \"#utility.yul\":9024:9026   */\n      0x20\n        /* \"#utility.yul\":9016:9022   */\n      dup3\n        /* \"#utility.yul\":9012:9027   */\n      add\n        /* \"#utility.yul\":9005:9035   */\n      mstore\n        /* \"#utility.yul\":8820:9042   */\n      pop\n      jump\t// out\n        /* \"#utility.yul\":9048:9414   */\n    tag_126:\n        /* \"#utility.yul\":9190:9193   */\n      0x00\n        /* \"#utility.yul\":9211:9278   */\n      tag_200\n        /* \"#utility.yul\":9275:9277   */\n      0x23\n        /* \"#utility.yul\":9270:9273   */\n      dup4\n        /* \"#utility.yul\":9211:9278   */\n      tag_112\n      jump\t// in\n    tag_200:\n        /* \"#utility.yul\":9204:9278   */\n      swap2\n      pop\n        /* \"#utility.yul\":9287:9380   */\n      tag_201\n        /* \"#utility.yul\":9376:9379   */\n      dup3\n        /* \"#utility.yul\":9287:9380   */\n      tag_125\n      jump\t// in\n    tag_201:\n        /* \"#utility.yul\":9405:9407   */\n      0x40\n        /* \"#utility.yul\":9400:9403   */\n      dup3\n        /* \"#utility.yul\":9396:9408   */\n      add\n        /* \"#utility.yul\":9389:9408   */\n      swap1\n      pop\n        /* \"#utility.yul\":9048:9414   */\n      swap2\n      swap1\n      pop\n      jump\t// out\n        /* \"#utility.yul\":9420:9839   */\n    tag_94:\n        /* \"#utility.yul\":9586:9590   */\n      0x00\n        /* \"#utility.yul\":9624:9626   */\n      0x20\n        /* \"#utility.yul\":9613:9622   */\n      dup3\n        /* \"#utility.yul\":9609:9627   */\n      add\n        /* \"#utility.yul\":9601:9627   */\n      swap1\n      pop\n        /* \"#utility.yul\":9673:9682   */\n      dup2\n        /* \"#utility.yul\":9667:9671   */\n      dup2\n        /* \"#utility.yul\":9663:9683   */\n      sub\n        /* \"#utility.yul\":9659:9660   */\n      0x00\n        /* \"#utility.yul\":9648:9657   */\n      dup4\n        /* \"#utility.yul\":9644:9661   */\n      add\n        /* \"#utility.yul\":9637:9684   */\n      mstore\n        /* \"#utility.yul\":9701:9832   */\n      tag_203\n        /* \"#utility.yul\":9827:9831   */\n      dup2\n        /* \"#utility.yul\":9701:9832   */\n      tag_126\n      jump\t// in\n    tag_203:\n        /* \"#utility.yul\":9693:9832   */\n      swap1\n      pop\n        /* \"#utility.yul\":9420:9839   */\n      swap2\n      swap1\n      pop\n      jump\t// out\n        /* \"#utility.yul\":9845:10150   */\n    tag_96:\n        /* \"#utility.yul\":9885:9888   */\n      0x00\n        /* \"#utility.yul\":9904:9924   */\n      tag_205\n        /* \"#utility.yul\":9922:9923   */\n      dup3\n        /* \"#utility.yul\":9904:9924   */\n      tag_101\n      jump\t// in\n    tag_205:\n        /* \"#utility.yul\":9899:9924   */\n      swap2\n      pop\n        /* \"#utility.yul\":9938:9958   */\n      tag_206\n        /* \"#utility.yul\":9956:9957   */\n      dup4\n        /* \"#utility.yul\":9938:9958   */\n      tag_101\n      jump\t// in\n    tag_206:\n        /* \"#utility.yul\":9933:9958   */\n      swap3\n      pop\n        /* \"#utility.yul\":10092:10093   */\n      dup3\n        /* \"#utility.yul\":10024:10090   */\n      0xffffffffffffffffffffffffffffffffffffffffffffffffffffffffffffffff\n        /* \"#utility.yul\":10020:10094   */\n      sub\n        /* \"#utility.yul\":10017:10018   */\n      dup3\n        /* \"#utility.yul\":10014:10095   */\n      gt\n        /* \"#utility.yul\":10011:10118   */\n      iszero\n      tag_207\n      jumpi\n        /* \"#utility.yul\":10098:10116   */\n      tag_208\n      tag_111\n      jump\t// in\n    tag_208:\n        /* \"#utility.yul\":10011:10118   */\n    tag_207:\n        /* \"#utility.yul\":10142:10143   */\n      dup3\n        /* \"#utility.yul\":10139:10140   */\n      dup3\n        /* \"#utility.yul\":10135:10144   */\n      add\n        /* \"#utility.yul\":10128:10144   */\n      swap1\n      pop\n        /* \"#utility.yul\":9845:10150   */\n      swap3\n      swap2\n      pop\n      pop\n      jump\t// out\n\n    auxdata: 0xa26469706673582212205847312231d791c8bc461d1a5416def4bc7fd5ddf5779eeb36c616b4a832bad664736f6c634300080e0033\n}\n",
				"bytecode": {
					"linkReferences": {},
					"object": "60806040523480156200001157600080fd5b5060405162000f2438038062000f248339818101604052810190620000379190620000da565b336000806101000a81548173ffffffffffffffffffffffffffffffffffffffff021916908373ffffffffffffffffffffffffffffffffffffffff1602179055508160018190555080426200008c919062000150565b6002819055505050620001ad565b600080fd5b6000819050919050565b620000b4816200009f565b8114620000c057600080fd5b50565b600081519050620000d481620000a9565b92915050565b60008060408385031215620000f457620000f36200009a565b5b60006200010485828601620000c3565b92505060206200011785828601620000c3565b9150509250929050565b7f4e487b7100000000000000000000000000000000000000000000000000000000600052601160045260246000fd5b60006200015d826200009f565b91506200016a836200009f565b9250827fffffffffffffffffffffffffffffffffffffffffffffffffffffffffffffffff03821115620001a257620001a162000121565b5b828201905092915050565b610d6780620001bd6000396000f3fe6080604052600436106100915760003560e01c806342e94c901161005957806342e94c9014610159578063590e1ae3146101965780638da5cb5b146101ad578063968ed600146101d8578063d7bb99ba1461020357610091565b80631300a6d1146100965780631ba11f44146100c157806324600fc3146100ec57806329dcb0cf14610103578063401938831461012e575b600080fd5b3480156100a257600080fd5b506100ab61020d565b6040516100b89190610803565b60405180910390f35b3480156100cd57600080fd5b506100d6610235565b6040516100e39190610803565b60405180910390f35b3480156100f857600080fd5b50610101610261565b005b34801561010f57600080fd5b5061011861044c565b6040516101259190610803565b60405180910390f35b34801561013a57600080fd5b50610143610452565b6040516101509190610803565b60405180910390f35b34801561016557600080fd5b50610180600480360381019061017b9190610881565b610458565b60405161018d9190610803565b60405180910390f35b3480156101a257600080fd5b506101ab610470565b005b3480156101b957600080fd5b506101c2610649565b6040516101cf91906108bd565b60405180910390f35b3480156101e457600080fd5b506101ed61066d565b6040516101fa9190610803565b60405180910390f35b61020b610673565b005b600060025442106102215760009050610232565b4260025461022f9190610907565b90505b90565b60006001546003541061024b576000905061025e565b60035460015461025b9190610907565b90505b90565b60008054906101000a900473ffffffffffffffffffffffffffffffffffffffff1673ffffffffffffffffffffffffffffffffffffffff163373ffffffffffffffffffffffffffffffffffffffff16146102ef576040517f08c379a00000000000000000000000000000000000000000000000000000000081526004016102e6906109be565b60405180910390fd5b6002544211610333576040517f08c379a000000000000000000000000000000000000000000000000000000000815260040161032a90610a2a565b60405180910390fd5b600154600354101561037a576040517f08c379a000000000000000000000000000000000000000000000000000000000815260040161037190610a96565b60405180910390fd5b60006003549050600060038190555060008054906101000a900473ffffffffffffffffffffffffffffffffffffffff1673ffffffffffffffffffffffffffffffffffffffff166108fc829081150290604051600060405180830381858888f193505050501580156103ef573d6000803e3d6000fd5b507feaff4b37086828766ad3268786972c0cd24259d4c87a80f9d3963a3c3d999b0d60008054906101000a900473ffffffffffffffffffffffffffffffffffffffff1682604051610441929190610ab6565b60405180910390a150565b60025481565b60015481565b60046020528060005260406000206000915090505481565b60025442116104b4576040517f08c379a00000000000000000000000000000000000000000000000000000000081526004016104ab90610a2a565b60405180910390fd5b600154600354106104fa576040517f08c379a00000000000000000000000000000000000000000000000000000000081526004016104f190610b2b565b60405180910390fd5b6000600460003373ffffffffffffffffffffffffffffffffffffffff1673ffffffffffffffffffffffffffffffffffffffff16815260200190815260200160002054905060008111610581576040517f08c379a000000000000000000000000000000000000000000000000000000000815260040161057890610b97565b60405180910390fd5b6000600460003373ffffffffffffffffffffffffffffffffffffffff1673ffffffffffffffffffffffffffffffffffffffff168152602001908152602001600020819055503373ffffffffffffffffffffffffffffffffffffffff166108fc829081150290604051600060405180830381858888f1935050505015801561060c573d6000803e3d6000fd5b507fa171b6942063c6f2800ce40a780edce37baa2b618571b11eedd1e69e626e7d76338260405161063e929190610ab6565b60405180910390a150565b60008054906101000a900473ffffffffffffffffffffffffffffffffffffffff1681565b60035481565b6002544211156106b8576040517f08c379a00000000000000000000000000000000000000000000000000000000081526004016106af90610c29565b60405180910390fd5b600034116106fb576040517f08c379a00000000000000000000000000000000000000000000000000000000081526004016106f290610cbb565b60405180910390fd5b34600460003373ffffffffffffffffffffffffffffffffffffffff1673ffffffffffffffffffffffffffffffffffffffff168152602001908152602001600020600082825461074a9190610cdb565b9250508190555034600360008282546107639190610cdb565b925050819055507f1bb460ccaaf70fbacfec17a376f8acbd278c1405590ffcc8ebe4b88daf4f64ad333460405161079b929190610ab6565b60405180910390a1600154600354106107e8577ffbfd8ab7c24300fa9888cd721c8565a7da56759384781283684dcf7c7c4a846b6003546040516107df9190610803565b60405180910390a15b565b6000819050919050565b6107fd816107ea565b82525050565b600060208201905061081860008301846107f4565b92915050565b600080fd5b600073ffffffffffffffffffffffffffffffffffffffff82169050919050565b600061084e82610823565b9050919050565b61085e81610843565b811461086957600080fd5b50565b60008135905061087b81610855565b92915050565b6000602082840312156108975761089661081e565b5b60006108a58482850161086c565b91505092915050565b6108b781610843565b82525050565b60006020820190506108d260008301846108ae565b92915050565b7f4e487b7100000000000000000000000000000000000000000000000000000000600052601160045260246000fd5b6000610912826107ea565b915061091d836107ea565b9250828210156109305761092f6108d8565b5b828203905092915050565b600082825260208201905092915050565b7f4f6e6c7920746865206f776e65722063616e20706572666f726d20746869732060008201527f616374696f6e0000000000000000000000000000000000000000000000000000602082015250565b60006109a860268361093b565b91506109b38261094c565b604082019050919050565b600060208201905081810360008301526109d78161099b565b9050919050565b7f43616d706169676e206973207374696c6c206f6e676f696e6700000000000000600082015250565b6000610a1460198361093b565b9150610a1f826109de565b602082019050919050565b60006020820190508181036000830152610a4381610a07565b9050919050565b7f46756e64696e6720676f616c206e6f74206d6574000000000000000000000000600082015250565b6000610a8060148361093b565b9150610a8b82610a4a565b602082019050919050565b60006020820190508181036000830152610aaf81610a73565b9050919050565b6000604082019050610acb60008301856108ae565b610ad860208301846107f4565b9392505050565b7f46756e64696e6720676f616c20686173206265656e206d657400000000000000600082015250565b6000610b1560198361093b565b9150610b2082610adf565b602082019050919050565b60006020820190508181036000830152610b4481610b08565b9050919050565b7f4e6f20636f6e747269627574696f6e7320746f20726566756e64000000000000600082015250565b6000610b81601a8361093b565b9150610b8c82610b4b565b602082019050919050565b60006020820190508181036000830152610bb081610b74565b9050919050565b7f5468652063726f776466756e64696e672063616d706169676e2068617320656e60008201527f6465640000000000000000000000000000000000000000000000000000000000602082015250565b6000610c1360238361093b565b9150610c1e82610bb7565b604082019050919050565b60006020820190508181036000830152610c4281610c06565b9050919050565b7f436f6e747269627574696f6e206d75737420626520677265617465722074686160008201527f6e20300000000000000000000000000000000000000000000000000000000000602082015250565b6000610ca560238361093b565b9150610cb082610c49565b604082019050919050565b60006020820190508181036000830152610cd481610c98565b9050919050565b6000610ce6826107ea565b9150610cf1836107ea565b9250827fffffffffffffffffffffffffffffffffffffffffffffffffffffffffffffffff03821115610d2657610d256108d8565b5b82820190509291505056fea26469706673582212205847312231d791c8bc461d1a5416def4bc7fd5ddf5779eeb36c616b4a832bad664736f6c634300080e0033",
					"opcodes": "PUSH1 0x80 PUSH1 0x40 MSTORE CALLVALUE DUP1 ISZERO PUSH3 0x11 JUMPI PUSH1 0x0 DUP1 REVERT JUMPDEST POP PUSH1 0x40 MLOAD PUSH3 0xF24 CODESIZE SUB DUP1 PUSH3 0xF24 DUP4 CODECOPY DUP2 DUP2 ADD PUSH1 0x40 MSTORE DUP2 ADD SWAP1 PUSH3 0x37 SWAP2 SWAP1 PUSH3 0xDA JUMP JUMPDEST CALLER PUSH1 0x0 DUP1 PUSH2 0x100 EXP DUP2 SLOAD DUP2 PUSH20 0xFFFFFFFFFFFFFFFFFFFFFFFFFFFFFFFFFFFFFFFF MUL NOT AND SWAP1 DUP4 PUSH20 0xFFFFFFFFFFFFFFFFFFFFFFFFFFFFFFFFFFFFFFFF AND MUL OR SWAP1 SSTORE POP DUP2 PUSH1 0x1 DUP2 SWAP1 SSTORE POP DUP1 TIMESTAMP PUSH3 0x8C SWAP2 SWAP1 PUSH3 0x150 JUMP JUMPDEST PUSH1 0x2 DUP2 SWAP1 SSTORE POP POP POP PUSH3 0x1AD JUMP JUMPDEST PUSH1 0x0 DUP1 REVERT JUMPDEST PUSH1 0x0 DUP2 SWAP1 POP SWAP2 SWAP1 POP JUMP JUMPDEST PUSH3 0xB4 DUP2 PUSH3 0x9F JUMP JUMPDEST DUP2 EQ PUSH3 0xC0 JUMPI PUSH1 0x0 DUP1 REVERT JUMPDEST POP JUMP JUMPDEST PUSH1 0x0 DUP2 MLOAD SWAP1 POP PUSH3 0xD4 DUP2 PUSH3 0xA9 JUMP JUMPDEST SWAP3 SWAP2 POP POP JUMP JUMPDEST PUSH1 0x0 DUP1 PUSH1 0x40 DUP4 DUP6 SUB SLT ISZERO PUSH3 0xF4 JUMPI PUSH3 0xF3 PUSH3 0x9A JUMP JUMPDEST JUMPDEST PUSH1 0x0 PUSH3 0x104 DUP6 DUP3 DUP7 ADD PUSH3 0xC3 JUMP JUMPDEST SWAP3 POP POP PUSH1 0x20 PUSH3 0x117 DUP6 DUP3 DUP7 ADD PUSH3 0xC3 JUMP JUMPDEST SWAP2 POP POP SWAP3 POP SWAP3 SWAP1 POP JUMP JUMPDEST PUSH32 0x4E487B7100000000000000000000000000000000000000000000000000000000 PUSH1 0x0 MSTORE PUSH1 0x11 PUSH1 0x4 MSTORE PUSH1 0x24 PUSH1 0x0 REVERT JUMPDEST PUSH1 0x0 PUSH3 0x15D DUP3 PUSH3 0x9F JUMP JUMPDEST SWAP2 POP PUSH3 0x16A DUP4 PUSH3 0x9F JUMP JUMPDEST SWAP3 POP DUP3 PUSH32 0xFFFFFFFFFFFFFFFFFFFFFFFFFFFFFFFFFFFFFFFFFFFFFFFFFFFFFFFFFFFFFFFF SUB DUP3 GT ISZERO PUSH3 0x1A2 JUMPI PUSH3 0x1A1 PUSH3 0x121 JUMP JUMPDEST JUMPDEST DUP3 DUP3 ADD SWAP1 POP SWAP3 SWAP2 POP POP JUMP JUMPDEST PUSH2 0xD67 DUP1 PUSH3 0x1BD PUSH1 0x0 CODECOPY PUSH1 0x0 RETURN INVALID PUSH1 0x80 PUSH1 0x40 MSTORE PUSH1 0x4 CALLDATASIZE LT PUSH2 0x91 JUMPI PUSH1 0x0 CALLDATALOAD PUSH1 0xE0 SHR DUP1 PUSH4 0x42E94C90 GT PUSH2 0x59 JUMPI DUP1 PUSH4 0x42E94C90 EQ PUSH2 0x159 JUMPI DUP1 PUSH4 0x590E1AE3 EQ PUSH2 0x196 JUMPI DUP1 PUSH4 0x8DA5CB5B EQ PUSH2 0x1AD JUMPI DUP1 PUSH4 0x968ED600 EQ PUSH2 0x1D8 JUMPI DUP1 PUSH4 0xD7BB99BA EQ PUSH2 0x203 JUMPI PUSH2 0x91 JUMP JUMPDEST DUP1 PUSH4 0x1300A6D1 EQ PUSH2 0x96 JUMPI DUP1 PUSH4 0x1BA11F44 EQ PUSH2 0xC1 JUMPI DUP1 PUSH4 0x24600FC3 EQ PUSH2 0xEC JUMPI DUP1 PUSH4 0x29DCB0CF EQ PUSH2 0x103 JUMPI DUP1 PUSH4 0x40193883 EQ PUSH2 0x12E JUMPI JUMPDEST PUSH1 0x0 DUP1 REVERT JUMPDEST CALLVALUE DUP1 ISZERO PUSH2 0xA2 JUMPI PUSH1 0x0 DUP1 REVERT JUMPDEST POP PUSH2 0xAB PUSH2 0x20D JUMP JUMPDEST PUSH1 0x40 MLOAD PUSH2 0xB8 SWAP2 SWAP1 PUSH2 0x803 JUMP JUMPDEST PUSH1 0x40 MLOAD DUP1 SWAP2 SUB SWAP1 RETURN JUMPDEST CALLVALUE DUP1 ISZERO PUSH2 0xCD JUMPI PUSH1 0x0 DUP1 REVERT JUMPDEST POP PUSH2 0xD6 PUSH2 0x235 JUMP JUMPDEST PUSH1 0x40 MLOAD PUSH2 0xE3 SWAP2 SWAP1 PUSH2 0x803 JUMP JUMPDEST PUSH1 0x40 MLOAD DUP1 SWAP2 SUB SWAP1 RETURN JUMPDEST CALLVALUE DUP1 ISZERO PUSH2 0xF8 JUMPI PUSH1 0x0 DUP1 REVERT JUMPDEST POP PUSH2 0x101 PUSH2 0x261 JUMP JUMPDEST STOP JUMPDEST CALLVALUE DUP1 ISZERO PUSH2 0x10F JUMPI PUSH1 0x0 DUP1 REVERT JUMPDEST POP PUSH2 0x118 PUSH2 0x44C JUMP JUMPDEST PUSH1 0x40 MLOAD PUSH2 0x125 SWAP2 SWAP1 PUSH2 0x803 JUMP JUMPDEST PUSH1 0x40 MLOAD DUP1 SWAP2 SUB SWAP1 RETURN JUMPDEST CALLVALUE DUP1 ISZERO PUSH2 0x13A JUMPI PUSH1 0x0 DUP1 REVERT JUMPDEST POP PUSH2 0x143 PUSH2 0x452 JUMP JUMPDEST PUSH1 0x40 MLOAD PUSH2 0x150 SWAP2 SWAP1 PUSH2 0x803 JUMP JUMPDEST PUSH1 0x40 MLOAD DUP1 SWAP2 SUB SWAP1 RETURN JUMPDEST CALLVALUE DUP1 ISZERO PUSH2 0x165 JUMPI PUSH1 0x0 DUP1 REVERT JUMPDEST POP PUSH2 0x180 PUSH1 0x4 DUP1 CALLDATASIZE SUB DUP2 ADD SWAP1 PUSH2 0x17B SWAP2 SWAP1 PUSH2 0x881 JUMP JUMPDEST PUSH2 0x458 JUMP JUMPDEST PUSH1 0x40 MLOAD PUSH2 0x18D SWAP2 SWAP1 PUSH2 0x803 JUMP JUMPDEST PUSH1 0x40 MLOAD DUP1 SWAP2 SUB SWAP1 RETURN JUMPDEST CALLVALUE DUP1 ISZERO PUSH2 0x1A2 JUMPI PUSH1 0x0 DUP1 REVERT JUMPDEST POP PUSH2 0x1AB PUSH2 0x470 JUMP JUMPDEST STOP JUMPDEST CALLVALUE DUP1 ISZERO PUSH2 0x1B9 JUMPI PUSH1 0x0 DUP1 REVERT JUMPDEST POP PUSH2 0x1C2 PUSH2 0x649 JUMP JUMPDEST PUSH1 0x40 MLOAD PUSH2 0x1CF SWAP2 SWAP1 PUSH2 0x8BD JUMP JUMPDEST PUSH1 0x40 MLOAD DUP1 SWAP2 SUB SWAP1 RETURN JUMPDEST CALLVALUE DUP1 ISZERO PUSH2 0x1E4 JUMPI PUSH1 0x0 DUP1 REVERT JUMPDEST POP PUSH2 0x1ED PUSH2 0x66D JUMP JUMPDEST PUSH1 0x40 MLOAD PUSH2 0x1FA SWAP2 SWAP1 PUSH2 0x803 JUMP JUMPDEST PUSH1 0x40 MLOAD DUP1 SWAP2 SUB SWAP1 RETURN JUMPDEST PUSH2 0x20B PUSH2 0x673 JUMP JUMPDEST STOP JUMPDEST PUSH1 0x0 PUSH1 0x2 SLOAD TIMESTAMP LT PUSH2 0x221 JUMPI PUSH1 0x0 SWAP1 POP PUSH2 0x232 JUMP JUMPDEST TIMESTAMP PUSH1 0x2 SLOAD PUSH2 0x22F SWAP2 SWAP1 PUSH2 0x907 JUMP JUMPDEST SWAP1 POP JUMPDEST SWAP1 JUMP JUMPDEST PUSH1 0x0 PUSH1 0x1 SLOAD PUSH1 0x3 SLOAD LT PUSH2 0x24B JUMPI PUSH1 0x0 SWAP1 POP PUSH2 0x25E JUMP JUMPDEST PUSH1 0x3 SLOAD PUSH1 0x1 SLOAD PUSH2 0x25B SWAP2 SWAP1 PUSH2 0x907 JUMP JUMPDEST SWAP1 POP JUMPDEST SWAP1 JUMP JUMPDEST PUSH1 0x0 DUP1 SLOAD SWAP1 PUSH2 0x100 EXP SWAP1 DIV PUSH20 0xFFFFFFFFFFFFFFFFFFFFFFFFFFFFFFFFFFFFFFFF AND PUSH20 0xFFFFFFFFFFFFFFFFFFFFFFFFFFFFFFFFFFFFFFFF AND CALLER PUSH20 0xFFFFFFFFFFFFFFFFFFFFFFFFFFFFFFFFFFFFFFFF AND EQ PUSH2 0x2EF JUMPI PUSH1 0x40 MLOAD PUSH32 0x8C379A000000000000000000000000000000000000000000000000000000000 DUP2 MSTORE PUSH1 0x4 ADD PUSH2 0x2E6 SWAP1 PUSH2 0x9BE JUMP JUMPDEST PUSH1 0x40 MLOAD DUP1 SWAP2 SUB SWAP1 REVERT JUMPDEST PUSH1 0x2 SLOAD TIMESTAMP GT PUSH2 0x333 JUMPI PUSH1 0x40 MLOAD PUSH32 0x8C379A000000000000000000000000000000000000000000000000000000000 DUP2 MSTORE PUSH1 0x4 ADD PUSH2 0x32A SWAP1 PUSH2 0xA2A JUMP JUMPDEST PUSH1 0x40 MLOAD DUP1 SWAP2 SUB SWAP1 REVERT JUMPDEST PUSH1 0x1 SLOAD PUSH1 0x3 SLOAD LT ISZERO PUSH2 0x37A JUMPI PUSH1 0x40 MLOAD PUSH32 0x8C379A000000000000000000000000000000000000000000000000000000000 DUP2 MSTORE PUSH1 0x4 ADD PUSH2 0x371 SWAP1 PUSH2 0xA96 JUMP JUMPDEST PUSH1 0x40 MLOAD DUP1 SWAP2 SUB SWAP1 REVERT JUMPDEST PUSH1 0x0 PUSH1 0x3 SLOAD SWAP1 POP PUSH1 0x0 PUSH1 0x3 DUP2 SWAP1 SSTORE POP PUSH1 0x0 DUP1 SLOAD SWAP1 PUSH2 0x100 EXP SWAP1 DIV PUSH20 0xFFFFFFFFFFFFFFFFFFFFFFFFFFFFFFFFFFFFFFFF AND PUSH20 0xFFFFFFFFFFFFFFFFFFFFFFFFFFFFFFFFFFFFFFFF AND PUSH2 0x8FC DUP3 SWAP1 DUP2 ISZERO MUL SWAP1 PUSH1 0x40 MLOAD PUSH1 0x0 PUSH1 0x40 MLOAD DUP1 DUP4 SUB DUP2 DUP6 DUP9 DUP9 CALL SWAP4 POP POP POP POP ISZERO DUP1 ISZERO PUSH2 0x3EF JUMPI RETURNDATASIZE PUSH1 0x0 DUP1 RETURNDATACOPY RETURNDATASIZE PUSH1 0x0 REVERT JUMPDEST POP PUSH32 0xEAFF4B37086828766AD3268786972C0CD24259D4C87A80F9D3963A3C3D999B0D PUSH1 0x0 DUP1 SLOAD SWAP1 PUSH2 0x100 EXP SWAP1 DIV PUSH20 0xFFFFFFFFFFFFFFFFFFFFFFFFFFFFFFFFFFFFFFFF AND DUP3 PUSH1 0x40 MLOAD PUSH2 0x441 SWAP3 SWAP2 SWAP1 PUSH2 0xAB6 JUMP JUMPDEST PUSH1 0x40 MLOAD DUP1 SWAP2 SUB SWAP1 LOG1 POP JUMP JUMPDEST PUSH1 0x2 SLOAD DUP2 JUMP JUMPDEST PUSH1 0x1 SLOAD DUP2 JUMP JUMPDEST PUSH1 0x4 PUSH1 0x20 MSTORE DUP1 PUSH1 0x0 MSTORE PUSH1 0x40 PUSH1 0x0 KECCAK256 PUSH1 0x0 SWAP2 POP SWAP1 POP SLOAD DUP2 JUMP JUMPDEST PUSH1 0x2 SLOAD TIMESTAMP GT PUSH2 0x4B4 JUMPI PUSH1 0x40 MLOAD PUSH32 0x8C379A000000000000000000000000000000000000000000000000000000000 DUP2 MSTORE PUSH1 0x4 ADD PUSH2 0x4AB SWAP1 PUSH2 0xA2A JUMP JUMPDEST PUSH1 0x40 MLOAD DUP1 SWAP2 SUB SWAP1 REVERT JUMPDEST PUSH1 0x1 SLOAD PUSH1 0x3 SLOAD LT PUSH2 0x4FA JUMPI PUSH1 0x40 MLOAD PUSH32 0x8C379A000000000000000000000000000000000000000000000000000000000 DUP2 MSTORE PUSH1 0x4 ADD PUSH2 0x4F1 SWAP1 PUSH2 0xB2B JUMP JUMPDEST PUSH1 0x40 MLOAD DUP1 SWAP2 SUB SWAP1 REVERT JUMPDEST PUSH1 0x0 PUSH1 0x4 PUSH1 0x0 CALLER PUSH20 0xFFFFFFFFFFFFFFFFFFFFFFFFFFFFFFFFFFFFFFFF AND PUSH20 0xFFFFFFFFFFFFFFFFFFFFFFFFFFFFFFFFFFFFFFFF AND DUP2 MSTORE PUSH1 0x20 ADD SWAP1 DUP2 MSTORE PUSH1 0x20 ADD PUSH1 0x0 KECCAK256 SLOAD SWAP1 POP PUSH1 0x0 DUP2 GT PUSH2 0x581 JUMPI PUSH1 0x40 MLOAD PUSH32 0x8C379A000000000000000000000000000000000000000000000000000000000 DUP2 MSTORE PUSH1 0x4 ADD PUSH2 0x578 SWAP1 PUSH2 0xB97 JUMP JUMPDEST PUSH1 0x40 MLOAD DUP1 SWAP2 SUB SWAP1 REVERT JUMPDEST PUSH1 0x0 PUSH1 0x4 PUSH1 0x0 CALLER PUSH20 0xFFFFFFFFFFFFFFFFFFFFFFFFFFFFFFFFFFFFFFFF AND PUSH20 0xFFFFFFFFFFFFFFFFFFFFFFFFFFFFFFFFFFFFFFFF AND DUP2 MSTORE PUSH1 0x20 ADD SWAP1 DUP2 MSTORE PUSH1 0x20 ADD PUSH1 0x0 KECCAK256 DUP2 SWAP1 SSTORE POP CALLER PUSH20 0xFFFFFFFFFFFFFFFFFFFFFFFFFFFFFFFFFFFFFFFF AND PUSH2 0x8FC DUP3 SWAP1 DUP2 ISZERO MUL SWAP1 PUSH1 0x40 MLOAD PUSH1 0x0 PUSH1 0x40 MLOAD DUP1 DUP4 SUB DUP2 DUP6 DUP9 DUP9 CALL SWAP4 POP POP POP POP ISZERO DUP1 ISZERO PUSH2 0x60C JUMPI RETURNDATASIZE PUSH1 0x0 DUP1 RETURNDATACOPY RETURNDATASIZE PUSH1 0x0 REVERT JUMPDEST POP PUSH32 0xA171B6942063C6F2800CE40A780EDCE37BAA2B618571B11EEDD1E69E626E7D76 CALLER DUP3 PUSH1 0x40 MLOAD PUSH2 0x63E SWAP3 SWAP2 SWAP1 PUSH2 0xAB6 JUMP JUMPDEST PUSH1 0x40 MLOAD DUP1 SWAP2 SUB SWAP1 LOG1 POP JUMP JUMPDEST PUSH1 0x0 DUP1 SLOAD SWAP1 PUSH2 0x100 EXP SWAP1 DIV PUSH20 0xFFFFFFFFFFFFFFFFFFFFFFFFFFFFFFFFFFFFFFFF AND DUP2 JUMP JUMPDEST PUSH1 0x3 SLOAD DUP2 JUMP JUMPDEST PUSH1 0x2 SLOAD TIMESTAMP GT ISZERO PUSH2 0x6B8 JUMPI PUSH1 0x40 MLOAD PUSH32 0x8C379A000000000000000000000000000000000000000000000000000000000 DUP2 MSTORE PUSH1 0x4 ADD PUSH2 0x6AF SWAP1 PUSH2 0xC29 JUMP JUMPDEST PUSH1 0x40 MLOAD DUP1 SWAP2 SUB SWAP1 REVERT JUMPDEST PUSH1 0x0 CALLVALUE GT PUSH2 0x6FB JUMPI PUSH1 0x40 MLOAD PUSH32 0x8C379A000000000000000000000000000000000000000000000000000000000 DUP2 MSTORE PUSH1 0x4 ADD PUSH2 0x6F2 SWAP1 PUSH2 0xCBB JUMP JUMPDEST PUSH1 0x40 MLOAD DUP1 SWAP2 SUB SWAP1 REVERT JUMPDEST CALLVALUE PUSH1 0x4 PUSH1 0x0 CALLER PUSH20 0xFFFFFFFFFFFFFFFFFFFFFFFFFFFFFFFFFFFFFFFF AND PUSH20 0xFFFFFFFFFFFFFFFFFFFFFFFFFFFFFFFFFFFFFFFF AND DUP2 MSTORE PUSH1 0x20 ADD SWAP1 DUP2 MSTORE PUSH1 0x20 ADD PUSH1 0x0 KECCAK256 PUSH1 0x0 DUP3 DUP3 SLOAD PUSH2 0x74A SWAP2 SWAP1 PUSH2 0xCDB JUMP JUMPDEST SWAP3 POP POP DUP2 SWAP1 SSTORE POP CALLVALUE PUSH1 0x3 PUSH1 0x0 DUP3 DUP3 SLOAD PUSH2 0x763 SWAP2 SWAP1 PUSH2 0xCDB JUMP JUMPDEST SWAP3 POP POP DUP2 SWAP1 SSTORE POP PUSH32 0x1BB460CCAAF70FBACFEC17A376F8ACBD278C1405590FFCC8EBE4B88DAF4F64AD CALLER CALLVALUE PUSH1 0x40 MLOAD PUSH2 0x79B SWAP3 SWAP2 SWAP1 PUSH2 0xAB6 JUMP JUMPDEST PUSH1 0x40 MLOAD DUP1 SWAP2 SUB SWAP1 LOG1 PUSH1 0x1 SLOAD PUSH1 0x3 SLOAD LT PUSH2 0x7E8 JUMPI PUSH32 0xFBFD8AB7C24300FA9888CD721C8565A7DA56759384781283684DCF7C7C4A846B PUSH1 0x3 SLOAD PUSH1 0x40 MLOAD PUSH2 0x7DF SWAP2 SWAP1 PUSH2 0x803 JUMP JUMPDEST PUSH1 0x40 MLOAD DUP1 SWAP2 SUB SWAP1 LOG1 JUMPDEST JUMP JUMPDEST PUSH1 0x0 DUP2 SWAP1 POP SWAP2 SWAP1 POP JUMP JUMPDEST PUSH2 0x7FD DUP2 PUSH2 0x7EA JUMP JUMPDEST DUP3 MSTORE POP POP JUMP JUMPDEST PUSH1 0x0 PUSH1 0x20 DUP3 ADD SWAP1 POP PUSH2 0x818 PUSH1 0x0 DUP4 ADD DUP5 PUSH2 0x7F4 JUMP JUMPDEST SWAP3 SWAP2 POP POP JUMP JUMPDEST PUSH1 0x0 DUP1 REVERT JUMPDEST PUSH1 0x0 PUSH20 0xFFFFFFFFFFFFFFFFFFFFFFFFFFFFFFFFFFFFFFFF DUP3 AND SWAP1 POP SWAP2 SWAP1 POP JUMP JUMPDEST PUSH1 0x0 PUSH2 0x84E DUP3 PUSH2 0x823 JUMP JUMPDEST SWAP1 POP SWAP2 SWAP1 POP JUMP JUMPDEST PUSH2 0x85E DUP2 PUSH2 0x843 JUMP JUMPDEST DUP2 EQ PUSH2 0x869 JUMPI PUSH1 0x0 DUP1 REVERT JUMPDEST POP JUMP JUMPDEST PUSH1 0x0 DUP2 CALLDATALOAD SWAP1 POP PUSH2 0x87B DUP2 PUSH2 0x855 JUMP JUMPDEST SWAP3 SWAP2 POP POP JUMP JUMPDEST PUSH1 0x0 PUSH1 0x20 DUP3 DUP5 SUB SLT ISZERO PUSH2 0x897 JUMPI PUSH2 0x896 PUSH2 0x81E JUMP JUMPDEST JUMPDEST PUSH1 0x0 PUSH2 0x8A5 DUP5 DUP3 DUP6 ADD PUSH2 0x86C JUMP JUMPDEST SWAP2 POP POP SWAP3 SWAP2 POP POP JUMP JUMPDEST PUSH2 0x8B7 DUP2 PUSH2 0x843 JUMP JUMPDEST DUP3 MSTORE POP POP JUMP JUMPDEST PUSH1 0x0 PUSH1 0x20 DUP3 ADD SWAP1 POP PUSH2 0x8D2 PUSH1 0x0 DUP4 ADD DUP5 PUSH2 0x8AE JUMP JUMPDEST SWAP3 SWAP2 POP POP JUMP JUMPDEST PUSH32 0x4E487B7100000000000000000000000000000000000000000000000000000000 PUSH1 0x0 MSTORE PUSH1 0x11 PUSH1 0x4 MSTORE PUSH1 0x24 PUSH1 0x0 REVERT JUMPDEST PUSH1 0x0 PUSH2 0x912 DUP3 PUSH2 0x7EA JUMP JUMPDEST SWAP2 POP PUSH2 0x91D DUP4 PUSH2 0x7EA JUMP JUMPDEST SWAP3 POP DUP3 DUP3 LT ISZERO PUSH2 0x930 JUMPI PUSH2 0x92F PUSH2 0x8D8 JUMP JUMPDEST JUMPDEST DUP3 DUP3 SUB SWAP1 POP SWAP3 SWAP2 POP POP JUMP JUMPDEST PUSH1 0x0 DUP3 DUP3 MSTORE PUSH1 0x20 DUP3 ADD SWAP1 POP SWAP3 SWAP2 POP POP JUMP JUMPDEST PUSH32 0x4F6E6C7920746865206F776E65722063616E20706572666F726D207468697320 PUSH1 0x0 DUP3 ADD MSTORE PUSH32 0x616374696F6E0000000000000000000000000000000000000000000000000000 PUSH1 0x20 DUP3 ADD MSTORE POP JUMP JUMPDEST PUSH1 0x0 PUSH2 0x9A8 PUSH1 0x26 DUP4 PUSH2 0x93B JUMP JUMPDEST SWAP2 POP PUSH2 0x9B3 DUP3 PUSH2 0x94C JUMP JUMPDEST PUSH1 0x40 DUP3 ADD SWAP1 POP SWAP2 SWAP1 POP JUMP JUMPDEST PUSH1 0x0 PUSH1 0x20 DUP3 ADD SWAP1 POP DUP2 DUP2 SUB PUSH1 0x0 DUP4 ADD MSTORE PUSH2 0x9D7 DUP2 PUSH2 0x99B JUMP JUMPDEST SWAP1 POP SWAP2 SWAP1 POP JUMP JUMPDEST PUSH32 0x43616D706169676E206973207374696C6C206F6E676F696E6700000000000000 PUSH1 0x0 DUP3 ADD MSTORE POP JUMP JUMPDEST PUSH1 0x0 PUSH2 0xA14 PUSH1 0x19 DUP4 PUSH2 0x93B JUMP JUMPDEST SWAP2 POP PUSH2 0xA1F DUP3 PUSH2 0x9DE JUMP JUMPDEST PUSH1 0x20 DUP3 ADD SWAP1 POP SWAP2 SWAP1 POP JUMP JUMPDEST PUSH1 0x0 PUSH1 0x20 DUP3 ADD SWAP1 POP DUP2 DUP2 SUB PUSH1 0x0 DUP4 ADD MSTORE PUSH2 0xA43 DUP2 PUSH2 0xA07 JUMP JUMPDEST SWAP1 POP SWAP2 SWAP1 POP JUMP JUMPDEST PUSH32 0x46756E64696E6720676F616C206E6F74206D6574000000000000000000000000 PUSH1 0x0 DUP3 ADD MSTORE POP JUMP JUMPDEST PUSH1 0x0 PUSH2 0xA80 PUSH1 0x14 DUP4 PUSH2 0x93B JUMP JUMPDEST SWAP2 POP PUSH2 0xA8B DUP3 PUSH2 0xA4A JUMP JUMPDEST PUSH1 0x20 DUP3 ADD SWAP1 POP SWAP2 SWAP1 POP JUMP JUMPDEST PUSH1 0x0 PUSH1 0x20 DUP3 ADD SWAP1 POP DUP2 DUP2 SUB PUSH1 0x0 DUP4 ADD MSTORE PUSH2 0xAAF DUP2 PUSH2 0xA73 JUMP JUMPDEST SWAP1 POP SWAP2 SWAP1 POP JUMP JUMPDEST PUSH1 0x0 PUSH1 0x40 DUP3 ADD SWAP1 POP PUSH2 0xACB PUSH1 0x0 DUP4 ADD DUP6 PUSH2 0x8AE JUMP JUMPDEST PUSH2 0xAD8 PUSH1 0x20 DUP4 ADD DUP5 PUSH2 0x7F4 JUMP JUMPDEST SWAP4 SWAP3 POP POP POP JUMP JUMPDEST PUSH32 0x46756E64696E6720676F616C20686173206265656E206D657400000000000000 PUSH1 0x0 DUP3 ADD MSTORE POP JUMP JUMPDEST PUSH1 0x0 PUSH2 0xB15 PUSH1 0x19 DUP4 PUSH2 0x93B JUMP JUMPDEST SWAP2 POP PUSH2 0xB20 DUP3 PUSH2 0xADF JUMP JUMPDEST PUSH1 0x20 DUP3 ADD SWAP1 POP SWAP2 SWAP1 POP JUMP JUMPDEST PUSH1 0x0 PUSH1 0x20 DUP3 ADD SWAP1 POP DUP2 DUP2 SUB PUSH1 0x0 DUP4 ADD MSTORE PUSH2 0xB44 DUP2 PUSH2 0xB08 JUMP JUMPDEST SWAP1 POP SWAP2 SWAP1 POP JUMP JUMPDEST PUSH32 0x4E6F20636F6E747269627574696F6E7320746F20726566756E64000000000000 PUSH1 0x0 DUP3 ADD MSTORE POP JUMP JUMPDEST PUSH1 0x0 PUSH2 0xB81 PUSH1 0x1A DUP4 PUSH2 0x93B JUMP JUMPDEST SWAP2 POP PUSH2 0xB8C DUP3 PUSH2 0xB4B JUMP JUMPDEST PUSH1 0x20 DUP3 ADD SWAP1 POP SWAP2 SWAP1 POP JUMP JUMPDEST PUSH1 0x0 PUSH1 0x20 DUP3 ADD SWAP1 POP DUP2 DUP2 SUB PUSH1 0x0 DUP4 ADD MSTORE PUSH2 0xBB0 DUP2 PUSH2 0xB74 JUMP JUMPDEST SWAP1 POP SWAP2 SWAP1 POP JUMP JUMPDEST PUSH32 0x5468652063726F776466756E64696E672063616D706169676E2068617320656E PUSH1 0x0 DUP3 ADD MSTORE PUSH32 0x6465640000000000000000000000000000000000000000000000000000000000 PUSH1 0x20 DUP3 ADD MSTORE POP JUMP JUMPDEST PUSH1 0x0 PUSH2 0xC13 PUSH1 0x23 DUP4 PUSH2 0x93B JUMP JUMPDEST SWAP2 POP PUSH2 0xC1E DUP3 PUSH2 0xBB7 JUMP JUMPDEST PUSH1 0x40 DUP3 ADD SWAP1 POP SWAP2 SWAP1 POP JUMP JUMPDEST PUSH1 0x0 PUSH1 0x20 DUP3 ADD SWAP1 POP DUP2 DUP2 SUB PUSH1 0x0 DUP4 ADD MSTORE PUSH2 0xC42 DUP2 PUSH2 0xC06 JUMP JUMPDEST SWAP1 POP SWAP2 SWAP1 POP JUMP JUMPDEST PUSH32 0x436F6E747269627574696F6E206D757374206265206772656174657220746861 PUSH1 0x0 DUP3 ADD MSTORE PUSH32 0x6E20300000000000000000000000000000000000000000000000000000000000 PUSH1 0x20 DUP3 ADD MSTORE POP JUMP JUMPDEST PUSH1 0x0 PUSH2 0xCA5 PUSH1 0x23 DUP4 PUSH2 0x93B JUMP JUMPDEST SWAP2 POP PUSH2 0xCB0 DUP3 PUSH2 0xC49 JUMP JUMPDEST PUSH1 0x40 DUP3 ADD SWAP1 POP SWAP2 SWAP1 POP JUMP JUMPDEST PUSH1 0x0 PUSH1 0x20 DUP3 ADD SWAP1 POP DUP2 DUP2 SUB PUSH1 0x0 DUP4 ADD MSTORE PUSH2 0xCD4 DUP2 PUSH2 0xC98 JUMP JUMPDEST SWAP1 POP SWAP2 SWAP1 POP JUMP JUMPDEST PUSH1 0x0 PUSH2 0xCE6 DUP3 PUSH2 0x7EA JUMP JUMPDEST SWAP2 POP PUSH2 0xCF1 DUP4 PUSH2 0x7EA JUMP JUMPDEST SWAP3 POP DUP3 PUSH32 0xFFFFFFFFFFFFFFFFFFFFFFFFFFFFFFFFFFFFFFFFFFFFFFFFFFFFFFFFFFFFFFFF SUB DUP3 GT ISZERO PUSH2 0xD26 JUMPI PUSH2 0xD25 PUSH2 0x8D8 JUMP JUMPDEST JUMPDEST DUP3 DUP3 ADD SWAP1 POP SWAP3 SWAP2 POP POP JUMP INVALID LOG2 PUSH5 0x6970667358 0x22 SLT KECCAK256 PC SELFBALANCE BALANCE 0x22 BALANCE 0xD7 SWAP2 0xC8 0xBC CHAINID SAR BYTE SLOAD AND 0xDE DELEGATECALL 0xBC PUSH32 0xD5DDF5779EEB36C616B4A832BAD664736F6C634300080E003300000000000000 "
				},
				"gasEstimates": {
					"creation": {
						"codeDepositCost": "686200",
						"executionCost": "infinite",
						"totalCost": "infinite"
					},
					"external": {
						"amountNeeded()": "infinite",
						"contribute()": "infinite",
						"contributions(address)": "2814",
						"deadline()": "2496",
						"goal()": "2518",
						"owner()": "2555",
						"refund()": "infinite",
						"timeLeft()": "infinite",
						"totalFunds()": "2495",
						"withdrawFunds()": "infinite"
					}
				},
				"methodIdentifiers": {
					"amountNeeded()": "1ba11f44",
					"contribute()": "d7bb99ba",
					"contributions(address)": "42e94c90",
					"deadline()": "29dcb0cf",
					"goal()": "40193883",
					"owner()": "8da5cb5b",
					"refund()": "590e1ae3",
					"timeLeft()": "1300a6d1",
					"totalFunds()": "968ed600",
					"withdrawFunds()": "24600fc3"
				}
			},
			"storageLayout": {
				"storage": [
					{
						"astId": 3,
						"contract": "contracts/CrowdFunding.sol:Crowdfunding",
						"label": "owner",
						"offset": 0,
						"slot": "0",
						"type": "t_address"
					},
					{
						"astId": 5,
						"contract": "contracts/CrowdFunding.sol:Crowdfunding",
						"label": "goal",
						"offset": 0,
						"slot": "1",
						"type": "t_uint256"
					},
					{
						"astId": 7,
						"contract": "contracts/CrowdFunding.sol:Crowdfunding",
						"label": "deadline",
						"offset": 0,
						"slot": "2",
						"type": "t_uint256"
					},
					{
						"astId": 9,
						"contract": "contracts/CrowdFunding.sol:Crowdfunding",
						"label": "totalFunds",
						"offset": 0,
						"slot": "3",
						"type": "t_uint256"
					},
					{
						"astId": 13,
						"contract": "contracts/CrowdFunding.sol:Crowdfunding",
						"label": "contributions",
						"offset": 0,
						"slot": "4",
						"type": "t_mapping(t_address,t_uint256)"
					}
				],
				"types": {
					"t_address": {
						"encoding": "inplace",
						"label": "address",
						"numberOfBytes": "20"
					},
					"t_mapping(t_address,t_uint256)": {
						"encoding": "mapping",
						"key": "t_address",
						"label": "mapping(address => uint256)",
						"numberOfBytes": "32",
						"value": "t_uint256"
					},
					"t_uint256": {
						"encoding": "inplace",
						"label": "uint256",
						"numberOfBytes": "32"
					}
				}
			},
			"userdoc": {
				"kind": "user",
				"methods": {},
				"version": 1
			}
		}
	}
}