{
	"contracts/SmartContractWallet.sol": {
		"SmartContractWallet": {
			"abi": [
				{
					"inputs": [],
					"stateMutability": "nonpayable",
					"type": "constructor"
				},
				{
					"inputs": [
						{
							"internalType": "address",
							"name": "",
							"type": "address"
						}
					],
					"name": "allowance",
					"outputs": [
						{
							"internalType": "uint256",
							"name": "",
							"type": "uint256"
						}
					],
					"stateMutability": "view",
					"type": "function"
				},
				{
					"inputs": [
						{
							"internalType": "address",
							"name": "_for",
							"type": "address"
						},
						{
							"internalType": "uint256",
							"name": "_amount",
							"type": "uint256"
						}
					],
					"name": "setAllowance",
					"outputs": [],
					"stateMutability": "nonpayable",
					"type": "function"
				},
				{
					"inputs": [
						{
							"internalType": "address payable",
							"name": "_to",
							"type": "address"
						},
						{
							"internalType": "uint256",
							"name": "_amount",
							"type": "uint256"
						},
						{
							"internalType": "bytes",
							"name": "_payload",
							"type": "bytes"
						}
					],
					"name": "transform",
					"outputs": [
						{
							"internalType": "bytes",
							"name": "",
							"type": "bytes"
						}
					],
					"stateMutability": "nonpayable",
					"type": "function"
				},
				{
					"stateMutability": "payable",
					"type": "receive"
				}
			],
			"devdoc": {
				"kind": "dev",
				"methods": {},
				"version": 1
			},
			"evm": {
				"assembly": "    /* \"contracts/SmartContractWallet.sol\":62:1366  contract SmartContractWallet{... */\n  mstore(0x40, 0x80)\n    /* \"contracts/SmartContractWallet.sol\":234:293  constructor(){... */\n  callvalue\n  dup1\n  iszero\n  tag_1\n  jumpi\n  0x00\n  dup1\n  revert\ntag_1:\n  pop\n    /* \"contracts/SmartContractWallet.sol\":274:284  msg.sender */\n  caller\n    /* \"contracts/SmartContractWallet.sol\":258:263  owner */\n  0x00\n  dup1\n    /* \"contracts/SmartContractWallet.sol\":258:285  owner = payable(msg.sender) */\n  0x0100\n  exp\n  dup2\n  sload\n  dup2\n  0xffffffffffffffffffffffffffffffffffffffff\n  mul\n  not\n  and\n  swap1\n  dup4\n  0xffffffffffffffffffffffffffffffffffffffff\n  and\n  mul\n  or\n  swap1\n  sstore\n  pop\n    /* \"contracts/SmartContractWallet.sol\":62:1366  contract SmartContractWallet{... */\n  dataSize(sub_0)\n  dup1\n  dataOffset(sub_0)\n  0x00\n  codecopy\n  0x00\n  return\nstop\n\nsub_0: assembly {\n        /* \"contracts/SmartContractWallet.sol\":62:1366  contract SmartContractWallet{... */\n      mstore(0x40, 0x80)\n      jumpi(tag_1, lt(calldatasize, 0x04))\n      shr(0xe0, calldataload(0x00))\n      dup1\n      0x310ec4a7\n      eq\n      tag_3\n      jumpi\n      dup1\n      0x3e5beab9\n      eq\n      tag_4\n      jumpi\n      dup1\n      0x66c4aa89\n      eq\n      tag_5\n      jumpi\n      jump(tag_2)\n    tag_1:\n      jumpi(tag_2, calldatasize)\n      stop\n    tag_2:\n      0x00\n      dup1\n      revert\n        /* \"contracts/SmartContractWallet.sol\":301:619  function setAllowance(address _for , uint _amount) public {... */\n    tag_3:\n      callvalue\n      dup1\n      iszero\n      tag_8\n      jumpi\n      0x00\n      dup1\n      revert\n    tag_8:\n      pop\n      tag_9\n      0x04\n      dup1\n      calldatasize\n      sub\n      dup2\n      add\n      swap1\n      tag_10\n      swap2\n      swap1\n      tag_11\n      jump\t// in\n    tag_10:\n      tag_12\n      jump\t// in\n    tag_9:\n      stop\n        /* \"contracts/SmartContractWallet.sol\":130:175  mapping (address => uint256) public allowance */\n    tag_4:\n      callvalue\n      dup1\n      iszero\n      tag_13\n      jumpi\n      0x00\n      dup1\n      revert\n    tag_13:\n      pop\n      tag_14\n      0x04\n      dup1\n      calldatasize\n      sub\n      dup2\n      add\n      swap1\n      tag_15\n      swap2\n      swap1\n      tag_16\n      jump\t// in\n    tag_15:\n      tag_17\n      jump\t// in\n    tag_14:\n      mload(0x40)\n      tag_18\n      swap2\n      swap1\n      tag_19\n      jump\t// in\n    tag_18:\n      mload(0x40)\n      dup1\n      swap2\n      sub\n      swap1\n      return\n        /* \"contracts/SmartContractWallet.sol\":627:1325  function transform(address payable _to , uint _amount , bytes memory _payload) public  returns(bytes memory)  {... */\n    tag_5:\n      callvalue\n      dup1\n      iszero\n      tag_20\n      jumpi\n      0x00\n      dup1\n      revert\n    tag_20:\n      pop\n      tag_21\n      0x04\n      dup1\n      calldatasize\n      sub\n      dup2\n      add\n      swap1\n      tag_22\n      swap2\n      swap1\n      tag_23\n      jump\t// in\n    tag_22:\n      tag_24\n      jump\t// in\n    tag_21:\n      mload(0x40)\n      tag_25\n      swap2\n      swap1\n      tag_26\n      jump\t// in\n    tag_25:\n      mload(0x40)\n      dup1\n      swap2\n      sub\n      swap1\n      return\n        /* \"contracts/SmartContractWallet.sol\":301:619  function setAllowance(address _for , uint _amount) public {... */\n    tag_12:\n        /* \"contracts/SmartContractWallet.sol\":392:397  owner */\n      0x00\n      dup1\n      sload\n      swap1\n      0x0100\n      exp\n      swap1\n      div\n      0xffffffffffffffffffffffffffffffffffffffff\n      and\n        /* \"contracts/SmartContractWallet.sol\":378:397  msg.sender == owner */\n      0xffffffffffffffffffffffffffffffffffffffff\n      and\n        /* \"contracts/SmartContractWallet.sol\":378:388  msg.sender */\n      caller\n        /* \"contracts/SmartContractWallet.sol\":378:397  msg.sender == owner */\n      0xffffffffffffffffffffffffffffffffffffffff\n      and\n      eq\n        /* \"contracts/SmartContractWallet.sol\":370:435  require(msg.sender == owner , \"You are not the owner , aborting\") */\n      tag_28\n      jumpi\n      mload(0x40)\n      0x08c379a000000000000000000000000000000000000000000000000000000000\n      dup2\n      mstore\n      0x04\n      add\n      tag_29\n      swap1\n      tag_30\n      jump\t// in\n    tag_29:\n      mload(0x40)\n      dup1\n      swap2\n      sub\n      swap1\n      revert\n    tag_28:\n        /* \"contracts/SmartContractWallet.sol\":471:478  _amount */\n      dup1\n        /* \"contracts/SmartContractWallet.sol\":446:455  allowance */\n      0x01\n        /* \"contracts/SmartContractWallet.sol\":446:467  allowance[msg.sender] */\n      0x00\n        /* \"contracts/SmartContractWallet.sol\":456:466  msg.sender */\n      caller\n        /* \"contracts/SmartContractWallet.sol\":446:467  allowance[msg.sender] */\n      0xffffffffffffffffffffffffffffffffffffffff\n      and\n      0xffffffffffffffffffffffffffffffffffffffff\n      and\n      dup2\n      mstore\n      0x20\n      add\n      swap1\n      dup2\n      mstore\n      0x20\n      add\n      0x00\n      keccak256\n      0x00\n        /* \"contracts/SmartContractWallet.sol\":446:478  allowance[msg.sender] -= _amount */\n      dup3\n      dup3\n      sload\n      tag_31\n      swap2\n      swap1\n      tag_32\n      jump\t// in\n    tag_31:\n      swap3\n      pop\n      pop\n      dup2\n      swap1\n      sstore\n      pop\n        /* \"contracts/SmartContractWallet.sol\":504:505  0 */\n      0x00\n        /* \"contracts/SmartContractWallet.sol\":494:501  _amount */\n      dup2\n        /* \"contracts/SmartContractWallet.sol\":494:505  _amount > 0 */\n      gt\n        /* \"contracts/SmartContractWallet.sol\":491:612  if(_amount > 0 ){... */\n      iszero\n      tag_33\n      jumpi\n        /* \"contracts/SmartContractWallet.sol\":540:544  true */\n      0x01\n        /* \"contracts/SmartContractWallet.sol\":522:531  _approved */\n      0x02\n        /* \"contracts/SmartContractWallet.sol\":522:537  _approved[_for] */\n      0x00\n        /* \"contracts/SmartContractWallet.sol\":532:536  _for */\n      dup5\n        /* \"contracts/SmartContractWallet.sol\":522:537  _approved[_for] */\n      0xffffffffffffffffffffffffffffffffffffffff\n      and\n      0xffffffffffffffffffffffffffffffffffffffff\n      and\n      dup2\n      mstore\n      0x20\n      add\n      swap1\n      dup2\n      mstore\n      0x20\n      add\n      0x00\n      keccak256\n      0x00\n        /* \"contracts/SmartContractWallet.sol\":522:544  _approved[_for] = true */\n      0x0100\n      exp\n      dup2\n      sload\n      dup2\n      0xff\n      mul\n      not\n      and\n      swap1\n      dup4\n      iszero\n      iszero\n      mul\n      or\n      swap1\n      sstore\n      pop\n        /* \"contracts/SmartContractWallet.sol\":491:612  if(_amount > 0 ){... */\n      jump(tag_34)\n    tag_33:\n        /* \"contracts/SmartContractWallet.sol\":595:599  true */\n      0x01\n        /* \"contracts/SmartContractWallet.sol\":577:586  _approved */\n      0x02\n        /* \"contracts/SmartContractWallet.sol\":577:592  _approved[_for] */\n      0x00\n        /* \"contracts/SmartContractWallet.sol\":587:591  _for */\n      dup5\n        /* \"contracts/SmartContractWallet.sol\":577:592  _approved[_for] */\n      0xffffffffffffffffffffffffffffffffffffffff\n      and\n      0xffffffffffffffffffffffffffffffffffffffff\n      and\n      dup2\n      mstore\n      0x20\n      add\n      swap1\n      dup2\n      mstore\n      0x20\n      add\n      0x00\n      keccak256\n      0x00\n        /* \"contracts/SmartContractWallet.sol\":577:599  _approved[_for] = true */\n      0x0100\n      exp\n      dup2\n      sload\n      dup2\n      0xff\n      mul\n      not\n      and\n      swap1\n      dup4\n      iszero\n      iszero\n      mul\n      or\n      swap1\n      sstore\n      pop\n        /* \"contracts/SmartContractWallet.sol\":491:612  if(_amount > 0 ){... */\n    tag_34:\n        /* \"contracts/SmartContractWallet.sol\":301:619  function setAllowance(address _for , uint _amount) public {... */\n      pop\n      pop\n      jump\t// out\n        /* \"contracts/SmartContractWallet.sol\":130:175  mapping (address => uint256) public allowance */\n    tag_17:\n      mstore(0x20, 0x01)\n      dup1\n      0x00\n      mstore\n      keccak256(0x00, 0x40)\n      0x00\n      swap2\n      pop\n      swap1\n      pop\n      sload\n      dup2\n      jump\t// out\n        /* \"contracts/SmartContractWallet.sol\":627:1325  function transform(address payable _to , uint _amount , bytes memory _payload) public  returns(bytes memory)  {... */\n    tag_24:\n        /* \"contracts/SmartContractWallet.sol\":722:734  bytes memory */\n      0x60\n        /* \"contracts/SmartContractWallet.sol\":770:775  owner */\n      0x00\n      dup1\n      sload\n      swap1\n      0x0100\n      exp\n      swap1\n      div\n      0xffffffffffffffffffffffffffffffffffffffff\n      and\n        /* \"contracts/SmartContractWallet.sol\":756:775  msg.sender == owner */\n      0xffffffffffffffffffffffffffffffffffffffff\n      and\n        /* \"contracts/SmartContractWallet.sol\":756:766  msg.sender */\n      caller\n        /* \"contracts/SmartContractWallet.sol\":756:775  msg.sender == owner */\n      0xffffffffffffffffffffffffffffffffffffffff\n      and\n      eq\n        /* \"contracts/SmartContractWallet.sol\":748:813  require(msg.sender == owner , \"You are not the owner , aborting\") */\n      tag_36\n      jumpi\n      mload(0x40)\n      0x08c379a000000000000000000000000000000000000000000000000000000000\n      dup2\n      mstore\n      0x04\n      add\n      tag_37\n      swap1\n      tag_30\n      jump\t// in\n    tag_37:\n      mload(0x40)\n      dup1\n      swap2\n      sub\n      swap1\n      revert\n    tag_36:\n        /* \"contracts/SmartContractWallet.sol\":843:848  owner */\n      0x00\n      dup1\n      sload\n      swap1\n      0x0100\n      exp\n      swap1\n      div\n      0xffffffffffffffffffffffffffffffffffffffff\n      and\n        /* \"contracts/SmartContractWallet.sol\":829:848  msg.sender != owner */\n      0xffffffffffffffffffffffffffffffffffffffff\n      and\n        /* \"contracts/SmartContractWallet.sol\":829:839  msg.sender */\n      caller\n        /* \"contracts/SmartContractWallet.sol\":829:848  msg.sender != owner */\n      0xffffffffffffffffffffffffffffffffffffffff\n      and\n      eq\n        /* \"contracts/SmartContractWallet.sol\":824:1126  if ( msg.sender != owner){... */\n      tag_38\n      jumpi\n        /* \"contracts/SmartContractWallet.sol\":873:882  _approved */\n      0x02\n        /* \"contracts/SmartContractWallet.sol\":873:894  _approved[msg.sender] */\n      0x00\n        /* \"contracts/SmartContractWallet.sol\":883:893  msg.sender */\n      caller\n        /* \"contracts/SmartContractWallet.sol\":873:894  _approved[msg.sender] */\n      0xffffffffffffffffffffffffffffffffffffffff\n      and\n      0xffffffffffffffffffffffffffffffffffffffff\n      and\n      dup2\n      mstore\n      0x20\n      add\n      swap1\n      dup2\n      mstore\n      0x20\n      add\n      0x00\n      keccak256\n      0x00\n      swap1\n      sload\n      swap1\n      0x0100\n      exp\n      swap1\n      div\n      0xff\n      and\n        /* \"contracts/SmartContractWallet.sol\":872:894  !_approved[msg.sender] */\n      iszero\n        /* \"contracts/SmartContractWallet.sol\":864:972  require(!_approved[msg.sender], \"you are not allowed to send anything from this smart contract , aborting \") */\n      tag_39\n      jumpi\n      mload(0x40)\n      0x08c379a000000000000000000000000000000000000000000000000000000000\n      dup2\n      mstore\n      0x04\n      add\n      tag_40\n      swap1\n      tag_41\n      jump\t// in\n    tag_40:\n      mload(0x40)\n      dup1\n      swap2\n      sub\n      swap1\n      revert\n    tag_39:\n        /* \"contracts/SmartContractWallet.sol\":1019:1026  _amount */\n      dup3\n        /* \"contracts/SmartContractWallet.sol\":995:1004  allowance */\n      0x01\n        /* \"contracts/SmartContractWallet.sol\":995:1016  allowance[msg.sender] */\n      0x00\n        /* \"contracts/SmartContractWallet.sol\":1005:1015  msg.sender */\n      caller\n        /* \"contracts/SmartContractWallet.sol\":995:1016  allowance[msg.sender] */\n      0xffffffffffffffffffffffffffffffffffffffff\n      and\n      0xffffffffffffffffffffffffffffffffffffffff\n      and\n      dup2\n      mstore\n      0x20\n      add\n      swap1\n      dup2\n      mstore\n      0x20\n      add\n      0x00\n      keccak256\n      sload\n        /* \"contracts/SmartContractWallet.sol\":995:1026  allowance[msg.sender]>= _amount */\n      lt\n      iszero\n        /* \"contracts/SmartContractWallet.sol\":987:1064  require(allowance[msg.sender]>= _amount , \"Insufficient Allowance, aborting\") */\n      tag_42\n      jumpi\n      mload(0x40)\n      0x08c379a000000000000000000000000000000000000000000000000000000000\n      dup2\n      mstore\n      0x04\n      add\n      tag_43\n      swap1\n      tag_44\n      jump\t// in\n    tag_43:\n      mload(0x40)\n      dup1\n      swap2\n      sub\n      swap1\n      revert\n    tag_42:\n        /* \"contracts/SmartContractWallet.sol\":1106:1113  _amount */\n      dup3\n        /* \"contracts/SmartContractWallet.sol\":1081:1090  allowance */\n      0x01\n        /* \"contracts/SmartContractWallet.sol\":1081:1102  allowance[msg.sender] */\n      0x00\n        /* \"contracts/SmartContractWallet.sol\":1091:1101  msg.sender */\n      caller\n        /* \"contracts/SmartContractWallet.sol\":1081:1102  allowance[msg.sender] */\n      0xffffffffffffffffffffffffffffffffffffffff\n      and\n      0xffffffffffffffffffffffffffffffffffffffff\n      and\n      dup2\n      mstore\n      0x20\n      add\n      swap1\n      dup2\n      mstore\n      0x20\n      add\n      0x00\n      keccak256\n      0x00\n        /* \"contracts/SmartContractWallet.sol\":1081:1113  allowance[msg.sender] -= _amount */\n      dup3\n      dup3\n      sload\n      tag_45\n      swap2\n      swap1\n      tag_32\n      jump\t// in\n    tag_45:\n      swap3\n      pop\n      pop\n      dup2\n      swap1\n      sstore\n      pop\n        /* \"contracts/SmartContractWallet.sol\":824:1126  if ( msg.sender != owner){... */\n    tag_38:\n        /* \"contracts/SmartContractWallet.sol\":1139:1151  bool success */\n      0x00\n        /* \"contracts/SmartContractWallet.sol\":1154:1177  bytes memory returnData */\n      dup1\n        /* \"contracts/SmartContractWallet.sol\":1182:1185  _to */\n      dup6\n        /* \"contracts/SmartContractWallet.sol\":1182:1190  _to.call */\n      0xffffffffffffffffffffffffffffffffffffffff\n      and\n        /* \"contracts/SmartContractWallet.sol\":1199:1206  _amount */\n      dup6\n        /* \"contracts/SmartContractWallet.sol\":1209:1217  _payload */\n      dup6\n        /* \"contracts/SmartContractWallet.sol\":1182:1218  _to.call{value : _amount} (_payload) */\n      mload(0x40)\n      tag_46\n      swap2\n      swap1\n      tag_47\n      jump\t// in\n    tag_46:\n      0x00\n      mload(0x40)\n      dup1\n      dup4\n      sub\n      dup2\n      dup6\n      dup8\n      gas\n      call\n      swap3\n      pop\n      pop\n      pop\n      returndatasize\n      dup1\n      0x00\n      dup2\n      eq\n      tag_50\n      jumpi\n      mload(0x40)\n      swap2\n      pop\n      and(add(returndatasize, 0x3f), not(0x1f))\n      dup3\n      add\n      0x40\n      mstore\n      returndatasize\n      dup3\n      mstore\n      returndatasize\n      0x00\n      0x20\n      dup5\n      add\n      returndatacopy\n      jump(tag_49)\n    tag_50:\n      0x60\n      swap2\n      pop\n    tag_49:\n      pop\n        /* \"contracts/SmartContractWallet.sol\":1138:1218  (bool success , bytes memory returnData) =  _to.call{value : _amount} (_payload) */\n      swap2\n      pop\n      swap2\n      pop\n        /* \"contracts/SmartContractWallet.sol\":1238:1245  success */\n      dup2\n        /* \"contracts/SmartContractWallet.sol\":1229:1281  require (success , \"Aborting Something went wrong\" ) */\n      tag_51\n      jumpi\n      mload(0x40)\n      0x08c379a000000000000000000000000000000000000000000000000000000000\n      dup2\n      mstore\n      0x04\n      add\n      tag_52\n      swap1\n      tag_53\n      jump\t// in\n    tag_52:\n      mload(0x40)\n      dup1\n      swap2\n      sub\n      swap1\n      revert\n    tag_51:\n        /* \"contracts/SmartContractWallet.sol\":1299:1309  returnData */\n      dup1\n        /* \"contracts/SmartContractWallet.sol\":1292:1309  return returnData */\n      swap3\n      pop\n      pop\n      pop\n        /* \"contracts/SmartContractWallet.sol\":627:1325  function transform(address payable _to , uint _amount , bytes memory _payload) public  returns(bytes memory)  {... */\n      swap4\n      swap3\n      pop\n      pop\n      pop\n      jump\t// out\n        /* \"#utility.yul\":7:82   */\n    tag_54:\n        /* \"#utility.yul\":40:46   */\n      0x00\n        /* \"#utility.yul\":73:75   */\n      0x40\n        /* \"#utility.yul\":67:76   */\n      mload\n        /* \"#utility.yul\":57:76   */\n      swap1\n      pop\n        /* \"#utility.yul\":7:82   */\n      swap1\n      jump\t// out\n        /* \"#utility.yul\":88:205   */\n    tag_55:\n        /* \"#utility.yul\":197:198   */\n      0x00\n        /* \"#utility.yul\":194:195   */\n      dup1\n        /* \"#utility.yul\":187:199   */\n      revert\n        /* \"#utility.yul\":211:328   */\n    tag_56:\n        /* \"#utility.yul\":320:321   */\n      0x00\n        /* \"#utility.yul\":317:318   */\n      dup1\n        /* \"#utility.yul\":310:322   */\n      revert\n        /* \"#utility.yul\":334:460   */\n    tag_57:\n        /* \"#utility.yul\":371:378   */\n      0x00\n        /* \"#utility.yul\":411:453   */\n      0xffffffffffffffffffffffffffffffffffffffff\n        /* \"#utility.yul\":404:409   */\n      dup3\n        /* \"#utility.yul\":400:454   */\n      and\n        /* \"#utility.yul\":389:454   */\n      swap1\n      pop\n        /* \"#utility.yul\":334:460   */\n      swap2\n      swap1\n      pop\n      jump\t// out\n        /* \"#utility.yul\":466:562   */\n    tag_58:\n        /* \"#utility.yul\":503:510   */\n      0x00\n        /* \"#utility.yul\":532:556   */\n      tag_100\n        /* \"#utility.yul\":550:555   */\n      dup3\n        /* \"#utility.yul\":532:556   */\n      tag_57\n      jump\t// in\n    tag_100:\n        /* \"#utility.yul\":521:556   */\n      swap1\n      pop\n        /* \"#utility.yul\":466:562   */\n      swap2\n      swap1\n      pop\n      jump\t// out\n        /* \"#utility.yul\":568:690   */\n    tag_59:\n        /* \"#utility.yul\":641:665   */\n      tag_102\n        /* \"#utility.yul\":659:664   */\n      dup2\n        /* \"#utility.yul\":641:665   */\n      tag_58\n      jump\t// in\n    tag_102:\n        /* \"#utility.yul\":634:639   */\n      dup2\n        /* \"#utility.yul\":631:666   */\n      eq\n        /* \"#utility.yul\":621:684   */\n      tag_103\n      jumpi\n        /* \"#utility.yul\":680:681   */\n      0x00\n        /* \"#utility.yul\":677:678   */\n      dup1\n        /* \"#utility.yul\":670:682   */\n      revert\n        /* \"#utility.yul\":621:684   */\n    tag_103:\n        /* \"#utility.yul\":568:690   */\n      pop\n      jump\t// out\n        /* \"#utility.yul\":696:835   */\n    tag_60:\n        /* \"#utility.yul\":742:747   */\n      0x00\n        /* \"#utility.yul\":780:786   */\n      dup2\n        /* \"#utility.yul\":767:787   */\n      calldataload\n        /* \"#utility.yul\":758:787   */\n      swap1\n      pop\n        /* \"#utility.yul\":796:829   */\n      tag_105\n        /* \"#utility.yul\":823:828   */\n      dup2\n        /* \"#utility.yul\":796:829   */\n      tag_59\n      jump\t// in\n    tag_105:\n        /* \"#utility.yul\":696:835   */\n      swap3\n      swap2\n      pop\n      pop\n      jump\t// out\n        /* \"#utility.yul\":841:918   */\n    tag_61:\n        /* \"#utility.yul\":878:885   */\n      0x00\n        /* \"#utility.yul\":907:912   */\n      dup2\n        /* \"#utility.yul\":896:912   */\n      swap1\n      pop\n        /* \"#utility.yul\":841:918   */\n      swap2\n      swap1\n      pop\n      jump\t// out\n        /* \"#utility.yul\":924:1046   */\n    tag_62:\n        /* \"#utility.yul\":997:1021   */\n      tag_108\n        /* \"#utility.yul\":1015:1020   */\n      dup2\n        /* \"#utility.yul\":997:1021   */\n      tag_61\n      jump\t// in\n    tag_108:\n        /* \"#utility.yul\":990:995   */\n      dup2\n        /* \"#utility.yul\":987:1022   */\n      eq\n        /* \"#utility.yul\":977:1040   */\n      tag_109\n      jumpi\n        /* \"#utility.yul\":1036:1037   */\n      0x00\n        /* \"#utility.yul\":1033:1034   */\n      dup1\n        /* \"#utility.yul\":1026:1038   */\n      revert\n        /* \"#utility.yul\":977:1040   */\n    tag_109:\n        /* \"#utility.yul\":924:1046   */\n      pop\n      jump\t// out\n        /* \"#utility.yul\":1052:1191   */\n    tag_63:\n        /* \"#utility.yul\":1098:1103   */\n      0x00\n        /* \"#utility.yul\":1136:1142   */\n      dup2\n        /* \"#utility.yul\":1123:1143   */\n      calldataload\n        /* \"#utility.yul\":1114:1143   */\n      swap1\n      pop\n        /* \"#utility.yul\":1152:1185   */\n      tag_111\n        /* \"#utility.yul\":1179:1184   */\n      dup2\n        /* \"#utility.yul\":1152:1185   */\n      tag_62\n      jump\t// in\n    tag_111:\n        /* \"#utility.yul\":1052:1191   */\n      swap3\n      swap2\n      pop\n      pop\n      jump\t// out\n        /* \"#utility.yul\":1197:1671   */\n    tag_11:\n        /* \"#utility.yul\":1265:1271   */\n      0x00\n        /* \"#utility.yul\":1273:1279   */\n      dup1\n        /* \"#utility.yul\":1322:1324   */\n      0x40\n        /* \"#utility.yul\":1310:1319   */\n      dup4\n        /* \"#utility.yul\":1301:1308   */\n      dup6\n        /* \"#utility.yul\":1297:1320   */\n      sub\n        /* \"#utility.yul\":1293:1325   */\n      slt\n        /* \"#utility.yul\":1290:1409   */\n      iszero\n      tag_113\n      jumpi\n        /* \"#utility.yul\":1328:1407   */\n      tag_114\n      tag_55\n      jump\t// in\n    tag_114:\n        /* \"#utility.yul\":1290:1409   */\n    tag_113:\n        /* \"#utility.yul\":1448:1449   */\n      0x00\n        /* \"#utility.yul\":1473:1526   */\n      tag_115\n        /* \"#utility.yul\":1518:1525   */\n      dup6\n        /* \"#utility.yul\":1509:1515   */\n      dup3\n        /* \"#utility.yul\":1498:1507   */\n      dup7\n        /* \"#utility.yul\":1494:1516   */\n      add\n        /* \"#utility.yul\":1473:1526   */\n      tag_60\n      jump\t// in\n    tag_115:\n        /* \"#utility.yul\":1463:1526   */\n      swap3\n      pop\n        /* \"#utility.yul\":1419:1536   */\n      pop\n        /* \"#utility.yul\":1575:1577   */\n      0x20\n        /* \"#utility.yul\":1601:1654   */\n      tag_116\n        /* \"#utility.yul\":1646:1653   */\n      dup6\n        /* \"#utility.yul\":1637:1643   */\n      dup3\n        /* \"#utility.yul\":1626:1635   */\n      dup7\n        /* \"#utility.yul\":1622:1644   */\n      add\n        /* \"#utility.yul\":1601:1654   */\n      tag_63\n      jump\t// in\n    tag_116:\n        /* \"#utility.yul\":1591:1654   */\n      swap2\n      pop\n        /* \"#utility.yul\":1546:1664   */\n      pop\n        /* \"#utility.yul\":1197:1671   */\n      swap3\n      pop\n      swap3\n      swap1\n      pop\n      jump\t// out\n        /* \"#utility.yul\":1677:2006   */\n    tag_16:\n        /* \"#utility.yul\":1736:1742   */\n      0x00\n        /* \"#utility.yul\":1785:1787   */\n      0x20\n        /* \"#utility.yul\":1773:1782   */\n      dup3\n        /* \"#utility.yul\":1764:1771   */\n      dup5\n        /* \"#utility.yul\":1760:1783   */\n      sub\n        /* \"#utility.yul\":1756:1788   */\n      slt\n        /* \"#utility.yul\":1753:1872   */\n      iszero\n      tag_118\n      jumpi\n        /* \"#utility.yul\":1791:1870   */\n      tag_119\n      tag_55\n      jump\t// in\n    tag_119:\n        /* \"#utility.yul\":1753:1872   */\n    tag_118:\n        /* \"#utility.yul\":1911:1912   */\n      0x00\n        /* \"#utility.yul\":1936:1989   */\n      tag_120\n        /* \"#utility.yul\":1981:1988   */\n      dup5\n        /* \"#utility.yul\":1972:1978   */\n      dup3\n        /* \"#utility.yul\":1961:1970   */\n      dup6\n        /* \"#utility.yul\":1957:1979   */\n      add\n        /* \"#utility.yul\":1936:1989   */\n      tag_60\n      jump\t// in\n    tag_120:\n        /* \"#utility.yul\":1926:1989   */\n      swap2\n      pop\n        /* \"#utility.yul\":1882:1999   */\n      pop\n        /* \"#utility.yul\":1677:2006   */\n      swap3\n      swap2\n      pop\n      pop\n      jump\t// out\n        /* \"#utility.yul\":2012:2130   */\n    tag_64:\n        /* \"#utility.yul\":2099:2123   */\n      tag_122\n        /* \"#utility.yul\":2117:2122   */\n      dup2\n        /* \"#utility.yul\":2099:2123   */\n      tag_61\n      jump\t// in\n    tag_122:\n        /* \"#utility.yul\":2094:2097   */\n      dup3\n        /* \"#utility.yul\":2087:2124   */\n      mstore\n        /* \"#utility.yul\":2012:2130   */\n      pop\n      pop\n      jump\t// out\n        /* \"#utility.yul\":2136:2358   */\n    tag_19:\n        /* \"#utility.yul\":2229:2233   */\n      0x00\n        /* \"#utility.yul\":2267:2269   */\n      0x20\n        /* \"#utility.yul\":2256:2265   */\n      dup3\n        /* \"#utility.yul\":2252:2270   */\n      add\n        /* \"#utility.yul\":2244:2270   */\n      swap1\n      pop\n        /* \"#utility.yul\":2280:2351   */\n      tag_124\n        /* \"#utility.yul\":2348:2349   */\n      0x00\n        /* \"#utility.yul\":2337:2346   */\n      dup4\n        /* \"#utility.yul\":2333:2350   */\n      add\n        /* \"#utility.yul\":2324:2330   */\n      dup5\n        /* \"#utility.yul\":2280:2351   */\n      tag_64\n      jump\t// in\n    tag_124:\n        /* \"#utility.yul\":2136:2358   */\n      swap3\n      swap2\n      pop\n      pop\n      jump\t// out\n        /* \"#utility.yul\":2364:2468   */\n    tag_65:\n        /* \"#utility.yul\":2409:2416   */\n      0x00\n        /* \"#utility.yul\":2438:2462   */\n      tag_126\n        /* \"#utility.yul\":2456:2461   */\n      dup3\n        /* \"#utility.yul\":2438:2462   */\n      tag_57\n      jump\t// in\n    tag_126:\n        /* \"#utility.yul\":2427:2462   */\n      swap1\n      pop\n        /* \"#utility.yul\":2364:2468   */\n      swap2\n      swap1\n      pop\n      jump\t// out\n        /* \"#utility.yul\":2474:2612   */\n    tag_66:\n        /* \"#utility.yul\":2555:2587   */\n      tag_128\n        /* \"#utility.yul\":2581:2586   */\n      dup2\n        /* \"#utility.yul\":2555:2587   */\n      tag_65\n      jump\t// in\n    tag_128:\n        /* \"#utility.yul\":2548:2553   */\n      dup2\n        /* \"#utility.yul\":2545:2588   */\n      eq\n        /* \"#utility.yul\":2535:2606   */\n      tag_129\n      jumpi\n        /* \"#utility.yul\":2602:2603   */\n      0x00\n        /* \"#utility.yul\":2599:2600   */\n      dup1\n        /* \"#utility.yul\":2592:2604   */\n      revert\n        /* \"#utility.yul\":2535:2606   */\n    tag_129:\n        /* \"#utility.yul\":2474:2612   */\n      pop\n      jump\t// out\n        /* \"#utility.yul\":2618:2773   */\n    tag_67:\n        /* \"#utility.yul\":2672:2677   */\n      0x00\n        /* \"#utility.yul\":2710:2716   */\n      dup2\n        /* \"#utility.yul\":2697:2717   */\n      calldataload\n        /* \"#utility.yul\":2688:2717   */\n      swap1\n      pop\n        /* \"#utility.yul\":2726:2767   */\n      tag_131\n        /* \"#utility.yul\":2761:2766   */\n      dup2\n        /* \"#utility.yul\":2726:2767   */\n      tag_66\n      jump\t// in\n    tag_131:\n        /* \"#utility.yul\":2618:2773   */\n      swap3\n      swap2\n      pop\n      pop\n      jump\t// out\n        /* \"#utility.yul\":2779:2896   */\n    tag_68:\n        /* \"#utility.yul\":2888:2889   */\n      0x00\n        /* \"#utility.yul\":2885:2886   */\n      dup1\n        /* \"#utility.yul\":2878:2890   */\n      revert\n        /* \"#utility.yul\":2902:3019   */\n    tag_69:\n        /* \"#utility.yul\":3011:3012   */\n      0x00\n        /* \"#utility.yul\":3008:3009   */\n      dup1\n        /* \"#utility.yul\":3001:3013   */\n      revert\n        /* \"#utility.yul\":3025:3127   */\n    tag_70:\n        /* \"#utility.yul\":3066:3072   */\n      0x00\n        /* \"#utility.yul\":3117:3119   */\n      0x1f\n        /* \"#utility.yul\":3113:3120   */\n      not\n        /* \"#utility.yul\":3108:3110   */\n      0x1f\n        /* \"#utility.yul\":3101:3106   */\n      dup4\n        /* \"#utility.yul\":3097:3111   */\n      add\n        /* \"#utility.yul\":3093:3121   */\n      and\n        /* \"#utility.yul\":3083:3121   */\n      swap1\n      pop\n        /* \"#utility.yul\":3025:3127   */\n      swap2\n      swap1\n      pop\n      jump\t// out\n        /* \"#utility.yul\":3133:3313   */\n    tag_71:\n        /* \"#utility.yul\":3181:3258   */\n      0x4e487b7100000000000000000000000000000000000000000000000000000000\n        /* \"#utility.yul\":3178:3179   */\n      0x00\n        /* \"#utility.yul\":3171:3259   */\n      mstore\n        /* \"#utility.yul\":3278:3282   */\n      0x41\n        /* \"#utility.yul\":3275:3276   */\n      0x04\n        /* \"#utility.yul\":3268:3283   */\n      mstore\n        /* \"#utility.yul\":3302:3306   */\n      0x24\n        /* \"#utility.yul\":3299:3300   */\n      0x00\n        /* \"#utility.yul\":3292:3307   */\n      revert\n        /* \"#utility.yul\":3319:3600   */\n    tag_72:\n        /* \"#utility.yul\":3402:3429   */\n      tag_137\n        /* \"#utility.yul\":3424:3428   */\n      dup3\n        /* \"#utility.yul\":3402:3429   */\n      tag_70\n      jump\t// in\n    tag_137:\n        /* \"#utility.yul\":3394:3400   */\n      dup2\n        /* \"#utility.yul\":3390:3430   */\n      add\n        /* \"#utility.yul\":3532:3538   */\n      dup2\n        /* \"#utility.yul\":3520:3530   */\n      dup2\n        /* \"#utility.yul\":3517:3539   */\n      lt\n        /* \"#utility.yul\":3496:3514   */\n      0xffffffffffffffff\n        /* \"#utility.yul\":3484:3494   */\n      dup3\n        /* \"#utility.yul\":3481:3515   */\n      gt\n        /* \"#utility.yul\":3478:3540   */\n      or\n        /* \"#utility.yul\":3475:3563   */\n      iszero\n      tag_138\n      jumpi\n        /* \"#utility.yul\":3543:3561   */\n      tag_139\n      tag_71\n      jump\t// in\n    tag_139:\n        /* \"#utility.yul\":3475:3563   */\n    tag_138:\n        /* \"#utility.yul\":3583:3593   */\n      dup1\n        /* \"#utility.yul\":3579:3581   */\n      0x40\n        /* \"#utility.yul\":3572:3594   */\n      mstore\n        /* \"#utility.yul\":3362:3600   */\n      pop\n        /* \"#utility.yul\":3319:3600   */\n      pop\n      pop\n      jump\t// out\n        /* \"#utility.yul\":3606:3735   */\n    tag_73:\n        /* \"#utility.yul\":3640:3646   */\n      0x00\n        /* \"#utility.yul\":3667:3687   */\n      tag_141\n      tag_54\n      jump\t// in\n    tag_141:\n        /* \"#utility.yul\":3657:3687   */\n      swap1\n      pop\n        /* \"#utility.yul\":3696:3729   */\n      tag_142\n        /* \"#utility.yul\":3724:3728   */\n      dup3\n        /* \"#utility.yul\":3716:3722   */\n      dup3\n        /* \"#utility.yul\":3696:3729   */\n      tag_72\n      jump\t// in\n    tag_142:\n        /* \"#utility.yul\":3606:3735   */\n      swap2\n      swap1\n      pop\n      jump\t// out\n        /* \"#utility.yul\":3741:4048   */\n    tag_74:\n        /* \"#utility.yul\":3802:3806   */\n      0x00\n        /* \"#utility.yul\":3892:3910   */\n      0xffffffffffffffff\n        /* \"#utility.yul\":3884:3890   */\n      dup3\n        /* \"#utility.yul\":3881:3911   */\n      gt\n        /* \"#utility.yul\":3878:3934   */\n      iszero\n      tag_144\n      jumpi\n        /* \"#utility.yul\":3914:3932   */\n      tag_145\n      tag_71\n      jump\t// in\n    tag_145:\n        /* \"#utility.yul\":3878:3934   */\n    tag_144:\n        /* \"#utility.yul\":3952:3981   */\n      tag_146\n        /* \"#utility.yul\":3974:3980   */\n      dup3\n        /* \"#utility.yul\":3952:3981   */\n      tag_70\n      jump\t// in\n    tag_146:\n        /* \"#utility.yul\":3944:3981   */\n      swap1\n      pop\n        /* \"#utility.yul\":4036:4040   */\n      0x20\n        /* \"#utility.yul\":4030:4034   */\n      dup2\n        /* \"#utility.yul\":4026:4041   */\n      add\n        /* \"#utility.yul\":4018:4041   */\n      swap1\n      pop\n        /* \"#utility.yul\":3741:4048   */\n      swap2\n      swap1\n      pop\n      jump\t// out\n        /* \"#utility.yul\":4054:4208   */\n    tag_75:\n        /* \"#utility.yul\":4138:4144   */\n      dup3\n        /* \"#utility.yul\":4133:4136   */\n      dup2\n        /* \"#utility.yul\":4128:4131   */\n      dup4\n        /* \"#utility.yul\":4115:4145   */\n      calldatacopy\n        /* \"#utility.yul\":4200:4201   */\n      0x00\n        /* \"#utility.yul\":4191:4197   */\n      dup4\n        /* \"#utility.yul\":4186:4189   */\n      dup4\n        /* \"#utility.yul\":4182:4198   */\n      add\n        /* \"#utility.yul\":4175:4202   */\n      mstore\n        /* \"#utility.yul\":4054:4208   */\n      pop\n      pop\n      pop\n      jump\t// out\n        /* \"#utility.yul\":4214:4624   */\n    tag_76:\n        /* \"#utility.yul\":4291:4296   */\n      0x00\n        /* \"#utility.yul\":4316:4381   */\n      tag_149\n        /* \"#utility.yul\":4332:4380   */\n      tag_150\n        /* \"#utility.yul\":4373:4379   */\n      dup5\n        /* \"#utility.yul\":4332:4380   */\n      tag_74\n      jump\t// in\n    tag_150:\n        /* \"#utility.yul\":4316:4381   */\n      tag_73\n      jump\t// in\n    tag_149:\n        /* \"#utility.yul\":4307:4381   */\n      swap1\n      pop\n        /* \"#utility.yul\":4404:4410   */\n      dup3\n        /* \"#utility.yul\":4397:4402   */\n      dup2\n        /* \"#utility.yul\":4390:4411   */\n      mstore\n        /* \"#utility.yul\":4442:4446   */\n      0x20\n        /* \"#utility.yul\":4435:4440   */\n      dup2\n        /* \"#utility.yul\":4431:4447   */\n      add\n        /* \"#utility.yul\":4480:4483   */\n      dup5\n        /* \"#utility.yul\":4471:4477   */\n      dup5\n        /* \"#utility.yul\":4466:4469   */\n      dup5\n        /* \"#utility.yul\":4462:4478   */\n      add\n        /* \"#utility.yul\":4459:4484   */\n      gt\n        /* \"#utility.yul\":4456:4568   */\n      iszero\n      tag_151\n      jumpi\n        /* \"#utility.yul\":4487:4566   */\n      tag_152\n      tag_69\n      jump\t// in\n    tag_152:\n        /* \"#utility.yul\":4456:4568   */\n    tag_151:\n        /* \"#utility.yul\":4577:4618   */\n      tag_153\n        /* \"#utility.yul\":4611:4617   */\n      dup5\n        /* \"#utility.yul\":4606:4609   */\n      dup3\n        /* \"#utility.yul\":4601:4604   */\n      dup6\n        /* \"#utility.yul\":4577:4618   */\n      tag_75\n      jump\t// in\n    tag_153:\n        /* \"#utility.yul\":4297:4624   */\n      pop\n        /* \"#utility.yul\":4214:4624   */\n      swap4\n      swap3\n      pop\n      pop\n      pop\n      jump\t// out\n        /* \"#utility.yul\":4643:4981   */\n    tag_77:\n        /* \"#utility.yul\":4698:4703   */\n      0x00\n        /* \"#utility.yul\":4747:4750   */\n      dup3\n        /* \"#utility.yul\":4740:4744   */\n      0x1f\n        /* \"#utility.yul\":4732:4738   */\n      dup4\n        /* \"#utility.yul\":4728:4745   */\n      add\n        /* \"#utility.yul\":4724:4751   */\n      slt\n        /* \"#utility.yul\":4714:4836   */\n      tag_155\n      jumpi\n        /* \"#utility.yul\":4755:4834   */\n      tag_156\n      tag_68\n      jump\t// in\n    tag_156:\n        /* \"#utility.yul\":4714:4836   */\n    tag_155:\n        /* \"#utility.yul\":4872:4878   */\n      dup2\n        /* \"#utility.yul\":4859:4879   */\n      calldataload\n        /* \"#utility.yul\":4897:4975   */\n      tag_157\n        /* \"#utility.yul\":4971:4974   */\n      dup5\n        /* \"#utility.yul\":4963:4969   */\n      dup3\n        /* \"#utility.yul\":4956:4960   */\n      0x20\n        /* \"#utility.yul\":4948:4954   */\n      dup7\n        /* \"#utility.yul\":4944:4961   */\n      add\n        /* \"#utility.yul\":4897:4975   */\n      tag_76\n      jump\t// in\n    tag_157:\n        /* \"#utility.yul\":4888:4975   */\n      swap2\n      pop\n        /* \"#utility.yul\":4704:4981   */\n      pop\n        /* \"#utility.yul\":4643:4981   */\n      swap3\n      swap2\n      pop\n      pop\n      jump\t// out\n        /* \"#utility.yul\":4987:5800   */\n    tag_23:\n        /* \"#utility.yul\":5081:5087   */\n      0x00\n        /* \"#utility.yul\":5089:5095   */\n      dup1\n        /* \"#utility.yul\":5097:5103   */\n      0x00\n        /* \"#utility.yul\":5146:5148   */\n      0x60\n        /* \"#utility.yul\":5134:5143   */\n      dup5\n        /* \"#utility.yul\":5125:5132   */\n      dup7\n        /* \"#utility.yul\":5121:5144   */\n      sub\n        /* \"#utility.yul\":5117:5149   */\n      slt\n        /* \"#utility.yul\":5114:5233   */\n      iszero\n      tag_159\n      jumpi\n        /* \"#utility.yul\":5152:5231   */\n      tag_160\n      tag_55\n      jump\t// in\n    tag_160:\n        /* \"#utility.yul\":5114:5233   */\n    tag_159:\n        /* \"#utility.yul\":5272:5273   */\n      0x00\n        /* \"#utility.yul\":5297:5358   */\n      tag_161\n        /* \"#utility.yul\":5350:5357   */\n      dup7\n        /* \"#utility.yul\":5341:5347   */\n      dup3\n        /* \"#utility.yul\":5330:5339   */\n      dup8\n        /* \"#utility.yul\":5326:5348   */\n      add\n        /* \"#utility.yul\":5297:5358   */\n      tag_67\n      jump\t// in\n    tag_161:\n        /* \"#utility.yul\":5287:5358   */\n      swap4\n      pop\n        /* \"#utility.yul\":5243:5368   */\n      pop\n        /* \"#utility.yul\":5407:5409   */\n      0x20\n        /* \"#utility.yul\":5433:5486   */\n      tag_162\n        /* \"#utility.yul\":5478:5485   */\n      dup7\n        /* \"#utility.yul\":5469:5475   */\n      dup3\n        /* \"#utility.yul\":5458:5467   */\n      dup8\n        /* \"#utility.yul\":5454:5476   */\n      add\n        /* \"#utility.yul\":5433:5486   */\n      tag_63\n      jump\t// in\n    tag_162:\n        /* \"#utility.yul\":5423:5486   */\n      swap3\n      pop\n        /* \"#utility.yul\":5378:5496   */\n      pop\n        /* \"#utility.yul\":5563:5565   */\n      0x40\n        /* \"#utility.yul\":5552:5561   */\n      dup5\n        /* \"#utility.yul\":5548:5566   */\n      add\n        /* \"#utility.yul\":5535:5567   */\n      calldataload\n        /* \"#utility.yul\":5594:5612   */\n      0xffffffffffffffff\n        /* \"#utility.yul\":5586:5592   */\n      dup2\n        /* \"#utility.yul\":5583:5613   */\n      gt\n        /* \"#utility.yul\":5580:5697   */\n      iszero\n      tag_163\n      jumpi\n        /* \"#utility.yul\":5616:5695   */\n      tag_164\n      tag_56\n      jump\t// in\n    tag_164:\n        /* \"#utility.yul\":5580:5697   */\n    tag_163:\n        /* \"#utility.yul\":5721:5783   */\n      tag_165\n        /* \"#utility.yul\":5775:5782   */\n      dup7\n        /* \"#utility.yul\":5766:5772   */\n      dup3\n        /* \"#utility.yul\":5755:5764   */\n      dup8\n        /* \"#utility.yul\":5751:5773   */\n      add\n        /* \"#utility.yul\":5721:5783   */\n      tag_77\n      jump\t// in\n    tag_165:\n        /* \"#utility.yul\":5711:5783   */\n      swap2\n      pop\n        /* \"#utility.yul\":5506:5793   */\n      pop\n        /* \"#utility.yul\":4987:5800   */\n      swap3\n      pop\n      swap3\n      pop\n      swap3\n      jump\t// out\n        /* \"#utility.yul\":5806:5904   */\n    tag_78:\n        /* \"#utility.yul\":5857:5863   */\n      0x00\n        /* \"#utility.yul\":5891:5896   */\n      dup2\n        /* \"#utility.yul\":5885:5897   */\n      mload\n        /* \"#utility.yul\":5875:5897   */\n      swap1\n      pop\n        /* \"#utility.yul\":5806:5904   */\n      swap2\n      swap1\n      pop\n      jump\t// out\n        /* \"#utility.yul\":5910:6078   */\n    tag_79:\n        /* \"#utility.yul\":5993:6004   */\n      0x00\n        /* \"#utility.yul\":6027:6033   */\n      dup3\n        /* \"#utility.yul\":6022:6025   */\n      dup3\n        /* \"#utility.yul\":6015:6034   */\n      mstore\n        /* \"#utility.yul\":6067:6071   */\n      0x20\n        /* \"#utility.yul\":6062:6065   */\n      dup3\n        /* \"#utility.yul\":6058:6072   */\n      add\n        /* \"#utility.yul\":6043:6072   */\n      swap1\n      pop\n        /* \"#utility.yul\":5910:6078   */\n      swap3\n      swap2\n      pop\n      pop\n      jump\t// out\n        /* \"#utility.yul\":6084:6391   */\n    tag_80:\n        /* \"#utility.yul\":6152:6153   */\n      0x00\n        /* \"#utility.yul\":6162:6275   */\n    tag_169:\n        /* \"#utility.yul\":6176:6182   */\n      dup4\n        /* \"#utility.yul\":6173:6174   */\n      dup2\n        /* \"#utility.yul\":6170:6183   */\n      lt\n        /* \"#utility.yul\":6162:6275   */\n      iszero\n      tag_171\n      jumpi\n        /* \"#utility.yul\":6261:6262   */\n      dup1\n        /* \"#utility.yul\":6256:6259   */\n      dup3\n        /* \"#utility.yul\":6252:6263   */\n      add\n        /* \"#utility.yul\":6246:6264   */\n      mload\n        /* \"#utility.yul\":6242:6243   */\n      dup2\n        /* \"#utility.yul\":6237:6240   */\n      dup5\n        /* \"#utility.yul\":6233:6244   */\n      add\n        /* \"#utility.yul\":6226:6265   */\n      mstore\n        /* \"#utility.yul\":6198:6200   */\n      0x20\n        /* \"#utility.yul\":6195:6196   */\n      dup2\n        /* \"#utility.yul\":6191:6201   */\n      add\n        /* \"#utility.yul\":6186:6201   */\n      swap1\n      pop\n        /* \"#utility.yul\":6162:6275   */\n      jump(tag_169)\n    tag_171:\n        /* \"#utility.yul\":6293:6299   */\n      dup4\n        /* \"#utility.yul\":6290:6291   */\n      dup2\n        /* \"#utility.yul\":6287:6300   */\n      gt\n        /* \"#utility.yul\":6284:6385   */\n      iszero\n      tag_172\n      jumpi\n        /* \"#utility.yul\":6373:6374   */\n      0x00\n        /* \"#utility.yul\":6364:6370   */\n      dup5\n        /* \"#utility.yul\":6359:6362   */\n      dup5\n        /* \"#utility.yul\":6355:6371   */\n      add\n        /* \"#utility.yul\":6348:6375   */\n      mstore\n        /* \"#utility.yul\":6284:6385   */\n    tag_172:\n        /* \"#utility.yul\":6133:6391   */\n      pop\n        /* \"#utility.yul\":6084:6391   */\n      pop\n      pop\n      pop\n      jump\t// out\n        /* \"#utility.yul\":6397:6757   */\n    tag_81:\n        /* \"#utility.yul\":6483:6486   */\n      0x00\n        /* \"#utility.yul\":6511:6549   */\n      tag_174\n        /* \"#utility.yul\":6543:6548   */\n      dup3\n        /* \"#utility.yul\":6511:6549   */\n      tag_78\n      jump\t// in\n    tag_174:\n        /* \"#utility.yul\":6565:6635   */\n      tag_175\n        /* \"#utility.yul\":6628:6634   */\n      dup2\n        /* \"#utility.yul\":6623:6626   */\n      dup6\n        /* \"#utility.yul\":6565:6635   */\n      tag_79\n      jump\t// in\n    tag_175:\n        /* \"#utility.yul\":6558:6635   */\n      swap4\n      pop\n        /* \"#utility.yul\":6644:6696   */\n      tag_176\n        /* \"#utility.yul\":6689:6695   */\n      dup2\n        /* \"#utility.yul\":6684:6687   */\n      dup6\n        /* \"#utility.yul\":6677:6681   */\n      0x20\n        /* \"#utility.yul\":6670:6675   */\n      dup7\n        /* \"#utility.yul\":6666:6682   */\n      add\n        /* \"#utility.yul\":6644:6696   */\n      tag_80\n      jump\t// in\n    tag_176:\n        /* \"#utility.yul\":6721:6750   */\n      tag_177\n        /* \"#utility.yul\":6743:6749   */\n      dup2\n        /* \"#utility.yul\":6721:6750   */\n      tag_70\n      jump\t// in\n    tag_177:\n        /* \"#utility.yul\":6716:6719   */\n      dup5\n        /* \"#utility.yul\":6712:6751   */\n      add\n        /* \"#utility.yul\":6705:6751   */\n      swap2\n      pop\n        /* \"#utility.yul\":6487:6757   */\n      pop\n        /* \"#utility.yul\":6397:6757   */\n      swap3\n      swap2\n      pop\n      pop\n      jump\t// out\n        /* \"#utility.yul\":6763:7072   */\n    tag_26:\n        /* \"#utility.yul\":6874:6878   */\n      0x00\n        /* \"#utility.yul\":6912:6914   */\n      0x20\n        /* \"#utility.yul\":6901:6910   */\n      dup3\n        /* \"#utility.yul\":6897:6915   */\n      add\n        /* \"#utility.yul\":6889:6915   */\n      swap1\n      pop\n        /* \"#utility.yul\":6961:6970   */\n      dup2\n        /* \"#utility.yul\":6955:6959   */\n      dup2\n        /* \"#utility.yul\":6951:6971   */\n      sub\n        /* \"#utility.yul\":6947:6948   */\n      0x00\n        /* \"#utility.yul\":6936:6945   */\n      dup4\n        /* \"#utility.yul\":6932:6949   */\n      add\n        /* \"#utility.yul\":6925:6972   */\n      mstore\n        /* \"#utility.yul\":6989:7065   */\n      tag_179\n        /* \"#utility.yul\":7060:7064   */\n      dup2\n        /* \"#utility.yul\":7051:7057   */\n      dup5\n        /* \"#utility.yul\":6989:7065   */\n      tag_81\n      jump\t// in\n    tag_179:\n        /* \"#utility.yul\":6981:7065   */\n      swap1\n      pop\n        /* \"#utility.yul\":6763:7072   */\n      swap3\n      swap2\n      pop\n      pop\n      jump\t// out\n        /* \"#utility.yul\":7078:7247   */\n    tag_82:\n        /* \"#utility.yul\":7162:7173   */\n      0x00\n        /* \"#utility.yul\":7196:7202   */\n      dup3\n        /* \"#utility.yul\":7191:7194   */\n      dup3\n        /* \"#utility.yul\":7184:7203   */\n      mstore\n        /* \"#utility.yul\":7236:7240   */\n      0x20\n        /* \"#utility.yul\":7231:7234   */\n      dup3\n        /* \"#utility.yul\":7227:7241   */\n      add\n        /* \"#utility.yul\":7212:7241   */\n      swap1\n      pop\n        /* \"#utility.yul\":7078:7247   */\n      swap3\n      swap2\n      pop\n      pop\n      jump\t// out\n        /* \"#utility.yul\":7253:7435   */\n    tag_83:\n        /* \"#utility.yul\":7393:7427   */\n      0x596f7520617265206e6f7420746865206f776e6572202c2061626f7274696e67\n        /* \"#utility.yul\":7389:7390   */\n      0x00\n        /* \"#utility.yul\":7381:7387   */\n      dup3\n        /* \"#utility.yul\":7377:7391   */\n      add\n        /* \"#utility.yul\":7370:7428   */\n      mstore\n        /* \"#utility.yul\":7253:7435   */\n      pop\n      jump\t// out\n        /* \"#utility.yul\":7441:7807   */\n    tag_84:\n        /* \"#utility.yul\":7583:7586   */\n      0x00\n        /* \"#utility.yul\":7604:7671   */\n      tag_183\n        /* \"#utility.yul\":7668:7670   */\n      0x20\n        /* \"#utility.yul\":7663:7666   */\n      dup4\n        /* \"#utility.yul\":7604:7671   */\n      tag_82\n      jump\t// in\n    tag_183:\n        /* \"#utility.yul\":7597:7671   */\n      swap2\n      pop\n        /* \"#utility.yul\":7680:7773   */\n      tag_184\n        /* \"#utility.yul\":7769:7772   */\n      dup3\n        /* \"#utility.yul\":7680:7773   */\n      tag_83\n      jump\t// in\n    tag_184:\n        /* \"#utility.yul\":7798:7800   */\n      0x20\n        /* \"#utility.yul\":7793:7796   */\n      dup3\n        /* \"#utility.yul\":7789:7801   */\n      add\n        /* \"#utility.yul\":7782:7801   */\n      swap1\n      pop\n        /* \"#utility.yul\":7441:7807   */\n      swap2\n      swap1\n      pop\n      jump\t// out\n        /* \"#utility.yul\":7813:8232   */\n    tag_30:\n        /* \"#utility.yul\":7979:7983   */\n      0x00\n        /* \"#utility.yul\":8017:8019   */\n      0x20\n        /* \"#utility.yul\":8006:8015   */\n      dup3\n        /* \"#utility.yul\":8002:8020   */\n      add\n        /* \"#utility.yul\":7994:8020   */\n      swap1\n      pop\n        /* \"#utility.yul\":8066:8075   */\n      dup2\n        /* \"#utility.yul\":8060:8064   */\n      dup2\n        /* \"#utility.yul\":8056:8076   */\n      sub\n        /* \"#utility.yul\":8052:8053   */\n      0x00\n        /* \"#utility.yul\":8041:8050   */\n      dup4\n        /* \"#utility.yul\":8037:8054   */\n      add\n        /* \"#utility.yul\":8030:8077   */\n      mstore\n        /* \"#utility.yul\":8094:8225   */\n      tag_186\n        /* \"#utility.yul\":8220:8224   */\n      dup2\n        /* \"#utility.yul\":8094:8225   */\n      tag_84\n      jump\t// in\n    tag_186:\n        /* \"#utility.yul\":8086:8225   */\n      swap1\n      pop\n        /* \"#utility.yul\":7813:8232   */\n      swap2\n      swap1\n      pop\n      jump\t// out\n        /* \"#utility.yul\":8238:8418   */\n    tag_85:\n        /* \"#utility.yul\":8286:8363   */\n      0x4e487b7100000000000000000000000000000000000000000000000000000000\n        /* \"#utility.yul\":8283:8284   */\n      0x00\n        /* \"#utility.yul\":8276:8364   */\n      mstore\n        /* \"#utility.yul\":8383:8387   */\n      0x11\n        /* \"#utility.yul\":8380:8381   */\n      0x04\n        /* \"#utility.yul\":8373:8388   */\n      mstore\n        /* \"#utility.yul\":8407:8411   */\n      0x24\n        /* \"#utility.yul\":8404:8405   */\n      0x00\n        /* \"#utility.yul\":8397:8412   */\n      revert\n        /* \"#utility.yul\":8424:8615   */\n    tag_32:\n        /* \"#utility.yul\":8464:8468   */\n      0x00\n        /* \"#utility.yul\":8484:8504   */\n      tag_189\n        /* \"#utility.yul\":8502:8503   */\n      dup3\n        /* \"#utility.yul\":8484:8504   */\n      tag_61\n      jump\t// in\n    tag_189:\n        /* \"#utility.yul\":8479:8504   */\n      swap2\n      pop\n        /* \"#utility.yul\":8518:8538   */\n      tag_190\n        /* \"#utility.yul\":8536:8537   */\n      dup4\n        /* \"#utility.yul\":8518:8538   */\n      tag_61\n      jump\t// in\n    tag_190:\n        /* \"#utility.yul\":8513:8538   */\n      swap3\n      pop\n        /* \"#utility.yul\":8557:8558   */\n      dup3\n        /* \"#utility.yul\":8554:8555   */\n      dup3\n        /* \"#utility.yul\":8551:8559   */\n      lt\n        /* \"#utility.yul\":8548:8582   */\n      iszero\n      tag_191\n      jumpi\n        /* \"#utility.yul\":8562:8580   */\n      tag_192\n      tag_85\n      jump\t// in\n    tag_192:\n        /* \"#utility.yul\":8548:8582   */\n    tag_191:\n        /* \"#utility.yul\":8607:8608   */\n      dup3\n        /* \"#utility.yul\":8604:8605   */\n      dup3\n        /* \"#utility.yul\":8600:8609   */\n      sub\n        /* \"#utility.yul\":8592:8609   */\n      swap1\n      pop\n        /* \"#utility.yul\":8424:8615   */\n      swap3\n      swap2\n      pop\n      pop\n      jump\t// out\n        /* \"#utility.yul\":8621:8918   */\n    tag_86:\n        /* \"#utility.yul\":8761:8795   */\n      0x796f7520617265206e6f7420616c6c6f77656420746f2073656e6420616e7974\n        /* \"#utility.yul\":8757:8758   */\n      0x00\n        /* \"#utility.yul\":8749:8755   */\n      dup3\n        /* \"#utility.yul\":8745:8759   */\n      add\n        /* \"#utility.yul\":8738:8796   */\n      mstore\n        /* \"#utility.yul\":8830:8864   */\n      0x68696e672066726f6d207468697320736d61727420636f6e7472616374202c20\n        /* \"#utility.yul\":8825:8827   */\n      0x20\n        /* \"#utility.yul\":8817:8823   */\n      dup3\n        /* \"#utility.yul\":8813:8828   */\n      add\n        /* \"#utility.yul\":8806:8865   */\n      mstore\n        /* \"#utility.yul\":8899:8910   */\n      0x61626f7274696e67200000000000000000000000000000000000000000000000\n        /* \"#utility.yul\":8894:8896   */\n      0x40\n        /* \"#utility.yul\":8886:8892   */\n      dup3\n        /* \"#utility.yul\":8882:8897   */\n      add\n        /* \"#utility.yul\":8875:8911   */\n      mstore\n        /* \"#utility.yul\":8621:8918   */\n      pop\n      jump\t// out\n        /* \"#utility.yul\":8924:9290   */\n    tag_87:\n        /* \"#utility.yul\":9066:9069   */\n      0x00\n        /* \"#utility.yul\":9087:9154   */\n      tag_195\n        /* \"#utility.yul\":9151:9153   */\n      0x49\n        /* \"#utility.yul\":9146:9149   */\n      dup4\n        /* \"#utility.yul\":9087:9154   */\n      tag_82\n      jump\t// in\n    tag_195:\n        /* \"#utility.yul\":9080:9154   */\n      swap2\n      pop\n        /* \"#utility.yul\":9163:9256   */\n      tag_196\n        /* \"#utility.yul\":9252:9255   */\n      dup3\n        /* \"#utility.yul\":9163:9256   */\n      tag_86\n      jump\t// in\n    tag_196:\n        /* \"#utility.yul\":9281:9283   */\n      0x60\n        /* \"#utility.yul\":9276:9279   */\n      dup3\n        /* \"#utility.yul\":9272:9284   */\n      add\n        /* \"#utility.yul\":9265:9284   */\n      swap1\n      pop\n        /* \"#utility.yul\":8924:9290   */\n      swap2\n      swap1\n      pop\n      jump\t// out\n        /* \"#utility.yul\":9296:9715   */\n    tag_41:\n        /* \"#utility.yul\":9462:9466   */\n      0x00\n        /* \"#utility.yul\":9500:9502   */\n      0x20\n        /* \"#utility.yul\":9489:9498   */\n      dup3\n        /* \"#utility.yul\":9485:9503   */\n      add\n        /* \"#utility.yul\":9477:9503   */\n      swap1\n      pop\n        /* \"#utility.yul\":9549:9558   */\n      dup2\n        /* \"#utility.yul\":9543:9547   */\n      dup2\n        /* \"#utility.yul\":9539:9559   */\n      sub\n        /* \"#utility.yul\":9535:9536   */\n      0x00\n        /* \"#utility.yul\":9524:9533   */\n      dup4\n        /* \"#utility.yul\":9520:9537   */\n      add\n        /* \"#utility.yul\":9513:9560   */\n      mstore\n        /* \"#utility.yul\":9577:9708   */\n      tag_198\n        /* \"#utility.yul\":9703:9707   */\n      dup2\n        /* \"#utility.yul\":9577:9708   */\n      tag_87\n      jump\t// in\n    tag_198:\n        /* \"#utility.yul\":9569:9708   */\n      swap1\n      pop\n        /* \"#utility.yul\":9296:9715   */\n      swap2\n      swap1\n      pop\n      jump\t// out\n        /* \"#utility.yul\":9721:9903   */\n    tag_88:\n        /* \"#utility.yul\":9861:9895   */\n      0x496e73756666696369656e7420416c6c6f77616e63652c2061626f7274696e67\n        /* \"#utility.yul\":9857:9858   */\n      0x00\n        /* \"#utility.yul\":9849:9855   */\n      dup3\n        /* \"#utility.yul\":9845:9859   */\n      add\n        /* \"#utility.yul\":9838:9896   */\n      mstore\n        /* \"#utility.yul\":9721:9903   */\n      pop\n      jump\t// out\n        /* \"#utility.yul\":9909:10275   */\n    tag_89:\n        /* \"#utility.yul\":10051:10054   */\n      0x00\n        /* \"#utility.yul\":10072:10139   */\n      tag_201\n        /* \"#utility.yul\":10136:10138   */\n      0x20\n        /* \"#utility.yul\":10131:10134   */\n      dup4\n        /* \"#utility.yul\":10072:10139   */\n      tag_82\n      jump\t// in\n    tag_201:\n        /* \"#utility.yul\":10065:10139   */\n      swap2\n      pop\n        /* \"#utility.yul\":10148:10241   */\n      tag_202\n        /* \"#utility.yul\":10237:10240   */\n      dup3\n        /* \"#utility.yul\":10148:10241   */\n      tag_88\n      jump\t// in\n    tag_202:\n        /* \"#utility.yul\":10266:10268   */\n      0x20\n        /* \"#utility.yul\":10261:10264   */\n      dup3\n        /* \"#utility.yul\":10257:10269   */\n      add\n        /* \"#utility.yul\":10250:10269   */\n      swap1\n      pop\n        /* \"#utility.yul\":9909:10275   */\n      swap2\n      swap1\n      pop\n      jump\t// out\n        /* \"#utility.yul\":10281:10700   */\n    tag_44:\n        /* \"#utility.yul\":10447:10451   */\n      0x00\n        /* \"#utility.yul\":10485:10487   */\n      0x20\n        /* \"#utility.yul\":10474:10483   */\n      dup3\n        /* \"#utility.yul\":10470:10488   */\n      add\n        /* \"#utility.yul\":10462:10488   */\n      swap1\n      pop\n        /* \"#utility.yul\":10534:10543   */\n      dup2\n        /* \"#utility.yul\":10528:10532   */\n      dup2\n        /* \"#utility.yul\":10524:10544   */\n      sub\n        /* \"#utility.yul\":10520:10521   */\n      0x00\n        /* \"#utility.yul\":10509:10518   */\n      dup4\n        /* \"#utility.yul\":10505:10522   */\n      add\n        /* \"#utility.yul\":10498:10545   */\n      mstore\n        /* \"#utility.yul\":10562:10693   */\n      tag_204\n        /* \"#utility.yul\":10688:10692   */\n      dup2\n        /* \"#utility.yul\":10562:10693   */\n      tag_89\n      jump\t// in\n    tag_204:\n        /* \"#utility.yul\":10554:10693   */\n      swap1\n      pop\n        /* \"#utility.yul\":10281:10700   */\n      swap2\n      swap1\n      pop\n      jump\t// out\n        /* \"#utility.yul\":10706:10853   */\n    tag_90:\n        /* \"#utility.yul\":10807:10818   */\n      0x00\n        /* \"#utility.yul\":10844:10847   */\n      dup2\n        /* \"#utility.yul\":10829:10847   */\n      swap1\n      pop\n        /* \"#utility.yul\":10706:10853   */\n      swap3\n      swap2\n      pop\n      pop\n      jump\t// out\n        /* \"#utility.yul\":10859:11232   */\n    tag_91:\n        /* \"#utility.yul\":10963:10966   */\n      0x00\n        /* \"#utility.yul\":10991:11029   */\n      tag_207\n        /* \"#utility.yul\":11023:11028   */\n      dup3\n        /* \"#utility.yul\":10991:11029   */\n      tag_78\n      jump\t// in\n    tag_207:\n        /* \"#utility.yul\":11045:11133   */\n      tag_208\n        /* \"#utility.yul\":11126:11132   */\n      dup2\n        /* \"#utility.yul\":11121:11124   */\n      dup6\n        /* \"#utility.yul\":11045:11133   */\n      tag_90\n      jump\t// in\n    tag_208:\n        /* \"#utility.yul\":11038:11133   */\n      swap4\n      pop\n        /* \"#utility.yul\":11142:11194   */\n      tag_209\n        /* \"#utility.yul\":11187:11193   */\n      dup2\n        /* \"#utility.yul\":11182:11185   */\n      dup6\n        /* \"#utility.yul\":11175:11179   */\n      0x20\n        /* \"#utility.yul\":11168:11173   */\n      dup7\n        /* \"#utility.yul\":11164:11180   */\n      add\n        /* \"#utility.yul\":11142:11194   */\n      tag_80\n      jump\t// in\n    tag_209:\n        /* \"#utility.yul\":11219:11225   */\n      dup1\n        /* \"#utility.yul\":11214:11217   */\n      dup5\n        /* \"#utility.yul\":11210:11226   */\n      add\n        /* \"#utility.yul\":11203:11226   */\n      swap2\n      pop\n        /* \"#utility.yul\":10967:11232   */\n      pop\n        /* \"#utility.yul\":10859:11232   */\n      swap3\n      swap2\n      pop\n      pop\n      jump\t// out\n        /* \"#utility.yul\":11238:11509   */\n    tag_47:\n        /* \"#utility.yul\":11368:11371   */\n      0x00\n        /* \"#utility.yul\":11390:11483   */\n      tag_211\n        /* \"#utility.yul\":11479:11482   */\n      dup3\n        /* \"#utility.yul\":11470:11476   */\n      dup5\n        /* \"#utility.yul\":11390:11483   */\n      tag_91\n      jump\t// in\n    tag_211:\n        /* \"#utility.yul\":11383:11483   */\n      swap2\n      pop\n        /* \"#utility.yul\":11500:11503   */\n      dup2\n        /* \"#utility.yul\":11493:11503   */\n      swap1\n      pop\n        /* \"#utility.yul\":11238:11509   */\n      swap3\n      swap2\n      pop\n      pop\n      jump\t// out\n        /* \"#utility.yul\":11515:11694   */\n    tag_92:\n        /* \"#utility.yul\":11655:11686   */\n      0x41626f7274696e6720536f6d657468696e672077656e742077726f6e67000000\n        /* \"#utility.yul\":11651:11652   */\n      0x00\n        /* \"#utility.yul\":11643:11649   */\n      dup3\n        /* \"#utility.yul\":11639:11653   */\n      add\n        /* \"#utility.yul\":11632:11687   */\n      mstore\n        /* \"#utility.yul\":11515:11694   */\n      pop\n      jump\t// out\n        /* \"#utility.yul\":11700:12066   */\n    tag_93:\n        /* \"#utility.yul\":11842:11845   */\n      0x00\n        /* \"#utility.yul\":11863:11930   */\n      tag_214\n        /* \"#utility.yul\":11927:11929   */\n      0x1d\n        /* \"#utility.yul\":11922:11925   */\n      dup4\n        /* \"#utility.yul\":11863:11930   */\n      tag_82\n      jump\t// in\n    tag_214:\n        /* \"#utility.yul\":11856:11930   */\n      swap2\n      pop\n        /* \"#utility.yul\":11939:12032   */\n      tag_215\n        /* \"#utility.yul\":12028:12031   */\n      dup3\n        /* \"#utility.yul\":11939:12032   */\n      tag_92\n      jump\t// in\n    tag_215:\n        /* \"#utility.yul\":12057:12059   */\n      0x20\n        /* \"#utility.yul\":12052:12055   */\n      dup3\n        /* \"#utility.yul\":12048:12060   */\n      add\n        /* \"#utility.yul\":12041:12060   */\n      swap1\n      pop\n        /* \"#utility.yul\":11700:12066   */\n      swap2\n      swap1\n      pop\n      jump\t// out\n        /* \"#utility.yul\":12072:12491   */\n    tag_53:\n        /* \"#utility.yul\":12238:12242   */\n      0x00\n        /* \"#utility.yul\":12276:12278   */\n      0x20\n        /* \"#utility.yul\":12265:12274   */\n      dup3\n        /* \"#utility.yul\":12261:12279   */\n      add\n        /* \"#utility.yul\":12253:12279   */\n      swap1\n      pop\n        /* \"#utility.yul\":12325:12334   */\n      dup2\n        /* \"#utility.yul\":12319:12323   */\n      dup2\n        /* \"#utility.yul\":12315:12335   */\n      sub\n        /* \"#utility.yul\":12311:12312   */\n      0x00\n        /* \"#utility.yul\":12300:12309   */\n      dup4\n        /* \"#utility.yul\":12296:12313   */\n      add\n        /* \"#utility.yul\":12289:12336   */\n      mstore\n        /* \"#utility.yul\":12353:12484   */\n      tag_217\n        /* \"#utility.yul\":12479:12483   */\n      dup2\n        /* \"#utility.yul\":12353:12484   */\n      tag_93\n      jump\t// in\n    tag_217:\n        /* \"#utility.yul\":12345:12484   */\n      swap1\n      pop\n        /* \"#utility.yul\":12072:12491   */\n      swap2\n      swap1\n      pop\n      jump\t// out\n\n    auxdata: 0xa26469706673582212201f6bd1cdf16b061fa272520ebfcd6b67cbb2e1c20cfd214ba6aed162b310f91d64736f6c634300080f0033\n}\n",
				"bytecode": {
					"linkReferences": {},
					"object": "608060405234801561001057600080fd5b50336000806101000a81548173ffffffffffffffffffffffffffffffffffffffff021916908373ffffffffffffffffffffffffffffffffffffffff160217905550610c80806100606000396000f3fe6080604052600436106100385760003560e01c8063310ec4a7146100445780633e5beab91461006d57806366c4aa89146100aa5761003f565b3661003f57005b600080fd5b34801561005057600080fd5b5061006b60048036038101906100669190610653565b6100e7565b005b34801561007957600080fd5b50610094600480360381019061008f9190610693565b61028e565b6040516100a191906106cf565b60405180910390f35b3480156100b657600080fd5b506100d160048036038101906100cc919061086e565b6102a6565b6040516100de9190610965565b60405180910390f35b60008054906101000a900473ffffffffffffffffffffffffffffffffffffffff1673ffffffffffffffffffffffffffffffffffffffff163373ffffffffffffffffffffffffffffffffffffffff1614610175576040517f08c379a000000000000000000000000000000000000000000000000000000000815260040161016c906109e4565b60405180910390fd5b80600160003373ffffffffffffffffffffffffffffffffffffffff1673ffffffffffffffffffffffffffffffffffffffff16815260200190815260200160002060008282546101c49190610a33565b925050819055506000811115610231576001600260008473ffffffffffffffffffffffffffffffffffffffff1673ffffffffffffffffffffffffffffffffffffffff16815260200190815260200160002060006101000a81548160ff02191690831515021790555061028a565b6001600260008473ffffffffffffffffffffffffffffffffffffffff1673ffffffffffffffffffffffffffffffffffffffff16815260200190815260200160002060006101000a81548160ff0219169083151502179055505b5050565b60016020528060005260406000206000915090505481565b606060008054906101000a900473ffffffffffffffffffffffffffffffffffffffff1673ffffffffffffffffffffffffffffffffffffffff163373ffffffffffffffffffffffffffffffffffffffff1614610336576040517f08c379a000000000000000000000000000000000000000000000000000000000815260040161032d906109e4565b60405180910390fd5b60008054906101000a900473ffffffffffffffffffffffffffffffffffffffff1673ffffffffffffffffffffffffffffffffffffffff163373ffffffffffffffffffffffffffffffffffffffff16146104ef57600260003373ffffffffffffffffffffffffffffffffffffffff1673ffffffffffffffffffffffffffffffffffffffff16815260200190815260200160002060009054906101000a900460ff1615610416576040517f08c379a000000000000000000000000000000000000000000000000000000000815260040161040d90610aff565b60405180910390fd5b82600160003373ffffffffffffffffffffffffffffffffffffffff1673ffffffffffffffffffffffffffffffffffffffff168152602001908152602001600020541015610498576040517f08c379a000000000000000000000000000000000000000000000000000000000815260040161048f90610b6b565b60405180910390fd5b82600160003373ffffffffffffffffffffffffffffffffffffffff1673ffffffffffffffffffffffffffffffffffffffff16815260200190815260200160002060008282546104e79190610a33565b925050819055505b6000808573ffffffffffffffffffffffffffffffffffffffff1685856040516105189190610bc7565b60006040518083038185875af1925050503d8060008114610555576040519150601f19603f3d011682016040523d82523d6000602084013e61055a565b606091505b50915091508161059f576040517f08c379a000000000000000000000000000000000000000000000000000000000815260040161059690610c2a565b60405180910390fd5b80925050509392505050565b6000604051905090565b600080fd5b600080fd5b600073ffffffffffffffffffffffffffffffffffffffff82169050919050565b60006105ea826105bf565b9050919050565b6105fa816105df565b811461060557600080fd5b50565b600081359050610617816105f1565b92915050565b6000819050919050565b6106308161061d565b811461063b57600080fd5b50565b60008135905061064d81610627565b92915050565b6000806040838503121561066a576106696105b5565b5b600061067885828601610608565b92505060206106898582860161063e565b9150509250929050565b6000602082840312156106a9576106a86105b5565b5b60006106b784828501610608565b91505092915050565b6106c98161061d565b82525050565b60006020820190506106e460008301846106c0565b92915050565b60006106f5826105bf565b9050919050565b610705816106ea565b811461071057600080fd5b50565b600081359050610722816106fc565b92915050565b600080fd5b600080fd5b6000601f19601f8301169050919050565b7f4e487b7100000000000000000000000000000000000000000000000000000000600052604160045260246000fd5b61077b82610732565b810181811067ffffffffffffffff8211171561079a57610799610743565b5b80604052505050565b60006107ad6105ab565b90506107b98282610772565b919050565b600067ffffffffffffffff8211156107d9576107d8610743565b5b6107e282610732565b9050602081019050919050565b82818337600083830152505050565b600061081161080c846107be565b6107a3565b90508281526020810184848401111561082d5761082c61072d565b5b6108388482856107ef565b509392505050565b600082601f83011261085557610854610728565b5b81356108658482602086016107fe565b91505092915050565b600080600060608486031215610887576108866105b5565b5b600061089586828701610713565b93505060206108a68682870161063e565b925050604084013567ffffffffffffffff8111156108c7576108c66105ba565b5b6108d386828701610840565b9150509250925092565b600081519050919050565b600082825260208201905092915050565b60005b838110156109175780820151818401526020810190506108fc565b83811115610926576000848401525b50505050565b6000610937826108dd565b61094181856108e8565b93506109518185602086016108f9565b61095a81610732565b840191505092915050565b6000602082019050818103600083015261097f818461092c565b905092915050565b600082825260208201905092915050565b7f596f7520617265206e6f7420746865206f776e6572202c2061626f7274696e67600082015250565b60006109ce602083610987565b91506109d982610998565b602082019050919050565b600060208201905081810360008301526109fd816109c1565b9050919050565b7f4e487b7100000000000000000000000000000000000000000000000000000000600052601160045260246000fd5b6000610a3e8261061d565b9150610a498361061d565b925082821015610a5c57610a5b610a04565b5b828203905092915050565b7f796f7520617265206e6f7420616c6c6f77656420746f2073656e6420616e797460008201527f68696e672066726f6d207468697320736d61727420636f6e7472616374202c2060208201527f61626f7274696e67200000000000000000000000000000000000000000000000604082015250565b6000610ae9604983610987565b9150610af482610a67565b606082019050919050565b60006020820190508181036000830152610b1881610adc565b9050919050565b7f496e73756666696369656e7420416c6c6f77616e63652c2061626f7274696e67600082015250565b6000610b55602083610987565b9150610b6082610b1f565b602082019050919050565b60006020820190508181036000830152610b8481610b48565b9050919050565b600081905092915050565b6000610ba1826108dd565b610bab8185610b8b565b9350610bbb8185602086016108f9565b80840191505092915050565b6000610bd38284610b96565b915081905092915050565b7f41626f7274696e6720536f6d657468696e672077656e742077726f6e67000000600082015250565b6000610c14601d83610987565b9150610c1f82610bde565b602082019050919050565b60006020820190508181036000830152610c4381610c07565b905091905056fea26469706673582212201f6bd1cdf16b061fa272520ebfcd6b67cbb2e1c20cfd214ba6aed162b310f91d64736f6c634300080f0033",
					"opcodes": "PUSH1 0x80 PUSH1 0x40 MSTORE CALLVALUE DUP1 ISZERO PUSH2 0x10 JUMPI PUSH1 0x0 DUP1 REVERT JUMPDEST POP CALLER PUSH1 0x0 DUP1 PUSH2 0x100 EXP DUP2 SLOAD DUP2 PUSH20 0xFFFFFFFFFFFFFFFFFFFFFFFFFFFFFFFFFFFFFFFF MUL NOT AND SWAP1 DUP4 PUSH20 0xFFFFFFFFFFFFFFFFFFFFFFFFFFFFFFFFFFFFFFFF AND MUL OR SWAP1 SSTORE POP PUSH2 0xC80 DUP1 PUSH2 0x60 PUSH1 0x0 CODECOPY PUSH1 0x0 RETURN INVALID PUSH1 0x80 PUSH1 0x40 MSTORE PUSH1 0x4 CALLDATASIZE LT PUSH2 0x38 JUMPI PUSH1 0x0 CALLDATALOAD PUSH1 0xE0 SHR DUP1 PUSH4 0x310EC4A7 EQ PUSH2 0x44 JUMPI DUP1 PUSH4 0x3E5BEAB9 EQ PUSH2 0x6D JUMPI DUP1 PUSH4 0x66C4AA89 EQ PUSH2 0xAA JUMPI PUSH2 0x3F JUMP JUMPDEST CALLDATASIZE PUSH2 0x3F JUMPI STOP JUMPDEST PUSH1 0x0 DUP1 REVERT JUMPDEST CALLVALUE DUP1 ISZERO PUSH2 0x50 JUMPI PUSH1 0x0 DUP1 REVERT JUMPDEST POP PUSH2 0x6B PUSH1 0x4 DUP1 CALLDATASIZE SUB DUP2 ADD SWAP1 PUSH2 0x66 SWAP2 SWAP1 PUSH2 0x653 JUMP JUMPDEST PUSH2 0xE7 JUMP JUMPDEST STOP JUMPDEST CALLVALUE DUP1 ISZERO PUSH2 0x79 JUMPI PUSH1 0x0 DUP1 REVERT JUMPDEST POP PUSH2 0x94 PUSH1 0x4 DUP1 CALLDATASIZE SUB DUP2 ADD SWAP1 PUSH2 0x8F SWAP2 SWAP1 PUSH2 0x693 JUMP JUMPDEST PUSH2 0x28E JUMP JUMPDEST PUSH1 0x40 MLOAD PUSH2 0xA1 SWAP2 SWAP1 PUSH2 0x6CF JUMP JUMPDEST PUSH1 0x40 MLOAD DUP1 SWAP2 SUB SWAP1 RETURN JUMPDEST CALLVALUE DUP1 ISZERO PUSH2 0xB6 JUMPI PUSH1 0x0 DUP1 REVERT JUMPDEST POP PUSH2 0xD1 PUSH1 0x4 DUP1 CALLDATASIZE SUB DUP2 ADD SWAP1 PUSH2 0xCC SWAP2 SWAP1 PUSH2 0x86E JUMP JUMPDEST PUSH2 0x2A6 JUMP JUMPDEST PUSH1 0x40 MLOAD PUSH2 0xDE SWAP2 SWAP1 PUSH2 0x965 JUMP JUMPDEST PUSH1 0x40 MLOAD DUP1 SWAP2 SUB SWAP1 RETURN JUMPDEST PUSH1 0x0 DUP1 SLOAD SWAP1 PUSH2 0x100 EXP SWAP1 DIV PUSH20 0xFFFFFFFFFFFFFFFFFFFFFFFFFFFFFFFFFFFFFFFF AND PUSH20 0xFFFFFFFFFFFFFFFFFFFFFFFFFFFFFFFFFFFFFFFF AND CALLER PUSH20 0xFFFFFFFFFFFFFFFFFFFFFFFFFFFFFFFFFFFFFFFF AND EQ PUSH2 0x175 JUMPI PUSH1 0x40 MLOAD PUSH32 0x8C379A000000000000000000000000000000000000000000000000000000000 DUP2 MSTORE PUSH1 0x4 ADD PUSH2 0x16C SWAP1 PUSH2 0x9E4 JUMP JUMPDEST PUSH1 0x40 MLOAD DUP1 SWAP2 SUB SWAP1 REVERT JUMPDEST DUP1 PUSH1 0x1 PUSH1 0x0 CALLER PUSH20 0xFFFFFFFFFFFFFFFFFFFFFFFFFFFFFFFFFFFFFFFF AND PUSH20 0xFFFFFFFFFFFFFFFFFFFFFFFFFFFFFFFFFFFFFFFF AND DUP2 MSTORE PUSH1 0x20 ADD SWAP1 DUP2 MSTORE PUSH1 0x20 ADD PUSH1 0x0 KECCAK256 PUSH1 0x0 DUP3 DUP3 SLOAD PUSH2 0x1C4 SWAP2 SWAP1 PUSH2 0xA33 JUMP JUMPDEST SWAP3 POP POP DUP2 SWAP1 SSTORE POP PUSH1 0x0 DUP2 GT ISZERO PUSH2 0x231 JUMPI PUSH1 0x1 PUSH1 0x2 PUSH1 0x0 DUP5 PUSH20 0xFFFFFFFFFFFFFFFFFFFFFFFFFFFFFFFFFFFFFFFF AND PUSH20 0xFFFFFFFFFFFFFFFFFFFFFFFFFFFFFFFFFFFFFFFF AND DUP2 MSTORE PUSH1 0x20 ADD SWAP1 DUP2 MSTORE PUSH1 0x20 ADD PUSH1 0x0 KECCAK256 PUSH1 0x0 PUSH2 0x100 EXP DUP2 SLOAD DUP2 PUSH1 0xFF MUL NOT AND SWAP1 DUP4 ISZERO ISZERO MUL OR SWAP1 SSTORE POP PUSH2 0x28A JUMP JUMPDEST PUSH1 0x1 PUSH1 0x2 PUSH1 0x0 DUP5 PUSH20 0xFFFFFFFFFFFFFFFFFFFFFFFFFFFFFFFFFFFFFFFF AND PUSH20 0xFFFFFFFFFFFFFFFFFFFFFFFFFFFFFFFFFFFFFFFF AND DUP2 MSTORE PUSH1 0x20 ADD SWAP1 DUP2 MSTORE PUSH1 0x20 ADD PUSH1 0x0 KECCAK256 PUSH1 0x0 PUSH2 0x100 EXP DUP2 SLOAD DUP2 PUSH1 0xFF MUL NOT AND SWAP1 DUP4 ISZERO ISZERO MUL OR SWAP1 SSTORE POP JUMPDEST POP POP JUMP JUMPDEST PUSH1 0x1 PUSH1 0x20 MSTORE DUP1 PUSH1 0x0 MSTORE PUSH1 0x40 PUSH1 0x0 KECCAK256 PUSH1 0x0 SWAP2 POP SWAP1 POP SLOAD DUP2 JUMP JUMPDEST PUSH1 0x60 PUSH1 0x0 DUP1 SLOAD SWAP1 PUSH2 0x100 EXP SWAP1 DIV PUSH20 0xFFFFFFFFFFFFFFFFFFFFFFFFFFFFFFFFFFFFFFFF AND PUSH20 0xFFFFFFFFFFFFFFFFFFFFFFFFFFFFFFFFFFFFFFFF AND CALLER PUSH20 0xFFFFFFFFFFFFFFFFFFFFFFFFFFFFFFFFFFFFFFFF AND EQ PUSH2 0x336 JUMPI PUSH1 0x40 MLOAD PUSH32 0x8C379A000000000000000000000000000000000000000000000000000000000 DUP2 MSTORE PUSH1 0x4 ADD PUSH2 0x32D SWAP1 PUSH2 0x9E4 JUMP JUMPDEST PUSH1 0x40 MLOAD DUP1 SWAP2 SUB SWAP1 REVERT JUMPDEST PUSH1 0x0 DUP1 SLOAD SWAP1 PUSH2 0x100 EXP SWAP1 DIV PUSH20 0xFFFFFFFFFFFFFFFFFFFFFFFFFFFFFFFFFFFFFFFF AND PUSH20 0xFFFFFFFFFFFFFFFFFFFFFFFFFFFFFFFFFFFFFFFF AND CALLER PUSH20 0xFFFFFFFFFFFFFFFFFFFFFFFFFFFFFFFFFFFFFFFF AND EQ PUSH2 0x4EF JUMPI PUSH1 0x2 PUSH1 0x0 CALLER PUSH20 0xFFFFFFFFFFFFFFFFFFFFFFFFFFFFFFFFFFFFFFFF AND PUSH20 0xFFFFFFFFFFFFFFFFFFFFFFFFFFFFFFFFFFFFFFFF AND DUP2 MSTORE PUSH1 0x20 ADD SWAP1 DUP2 MSTORE PUSH1 0x20 ADD PUSH1 0x0 KECCAK256 PUSH1 0x0 SWAP1 SLOAD SWAP1 PUSH2 0x100 EXP SWAP1 DIV PUSH1 0xFF AND ISZERO PUSH2 0x416 JUMPI PUSH1 0x40 MLOAD PUSH32 0x8C379A000000000000000000000000000000000000000000000000000000000 DUP2 MSTORE PUSH1 0x4 ADD PUSH2 0x40D SWAP1 PUSH2 0xAFF JUMP JUMPDEST PUSH1 0x40 MLOAD DUP1 SWAP2 SUB SWAP1 REVERT JUMPDEST DUP3 PUSH1 0x1 PUSH1 0x0 CALLER PUSH20 0xFFFFFFFFFFFFFFFFFFFFFFFFFFFFFFFFFFFFFFFF AND PUSH20 0xFFFFFFFFFFFFFFFFFFFFFFFFFFFFFFFFFFFFFFFF AND DUP2 MSTORE PUSH1 0x20 ADD SWAP1 DUP2 MSTORE PUSH1 0x20 ADD PUSH1 0x0 KECCAK256 SLOAD LT ISZERO PUSH2 0x498 JUMPI PUSH1 0x40 MLOAD PUSH32 0x8C379A000000000000000000000000000000000000000000000000000000000 DUP2 MSTORE PUSH1 0x4 ADD PUSH2 0x48F SWAP1 PUSH2 0xB6B JUMP JUMPDEST PUSH1 0x40 MLOAD DUP1 SWAP2 SUB SWAP1 REVERT JUMPDEST DUP3 PUSH1 0x1 PUSH1 0x0 CALLER PUSH20 0xFFFFFFFFFFFFFFFFFFFFFFFFFFFFFFFFFFFFFFFF AND PUSH20 0xFFFFFFFFFFFFFFFFFFFFFFFFFFFFFFFFFFFFFFFF AND DUP2 MSTORE PUSH1 0x20 ADD SWAP1 DUP2 MSTORE PUSH1 0x20 ADD PUSH1 0x0 KECCAK256 PUSH1 0x0 DUP3 DUP3 SLOAD PUSH2 0x4E7 SWAP2 SWAP1 PUSH2 0xA33 JUMP JUMPDEST SWAP3 POP POP DUP2 SWAP1 SSTORE POP JUMPDEST PUSH1 0x0 DUP1 DUP6 PUSH20 0xFFFFFFFFFFFFFFFFFFFFFFFFFFFFFFFFFFFFFFFF AND DUP6 DUP6 PUSH1 0x40 MLOAD PUSH2 0x518 SWAP2 SWAP1 PUSH2 0xBC7 JUMP JUMPDEST PUSH1 0x0 PUSH1 0x40 MLOAD DUP1 DUP4 SUB DUP2 DUP6 DUP8 GAS CALL SWAP3 POP POP POP RETURNDATASIZE DUP1 PUSH1 0x0 DUP2 EQ PUSH2 0x555 JUMPI PUSH1 0x40 MLOAD SWAP2 POP PUSH1 0x1F NOT PUSH1 0x3F RETURNDATASIZE ADD AND DUP3 ADD PUSH1 0x40 MSTORE RETURNDATASIZE DUP3 MSTORE RETURNDATASIZE PUSH1 0x0 PUSH1 0x20 DUP5 ADD RETURNDATACOPY PUSH2 0x55A JUMP JUMPDEST PUSH1 0x60 SWAP2 POP JUMPDEST POP SWAP2 POP SWAP2 POP DUP2 PUSH2 0x59F JUMPI PUSH1 0x40 MLOAD PUSH32 0x8C379A000000000000000000000000000000000000000000000000000000000 DUP2 MSTORE PUSH1 0x4 ADD PUSH2 0x596 SWAP1 PUSH2 0xC2A JUMP JUMPDEST PUSH1 0x40 MLOAD DUP1 SWAP2 SUB SWAP1 REVERT JUMPDEST DUP1 SWAP3 POP POP POP SWAP4 SWAP3 POP POP POP JUMP JUMPDEST PUSH1 0x0 PUSH1 0x40 MLOAD SWAP1 POP SWAP1 JUMP JUMPDEST PUSH1 0x0 DUP1 REVERT JUMPDEST PUSH1 0x0 DUP1 REVERT JUMPDEST PUSH1 0x0 PUSH20 0xFFFFFFFFFFFFFFFFFFFFFFFFFFFFFFFFFFFFFFFF DUP3 AND SWAP1 POP SWAP2 SWAP1 POP JUMP JUMPDEST PUSH1 0x0 PUSH2 0x5EA DUP3 PUSH2 0x5BF JUMP JUMPDEST SWAP1 POP SWAP2 SWAP1 POP JUMP JUMPDEST PUSH2 0x5FA DUP2 PUSH2 0x5DF JUMP JUMPDEST DUP2 EQ PUSH2 0x605 JUMPI PUSH1 0x0 DUP1 REVERT JUMPDEST POP JUMP JUMPDEST PUSH1 0x0 DUP2 CALLDATALOAD SWAP1 POP PUSH2 0x617 DUP2 PUSH2 0x5F1 JUMP JUMPDEST SWAP3 SWAP2 POP POP JUMP JUMPDEST PUSH1 0x0 DUP2 SWAP1 POP SWAP2 SWAP1 POP JUMP JUMPDEST PUSH2 0x630 DUP2 PUSH2 0x61D JUMP JUMPDEST DUP2 EQ PUSH2 0x63B JUMPI PUSH1 0x0 DUP1 REVERT JUMPDEST POP JUMP JUMPDEST PUSH1 0x0 DUP2 CALLDATALOAD SWAP1 POP PUSH2 0x64D DUP2 PUSH2 0x627 JUMP JUMPDEST SWAP3 SWAP2 POP POP JUMP JUMPDEST PUSH1 0x0 DUP1 PUSH1 0x40 DUP4 DUP6 SUB SLT ISZERO PUSH2 0x66A JUMPI PUSH2 0x669 PUSH2 0x5B5 JUMP JUMPDEST JUMPDEST PUSH1 0x0 PUSH2 0x678 DUP6 DUP3 DUP7 ADD PUSH2 0x608 JUMP JUMPDEST SWAP3 POP POP PUSH1 0x20 PUSH2 0x689 DUP6 DUP3 DUP7 ADD PUSH2 0x63E JUMP JUMPDEST SWAP2 POP POP SWAP3 POP SWAP3 SWAP1 POP JUMP JUMPDEST PUSH1 0x0 PUSH1 0x20 DUP3 DUP5 SUB SLT ISZERO PUSH2 0x6A9 JUMPI PUSH2 0x6A8 PUSH2 0x5B5 JUMP JUMPDEST JUMPDEST PUSH1 0x0 PUSH2 0x6B7 DUP5 DUP3 DUP6 ADD PUSH2 0x608 JUMP JUMPDEST SWAP2 POP POP SWAP3 SWAP2 POP POP JUMP JUMPDEST PUSH2 0x6C9 DUP2 PUSH2 0x61D JUMP JUMPDEST DUP3 MSTORE POP POP JUMP JUMPDEST PUSH1 0x0 PUSH1 0x20 DUP3 ADD SWAP1 POP PUSH2 0x6E4 PUSH1 0x0 DUP4 ADD DUP5 PUSH2 0x6C0 JUMP JUMPDEST SWAP3 SWAP2 POP POP JUMP JUMPDEST PUSH1 0x0 PUSH2 0x6F5 DUP3 PUSH2 0x5BF JUMP JUMPDEST SWAP1 POP SWAP2 SWAP1 POP JUMP JUMPDEST PUSH2 0x705 DUP2 PUSH2 0x6EA JUMP JUMPDEST DUP2 EQ PUSH2 0x710 JUMPI PUSH1 0x0 DUP1 REVERT JUMPDEST POP JUMP JUMPDEST PUSH1 0x0 DUP2 CALLDATALOAD SWAP1 POP PUSH2 0x722 DUP2 PUSH2 0x6FC JUMP JUMPDEST SWAP3 SWAP2 POP POP JUMP JUMPDEST PUSH1 0x0 DUP1 REVERT JUMPDEST PUSH1 0x0 DUP1 REVERT JUMPDEST PUSH1 0x0 PUSH1 0x1F NOT PUSH1 0x1F DUP4 ADD AND SWAP1 POP SWAP2 SWAP1 POP JUMP JUMPDEST PUSH32 0x4E487B7100000000000000000000000000000000000000000000000000000000 PUSH1 0x0 MSTORE PUSH1 0x41 PUSH1 0x4 MSTORE PUSH1 0x24 PUSH1 0x0 REVERT JUMPDEST PUSH2 0x77B DUP3 PUSH2 0x732 JUMP JUMPDEST DUP2 ADD DUP2 DUP2 LT PUSH8 0xFFFFFFFFFFFFFFFF DUP3 GT OR ISZERO PUSH2 0x79A JUMPI PUSH2 0x799 PUSH2 0x743 JUMP JUMPDEST JUMPDEST DUP1 PUSH1 0x40 MSTORE POP POP POP JUMP JUMPDEST PUSH1 0x0 PUSH2 0x7AD PUSH2 0x5AB JUMP JUMPDEST SWAP1 POP PUSH2 0x7B9 DUP3 DUP3 PUSH2 0x772 JUMP JUMPDEST SWAP2 SWAP1 POP JUMP JUMPDEST PUSH1 0x0 PUSH8 0xFFFFFFFFFFFFFFFF DUP3 GT ISZERO PUSH2 0x7D9 JUMPI PUSH2 0x7D8 PUSH2 0x743 JUMP JUMPDEST JUMPDEST PUSH2 0x7E2 DUP3 PUSH2 0x732 JUMP JUMPDEST SWAP1 POP PUSH1 0x20 DUP2 ADD SWAP1 POP SWAP2 SWAP1 POP JUMP JUMPDEST DUP3 DUP2 DUP4 CALLDATACOPY PUSH1 0x0 DUP4 DUP4 ADD MSTORE POP POP POP JUMP JUMPDEST PUSH1 0x0 PUSH2 0x811 PUSH2 0x80C DUP5 PUSH2 0x7BE JUMP JUMPDEST PUSH2 0x7A3 JUMP JUMPDEST SWAP1 POP DUP3 DUP2 MSTORE PUSH1 0x20 DUP2 ADD DUP5 DUP5 DUP5 ADD GT ISZERO PUSH2 0x82D JUMPI PUSH2 0x82C PUSH2 0x72D JUMP JUMPDEST JUMPDEST PUSH2 0x838 DUP5 DUP3 DUP6 PUSH2 0x7EF JUMP JUMPDEST POP SWAP4 SWAP3 POP POP POP JUMP JUMPDEST PUSH1 0x0 DUP3 PUSH1 0x1F DUP4 ADD SLT PUSH2 0x855 JUMPI PUSH2 0x854 PUSH2 0x728 JUMP JUMPDEST JUMPDEST DUP2 CALLDATALOAD PUSH2 0x865 DUP5 DUP3 PUSH1 0x20 DUP7 ADD PUSH2 0x7FE JUMP JUMPDEST SWAP2 POP POP SWAP3 SWAP2 POP POP JUMP JUMPDEST PUSH1 0x0 DUP1 PUSH1 0x0 PUSH1 0x60 DUP5 DUP7 SUB SLT ISZERO PUSH2 0x887 JUMPI PUSH2 0x886 PUSH2 0x5B5 JUMP JUMPDEST JUMPDEST PUSH1 0x0 PUSH2 0x895 DUP7 DUP3 DUP8 ADD PUSH2 0x713 JUMP JUMPDEST SWAP4 POP POP PUSH1 0x20 PUSH2 0x8A6 DUP7 DUP3 DUP8 ADD PUSH2 0x63E JUMP JUMPDEST SWAP3 POP POP PUSH1 0x40 DUP5 ADD CALLDATALOAD PUSH8 0xFFFFFFFFFFFFFFFF DUP2 GT ISZERO PUSH2 0x8C7 JUMPI PUSH2 0x8C6 PUSH2 0x5BA JUMP JUMPDEST JUMPDEST PUSH2 0x8D3 DUP7 DUP3 DUP8 ADD PUSH2 0x840 JUMP JUMPDEST SWAP2 POP POP SWAP3 POP SWAP3 POP SWAP3 JUMP JUMPDEST PUSH1 0x0 DUP2 MLOAD SWAP1 POP SWAP2 SWAP1 POP JUMP JUMPDEST PUSH1 0x0 DUP3 DUP3 MSTORE PUSH1 0x20 DUP3 ADD SWAP1 POP SWAP3 SWAP2 POP POP JUMP JUMPDEST PUSH1 0x0 JUMPDEST DUP4 DUP2 LT ISZERO PUSH2 0x917 JUMPI DUP1 DUP3 ADD MLOAD DUP2 DUP5 ADD MSTORE PUSH1 0x20 DUP2 ADD SWAP1 POP PUSH2 0x8FC JUMP JUMPDEST DUP4 DUP2 GT ISZERO PUSH2 0x926 JUMPI PUSH1 0x0 DUP5 DUP5 ADD MSTORE JUMPDEST POP POP POP POP JUMP JUMPDEST PUSH1 0x0 PUSH2 0x937 DUP3 PUSH2 0x8DD JUMP JUMPDEST PUSH2 0x941 DUP2 DUP6 PUSH2 0x8E8 JUMP JUMPDEST SWAP4 POP PUSH2 0x951 DUP2 DUP6 PUSH1 0x20 DUP7 ADD PUSH2 0x8F9 JUMP JUMPDEST PUSH2 0x95A DUP2 PUSH2 0x732 JUMP JUMPDEST DUP5 ADD SWAP2 POP POP SWAP3 SWAP2 POP POP JUMP JUMPDEST PUSH1 0x0 PUSH1 0x20 DUP3 ADD SWAP1 POP DUP2 DUP2 SUB PUSH1 0x0 DUP4 ADD MSTORE PUSH2 0x97F DUP2 DUP5 PUSH2 0x92C JUMP JUMPDEST SWAP1 POP SWAP3 SWAP2 POP POP JUMP JUMPDEST PUSH1 0x0 DUP3 DUP3 MSTORE PUSH1 0x20 DUP3 ADD SWAP1 POP SWAP3 SWAP2 POP POP JUMP JUMPDEST PUSH32 0x596F7520617265206E6F7420746865206F776E6572202C2061626F7274696E67 PUSH1 0x0 DUP3 ADD MSTORE POP JUMP JUMPDEST PUSH1 0x0 PUSH2 0x9CE PUSH1 0x20 DUP4 PUSH2 0x987 JUMP JUMPDEST SWAP2 POP PUSH2 0x9D9 DUP3 PUSH2 0x998 JUMP JUMPDEST PUSH1 0x20 DUP3 ADD SWAP1 POP SWAP2 SWAP1 POP JUMP JUMPDEST PUSH1 0x0 PUSH1 0x20 DUP3 ADD SWAP1 POP DUP2 DUP2 SUB PUSH1 0x0 DUP4 ADD MSTORE PUSH2 0x9FD DUP2 PUSH2 0x9C1 JUMP JUMPDEST SWAP1 POP SWAP2 SWAP1 POP JUMP JUMPDEST PUSH32 0x4E487B7100000000000000000000000000000000000000000000000000000000 PUSH1 0x0 MSTORE PUSH1 0x11 PUSH1 0x4 MSTORE PUSH1 0x24 PUSH1 0x0 REVERT JUMPDEST PUSH1 0x0 PUSH2 0xA3E DUP3 PUSH2 0x61D JUMP JUMPDEST SWAP2 POP PUSH2 0xA49 DUP4 PUSH2 0x61D JUMP JUMPDEST SWAP3 POP DUP3 DUP3 LT ISZERO PUSH2 0xA5C JUMPI PUSH2 0xA5B PUSH2 0xA04 JUMP JUMPDEST JUMPDEST DUP3 DUP3 SUB SWAP1 POP SWAP3 SWAP2 POP POP JUMP JUMPDEST PUSH32 0x796F7520617265206E6F7420616C6C6F77656420746F2073656E6420616E7974 PUSH1 0x0 DUP3 ADD MSTORE PUSH32 0x68696E672066726F6D207468697320736D61727420636F6E7472616374202C20 PUSH1 0x20 DUP3 ADD MSTORE PUSH32 0x61626F7274696E67200000000000000000000000000000000000000000000000 PUSH1 0x40 DUP3 ADD MSTORE POP JUMP JUMPDEST PUSH1 0x0 PUSH2 0xAE9 PUSH1 0x49 DUP4 PUSH2 0x987 JUMP JUMPDEST SWAP2 POP PUSH2 0xAF4 DUP3 PUSH2 0xA67 JUMP JUMPDEST PUSH1 0x60 DUP3 ADD SWAP1 POP SWAP2 SWAP1 POP JUMP JUMPDEST PUSH1 0x0 PUSH1 0x20 DUP3 ADD SWAP1 POP DUP2 DUP2 SUB PUSH1 0x0 DUP4 ADD MSTORE PUSH2 0xB18 DUP2 PUSH2 0xADC JUMP JUMPDEST SWAP1 POP SWAP2 SWAP1 POP JUMP JUMPDEST PUSH32 0x496E73756666696369656E7420416C6C6F77616E63652C2061626F7274696E67 PUSH1 0x0 DUP3 ADD MSTORE POP JUMP JUMPDEST PUSH1 0x0 PUSH2 0xB55 PUSH1 0x20 DUP4 PUSH2 0x987 JUMP JUMPDEST SWAP2 POP PUSH2 0xB60 DUP3 PUSH2 0xB1F JUMP JUMPDEST PUSH1 0x20 DUP3 ADD SWAP1 POP SWAP2 SWAP1 POP JUMP JUMPDEST PUSH1 0x0 PUSH1 0x20 DUP3 ADD SWAP1 POP DUP2 DUP2 SUB PUSH1 0x0 DUP4 ADD MSTORE PUSH2 0xB84 DUP2 PUSH2 0xB48 JUMP JUMPDEST SWAP1 POP SWAP2 SWAP1 POP JUMP JUMPDEST PUSH1 0x0 DUP2 SWAP1 POP SWAP3 SWAP2 POP POP JUMP JUMPDEST PUSH1 0x0 PUSH2 0xBA1 DUP3 PUSH2 0x8DD JUMP JUMPDEST PUSH2 0xBAB DUP2 DUP6 PUSH2 0xB8B JUMP JUMPDEST SWAP4 POP PUSH2 0xBBB DUP2 DUP6 PUSH1 0x20 DUP7 ADD PUSH2 0x8F9 JUMP JUMPDEST DUP1 DUP5 ADD SWAP2 POP POP SWAP3 SWAP2 POP POP JUMP JUMPDEST PUSH1 0x0 PUSH2 0xBD3 DUP3 DUP5 PUSH2 0xB96 JUMP JUMPDEST SWAP2 POP DUP2 SWAP1 POP SWAP3 SWAP2 POP POP JUMP JUMPDEST PUSH32 0x41626F7274696E6720536F6D657468696E672077656E742077726F6E67000000 PUSH1 0x0 DUP3 ADD MSTORE POP JUMP JUMPDEST PUSH1 0x0 PUSH2 0xC14 PUSH1 0x1D DUP4 PUSH2 0x987 JUMP JUMPDEST SWAP2 POP PUSH2 0xC1F DUP3 PUSH2 0xBDE JUMP JUMPDEST PUSH1 0x20 DUP3 ADD SWAP1 POP SWAP2 SWAP1 POP JUMP JUMPDEST PUSH1 0x0 PUSH1 0x20 DUP3 ADD SWAP1 POP DUP2 DUP2 SUB PUSH1 0x0 DUP4 ADD MSTORE PUSH2 0xC43 DUP2 PUSH2 0xC07 JUMP JUMPDEST SWAP1 POP SWAP2 SWAP1 POP JUMP INVALID LOG2 PUSH5 0x6970667358 0x22 SLT KECCAK256 0x1F PUSH12 0xD1CDF16B061FA272520EBFCD PUSH12 0x67CBB2E1C20CFD214BA6AED1 PUSH3 0xB310F9 SAR PUSH5 0x736F6C6343 STOP ADDMOD 0xF STOP CALLER "
				},
				"gasEstimates": {
					"creation": {
						"codeDepositCost": "640000",
						"executionCost": "24936",
						"totalCost": "664936"
					},
					"external": {
						"allowance(address)": "2814",
						"setAllowance(address,uint256)": "infinite",
						"transform(address,uint256,bytes)": "infinite"
					}
				},
				"methodIdentifiers": {
					"allowance(address)": "3e5beab9",
					"setAllowance(address,uint256)": "310ec4a7",
					"transform(address,uint256,bytes)": "66c4aa89"
				}
			},
			"storageLayout": {
				"storage": [
					{
						"astId": 3,
						"contract": "contracts/SmartContractWallet.sol:SmartContractWallet",
						"label": "owner",
						"offset": 0,
						"slot": "0",
						"type": "t_address_payable"
					},
					{
						"astId": 7,
						"contract": "contracts/SmartContractWallet.sol:SmartContractWallet",
						"label": "allowance",
						"offset": 0,
						"slot": "1",
						"type": "t_mapping(t_address,t_uint256)"
					},
					{
						"astId": 11,
						"contract": "contracts/SmartContractWallet.sol:SmartContractWallet",
						"label": "_approved",
						"offset": 0,
						"slot": "2",
						"type": "t_mapping(t_address,t_bool)"
					}
				],
				"types": {
					"t_address": {
						"encoding": "inplace",
						"label": "address",
						"numberOfBytes": "20"
					},
					"t_address_payable": {
						"encoding": "inplace",
						"label": "address payable",
						"numberOfBytes": "20"
					},
					"t_bool": {
						"encoding": "inplace",
						"label": "bool",
						"numberOfBytes": "1"
					},
					"t_mapping(t_address,t_bool)": {
						"encoding": "mapping",
						"key": "t_address",
						"label": "mapping(address => bool)",
						"numberOfBytes": "32",
						"value": "t_bool"
					},
					"t_mapping(t_address,t_uint256)": {
						"encoding": "mapping",
						"key": "t_address",
						"label": "mapping(address => uint256)",
						"numberOfBytes": "32",
						"value": "t_uint256"
					},
					"t_uint256": {
						"encoding": "inplace",
						"label": "uint256",
						"numberOfBytes": "32"
					}
				}
			},
			"userdoc": {
				"kind": "user",
				"methods": {},
				"version": 1
			}
		}
	}
}