{
	"contracts/artifacts/ExampleStruct.sol": {
		"ExamplePerson": {
			"abi": [
				{
					"inputs": [],
					"name": "getPerson",
					"outputs": [
						{
							"internalType": "string",
							"name": "",
							"type": "string"
						},
						{
							"internalType": "uint256",
							"name": "",
							"type": "uint256"
						},
						{
							"internalType": "address",
							"name": "",
							"type": "address"
						}
					],
					"stateMutability": "view",
					"type": "function"
				},
				{
					"inputs": [],
					"name": "person",
					"outputs": [
						{
							"internalType": "string",
							"name": "name",
							"type": "string"
						},
						{
							"internalType": "uint256",
							"name": "age",
							"type": "uint256"
						},
						{
							"internalType": "address",
							"name": "wallet",
							"type": "address"
						}
					],
					"stateMutability": "view",
					"type": "function"
				},
				{
					"inputs": [
						{
							"internalType": "string",
							"name": "_name",
							"type": "string"
						},
						{
							"internalType": "uint256",
							"name": "_age",
							"type": "uint256"
						},
						{
							"internalType": "address",
							"name": "_wallet",
							"type": "address"
						}
					],
					"name": "setPerson",
					"outputs": [],
					"stateMutability": "nonpayable",
					"type": "function"
				}
			],
			"devdoc": {
				"kind": "dev",
				"methods": {},
				"version": 1
			},
			"evm": {
				"assembly": "    /* \"contracts/artifacts/ExampleStruct.sol\":721:1393  contract ExamplePerson {... */\n  mstore(0x40, 0x80)\n  callvalue\n  dup1\n  iszero\n  tag_1\n  jumpi\n  0x00\n  dup1\n  revert\ntag_1:\n  pop\n  dataSize(sub_0)\n  dup1\n  dataOffset(sub_0)\n  0x00\n  codecopy\n  0x00\n  return\nstop\n\nsub_0: assembly {\n        /* \"contracts/artifacts/ExampleStruct.sol\":721:1393  contract ExamplePerson {... */\n      mstore(0x40, 0x80)\n      callvalue\n      dup1\n      iszero\n      tag_1\n      jumpi\n      0x00\n      dup1\n      revert\n    tag_1:\n      pop\n      jumpi(tag_2, lt(calldatasize, 0x04))\n      shr(0xe0, calldataload(0x00))\n      dup1\n      0x77ec2b55\n      eq\n      tag_3\n      jumpi\n      dup1\n      0x8ec4dc95\n      eq\n      tag_4\n      jumpi\n      dup1\n      0xcd4161ec\n      eq\n      tag_5\n      jumpi\n    tag_2:\n      0x00\n      dup1\n      revert\n        /* \"contracts/artifacts/ExampleStruct.sol\":944:964  Person public person */\n    tag_3:\n      tag_6\n      tag_7\n      jump\t// in\n    tag_6:\n      mload(0x40)\n      tag_8\n      swap4\n      swap3\n      swap2\n      swap1\n      tag_9\n      jump\t// in\n    tag_8:\n      mload(0x40)\n      dup1\n      swap2\n      sub\n      swap1\n      return\n        /* \"contracts/artifacts/ExampleStruct.sol\":1250:1390  function getPerson() external view returns (string memory, uint, address) {... */\n    tag_4:\n      tag_10\n      tag_11\n      jump\t// in\n    tag_10:\n      mload(0x40)\n      tag_12\n      swap4\n      swap3\n      swap2\n      swap1\n      tag_9\n      jump\t// in\n    tag_12:\n      mload(0x40)\n      dup1\n      swap2\n      sub\n      swap1\n      return\n        /* \"contracts/artifacts/ExampleStruct.sol\":1018:1197  function setPerson(string calldata _name, uint _age, address _wallet) external {... */\n    tag_5:\n      tag_13\n      0x04\n      dup1\n      calldatasize\n      sub\n      dup2\n      add\n      swap1\n      tag_14\n      swap2\n      swap1\n      tag_15\n      jump\t// in\n    tag_14:\n      tag_16\n      jump\t// in\n    tag_13:\n      stop\n        /* \"contracts/artifacts/ExampleStruct.sol\":944:964  Person public person */\n    tag_7:\n      0x00\n      dup1\n      0x00\n      add\n      dup1\n      sload\n      tag_17\n      swap1\n      tag_18\n      jump\t// in\n    tag_17:\n      dup1\n      0x1f\n      add\n      0x20\n      dup1\n      swap2\n      div\n      mul\n      0x20\n      add\n      mload(0x40)\n      swap1\n      dup2\n      add\n      0x40\n      mstore\n      dup1\n      swap3\n      swap2\n      swap1\n      dup2\n      dup2\n      mstore\n      0x20\n      add\n      dup3\n      dup1\n      sload\n      tag_19\n      swap1\n      tag_18\n      jump\t// in\n    tag_19:\n      dup1\n      iszero\n      tag_20\n      jumpi\n      dup1\n      0x1f\n      lt\n      tag_21\n      jumpi\n      0x0100\n      dup1\n      dup4\n      sload\n      div\n      mul\n      dup4\n      mstore\n      swap2\n      0x20\n      add\n      swap2\n      jump(tag_20)\n    tag_21:\n      dup3\n      add\n      swap2\n      swap1\n      0x00\n      mstore\n      keccak256(0x00, 0x20)\n      swap1\n    tag_22:\n      dup2\n      sload\n      dup2\n      mstore\n      swap1\n      0x01\n      add\n      swap1\n      0x20\n      add\n      dup1\n      dup4\n      gt\n      tag_22\n      jumpi\n      dup3\n      swap1\n      sub\n      0x1f\n      and\n      dup3\n      add\n      swap2\n    tag_20:\n      pop\n      pop\n      pop\n      pop\n      pop\n      swap1\n      dup1\n      0x01\n      add\n      sload\n      swap1\n      dup1\n      0x02\n      add\n      0x00\n      swap1\n      sload\n      swap1\n      0x0100\n      exp\n      swap1\n      div\n      0xffffffffffffffffffffffffffffffffffffffff\n      and\n      swap1\n      pop\n      dup4\n      jump\t// out\n        /* \"contracts/artifacts/ExampleStruct.sol\":1250:1390  function getPerson() external view returns (string memory, uint, address) {... */\n    tag_11:\n        /* \"contracts/artifacts/ExampleStruct.sol\":1294:1307  string memory */\n      0x60\n        /* \"contracts/artifacts/ExampleStruct.sol\":1309:1313  uint */\n      0x00\n        /* \"contracts/artifacts/ExampleStruct.sol\":1315:1322  address */\n      dup1\n        /* \"contracts/artifacts/ExampleStruct.sol\":1343:1349  person */\n      0x00\n        /* \"contracts/artifacts/ExampleStruct.sol\":1343:1354  person.name */\n      dup1\n      add\n        /* \"contracts/artifacts/ExampleStruct.sol\":1356:1362  person */\n      0x00\n        /* \"contracts/artifacts/ExampleStruct.sol\":1356:1366  person.age */\n      0x01\n      add\n      sload\n        /* \"contracts/artifacts/ExampleStruct.sol\":1368:1374  person */\n      0x00\n        /* \"contracts/artifacts/ExampleStruct.sol\":1368:1381  person.wallet */\n      0x02\n      add\n      0x00\n      swap1\n      sload\n      swap1\n      0x0100\n      exp\n      swap1\n      div\n      0xffffffffffffffffffffffffffffffffffffffff\n      and\n        /* \"contracts/artifacts/ExampleStruct.sol\":1335:1382  return (person.name, person.age, person.wallet) */\n      dup3\n      dup1\n      sload\n      tag_24\n      swap1\n      tag_18\n      jump\t// in\n    tag_24:\n      dup1\n      0x1f\n      add\n      0x20\n      dup1\n      swap2\n      div\n      mul\n      0x20\n      add\n      mload(0x40)\n      swap1\n      dup2\n      add\n      0x40\n      mstore\n      dup1\n      swap3\n      swap2\n      swap1\n      dup2\n      dup2\n      mstore\n      0x20\n      add\n      dup3\n      dup1\n      sload\n      tag_25\n      swap1\n      tag_18\n      jump\t// in\n    tag_25:\n      dup1\n      iszero\n      tag_26\n      jumpi\n      dup1\n      0x1f\n      lt\n      tag_27\n      jumpi\n      0x0100\n      dup1\n      dup4\n      sload\n      div\n      mul\n      dup4\n      mstore\n      swap2\n      0x20\n      add\n      swap2\n      jump(tag_26)\n    tag_27:\n      dup3\n      add\n      swap2\n      swap1\n      0x00\n      mstore\n      keccak256(0x00, 0x20)\n      swap1\n    tag_28:\n      dup2\n      sload\n      dup2\n      mstore\n      swap1\n      0x01\n      add\n      swap1\n      0x20\n      add\n      dup1\n      dup4\n      gt\n      tag_28\n      jumpi\n      dup3\n      swap1\n      sub\n      0x1f\n      and\n      dup3\n      add\n      swap2\n    tag_26:\n      pop\n      pop\n      pop\n      pop\n      pop\n      swap3\n      pop\n      swap3\n      pop\n      swap3\n      pop\n      swap3\n      pop\n        /* \"contracts/artifacts/ExampleStruct.sol\":1250:1390  function getPerson() external view returns (string memory, uint, address) {... */\n      swap1\n      swap2\n      swap3\n      jump\t// out\n        /* \"contracts/artifacts/ExampleStruct.sol\":1018:1197  function setPerson(string calldata _name, uint _age, address _wallet) external {... */\n    tag_16:\n        /* \"contracts/artifacts/ExampleStruct.sol\":1122:1127  _name */\n      dup4\n      dup4\n        /* \"contracts/artifacts/ExampleStruct.sol\":1108:1114  person */\n      0x00\n        /* \"contracts/artifacts/ExampleStruct.sol\":1108:1119  person.name */\n      dup1\n      add\n        /* \"contracts/artifacts/ExampleStruct.sol\":1108:1127  person.name = _name */\n      swap2\n      dup3\n      tag_30\n      swap3\n      swap2\n      swap1\n      tag_31\n      jump\t// in\n    tag_30:\n      pop\n        /* \"contracts/artifacts/ExampleStruct.sol\":1151:1155  _age */\n      dup2\n        /* \"contracts/artifacts/ExampleStruct.sol\":1138:1144  person */\n      0x00\n        /* \"contracts/artifacts/ExampleStruct.sol\":1138:1148  person.age */\n      0x01\n      add\n        /* \"contracts/artifacts/ExampleStruct.sol\":1138:1155  person.age = _age */\n      dup2\n      swap1\n      sstore\n      pop\n        /* \"contracts/artifacts/ExampleStruct.sol\":1182:1189  _wallet */\n      dup1\n        /* \"contracts/artifacts/ExampleStruct.sol\":1166:1172  person */\n      0x00\n        /* \"contracts/artifacts/ExampleStruct.sol\":1166:1179  person.wallet */\n      0x02\n      add\n      0x00\n        /* \"contracts/artifacts/ExampleStruct.sol\":1166:1189  person.wallet = _wallet */\n      0x0100\n      exp\n      dup2\n      sload\n      dup2\n      0xffffffffffffffffffffffffffffffffffffffff\n      mul\n      not\n      and\n      swap1\n      dup4\n      0xffffffffffffffffffffffffffffffffffffffff\n      and\n      mul\n      or\n      swap1\n      sstore\n      pop\n        /* \"contracts/artifacts/ExampleStruct.sol\":1018:1197  function setPerson(string calldata _name, uint _age, address _wallet) external {... */\n      pop\n      pop\n      pop\n      pop\n      jump\t// out\n        /* \"#utility.yul\":7:106   */\n    tag_32:\n        /* \"#utility.yul\":59:65   */\n      0x00\n        /* \"#utility.yul\":93:98   */\n      dup2\n        /* \"#utility.yul\":87:99   */\n      mload\n        /* \"#utility.yul\":77:99   */\n      swap1\n      pop\n        /* \"#utility.yul\":7:106   */\n      swap2\n      swap1\n      pop\n      jump\t// out\n        /* \"#utility.yul\":112:281   */\n    tag_33:\n        /* \"#utility.yul\":196:207   */\n      0x00\n        /* \"#utility.yul\":230:236   */\n      dup3\n        /* \"#utility.yul\":225:228   */\n      dup3\n        /* \"#utility.yul\":218:237   */\n      mstore\n        /* \"#utility.yul\":270:274   */\n      0x20\n        /* \"#utility.yul\":265:268   */\n      dup3\n        /* \"#utility.yul\":261:275   */\n      add\n        /* \"#utility.yul\":246:275   */\n      swap1\n      pop\n        /* \"#utility.yul\":112:281   */\n      swap3\n      swap2\n      pop\n      pop\n      jump\t// out\n        /* \"#utility.yul\":287:594   */\n    tag_34:\n        /* \"#utility.yul\":355:356   */\n      0x00\n        /* \"#utility.yul\":365:478   */\n    tag_75:\n        /* \"#utility.yul\":379:385   */\n      dup4\n        /* \"#utility.yul\":376:377   */\n      dup2\n        /* \"#utility.yul\":373:386   */\n      lt\n        /* \"#utility.yul\":365:478   */\n      iszero\n      tag_77\n      jumpi\n        /* \"#utility.yul\":464:465   */\n      dup1\n        /* \"#utility.yul\":459:462   */\n      dup3\n        /* \"#utility.yul\":455:466   */\n      add\n        /* \"#utility.yul\":449:467   */\n      mload\n        /* \"#utility.yul\":445:446   */\n      dup2\n        /* \"#utility.yul\":440:443   */\n      dup5\n        /* \"#utility.yul\":436:447   */\n      add\n        /* \"#utility.yul\":429:468   */\n      mstore\n        /* \"#utility.yul\":401:403   */\n      0x20\n        /* \"#utility.yul\":398:399   */\n      dup2\n        /* \"#utility.yul\":394:404   */\n      add\n        /* \"#utility.yul\":389:404   */\n      swap1\n      pop\n        /* \"#utility.yul\":365:478   */\n      jump(tag_75)\n    tag_77:\n        /* \"#utility.yul\":496:502   */\n      dup4\n        /* \"#utility.yul\":493:494   */\n      dup2\n        /* \"#utility.yul\":490:503   */\n      gt\n        /* \"#utility.yul\":487:588   */\n      iszero\n      tag_78\n      jumpi\n        /* \"#utility.yul\":576:577   */\n      0x00\n        /* \"#utility.yul\":567:573   */\n      dup5\n        /* \"#utility.yul\":562:565   */\n      dup5\n        /* \"#utility.yul\":558:574   */\n      add\n        /* \"#utility.yul\":551:578   */\n      mstore\n        /* \"#utility.yul\":487:588   */\n    tag_78:\n        /* \"#utility.yul\":336:594   */\n      pop\n        /* \"#utility.yul\":287:594   */\n      pop\n      pop\n      pop\n      jump\t// out\n        /* \"#utility.yul\":600:702   */\n    tag_35:\n        /* \"#utility.yul\":641:647   */\n      0x00\n        /* \"#utility.yul\":692:694   */\n      0x1f\n        /* \"#utility.yul\":688:695   */\n      not\n        /* \"#utility.yul\":683:685   */\n      0x1f\n        /* \"#utility.yul\":676:681   */\n      dup4\n        /* \"#utility.yul\":672:686   */\n      add\n        /* \"#utility.yul\":668:696   */\n      and\n        /* \"#utility.yul\":658:696   */\n      swap1\n      pop\n        /* \"#utility.yul\":600:702   */\n      swap2\n      swap1\n      pop\n      jump\t// out\n        /* \"#utility.yul\":708:1072   */\n    tag_36:\n        /* \"#utility.yul\":796:799   */\n      0x00\n        /* \"#utility.yul\":824:863   */\n      tag_81\n        /* \"#utility.yul\":857:862   */\n      dup3\n        /* \"#utility.yul\":824:863   */\n      tag_32\n      jump\t// in\n    tag_81:\n        /* \"#utility.yul\":879:950   */\n      tag_82\n        /* \"#utility.yul\":943:949   */\n      dup2\n        /* \"#utility.yul\":938:941   */\n      dup6\n        /* \"#utility.yul\":879:950   */\n      tag_33\n      jump\t// in\n    tag_82:\n        /* \"#utility.yul\":872:950   */\n      swap4\n      pop\n        /* \"#utility.yul\":959:1011   */\n      tag_83\n        /* \"#utility.yul\":1004:1010   */\n      dup2\n        /* \"#utility.yul\":999:1002   */\n      dup6\n        /* \"#utility.yul\":992:996   */\n      0x20\n        /* \"#utility.yul\":985:990   */\n      dup7\n        /* \"#utility.yul\":981:997   */\n      add\n        /* \"#utility.yul\":959:1011   */\n      tag_34\n      jump\t// in\n    tag_83:\n        /* \"#utility.yul\":1036:1065   */\n      tag_84\n        /* \"#utility.yul\":1058:1064   */\n      dup2\n        /* \"#utility.yul\":1036:1065   */\n      tag_35\n      jump\t// in\n    tag_84:\n        /* \"#utility.yul\":1031:1034   */\n      dup5\n        /* \"#utility.yul\":1027:1066   */\n      add\n        /* \"#utility.yul\":1020:1066   */\n      swap2\n      pop\n        /* \"#utility.yul\":800:1072   */\n      pop\n        /* \"#utility.yul\":708:1072   */\n      swap3\n      swap2\n      pop\n      pop\n      jump\t// out\n        /* \"#utility.yul\":1078:1155   */\n    tag_37:\n        /* \"#utility.yul\":1115:1122   */\n      0x00\n        /* \"#utility.yul\":1144:1149   */\n      dup2\n        /* \"#utility.yul\":1133:1149   */\n      swap1\n      pop\n        /* \"#utility.yul\":1078:1155   */\n      swap2\n      swap1\n      pop\n      jump\t// out\n        /* \"#utility.yul\":1161:1279   */\n    tag_38:\n        /* \"#utility.yul\":1248:1272   */\n      tag_87\n        /* \"#utility.yul\":1266:1271   */\n      dup2\n        /* \"#utility.yul\":1248:1272   */\n      tag_37\n      jump\t// in\n    tag_87:\n        /* \"#utility.yul\":1243:1246   */\n      dup3\n        /* \"#utility.yul\":1236:1273   */\n      mstore\n        /* \"#utility.yul\":1161:1279   */\n      pop\n      pop\n      jump\t// out\n        /* \"#utility.yul\":1285:1411   */\n    tag_39:\n        /* \"#utility.yul\":1322:1329   */\n      0x00\n        /* \"#utility.yul\":1362:1404   */\n      0xffffffffffffffffffffffffffffffffffffffff\n        /* \"#utility.yul\":1355:1360   */\n      dup3\n        /* \"#utility.yul\":1351:1405   */\n      and\n        /* \"#utility.yul\":1340:1405   */\n      swap1\n      pop\n        /* \"#utility.yul\":1285:1411   */\n      swap2\n      swap1\n      pop\n      jump\t// out\n        /* \"#utility.yul\":1417:1513   */\n    tag_40:\n        /* \"#utility.yul\":1454:1461   */\n      0x00\n        /* \"#utility.yul\":1483:1507   */\n      tag_90\n        /* \"#utility.yul\":1501:1506   */\n      dup3\n        /* \"#utility.yul\":1483:1507   */\n      tag_39\n      jump\t// in\n    tag_90:\n        /* \"#utility.yul\":1472:1507   */\n      swap1\n      pop\n        /* \"#utility.yul\":1417:1513   */\n      swap2\n      swap1\n      pop\n      jump\t// out\n        /* \"#utility.yul\":1519:1637   */\n    tag_41:\n        /* \"#utility.yul\":1606:1630   */\n      tag_92\n        /* \"#utility.yul\":1624:1629   */\n      dup2\n        /* \"#utility.yul\":1606:1630   */\n      tag_40\n      jump\t// in\n    tag_92:\n        /* \"#utility.yul\":1601:1604   */\n      dup3\n        /* \"#utility.yul\":1594:1631   */\n      mstore\n        /* \"#utility.yul\":1519:1637   */\n      pop\n      pop\n      jump\t// out\n        /* \"#utility.yul\":1643:2176   */\n    tag_9:\n        /* \"#utility.yul\":1812:1816   */\n      0x00\n        /* \"#utility.yul\":1850:1852   */\n      0x60\n        /* \"#utility.yul\":1839:1848   */\n      dup3\n        /* \"#utility.yul\":1835:1853   */\n      add\n        /* \"#utility.yul\":1827:1853   */\n      swap1\n      pop\n        /* \"#utility.yul\":1899:1908   */\n      dup2\n        /* \"#utility.yul\":1893:1897   */\n      dup2\n        /* \"#utility.yul\":1889:1909   */\n      sub\n        /* \"#utility.yul\":1885:1886   */\n      0x00\n        /* \"#utility.yul\":1874:1883   */\n      dup4\n        /* \"#utility.yul\":1870:1887   */\n      add\n        /* \"#utility.yul\":1863:1910   */\n      mstore\n        /* \"#utility.yul\":1927:2005   */\n      tag_94\n        /* \"#utility.yul\":2000:2004   */\n      dup2\n        /* \"#utility.yul\":1991:1997   */\n      dup7\n        /* \"#utility.yul\":1927:2005   */\n      tag_36\n      jump\t// in\n    tag_94:\n        /* \"#utility.yul\":1919:2005   */\n      swap1\n      pop\n        /* \"#utility.yul\":2015:2087   */\n      tag_95\n        /* \"#utility.yul\":2083:2085   */\n      0x20\n        /* \"#utility.yul\":2072:2081   */\n      dup4\n        /* \"#utility.yul\":2068:2086   */\n      add\n        /* \"#utility.yul\":2059:2065   */\n      dup6\n        /* \"#utility.yul\":2015:2087   */\n      tag_38\n      jump\t// in\n    tag_95:\n        /* \"#utility.yul\":2097:2169   */\n      tag_96\n        /* \"#utility.yul\":2165:2167   */\n      0x40\n        /* \"#utility.yul\":2154:2163   */\n      dup4\n        /* \"#utility.yul\":2150:2168   */\n      add\n        /* \"#utility.yul\":2141:2147   */\n      dup5\n        /* \"#utility.yul\":2097:2169   */\n      tag_41\n      jump\t// in\n    tag_96:\n        /* \"#utility.yul\":1643:2176   */\n      swap5\n      swap4\n      pop\n      pop\n      pop\n      pop\n      jump\t// out\n        /* \"#utility.yul\":2263:2380   */\n    tag_43:\n        /* \"#utility.yul\":2372:2373   */\n      0x00\n        /* \"#utility.yul\":2369:2370   */\n      dup1\n        /* \"#utility.yul\":2362:2374   */\n      revert\n        /* \"#utility.yul\":2386:2503   */\n    tag_44:\n        /* \"#utility.yul\":2495:2496   */\n      0x00\n        /* \"#utility.yul\":2492:2493   */\n      dup1\n        /* \"#utility.yul\":2485:2497   */\n      revert\n        /* \"#utility.yul\":2509:2626   */\n    tag_45:\n        /* \"#utility.yul\":2618:2619   */\n      0x00\n        /* \"#utility.yul\":2615:2616   */\n      dup1\n        /* \"#utility.yul\":2608:2620   */\n      revert\n        /* \"#utility.yul\":2632:2749   */\n    tag_46:\n        /* \"#utility.yul\":2741:2742   */\n      0x00\n        /* \"#utility.yul\":2738:2739   */\n      dup1\n        /* \"#utility.yul\":2731:2743   */\n      revert\n        /* \"#utility.yul\":2755:2872   */\n    tag_47:\n        /* \"#utility.yul\":2864:2865   */\n      0x00\n        /* \"#utility.yul\":2861:2862   */\n      dup1\n        /* \"#utility.yul\":2854:2866   */\n      revert\n        /* \"#utility.yul\":2892:3445   */\n    tag_48:\n        /* \"#utility.yul\":2950:2958   */\n      0x00\n        /* \"#utility.yul\":2960:2966   */\n      dup1\n        /* \"#utility.yul\":3010:3013   */\n      dup4\n        /* \"#utility.yul\":3003:3007   */\n      0x1f\n        /* \"#utility.yul\":2995:3001   */\n      dup5\n        /* \"#utility.yul\":2991:3008   */\n      add\n        /* \"#utility.yul\":2987:3014   */\n      slt\n        /* \"#utility.yul\":2977:3099   */\n      tag_104\n      jumpi\n        /* \"#utility.yul\":3018:3097   */\n      tag_105\n      tag_45\n      jump\t// in\n    tag_105:\n        /* \"#utility.yul\":2977:3099   */\n    tag_104:\n        /* \"#utility.yul\":3131:3137   */\n      dup3\n        /* \"#utility.yul\":3118:3138   */\n      calldataload\n        /* \"#utility.yul\":3108:3138   */\n      swap1\n      pop\n        /* \"#utility.yul\":3161:3179   */\n      0xffffffffffffffff\n        /* \"#utility.yul\":3153:3159   */\n      dup2\n        /* \"#utility.yul\":3150:3180   */\n      gt\n        /* \"#utility.yul\":3147:3264   */\n      iszero\n      tag_106\n      jumpi\n        /* \"#utility.yul\":3183:3262   */\n      tag_107\n      tag_46\n      jump\t// in\n    tag_107:\n        /* \"#utility.yul\":3147:3264   */\n    tag_106:\n        /* \"#utility.yul\":3297:3301   */\n      0x20\n        /* \"#utility.yul\":3289:3295   */\n      dup4\n        /* \"#utility.yul\":3285:3302   */\n      add\n        /* \"#utility.yul\":3273:3302   */\n      swap2\n      pop\n        /* \"#utility.yul\":3351:3354   */\n      dup4\n        /* \"#utility.yul\":3343:3347   */\n      0x01\n        /* \"#utility.yul\":3335:3341   */\n      dup3\n        /* \"#utility.yul\":3331:3348   */\n      mul\n        /* \"#utility.yul\":3321:3329   */\n      dup4\n        /* \"#utility.yul\":3317:3349   */\n      add\n        /* \"#utility.yul\":3314:3355   */\n      gt\n        /* \"#utility.yul\":3311:3439   */\n      iszero\n      tag_108\n      jumpi\n        /* \"#utility.yul\":3358:3437   */\n      tag_109\n      tag_47\n      jump\t// in\n    tag_109:\n        /* \"#utility.yul\":3311:3439   */\n    tag_108:\n        /* \"#utility.yul\":2892:3445   */\n      swap3\n      pop\n      swap3\n      swap1\n      pop\n      jump\t// out\n        /* \"#utility.yul\":3451:3573   */\n    tag_49:\n        /* \"#utility.yul\":3524:3548   */\n      tag_111\n        /* \"#utility.yul\":3542:3547   */\n      dup2\n        /* \"#utility.yul\":3524:3548   */\n      tag_37\n      jump\t// in\n    tag_111:\n        /* \"#utility.yul\":3517:3522   */\n      dup2\n        /* \"#utility.yul\":3514:3549   */\n      eq\n        /* \"#utility.yul\":3504:3567   */\n      tag_112\n      jumpi\n        /* \"#utility.yul\":3563:3564   */\n      0x00\n        /* \"#utility.yul\":3560:3561   */\n      dup1\n        /* \"#utility.yul\":3553:3565   */\n      revert\n        /* \"#utility.yul\":3504:3567   */\n    tag_112:\n        /* \"#utility.yul\":3451:3573   */\n      pop\n      jump\t// out\n        /* \"#utility.yul\":3579:3718   */\n    tag_50:\n        /* \"#utility.yul\":3625:3630   */\n      0x00\n        /* \"#utility.yul\":3663:3669   */\n      dup2\n        /* \"#utility.yul\":3650:3670   */\n      calldataload\n        /* \"#utility.yul\":3641:3670   */\n      swap1\n      pop\n        /* \"#utility.yul\":3679:3712   */\n      tag_114\n        /* \"#utility.yul\":3706:3711   */\n      dup2\n        /* \"#utility.yul\":3679:3712   */\n      tag_49\n      jump\t// in\n    tag_114:\n        /* \"#utility.yul\":3579:3718   */\n      swap3\n      swap2\n      pop\n      pop\n      jump\t// out\n        /* \"#utility.yul\":3724:3846   */\n    tag_51:\n        /* \"#utility.yul\":3797:3821   */\n      tag_116\n        /* \"#utility.yul\":3815:3820   */\n      dup2\n        /* \"#utility.yul\":3797:3821   */\n      tag_40\n      jump\t// in\n    tag_116:\n        /* \"#utility.yul\":3790:3795   */\n      dup2\n        /* \"#utility.yul\":3787:3822   */\n      eq\n        /* \"#utility.yul\":3777:3840   */\n      tag_117\n      jumpi\n        /* \"#utility.yul\":3836:3837   */\n      0x00\n        /* \"#utility.yul\":3833:3834   */\n      dup1\n        /* \"#utility.yul\":3826:3838   */\n      revert\n        /* \"#utility.yul\":3777:3840   */\n    tag_117:\n        /* \"#utility.yul\":3724:3846   */\n      pop\n      jump\t// out\n        /* \"#utility.yul\":3852:3991   */\n    tag_52:\n        /* \"#utility.yul\":3898:3903   */\n      0x00\n        /* \"#utility.yul\":3936:3942   */\n      dup2\n        /* \"#utility.yul\":3923:3943   */\n      calldataload\n        /* \"#utility.yul\":3914:3943   */\n      swap1\n      pop\n        /* \"#utility.yul\":3952:3985   */\n      tag_119\n        /* \"#utility.yul\":3979:3984   */\n      dup2\n        /* \"#utility.yul\":3952:3985   */\n      tag_51\n      jump\t// in\n    tag_119:\n        /* \"#utility.yul\":3852:3991   */\n      swap3\n      swap2\n      pop\n      pop\n      jump\t// out\n        /* \"#utility.yul\":3997:4816   */\n    tag_15:\n        /* \"#utility.yul\":4086:4092   */\n      0x00\n        /* \"#utility.yul\":4094:4100   */\n      dup1\n        /* \"#utility.yul\":4102:4108   */\n      0x00\n        /* \"#utility.yul\":4110:4116   */\n      dup1\n        /* \"#utility.yul\":4159:4161   */\n      0x60\n        /* \"#utility.yul\":4147:4156   */\n      dup6\n        /* \"#utility.yul\":4138:4145   */\n      dup8\n        /* \"#utility.yul\":4134:4157   */\n      sub\n        /* \"#utility.yul\":4130:4162   */\n      slt\n        /* \"#utility.yul\":4127:4246   */\n      iszero\n      tag_121\n      jumpi\n        /* \"#utility.yul\":4165:4244   */\n      tag_122\n      tag_43\n      jump\t// in\n    tag_122:\n        /* \"#utility.yul\":4127:4246   */\n    tag_121:\n        /* \"#utility.yul\":4313:4314   */\n      0x00\n        /* \"#utility.yul\":4302:4311   */\n      dup6\n        /* \"#utility.yul\":4298:4315   */\n      add\n        /* \"#utility.yul\":4285:4316   */\n      calldataload\n        /* \"#utility.yul\":4343:4361   */\n      0xffffffffffffffff\n        /* \"#utility.yul\":4335:4341   */\n      dup2\n        /* \"#utility.yul\":4332:4362   */\n      gt\n        /* \"#utility.yul\":4329:4446   */\n      iszero\n      tag_123\n      jumpi\n        /* \"#utility.yul\":4365:4444   */\n      tag_124\n      tag_44\n      jump\t// in\n    tag_124:\n        /* \"#utility.yul\":4329:4446   */\n    tag_123:\n        /* \"#utility.yul\":4478:4543   */\n      tag_125\n        /* \"#utility.yul\":4535:4542   */\n      dup8\n        /* \"#utility.yul\":4526:4532   */\n      dup3\n        /* \"#utility.yul\":4515:4524   */\n      dup9\n        /* \"#utility.yul\":4511:4533   */\n      add\n        /* \"#utility.yul\":4478:4543   */\n      tag_48\n      jump\t// in\n    tag_125:\n        /* \"#utility.yul\":4460:4543   */\n      swap5\n      pop\n      swap5\n      pop\n        /* \"#utility.yul\":4256:4553   */\n      pop\n        /* \"#utility.yul\":4592:4594   */\n      0x20\n        /* \"#utility.yul\":4618:4671   */\n      tag_126\n        /* \"#utility.yul\":4663:4670   */\n      dup8\n        /* \"#utility.yul\":4654:4660   */\n      dup3\n        /* \"#utility.yul\":4643:4652   */\n      dup9\n        /* \"#utility.yul\":4639:4661   */\n      add\n        /* \"#utility.yul\":4618:4671   */\n      tag_50\n      jump\t// in\n    tag_126:\n        /* \"#utility.yul\":4608:4671   */\n      swap3\n      pop\n        /* \"#utility.yul\":4563:4681   */\n      pop\n        /* \"#utility.yul\":4720:4722   */\n      0x40\n        /* \"#utility.yul\":4746:4799   */\n      tag_127\n        /* \"#utility.yul\":4791:4798   */\n      dup8\n        /* \"#utility.yul\":4782:4788   */\n      dup3\n        /* \"#utility.yul\":4771:4780   */\n      dup9\n        /* \"#utility.yul\":4767:4789   */\n      add\n        /* \"#utility.yul\":4746:4799   */\n      tag_52\n      jump\t// in\n    tag_127:\n        /* \"#utility.yul\":4736:4799   */\n      swap2\n      pop\n        /* \"#utility.yul\":4691:4809   */\n      pop\n        /* \"#utility.yul\":3997:4816   */\n      swap3\n      swap6\n      swap2\n      swap5\n      pop\n      swap3\n      pop\n      jump\t// out\n        /* \"#utility.yul\":4822:5002   */\n    tag_53:\n        /* \"#utility.yul\":4870:4947   */\n      0x4e487b7100000000000000000000000000000000000000000000000000000000\n        /* \"#utility.yul\":4867:4868   */\n      0x00\n        /* \"#utility.yul\":4860:4948   */\n      mstore\n        /* \"#utility.yul\":4967:4971   */\n      0x22\n        /* \"#utility.yul\":4964:4965   */\n      0x04\n        /* \"#utility.yul\":4957:4972   */\n      mstore\n        /* \"#utility.yul\":4991:4995   */\n      0x24\n        /* \"#utility.yul\":4988:4989   */\n      0x00\n        /* \"#utility.yul\":4981:4996   */\n      revert\n        /* \"#utility.yul\":5008:5328   */\n    tag_18:\n        /* \"#utility.yul\":5052:5058   */\n      0x00\n        /* \"#utility.yul\":5089:5090   */\n      0x02\n        /* \"#utility.yul\":5083:5087   */\n      dup3\n        /* \"#utility.yul\":5079:5091   */\n      div\n        /* \"#utility.yul\":5069:5091   */\n      swap1\n      pop\n        /* \"#utility.yul\":5136:5137   */\n      0x01\n        /* \"#utility.yul\":5130:5134   */\n      dup3\n        /* \"#utility.yul\":5126:5138   */\n      and\n        /* \"#utility.yul\":5157:5175   */\n      dup1\n        /* \"#utility.yul\":5147:5228   */\n      tag_130\n      jumpi\n        /* \"#utility.yul\":5213:5217   */\n      0x7f\n        /* \"#utility.yul\":5205:5211   */\n      dup3\n        /* \"#utility.yul\":5201:5218   */\n      and\n        /* \"#utility.yul\":5191:5218   */\n      swap2\n      pop\n        /* \"#utility.yul\":5147:5228   */\n    tag_130:\n        /* \"#utility.yul\":5275:5277   */\n      0x20\n        /* \"#utility.yul\":5267:5273   */\n      dup3\n        /* \"#utility.yul\":5264:5278   */\n      lt\n        /* \"#utility.yul\":5244:5262   */\n      dup2\n        /* \"#utility.yul\":5241:5279   */\n      sub\n        /* \"#utility.yul\":5238:5322   */\n      tag_131\n      jumpi\n        /* \"#utility.yul\":5294:5312   */\n      tag_132\n      tag_53\n      jump\t// in\n    tag_132:\n        /* \"#utility.yul\":5238:5322   */\n    tag_131:\n        /* \"#utility.yul\":5059:5328   */\n      pop\n        /* \"#utility.yul\":5008:5328   */\n      swap2\n      swap1\n      pop\n      jump\t// out\n        /* \"#utility.yul\":5334:5431   */\n    tag_54:\n        /* \"#utility.yul\":5393:5399   */\n      0x00\n        /* \"#utility.yul\":5421:5424   */\n      dup3\n        /* \"#utility.yul\":5411:5424   */\n      swap1\n      pop\n        /* \"#utility.yul\":5334:5431   */\n      swap3\n      swap2\n      pop\n      pop\n      jump\t// out\n        /* \"#utility.yul\":5437:5617   */\n    tag_55:\n        /* \"#utility.yul\":5485:5562   */\n      0x4e487b7100000000000000000000000000000000000000000000000000000000\n        /* \"#utility.yul\":5482:5483   */\n      0x00\n        /* \"#utility.yul\":5475:5563   */\n      mstore\n        /* \"#utility.yul\":5582:5586   */\n      0x41\n        /* \"#utility.yul\":5579:5580   */\n      0x04\n        /* \"#utility.yul\":5572:5587   */\n      mstore\n        /* \"#utility.yul\":5606:5610   */\n      0x24\n        /* \"#utility.yul\":5603:5604   */\n      0x00\n        /* \"#utility.yul\":5596:5611   */\n      revert\n        /* \"#utility.yul\":5623:5764   */\n    tag_56:\n        /* \"#utility.yul\":5672:5676   */\n      0x00\n        /* \"#utility.yul\":5695:5698   */\n      dup2\n        /* \"#utility.yul\":5687:5698   */\n      swap1\n      pop\n        /* \"#utility.yul\":5718:5721   */\n      dup2\n        /* \"#utility.yul\":5715:5716   */\n      0x00\n        /* \"#utility.yul\":5708:5722   */\n      mstore\n        /* \"#utility.yul\":5752:5756   */\n      0x20\n        /* \"#utility.yul\":5749:5750   */\n      0x00\n        /* \"#utility.yul\":5739:5757   */\n      keccak256\n        /* \"#utility.yul\":5731:5757   */\n      swap1\n      pop\n        /* \"#utility.yul\":5623:5764   */\n      swap2\n      swap1\n      pop\n      jump\t// out\n        /* \"#utility.yul\":5770:5863   */\n    tag_57:\n        /* \"#utility.yul\":5807:5813   */\n      0x00\n        /* \"#utility.yul\":5854:5856   */\n      0x20\n        /* \"#utility.yul\":5849:5851   */\n      0x1f\n        /* \"#utility.yul\":5842:5847   */\n      dup4\n        /* \"#utility.yul\":5838:5852   */\n      add\n        /* \"#utility.yul\":5834:5857   */\n      div\n        /* \"#utility.yul\":5824:5857   */\n      swap1\n      pop\n        /* \"#utility.yul\":5770:5863   */\n      swap2\n      swap1\n      pop\n      jump\t// out\n        /* \"#utility.yul\":5869:5976   */\n    tag_58:\n        /* \"#utility.yul\":5913:5921   */\n      0x00\n        /* \"#utility.yul\":5963:5968   */\n      dup3\n        /* \"#utility.yul\":5957:5961   */\n      dup3\n        /* \"#utility.yul\":5953:5969   */\n      shl\n        /* \"#utility.yul\":5932:5969   */\n      swap1\n      pop\n        /* \"#utility.yul\":5869:5976   */\n      swap3\n      swap2\n      pop\n      pop\n      jump\t// out\n        /* \"#utility.yul\":5982:6375   */\n    tag_59:\n        /* \"#utility.yul\":6051:6057   */\n      0x00\n        /* \"#utility.yul\":6101:6102   */\n      0x08\n        /* \"#utility.yul\":6089:6099   */\n      dup4\n        /* \"#utility.yul\":6085:6103   */\n      mul\n        /* \"#utility.yul\":6124:6221   */\n      tag_139\n        /* \"#utility.yul\":6154:6220   */\n      0xffffffffffffffffffffffffffffffffffffffffffffffffffffffffffffffff\n        /* \"#utility.yul\":6143:6152   */\n      dup3\n        /* \"#utility.yul\":6124:6221   */\n      tag_58\n      jump\t// in\n    tag_139:\n        /* \"#utility.yul\":6242:6281   */\n      tag_140\n        /* \"#utility.yul\":6272:6280   */\n      dup7\n        /* \"#utility.yul\":6261:6270   */\n      dup4\n        /* \"#utility.yul\":6242:6281   */\n      tag_58\n      jump\t// in\n    tag_140:\n        /* \"#utility.yul\":6230:6281   */\n      swap6\n      pop\n        /* \"#utility.yul\":6314:6318   */\n      dup1\n        /* \"#utility.yul\":6310:6319   */\n      not\n        /* \"#utility.yul\":6303:6308   */\n      dup5\n        /* \"#utility.yul\":6299:6320   */\n      and\n        /* \"#utility.yul\":6290:6320   */\n      swap4\n      pop\n        /* \"#utility.yul\":6363:6367   */\n      dup1\n        /* \"#utility.yul\":6353:6361   */\n      dup7\n        /* \"#utility.yul\":6349:6368   */\n      and\n        /* \"#utility.yul\":6342:6347   */\n      dup5\n        /* \"#utility.yul\":6339:6369   */\n      or\n        /* \"#utility.yul\":6329:6369   */\n      swap3\n      pop\n        /* \"#utility.yul\":6058:6375   */\n      pop\n      pop\n        /* \"#utility.yul\":5982:6375   */\n      swap4\n      swap3\n      pop\n      pop\n      pop\n      jump\t// out\n        /* \"#utility.yul\":6381:6441   */\n    tag_60:\n        /* \"#utility.yul\":6409:6412   */\n      0x00\n        /* \"#utility.yul\":6430:6435   */\n      dup2\n        /* \"#utility.yul\":6423:6435   */\n      swap1\n      pop\n        /* \"#utility.yul\":6381:6441   */\n      swap2\n      swap1\n      pop\n      jump\t// out\n        /* \"#utility.yul\":6447:6589   */\n    tag_61:\n        /* \"#utility.yul\":6497:6506   */\n      0x00\n        /* \"#utility.yul\":6530:6583   */\n      tag_143\n        /* \"#utility.yul\":6548:6582   */\n      tag_144\n        /* \"#utility.yul\":6557:6581   */\n      tag_145\n        /* \"#utility.yul\":6575:6580   */\n      dup5\n        /* \"#utility.yul\":6557:6581   */\n      tag_37\n      jump\t// in\n    tag_145:\n        /* \"#utility.yul\":6548:6582   */\n      tag_60\n      jump\t// in\n    tag_144:\n        /* \"#utility.yul\":6530:6583   */\n      tag_37\n      jump\t// in\n    tag_143:\n        /* \"#utility.yul\":6517:6583   */\n      swap1\n      pop\n        /* \"#utility.yul\":6447:6589   */\n      swap2\n      swap1\n      pop\n      jump\t// out\n        /* \"#utility.yul\":6595:6670   */\n    tag_62:\n        /* \"#utility.yul\":6638:6641   */\n      0x00\n        /* \"#utility.yul\":6659:6664   */\n      dup2\n        /* \"#utility.yul\":6652:6664   */\n      swap1\n      pop\n        /* \"#utility.yul\":6595:6670   */\n      swap2\n      swap1\n      pop\n      jump\t// out\n        /* \"#utility.yul\":6676:6945   */\n    tag_63:\n        /* \"#utility.yul\":6786:6825   */\n      tag_148\n        /* \"#utility.yul\":6817:6824   */\n      dup4\n        /* \"#utility.yul\":6786:6825   */\n      tag_61\n      jump\t// in\n    tag_148:\n        /* \"#utility.yul\":6847:6938   */\n      tag_149\n        /* \"#utility.yul\":6896:6937   */\n      tag_150\n        /* \"#utility.yul\":6920:6936   */\n      dup3\n        /* \"#utility.yul\":6896:6937   */\n      tag_62\n      jump\t// in\n    tag_150:\n        /* \"#utility.yul\":6888:6894   */\n      dup5\n        /* \"#utility.yul\":6881:6885   */\n      dup5\n        /* \"#utility.yul\":6875:6886   */\n      sload\n        /* \"#utility.yul\":6847:6938   */\n      tag_59\n      jump\t// in\n    tag_149:\n        /* \"#utility.yul\":6841:6845   */\n      dup3\n        /* \"#utility.yul\":6834:6939   */\n      sstore\n        /* \"#utility.yul\":6752:6945   */\n      pop\n        /* \"#utility.yul\":6676:6945   */\n      pop\n      pop\n      pop\n      jump\t// out\n        /* \"#utility.yul\":6951:7024   */\n    tag_64:\n        /* \"#utility.yul\":6996:6999   */\n      0x00\n        /* \"#utility.yul\":6951:7024   */\n      swap1\n      jump\t// out\n        /* \"#utility.yul\":7030:7219   */\n    tag_65:\n        /* \"#utility.yul\":7107:7139   */\n      tag_153\n      tag_64\n      jump\t// in\n    tag_153:\n        /* \"#utility.yul\":7148:7213   */\n      tag_154\n        /* \"#utility.yul\":7206:7212   */\n      dup2\n        /* \"#utility.yul\":7198:7204   */\n      dup5\n        /* \"#utility.yul\":7192:7196   */\n      dup5\n        /* \"#utility.yul\":7148:7213   */\n      tag_63\n      jump\t// in\n    tag_154:\n        /* \"#utility.yul\":7083:7219   */\n      pop\n        /* \"#utility.yul\":7030:7219   */\n      pop\n      pop\n      jump\t// out\n        /* \"#utility.yul\":7225:7411   */\n    tag_66:\n        /* \"#utility.yul\":7285:7405   */\n    tag_156:\n        /* \"#utility.yul\":7302:7305   */\n      dup2\n        /* \"#utility.yul\":7295:7300   */\n      dup2\n        /* \"#utility.yul\":7292:7306   */\n      lt\n        /* \"#utility.yul\":7285:7405   */\n      iszero\n      tag_158\n      jumpi\n        /* \"#utility.yul\":7356:7395   */\n      tag_159\n        /* \"#utility.yul\":7393:7394   */\n      0x00\n        /* \"#utility.yul\":7386:7391   */\n      dup3\n        /* \"#utility.yul\":7356:7395   */\n      tag_65\n      jump\t// in\n    tag_159:\n        /* \"#utility.yul\":7329:7330   */\n      0x01\n        /* \"#utility.yul\":7322:7327   */\n      dup2\n        /* \"#utility.yul\":7318:7331   */\n      add\n        /* \"#utility.yul\":7309:7331   */\n      swap1\n      pop\n        /* \"#utility.yul\":7285:7405   */\n      jump(tag_156)\n    tag_158:\n        /* \"#utility.yul\":7225:7411   */\n      pop\n      pop\n      jump\t// out\n        /* \"#utility.yul\":7417:7960   */\n    tag_67:\n        /* \"#utility.yul\":7518:7520   */\n      0x1f\n        /* \"#utility.yul\":7513:7516   */\n      dup3\n        /* \"#utility.yul\":7510:7521   */\n      gt\n        /* \"#utility.yul\":7507:7953   */\n      iszero\n      tag_161\n      jumpi\n        /* \"#utility.yul\":7552:7590   */\n      tag_162\n        /* \"#utility.yul\":7584:7589   */\n      dup2\n        /* \"#utility.yul\":7552:7590   */\n      tag_56\n      jump\t// in\n    tag_162:\n        /* \"#utility.yul\":7636:7665   */\n      tag_163\n        /* \"#utility.yul\":7654:7664   */\n      dup5\n        /* \"#utility.yul\":7636:7665   */\n      tag_57\n      jump\t// in\n    tag_163:\n        /* \"#utility.yul\":7626:7634   */\n      dup2\n        /* \"#utility.yul\":7622:7666   */\n      add\n        /* \"#utility.yul\":7819:7821   */\n      0x20\n        /* \"#utility.yul\":7807:7817   */\n      dup6\n        /* \"#utility.yul\":7804:7822   */\n      lt\n        /* \"#utility.yul\":7801:7850   */\n      iszero\n      tag_164\n      jumpi\n        /* \"#utility.yul\":7840:7848   */\n      dup2\n        /* \"#utility.yul\":7825:7848   */\n      swap1\n      pop\n        /* \"#utility.yul\":7801:7850   */\n    tag_164:\n        /* \"#utility.yul\":7863:7943   */\n      tag_165\n        /* \"#utility.yul\":7919:7941   */\n      tag_166\n        /* \"#utility.yul\":7937:7940   */\n      dup6\n        /* \"#utility.yul\":7919:7941   */\n      tag_57\n      jump\t// in\n    tag_166:\n        /* \"#utility.yul\":7909:7917   */\n      dup4\n        /* \"#utility.yul\":7905:7942   */\n      add\n        /* \"#utility.yul\":7892:7903   */\n      dup3\n        /* \"#utility.yul\":7863:7943   */\n      tag_66\n      jump\t// in\n    tag_165:\n        /* \"#utility.yul\":7522:7953   */\n      pop\n      pop\n        /* \"#utility.yul\":7507:7953   */\n    tag_161:\n        /* \"#utility.yul\":7417:7960   */\n      pop\n      pop\n      pop\n      jump\t// out\n        /* \"#utility.yul\":7966:8083   */\n    tag_68:\n        /* \"#utility.yul\":8020:8028   */\n      0x00\n        /* \"#utility.yul\":8070:8075   */\n      dup3\n        /* \"#utility.yul\":8064:8068   */\n      dup3\n        /* \"#utility.yul\":8060:8076   */\n      shr\n        /* \"#utility.yul\":8039:8076   */\n      swap1\n      pop\n        /* \"#utility.yul\":7966:8083   */\n      swap3\n      swap2\n      pop\n      pop\n      jump\t// out\n        /* \"#utility.yul\":8089:8258   */\n    tag_69:\n        /* \"#utility.yul\":8133:8139   */\n      0x00\n        /* \"#utility.yul\":8166:8217   */\n      tag_169\n        /* \"#utility.yul\":8214:8215   */\n      0x00\n        /* \"#utility.yul\":8210:8216   */\n      not\n        /* \"#utility.yul\":8202:8207   */\n      dup5\n        /* \"#utility.yul\":8199:8200   */\n      0x08\n        /* \"#utility.yul\":8195:8208   */\n      mul\n        /* \"#utility.yul\":8166:8217   */\n      tag_68\n      jump\t// in\n    tag_169:\n        /* \"#utility.yul\":8162:8218   */\n      not\n        /* \"#utility.yul\":8247:8251   */\n      dup1\n        /* \"#utility.yul\":8241:8245   */\n      dup4\n        /* \"#utility.yul\":8237:8252   */\n      and\n        /* \"#utility.yul\":8227:8252   */\n      swap2\n      pop\n        /* \"#utility.yul\":8140:8258   */\n      pop\n        /* \"#utility.yul\":8089:8258   */\n      swap3\n      swap2\n      pop\n      pop\n      jump\t// out\n        /* \"#utility.yul\":8263:8558   */\n    tag_70:\n        /* \"#utility.yul\":8339:8343   */\n      0x00\n        /* \"#utility.yul\":8485:8514   */\n      tag_171\n        /* \"#utility.yul\":8510:8513   */\n      dup4\n        /* \"#utility.yul\":8504:8508   */\n      dup4\n        /* \"#utility.yul\":8485:8514   */\n      tag_69\n      jump\t// in\n    tag_171:\n        /* \"#utility.yul\":8477:8514   */\n      swap2\n      pop\n        /* \"#utility.yul\":8547:8550   */\n      dup3\n        /* \"#utility.yul\":8544:8545   */\n      0x02\n        /* \"#utility.yul\":8540:8551   */\n      mul\n        /* \"#utility.yul\":8534:8538   */\n      dup3\n        /* \"#utility.yul\":8531:8552   */\n      or\n        /* \"#utility.yul\":8523:8552   */\n      swap1\n      pop\n        /* \"#utility.yul\":8263:8558   */\n      swap3\n      swap2\n      pop\n      pop\n      jump\t// out\n        /* \"#utility.yul\":8563:9966   */\n    tag_31:\n        /* \"#utility.yul\":8687:8731   */\n      tag_173\n        /* \"#utility.yul\":8727:8730   */\n      dup4\n        /* \"#utility.yul\":8722:8725   */\n      dup4\n        /* \"#utility.yul\":8687:8731   */\n      tag_54\n      jump\t// in\n    tag_173:\n        /* \"#utility.yul\":8796:8814   */\n      0xffffffffffffffff\n        /* \"#utility.yul\":8788:8794   */\n      dup2\n        /* \"#utility.yul\":8785:8815   */\n      gt\n        /* \"#utility.yul\":8782:8838   */\n      iszero\n      tag_174\n      jumpi\n        /* \"#utility.yul\":8818:8836   */\n      tag_175\n      tag_55\n      jump\t// in\n    tag_175:\n        /* \"#utility.yul\":8782:8838   */\n    tag_174:\n        /* \"#utility.yul\":8862:8900   */\n      tag_176\n        /* \"#utility.yul\":8894:8898   */\n      dup3\n        /* \"#utility.yul\":8888:8899   */\n      sload\n        /* \"#utility.yul\":8862:8900   */\n      tag_18\n      jump\t// in\n    tag_176:\n        /* \"#utility.yul\":8947:9014   */\n      tag_177\n        /* \"#utility.yul\":9007:9013   */\n      dup3\n        /* \"#utility.yul\":8999:9005   */\n      dup3\n        /* \"#utility.yul\":8993:8997   */\n      dup6\n        /* \"#utility.yul\":8947:9014   */\n      tag_67\n      jump\t// in\n    tag_177:\n        /* \"#utility.yul\":9041:9042   */\n      0x00\n        /* \"#utility.yul\":9070:9072   */\n      0x1f\n        /* \"#utility.yul\":9062:9068   */\n      dup4\n        /* \"#utility.yul\":9059:9073   */\n      gt\n        /* \"#utility.yul\":9087:9088   */\n      0x01\n        /* \"#utility.yul\":9082:9714   */\n      dup2\n      eq\n      tag_179\n      jumpi\n        /* \"#utility.yul\":9758:9759   */\n      0x00\n        /* \"#utility.yul\":9775:9781   */\n      dup5\n        /* \"#utility.yul\":9772:9856   */\n      iszero\n      tag_180\n      jumpi\n        /* \"#utility.yul\":9831:9840   */\n      dup3\n        /* \"#utility.yul\":9826:9829   */\n      dup8\n        /* \"#utility.yul\":9822:9841   */\n      add\n        /* \"#utility.yul\":9809:9842   */\n      calldataload\n        /* \"#utility.yul\":9800:9842   */\n      swap1\n      pop\n        /* \"#utility.yul\":9772:9856   */\n    tag_180:\n        /* \"#utility.yul\":9882:9949   */\n      tag_181\n        /* \"#utility.yul\":9942:9948   */\n      dup6\n        /* \"#utility.yul\":9935:9940   */\n      dup3\n        /* \"#utility.yul\":9882:9949   */\n      tag_70\n      jump\t// in\n    tag_181:\n        /* \"#utility.yul\":9876:9880   */\n      dup7\n        /* \"#utility.yul\":9869:9950   */\n      sstore\n        /* \"#utility.yul\":9731:9960   */\n      pop\n        /* \"#utility.yul\":9052:9960   */\n      jump(tag_178)\n        /* \"#utility.yul\":9082:9714   */\n    tag_179:\n        /* \"#utility.yul\":9134:9138   */\n      0x1f\n        /* \"#utility.yul\":9130:9139   */\n      not\n        /* \"#utility.yul\":9122:9128   */\n      dup5\n        /* \"#utility.yul\":9118:9140   */\n      and\n        /* \"#utility.yul\":9168:9205   */\n      tag_182\n        /* \"#utility.yul\":9200:9204   */\n      dup7\n        /* \"#utility.yul\":9168:9205   */\n      tag_56\n      jump\t// in\n    tag_182:\n        /* \"#utility.yul\":9227:9228   */\n      0x00\n        /* \"#utility.yul\":9241:9456   */\n    tag_183:\n        /* \"#utility.yul\":9255:9262   */\n      dup3\n        /* \"#utility.yul\":9252:9253   */\n      dup2\n        /* \"#utility.yul\":9249:9263   */\n      lt\n        /* \"#utility.yul\":9241:9456   */\n      iszero\n      tag_185\n      jumpi\n        /* \"#utility.yul\":9341:9350   */\n      dup5\n        /* \"#utility.yul\":9336:9339   */\n      dup10\n        /* \"#utility.yul\":9332:9351   */\n      add\n        /* \"#utility.yul\":9319:9352   */\n      calldataload\n        /* \"#utility.yul\":9311:9317   */\n      dup3\n        /* \"#utility.yul\":9304:9353   */\n      sstore\n        /* \"#utility.yul\":9392:9393   */\n      0x01\n        /* \"#utility.yul\":9384:9390   */\n      dup3\n        /* \"#utility.yul\":9380:9394   */\n      add\n        /* \"#utility.yul\":9370:9394   */\n      swap2\n      pop\n        /* \"#utility.yul\":9439:9441   */\n      0x20\n        /* \"#utility.yul\":9428:9437   */\n      dup6\n        /* \"#utility.yul\":9424:9442   */\n      add\n        /* \"#utility.yul\":9411:9442   */\n      swap5\n      pop\n        /* \"#utility.yul\":9278:9282   */\n      0x20\n        /* \"#utility.yul\":9275:9276   */\n      dup2\n        /* \"#utility.yul\":9271:9283   */\n      add\n        /* \"#utility.yul\":9266:9283   */\n      swap1\n      pop\n        /* \"#utility.yul\":9241:9456   */\n      jump(tag_183)\n    tag_185:\n        /* \"#utility.yul\":9484:9490   */\n      dup7\n        /* \"#utility.yul\":9475:9482   */\n      dup4\n        /* \"#utility.yul\":9472:9491   */\n      lt\n        /* \"#utility.yul\":9469:9655   */\n      iszero\n      tag_186\n      jumpi\n        /* \"#utility.yul\":9549:9558   */\n      dup5\n        /* \"#utility.yul\":9544:9547   */\n      dup10\n        /* \"#utility.yul\":9540:9559   */\n      add\n        /* \"#utility.yul\":9527:9560   */\n      calldataload\n        /* \"#utility.yul\":9592:9640   */\n      tag_187\n        /* \"#utility.yul\":9634:9638   */\n      0x1f\n        /* \"#utility.yul\":9626:9632   */\n      dup10\n        /* \"#utility.yul\":9622:9639   */\n      and\n        /* \"#utility.yul\":9611:9620   */\n      dup3\n        /* \"#utility.yul\":9592:9640   */\n      tag_69\n      jump\t// in\n    tag_187:\n        /* \"#utility.yul\":9584:9590   */\n      dup4\n        /* \"#utility.yul\":9577:9641   */\n      sstore\n        /* \"#utility.yul\":9492:9655   */\n      pop\n        /* \"#utility.yul\":9469:9655   */\n    tag_186:\n        /* \"#utility.yul\":9701:9702   */\n      0x01\n        /* \"#utility.yul\":9697:9698   */\n      0x02\n        /* \"#utility.yul\":9689:9695   */\n      dup9\n        /* \"#utility.yul\":9685:9699   */\n      mul\n        /* \"#utility.yul\":9681:9703   */\n      add\n        /* \"#utility.yul\":9675:9679   */\n      dup9\n        /* \"#utility.yul\":9668:9704   */\n      sstore\n        /* \"#utility.yul\":9089:9714   */\n      pop\n      pop\n      pop\n        /* \"#utility.yul\":9052:9960   */\n    tag_178:\n      pop\n        /* \"#utility.yul\":8662:9966   */\n      pop\n      pop\n      pop\n        /* \"#utility.yul\":8563:9966   */\n      pop\n      pop\n      pop\n      jump\t// out\n\n    auxdata: 0xa2646970667358221220d3f40f8e359095526a4076af3caf55a5417e92e1162af905124572b5cb61e02a64736f6c634300080f0033\n}\n",
				"bytecode": {
					"linkReferences": {},
					"object": "608060405234801561001057600080fd5b5061084e806100206000396000f3fe608060405234801561001057600080fd5b50600436106100415760003560e01c806377ec2b55146100465780638ec4dc9514610066578063cd4161ec14610086575b600080fd5b61004e6100a2565b60405161005d93929190610389565b60405180910390f35b61006e610162565b60405161007d93929190610389565b60405180910390f35b6100a0600480360381019061009b919061048e565b61022e565b005b60008060000180546100b390610531565b80601f01602080910402602001604051908101604052809291908181526020018280546100df90610531565b801561012c5780601f106101015761010080835404028352916020019161012c565b820191906000526020600020905b81548152906001019060200180831161010f57829003601f168201915b5050505050908060010154908060020160009054906101000a900473ffffffffffffffffffffffffffffffffffffffff16905083565b606060008060008001600060010154600060020160009054906101000a900473ffffffffffffffffffffffffffffffffffffffff168280546101a390610531565b80601f01602080910402602001604051908101604052809291908181526020018280546101cf90610531565b801561021c5780601f106101f15761010080835404028352916020019161021c565b820191906000526020600020905b8154815290600101906020018083116101ff57829003601f168201915b50505050509250925092509250909192565b8383600080019182610241929190610748565b508160006001018190555080600060020160006101000a81548173ffffffffffffffffffffffffffffffffffffffff021916908373ffffffffffffffffffffffffffffffffffffffff16021790555050505050565b600081519050919050565b600082825260208201905092915050565b60005b838110156102d05780820151818401526020810190506102b5565b838111156102df576000848401525b50505050565b6000601f19601f8301169050919050565b600061030182610296565b61030b81856102a1565b935061031b8185602086016102b2565b610324816102e5565b840191505092915050565b6000819050919050565b6103428161032f565b82525050565b600073ffffffffffffffffffffffffffffffffffffffff82169050919050565b600061037382610348565b9050919050565b61038381610368565b82525050565b600060608201905081810360008301526103a381866102f6565b90506103b26020830185610339565b6103bf604083018461037a565b949350505050565b600080fd5b600080fd5b600080fd5b600080fd5b600080fd5b60008083601f8401126103f6576103f56103d1565b5b8235905067ffffffffffffffff811115610413576104126103d6565b5b60208301915083600182028301111561042f5761042e6103db565b5b9250929050565b61043f8161032f565b811461044a57600080fd5b50565b60008135905061045c81610436565b92915050565b61046b81610368565b811461047657600080fd5b50565b60008135905061048881610462565b92915050565b600080600080606085870312156104a8576104a76103c7565b5b600085013567ffffffffffffffff8111156104c6576104c56103cc565b5b6104d2878288016103e0565b945094505060206104e58782880161044d565b92505060406104f687828801610479565b91505092959194509250565b7f4e487b7100000000000000000000000000000000000000000000000000000000600052602260045260246000fd5b6000600282049050600182168061054957607f821691505b60208210810361055c5761055b610502565b5b50919050565b600082905092915050565b7f4e487b7100000000000000000000000000000000000000000000000000000000600052604160045260246000fd5b60008190508160005260206000209050919050565b60006020601f8301049050919050565b600082821b905092915050565b6000600883026105fe7fffffffffffffffffffffffffffffffffffffffffffffffffffffffffffffffff826105c1565b61060886836105c1565b95508019841693508086168417925050509392505050565b6000819050919050565b600061064561064061063b8461032f565b610620565b61032f565b9050919050565b6000819050919050565b61065f8361062a565b61067361066b8261064c565b8484546105ce565b825550505050565b600090565b61068861067b565b610693818484610656565b505050565b5b818110156106b7576106ac600082610680565b600181019050610699565b5050565b601f8211156106fc576106cd8161059c565b6106d6846105b1565b810160208510156106e5578190505b6106f96106f1856105b1565b830182610698565b50505b505050565b600082821c905092915050565b600061071f60001984600802610701565b1980831691505092915050565b6000610738838361070e565b9150826002028217905092915050565b6107528383610562565b67ffffffffffffffff81111561076b5761076a61056d565b5b6107758254610531565b6107808282856106bb565b6000601f8311600181146107af576000841561079d578287013590505b6107a7858261072c565b86555061080f565b601f1984166107bd8661059c565b60005b828110156107e5578489013582556001820191506020850194506020810190506107c0565b8683101561080257848901356107fe601f89168261070e565b8355505b6001600288020188555050505b5050505050505056fea2646970667358221220d3f40f8e359095526a4076af3caf55a5417e92e1162af905124572b5cb61e02a64736f6c634300080f0033",
					"opcodes": "PUSH1 0x80 PUSH1 0x40 MSTORE CALLVALUE DUP1 ISZERO PUSH2 0x10 JUMPI PUSH1 0x0 DUP1 REVERT JUMPDEST POP PUSH2 0x84E DUP1 PUSH2 0x20 PUSH1 0x0 CODECOPY PUSH1 0x0 RETURN INVALID PUSH1 0x80 PUSH1 0x40 MSTORE CALLVALUE DUP1 ISZERO PUSH2 0x10 JUMPI PUSH1 0x0 DUP1 REVERT JUMPDEST POP PUSH1 0x4 CALLDATASIZE LT PUSH2 0x41 JUMPI PUSH1 0x0 CALLDATALOAD PUSH1 0xE0 SHR DUP1 PUSH4 0x77EC2B55 EQ PUSH2 0x46 JUMPI DUP1 PUSH4 0x8EC4DC95 EQ PUSH2 0x66 JUMPI DUP1 PUSH4 0xCD4161EC EQ PUSH2 0x86 JUMPI JUMPDEST PUSH1 0x0 DUP1 REVERT JUMPDEST PUSH2 0x4E PUSH2 0xA2 JUMP JUMPDEST PUSH1 0x40 MLOAD PUSH2 0x5D SWAP4 SWAP3 SWAP2 SWAP1 PUSH2 0x389 JUMP JUMPDEST PUSH1 0x40 MLOAD DUP1 SWAP2 SUB SWAP1 RETURN JUMPDEST PUSH2 0x6E PUSH2 0x162 JUMP JUMPDEST PUSH1 0x40 MLOAD PUSH2 0x7D SWAP4 SWAP3 SWAP2 SWAP1 PUSH2 0x389 JUMP JUMPDEST PUSH1 0x40 MLOAD DUP1 SWAP2 SUB SWAP1 RETURN JUMPDEST PUSH2 0xA0 PUSH1 0x4 DUP1 CALLDATASIZE SUB DUP2 ADD SWAP1 PUSH2 0x9B SWAP2 SWAP1 PUSH2 0x48E JUMP JUMPDEST PUSH2 0x22E JUMP JUMPDEST STOP JUMPDEST PUSH1 0x0 DUP1 PUSH1 0x0 ADD DUP1 SLOAD PUSH2 0xB3 SWAP1 PUSH2 0x531 JUMP JUMPDEST DUP1 PUSH1 0x1F ADD PUSH1 0x20 DUP1 SWAP2 DIV MUL PUSH1 0x20 ADD PUSH1 0x40 MLOAD SWAP1 DUP2 ADD PUSH1 0x40 MSTORE DUP1 SWAP3 SWAP2 SWAP1 DUP2 DUP2 MSTORE PUSH1 0x20 ADD DUP3 DUP1 SLOAD PUSH2 0xDF SWAP1 PUSH2 0x531 JUMP JUMPDEST DUP1 ISZERO PUSH2 0x12C JUMPI DUP1 PUSH1 0x1F LT PUSH2 0x101 JUMPI PUSH2 0x100 DUP1 DUP4 SLOAD DIV MUL DUP4 MSTORE SWAP2 PUSH1 0x20 ADD SWAP2 PUSH2 0x12C JUMP JUMPDEST DUP3 ADD SWAP2 SWAP1 PUSH1 0x0 MSTORE PUSH1 0x20 PUSH1 0x0 KECCAK256 SWAP1 JUMPDEST DUP2 SLOAD DUP2 MSTORE SWAP1 PUSH1 0x1 ADD SWAP1 PUSH1 0x20 ADD DUP1 DUP4 GT PUSH2 0x10F JUMPI DUP3 SWAP1 SUB PUSH1 0x1F AND DUP3 ADD SWAP2 JUMPDEST POP POP POP POP POP SWAP1 DUP1 PUSH1 0x1 ADD SLOAD SWAP1 DUP1 PUSH1 0x2 ADD PUSH1 0x0 SWAP1 SLOAD SWAP1 PUSH2 0x100 EXP SWAP1 DIV PUSH20 0xFFFFFFFFFFFFFFFFFFFFFFFFFFFFFFFFFFFFFFFF AND SWAP1 POP DUP4 JUMP JUMPDEST PUSH1 0x60 PUSH1 0x0 DUP1 PUSH1 0x0 DUP1 ADD PUSH1 0x0 PUSH1 0x1 ADD SLOAD PUSH1 0x0 PUSH1 0x2 ADD PUSH1 0x0 SWAP1 SLOAD SWAP1 PUSH2 0x100 EXP SWAP1 DIV PUSH20 0xFFFFFFFFFFFFFFFFFFFFFFFFFFFFFFFFFFFFFFFF AND DUP3 DUP1 SLOAD PUSH2 0x1A3 SWAP1 PUSH2 0x531 JUMP JUMPDEST DUP1 PUSH1 0x1F ADD PUSH1 0x20 DUP1 SWAP2 DIV MUL PUSH1 0x20 ADD PUSH1 0x40 MLOAD SWAP1 DUP2 ADD PUSH1 0x40 MSTORE DUP1 SWAP3 SWAP2 SWAP1 DUP2 DUP2 MSTORE PUSH1 0x20 ADD DUP3 DUP1 SLOAD PUSH2 0x1CF SWAP1 PUSH2 0x531 JUMP JUMPDEST DUP1 ISZERO PUSH2 0x21C JUMPI DUP1 PUSH1 0x1F LT PUSH2 0x1F1 JUMPI PUSH2 0x100 DUP1 DUP4 SLOAD DIV MUL DUP4 MSTORE SWAP2 PUSH1 0x20 ADD SWAP2 PUSH2 0x21C JUMP JUMPDEST DUP3 ADD SWAP2 SWAP1 PUSH1 0x0 MSTORE PUSH1 0x20 PUSH1 0x0 KECCAK256 SWAP1 JUMPDEST DUP2 SLOAD DUP2 MSTORE SWAP1 PUSH1 0x1 ADD SWAP1 PUSH1 0x20 ADD DUP1 DUP4 GT PUSH2 0x1FF JUMPI DUP3 SWAP1 SUB PUSH1 0x1F AND DUP3 ADD SWAP2 JUMPDEST POP POP POP POP POP SWAP3 POP SWAP3 POP SWAP3 POP SWAP3 POP SWAP1 SWAP2 SWAP3 JUMP JUMPDEST DUP4 DUP4 PUSH1 0x0 DUP1 ADD SWAP2 DUP3 PUSH2 0x241 SWAP3 SWAP2 SWAP1 PUSH2 0x748 JUMP JUMPDEST POP DUP2 PUSH1 0x0 PUSH1 0x1 ADD DUP2 SWAP1 SSTORE POP DUP1 PUSH1 0x0 PUSH1 0x2 ADD PUSH1 0x0 PUSH2 0x100 EXP DUP2 SLOAD DUP2 PUSH20 0xFFFFFFFFFFFFFFFFFFFFFFFFFFFFFFFFFFFFFFFF MUL NOT AND SWAP1 DUP4 PUSH20 0xFFFFFFFFFFFFFFFFFFFFFFFFFFFFFFFFFFFFFFFF AND MUL OR SWAP1 SSTORE POP POP POP POP POP JUMP JUMPDEST PUSH1 0x0 DUP2 MLOAD SWAP1 POP SWAP2 SWAP1 POP JUMP JUMPDEST PUSH1 0x0 DUP3 DUP3 MSTORE PUSH1 0x20 DUP3 ADD SWAP1 POP SWAP3 SWAP2 POP POP JUMP JUMPDEST PUSH1 0x0 JUMPDEST DUP4 DUP2 LT ISZERO PUSH2 0x2D0 JUMPI DUP1 DUP3 ADD MLOAD DUP2 DUP5 ADD MSTORE PUSH1 0x20 DUP2 ADD SWAP1 POP PUSH2 0x2B5 JUMP JUMPDEST DUP4 DUP2 GT ISZERO PUSH2 0x2DF JUMPI PUSH1 0x0 DUP5 DUP5 ADD MSTORE JUMPDEST POP POP POP POP JUMP JUMPDEST PUSH1 0x0 PUSH1 0x1F NOT PUSH1 0x1F DUP4 ADD AND SWAP1 POP SWAP2 SWAP1 POP JUMP JUMPDEST PUSH1 0x0 PUSH2 0x301 DUP3 PUSH2 0x296 JUMP JUMPDEST PUSH2 0x30B DUP2 DUP6 PUSH2 0x2A1 JUMP JUMPDEST SWAP4 POP PUSH2 0x31B DUP2 DUP6 PUSH1 0x20 DUP7 ADD PUSH2 0x2B2 JUMP JUMPDEST PUSH2 0x324 DUP2 PUSH2 0x2E5 JUMP JUMPDEST DUP5 ADD SWAP2 POP POP SWAP3 SWAP2 POP POP JUMP JUMPDEST PUSH1 0x0 DUP2 SWAP1 POP SWAP2 SWAP1 POP JUMP JUMPDEST PUSH2 0x342 DUP2 PUSH2 0x32F JUMP JUMPDEST DUP3 MSTORE POP POP JUMP JUMPDEST PUSH1 0x0 PUSH20 0xFFFFFFFFFFFFFFFFFFFFFFFFFFFFFFFFFFFFFFFF DUP3 AND SWAP1 POP SWAP2 SWAP1 POP JUMP JUMPDEST PUSH1 0x0 PUSH2 0x373 DUP3 PUSH2 0x348 JUMP JUMPDEST SWAP1 POP SWAP2 SWAP1 POP JUMP JUMPDEST PUSH2 0x383 DUP2 PUSH2 0x368 JUMP JUMPDEST DUP3 MSTORE POP POP JUMP JUMPDEST PUSH1 0x0 PUSH1 0x60 DUP3 ADD SWAP1 POP DUP2 DUP2 SUB PUSH1 0x0 DUP4 ADD MSTORE PUSH2 0x3A3 DUP2 DUP7 PUSH2 0x2F6 JUMP JUMPDEST SWAP1 POP PUSH2 0x3B2 PUSH1 0x20 DUP4 ADD DUP6 PUSH2 0x339 JUMP JUMPDEST PUSH2 0x3BF PUSH1 0x40 DUP4 ADD DUP5 PUSH2 0x37A JUMP JUMPDEST SWAP5 SWAP4 POP POP POP POP JUMP JUMPDEST PUSH1 0x0 DUP1 REVERT JUMPDEST PUSH1 0x0 DUP1 REVERT JUMPDEST PUSH1 0x0 DUP1 REVERT JUMPDEST PUSH1 0x0 DUP1 REVERT JUMPDEST PUSH1 0x0 DUP1 REVERT JUMPDEST PUSH1 0x0 DUP1 DUP4 PUSH1 0x1F DUP5 ADD SLT PUSH2 0x3F6 JUMPI PUSH2 0x3F5 PUSH2 0x3D1 JUMP JUMPDEST JUMPDEST DUP3 CALLDATALOAD SWAP1 POP PUSH8 0xFFFFFFFFFFFFFFFF DUP2 GT ISZERO PUSH2 0x413 JUMPI PUSH2 0x412 PUSH2 0x3D6 JUMP JUMPDEST JUMPDEST PUSH1 0x20 DUP4 ADD SWAP2 POP DUP4 PUSH1 0x1 DUP3 MUL DUP4 ADD GT ISZERO PUSH2 0x42F JUMPI PUSH2 0x42E PUSH2 0x3DB JUMP JUMPDEST JUMPDEST SWAP3 POP SWAP3 SWAP1 POP JUMP JUMPDEST PUSH2 0x43F DUP2 PUSH2 0x32F JUMP JUMPDEST DUP2 EQ PUSH2 0x44A JUMPI PUSH1 0x0 DUP1 REVERT JUMPDEST POP JUMP JUMPDEST PUSH1 0x0 DUP2 CALLDATALOAD SWAP1 POP PUSH2 0x45C DUP2 PUSH2 0x436 JUMP JUMPDEST SWAP3 SWAP2 POP POP JUMP JUMPDEST PUSH2 0x46B DUP2 PUSH2 0x368 JUMP JUMPDEST DUP2 EQ PUSH2 0x476 JUMPI PUSH1 0x0 DUP1 REVERT JUMPDEST POP JUMP JUMPDEST PUSH1 0x0 DUP2 CALLDATALOAD SWAP1 POP PUSH2 0x488 DUP2 PUSH2 0x462 JUMP JUMPDEST SWAP3 SWAP2 POP POP JUMP JUMPDEST PUSH1 0x0 DUP1 PUSH1 0x0 DUP1 PUSH1 0x60 DUP6 DUP8 SUB SLT ISZERO PUSH2 0x4A8 JUMPI PUSH2 0x4A7 PUSH2 0x3C7 JUMP JUMPDEST JUMPDEST PUSH1 0x0 DUP6 ADD CALLDATALOAD PUSH8 0xFFFFFFFFFFFFFFFF DUP2 GT ISZERO PUSH2 0x4C6 JUMPI PUSH2 0x4C5 PUSH2 0x3CC JUMP JUMPDEST JUMPDEST PUSH2 0x4D2 DUP8 DUP3 DUP9 ADD PUSH2 0x3E0 JUMP JUMPDEST SWAP5 POP SWAP5 POP POP PUSH1 0x20 PUSH2 0x4E5 DUP8 DUP3 DUP9 ADD PUSH2 0x44D JUMP JUMPDEST SWAP3 POP POP PUSH1 0x40 PUSH2 0x4F6 DUP8 DUP3 DUP9 ADD PUSH2 0x479 JUMP JUMPDEST SWAP2 POP POP SWAP3 SWAP6 SWAP2 SWAP5 POP SWAP3 POP JUMP JUMPDEST PUSH32 0x4E487B7100000000000000000000000000000000000000000000000000000000 PUSH1 0x0 MSTORE PUSH1 0x22 PUSH1 0x4 MSTORE PUSH1 0x24 PUSH1 0x0 REVERT JUMPDEST PUSH1 0x0 PUSH1 0x2 DUP3 DIV SWAP1 POP PUSH1 0x1 DUP3 AND DUP1 PUSH2 0x549 JUMPI PUSH1 0x7F DUP3 AND SWAP2 POP JUMPDEST PUSH1 0x20 DUP3 LT DUP2 SUB PUSH2 0x55C JUMPI PUSH2 0x55B PUSH2 0x502 JUMP JUMPDEST JUMPDEST POP SWAP2 SWAP1 POP JUMP JUMPDEST PUSH1 0x0 DUP3 SWAP1 POP SWAP3 SWAP2 POP POP JUMP JUMPDEST PUSH32 0x4E487B7100000000000000000000000000000000000000000000000000000000 PUSH1 0x0 MSTORE PUSH1 0x41 PUSH1 0x4 MSTORE PUSH1 0x24 PUSH1 0x0 REVERT JUMPDEST PUSH1 0x0 DUP2 SWAP1 POP DUP2 PUSH1 0x0 MSTORE PUSH1 0x20 PUSH1 0x0 KECCAK256 SWAP1 POP SWAP2 SWAP1 POP JUMP JUMPDEST PUSH1 0x0 PUSH1 0x20 PUSH1 0x1F DUP4 ADD DIV SWAP1 POP SWAP2 SWAP1 POP JUMP JUMPDEST PUSH1 0x0 DUP3 DUP3 SHL SWAP1 POP SWAP3 SWAP2 POP POP JUMP JUMPDEST PUSH1 0x0 PUSH1 0x8 DUP4 MUL PUSH2 0x5FE PUSH32 0xFFFFFFFFFFFFFFFFFFFFFFFFFFFFFFFFFFFFFFFFFFFFFFFFFFFFFFFFFFFFFFFF DUP3 PUSH2 0x5C1 JUMP JUMPDEST PUSH2 0x608 DUP7 DUP4 PUSH2 0x5C1 JUMP JUMPDEST SWAP6 POP DUP1 NOT DUP5 AND SWAP4 POP DUP1 DUP7 AND DUP5 OR SWAP3 POP POP POP SWAP4 SWAP3 POP POP POP JUMP JUMPDEST PUSH1 0x0 DUP2 SWAP1 POP SWAP2 SWAP1 POP JUMP JUMPDEST PUSH1 0x0 PUSH2 0x645 PUSH2 0x640 PUSH2 0x63B DUP5 PUSH2 0x32F JUMP JUMPDEST PUSH2 0x620 JUMP JUMPDEST PUSH2 0x32F JUMP JUMPDEST SWAP1 POP SWAP2 SWAP1 POP JUMP JUMPDEST PUSH1 0x0 DUP2 SWAP1 POP SWAP2 SWAP1 POP JUMP JUMPDEST PUSH2 0x65F DUP4 PUSH2 0x62A JUMP JUMPDEST PUSH2 0x673 PUSH2 0x66B DUP3 PUSH2 0x64C JUMP JUMPDEST DUP5 DUP5 SLOAD PUSH2 0x5CE JUMP JUMPDEST DUP3 SSTORE POP POP POP POP JUMP JUMPDEST PUSH1 0x0 SWAP1 JUMP JUMPDEST PUSH2 0x688 PUSH2 0x67B JUMP JUMPDEST PUSH2 0x693 DUP2 DUP5 DUP5 PUSH2 0x656 JUMP JUMPDEST POP POP POP JUMP JUMPDEST JUMPDEST DUP2 DUP2 LT ISZERO PUSH2 0x6B7 JUMPI PUSH2 0x6AC PUSH1 0x0 DUP3 PUSH2 0x680 JUMP JUMPDEST PUSH1 0x1 DUP2 ADD SWAP1 POP PUSH2 0x699 JUMP JUMPDEST POP POP JUMP JUMPDEST PUSH1 0x1F DUP3 GT ISZERO PUSH2 0x6FC JUMPI PUSH2 0x6CD DUP2 PUSH2 0x59C JUMP JUMPDEST PUSH2 0x6D6 DUP5 PUSH2 0x5B1 JUMP JUMPDEST DUP2 ADD PUSH1 0x20 DUP6 LT ISZERO PUSH2 0x6E5 JUMPI DUP2 SWAP1 POP JUMPDEST PUSH2 0x6F9 PUSH2 0x6F1 DUP6 PUSH2 0x5B1 JUMP JUMPDEST DUP4 ADD DUP3 PUSH2 0x698 JUMP JUMPDEST POP POP JUMPDEST POP POP POP JUMP JUMPDEST PUSH1 0x0 DUP3 DUP3 SHR SWAP1 POP SWAP3 SWAP2 POP POP JUMP JUMPDEST PUSH1 0x0 PUSH2 0x71F PUSH1 0x0 NOT DUP5 PUSH1 0x8 MUL PUSH2 0x701 JUMP JUMPDEST NOT DUP1 DUP4 AND SWAP2 POP POP SWAP3 SWAP2 POP POP JUMP JUMPDEST PUSH1 0x0 PUSH2 0x738 DUP4 DUP4 PUSH2 0x70E JUMP JUMPDEST SWAP2 POP DUP3 PUSH1 0x2 MUL DUP3 OR SWAP1 POP SWAP3 SWAP2 POP POP JUMP JUMPDEST PUSH2 0x752 DUP4 DUP4 PUSH2 0x562 JUMP JUMPDEST PUSH8 0xFFFFFFFFFFFFFFFF DUP2 GT ISZERO PUSH2 0x76B JUMPI PUSH2 0x76A PUSH2 0x56D JUMP JUMPDEST JUMPDEST PUSH2 0x775 DUP3 SLOAD PUSH2 0x531 JUMP JUMPDEST PUSH2 0x780 DUP3 DUP3 DUP6 PUSH2 0x6BB JUMP JUMPDEST PUSH1 0x0 PUSH1 0x1F DUP4 GT PUSH1 0x1 DUP2 EQ PUSH2 0x7AF JUMPI PUSH1 0x0 DUP5 ISZERO PUSH2 0x79D JUMPI DUP3 DUP8 ADD CALLDATALOAD SWAP1 POP JUMPDEST PUSH2 0x7A7 DUP6 DUP3 PUSH2 0x72C JUMP JUMPDEST DUP7 SSTORE POP PUSH2 0x80F JUMP JUMPDEST PUSH1 0x1F NOT DUP5 AND PUSH2 0x7BD DUP7 PUSH2 0x59C JUMP JUMPDEST PUSH1 0x0 JUMPDEST DUP3 DUP2 LT ISZERO PUSH2 0x7E5 JUMPI DUP5 DUP10 ADD CALLDATALOAD DUP3 SSTORE PUSH1 0x1 DUP3 ADD SWAP2 POP PUSH1 0x20 DUP6 ADD SWAP5 POP PUSH1 0x20 DUP2 ADD SWAP1 POP PUSH2 0x7C0 JUMP JUMPDEST DUP7 DUP4 LT ISZERO PUSH2 0x802 JUMPI DUP5 DUP10 ADD CALLDATALOAD PUSH2 0x7FE PUSH1 0x1F DUP10 AND DUP3 PUSH2 0x70E JUMP JUMPDEST DUP4 SSTORE POP JUMPDEST PUSH1 0x1 PUSH1 0x2 DUP9 MUL ADD DUP9 SSTORE POP POP POP JUMPDEST POP POP POP POP POP POP POP JUMP INVALID LOG2 PUSH5 0x6970667358 0x22 SLT KECCAK256 0xD3 DELEGATECALL 0xF DUP15 CALLDATALOAD SWAP1 SWAP6 MSTORE PUSH11 0x4076AF3CAF55A5417E92E1 AND 0x2A 0xF9 SDIV SLT GASLIMIT PUSH19 0xB5CB61E02A64736F6C634300080F0033000000 "
				},
				"gasEstimates": {
					"creation": {
						"codeDepositCost": "425200",
						"executionCost": "461",
						"totalCost": "425661"
					},
					"external": {
						"getPerson()": "infinite",
						"person()": "infinite",
						"setPerson(string,uint256,address)": "infinite"
					}
				},
				"methodIdentifiers": {
					"getPerson()": "8ec4dc95",
					"person()": "77ec2b55",
					"setPerson(string,uint256,address)": "cd4161ec"
				}
			},
			"storageLayout": {
				"storage": [
					{
						"astId": 73,
						"contract": "contracts/artifacts/ExampleStruct.sol:ExamplePerson",
						"label": "person",
						"offset": 0,
						"slot": "0",
						"type": "t_struct(Person)70_storage"
					}
				],
				"types": {
					"t_address": {
						"encoding": "inplace",
						"label": "address",
						"numberOfBytes": "20"
					},
					"t_string_storage": {
						"encoding": "bytes",
						"label": "string",
						"numberOfBytes": "32"
					},
					"t_struct(Person)70_storage": {
						"encoding": "inplace",
						"label": "struct ExamplePerson.Person",
						"members": [
							{
								"astId": 65,
								"contract": "contracts/artifacts/ExampleStruct.sol:ExamplePerson",
								"label": "name",
								"offset": 0,
								"slot": "0",
								"type": "t_string_storage"
							},
							{
								"astId": 67,
								"contract": "contracts/artifacts/ExampleStruct.sol:ExamplePerson",
								"label": "age",
								"offset": 0,
								"slot": "1",
								"type": "t_uint256"
							},
							{
								"astId": 69,
								"contract": "contracts/artifacts/ExampleStruct.sol:ExamplePerson",
								"label": "wallet",
								"offset": 0,
								"slot": "2",
								"type": "t_address"
							}
						],
						"numberOfBytes": "96"
					},
					"t_uint256": {
						"encoding": "inplace",
						"label": "uint256",
						"numberOfBytes": "32"
					}
				}
			},
			"userdoc": {
				"kind": "user",
				"methods": {},
				"version": 1
			}
		}
	}
}