{
	"data": {
		"bytecode": {
			"linkReferences": {},
			"object": "60806040523480156200001157600080fd5b50620000586040518060400160405280600d81526020017f47656e6573697320426c6f636b000000000000000000000000000000000000008152506200005e60201b60201c565b62000391565b6000808054905090506000429050600080831162000080576000801b620000b8565b6000600184620000919190620001e1565b81548110620000a557620000a46200021c565b5b9060005260206000209060050201600401545b9050600084604051602001620000cf9190620002ce565b6040516020818303038152906040528051906020012090506000848484846040516020016200010294939291906200033b565b60405160208183030381529060405280519060200120905060006040518060a0016040528087815260200186815260200185815260200184815260200183815250908060018154018082558091505060019003906000526020600020906005020160009091909190915060008201518160000155602082015181600101556040820151816002015560608201518160030155608082015181600401555050505050505050565b6000819050919050565b7f4e487b7100000000000000000000000000000000000000000000000000000000600052601160045260246000fd5b6000620001ee82620001a8565b9150620001fb83620001a8565b925082821015620002115762000210620001b2565b5b828203905092915050565b7f4e487b7100000000000000000000000000000000000000000000000000000000600052603260045260246000fd5b600081519050919050565b600081905092915050565b60005b838110156200028157808201518184015260208101905062000264565b8381111562000291576000848401525b50505050565b6000620002a4826200024b565b620002b0818562000256565b9350620002c281856020860162000261565b80840191505092915050565b6000620002dc828462000297565b915081905092915050565b6000819050919050565b620003066200030082620001a8565b620002e7565b82525050565b6000819050919050565b6000819050919050565b620003356200032f826200030c565b62000316565b82525050565b6000620003498287620002f1565b6020820191506200035b8286620002f1565b6020820191506200036d828562000320565b6020820191506200037f828462000320565b60208201915081905095945050505050565b6107f980620003a16000396000f3fe608060405234801561001057600080fd5b50600436106100415760003560e01c80634fdafde81461004657806361d6f78a14610062578063c25b1eaf14610080575b600080fd5b610060600480360381019061005b9190610448565b6100b4565b005b61006a6101f3565b604051610077919061052b565b60405180910390f35b61009a60048036038101906100959190610572565b610270565b6040516100ab9594939291906105bd565b60405180910390f35b600080805490509050600042905060008083116100d4576000801b610107565b60006001846100e3919061063f565b815481106100f4576100f3610673565b5b9060005260206000209060050201600401545b905060008460405160200161011c919061071c565b60405160208183030381529060405280519060200120905060008484848460405160200161014d9493929190610775565b60405160208183030381529060405280519060200120905060006040518060a0016040528087815260200186815260200185815260200184815260200183815250908060018154018082558091505060019003906000526020600020906005020160009091909190915060008201518160000155602082015181600101556040820151816002015560608201518160030155608082015181600401555050505050505050565b6101fb6102b6565b6000600160008054905061020f919061063f565b815481106102205761021f610673565b5b90600052602060002090600502016040518060a001604052908160008201548152602001600182015481526020016002820154815260200160038201548152602001600482015481525050905090565b6000818154811061028057600080fd5b90600052602060002090600502016000915090508060000154908060010154908060020154908060030154908060040154905085565b6040518060a0016040528060008152602001600081526020016000801916815260200160008019168152602001600080191681525090565b6000604051905090565b600080fd5b600080fd5b600080fd5b600080fd5b6000601f19601f8301169050919050565b7f4e487b7100000000000000000000000000000000000000000000000000000000600052604160045260246000fd5b6103558261030c565b810181811067ffffffffffffffff821117156103745761037361031d565b5b80604052505050565b60006103876102ee565b9050610393828261034c565b919050565b600067ffffffffffffffff8211156103b3576103b261031d565b5b6103bc8261030c565b9050602081019050919050565b82818337600083830152505050565b60006103eb6103e684610398565b61037d565b90508281526020810184848401111561040757610406610307565b5b6104128482856103c9565b509392505050565b600082601f83011261042f5761042e610302565b5b813561043f8482602086016103d8565b91505092915050565b60006020828403121561045e5761045d6102f8565b5b600082013567ffffffffffffffff81111561047c5761047b6102fd565b5b6104888482850161041a565b91505092915050565b6000819050919050565b6104a481610491565b82525050565b6000819050919050565b6104bd816104aa565b82525050565b60a0820160008201516104d9600085018261049b565b5060208201516104ec602085018261049b565b5060408201516104ff60408501826104b4565b50606082015161051260608501826104b4565b50608082015161052560808501826104b4565b50505050565b600060a08201905061054060008301846104c3565b92915050565b61054f81610491565b811461055a57600080fd5b50565b60008135905061056c81610546565b92915050565b600060208284031215610588576105876102f8565b5b60006105968482850161055d565b91505092915050565b6105a881610491565b82525050565b6105b7816104aa565b82525050565b600060a0820190506105d2600083018861059f565b6105df602083018761059f565b6105ec60408301866105ae565b6105f960608301856105ae565b61060660808301846105ae565b9695505050505050565b7f4e487b7100000000000000000000000000000000000000000000000000000000600052601160045260246000fd5b600061064a82610491565b915061065583610491565b92508282101561066857610667610610565b5b828203905092915050565b7f4e487b7100000000000000000000000000000000000000000000000000000000600052603260045260246000fd5b600081519050919050565b600081905092915050565b60005b838110156106d65780820151818401526020810190506106bb565b838111156106e5576000848401525b50505050565b60006106f6826106a2565b61070081856106ad565b93506107108185602086016106b8565b80840191505092915050565b600061072882846106eb565b915081905092915050565b6000819050919050565b61074e61074982610491565b610733565b82525050565b6000819050919050565b61076f61076a826104aa565b610754565b82525050565b6000610781828761073d565b602082019150610791828661073d565b6020820191506107a1828561075e565b6020820191506107b1828461075e565b6020820191508190509594505050505056fea2646970667358221220904aea1e9d97ac4b20c20d1eb0c105a736261e92fa258d68e7f3ad7a02752cb564736f6c634300080f0033",
			"opcodes": "PUSH1 0x80 PUSH1 0x40 MSTORE CALLVALUE DUP1 ISZERO PUSH3 0x11 JUMPI PUSH1 0x0 DUP1 REVERT JUMPDEST POP PUSH3 0x58 PUSH1 0x40 MLOAD DUP1 PUSH1 0x40 ADD PUSH1 0x40 MSTORE DUP1 PUSH1 0xD DUP2 MSTORE PUSH1 0x20 ADD PUSH32 0x47656E6573697320426C6F636B00000000000000000000000000000000000000 DUP2 MSTORE POP PUSH3 0x5E PUSH1 0x20 SHL PUSH1 0x20 SHR JUMP JUMPDEST PUSH3 0x391 JUMP JUMPDEST PUSH1 0x0 DUP1 DUP1 SLOAD SWAP1 POP SWAP1 POP PUSH1 0x0 TIMESTAMP SWAP1 POP PUSH1 0x0 DUP1 DUP4 GT PUSH3 0x80 JUMPI PUSH1 0x0 DUP1 SHL PUSH3 0xB8 JUMP JUMPDEST PUSH1 0x0 PUSH1 0x1 DUP5 PUSH3 0x91 SWAP2 SWAP1 PUSH3 0x1E1 JUMP JUMPDEST DUP2 SLOAD DUP2 LT PUSH3 0xA5 JUMPI PUSH3 0xA4 PUSH3 0x21C JUMP JUMPDEST JUMPDEST SWAP1 PUSH1 0x0 MSTORE PUSH1 0x20 PUSH1 0x0 KECCAK256 SWAP1 PUSH1 0x5 MUL ADD PUSH1 0x4 ADD SLOAD JUMPDEST SWAP1 POP PUSH1 0x0 DUP5 PUSH1 0x40 MLOAD PUSH1 0x20 ADD PUSH3 0xCF SWAP2 SWAP1 PUSH3 0x2CE JUMP JUMPDEST PUSH1 0x40 MLOAD PUSH1 0x20 DUP2 DUP4 SUB SUB DUP2 MSTORE SWAP1 PUSH1 0x40 MSTORE DUP1 MLOAD SWAP1 PUSH1 0x20 ADD KECCAK256 SWAP1 POP PUSH1 0x0 DUP5 DUP5 DUP5 DUP5 PUSH1 0x40 MLOAD PUSH1 0x20 ADD PUSH3 0x102 SWAP5 SWAP4 SWAP3 SWAP2 SWAP1 PUSH3 0x33B JUMP JUMPDEST PUSH1 0x40 MLOAD PUSH1 0x20 DUP2 DUP4 SUB SUB DUP2 MSTORE SWAP1 PUSH1 0x40 MSTORE DUP1 MLOAD SWAP1 PUSH1 0x20 ADD KECCAK256 SWAP1 POP PUSH1 0x0 PUSH1 0x40 MLOAD DUP1 PUSH1 0xA0 ADD PUSH1 0x40 MSTORE DUP1 DUP8 DUP2 MSTORE PUSH1 0x20 ADD DUP7 DUP2 MSTORE PUSH1 0x20 ADD DUP6 DUP2 MSTORE PUSH1 0x20 ADD DUP5 DUP2 MSTORE PUSH1 0x20 ADD DUP4 DUP2 MSTORE POP SWAP1 DUP1 PUSH1 0x1 DUP2 SLOAD ADD DUP1 DUP3 SSTORE DUP1 SWAP2 POP POP PUSH1 0x1 SWAP1 SUB SWAP1 PUSH1 0x0 MSTORE PUSH1 0x20 PUSH1 0x0 KECCAK256 SWAP1 PUSH1 0x5 MUL ADD PUSH1 0x0 SWAP1 SWAP2 SWAP1 SWAP2 SWAP1 SWAP2 POP PUSH1 0x0 DUP3 ADD MLOAD DUP2 PUSH1 0x0 ADD SSTORE PUSH1 0x20 DUP3 ADD MLOAD DUP2 PUSH1 0x1 ADD SSTORE PUSH1 0x40 DUP3 ADD MLOAD DUP2 PUSH1 0x2 ADD SSTORE PUSH1 0x60 DUP3 ADD MLOAD DUP2 PUSH1 0x3 ADD SSTORE PUSH1 0x80 DUP3 ADD MLOAD DUP2 PUSH1 0x4 ADD SSTORE POP POP POP POP POP POP POP POP JUMP JUMPDEST PUSH1 0x0 DUP2 SWAP1 POP SWAP2 SWAP1 POP JUMP JUMPDEST PUSH32 0x4E487B7100000000000000000000000000000000000000000000000000000000 PUSH1 0x0 MSTORE PUSH1 0x11 PUSH1 0x4 MSTORE PUSH1 0x24 PUSH1 0x0 REVERT JUMPDEST PUSH1 0x0 PUSH3 0x1EE DUP3 PUSH3 0x1A8 JUMP JUMPDEST SWAP2 POP PUSH3 0x1FB DUP4 PUSH3 0x1A8 JUMP JUMPDEST SWAP3 POP DUP3 DUP3 LT ISZERO PUSH3 0x211 JUMPI PUSH3 0x210 PUSH3 0x1B2 JUMP JUMPDEST JUMPDEST DUP3 DUP3 SUB SWAP1 POP SWAP3 SWAP2 POP POP JUMP JUMPDEST PUSH32 0x4E487B7100000000000000000000000000000000000000000000000000000000 PUSH1 0x0 MSTORE PUSH1 0x32 PUSH1 0x4 MSTORE PUSH1 0x24 PUSH1 0x0 REVERT JUMPDEST PUSH1 0x0 DUP2 MLOAD SWAP1 POP SWAP2 SWAP1 POP JUMP JUMPDEST PUSH1 0x0 DUP2 SWAP1 POP SWAP3 SWAP2 POP POP JUMP JUMPDEST PUSH1 0x0 JUMPDEST DUP4 DUP2 LT ISZERO PUSH3 0x281 JUMPI DUP1 DUP3 ADD MLOAD DUP2 DUP5 ADD MSTORE PUSH1 0x20 DUP2 ADD SWAP1 POP PUSH3 0x264 JUMP JUMPDEST DUP4 DUP2 GT ISZERO PUSH3 0x291 JUMPI PUSH1 0x0 DUP5 DUP5 ADD MSTORE JUMPDEST POP POP POP POP JUMP JUMPDEST PUSH1 0x0 PUSH3 0x2A4 DUP3 PUSH3 0x24B JUMP JUMPDEST PUSH3 0x2B0 DUP2 DUP6 PUSH3 0x256 JUMP JUMPDEST SWAP4 POP PUSH3 0x2C2 DUP2 DUP6 PUSH1 0x20 DUP7 ADD PUSH3 0x261 JUMP JUMPDEST DUP1 DUP5 ADD SWAP2 POP POP SWAP3 SWAP2 POP POP JUMP JUMPDEST PUSH1 0x0 PUSH3 0x2DC DUP3 DUP5 PUSH3 0x297 JUMP JUMPDEST SWAP2 POP DUP2 SWAP1 POP SWAP3 SWAP2 POP POP JUMP JUMPDEST PUSH1 0x0 DUP2 SWAP1 POP SWAP2 SWAP1 POP JUMP JUMPDEST PUSH3 0x306 PUSH3 0x300 DUP3 PUSH3 0x1A8 JUMP JUMPDEST PUSH3 0x2E7 JUMP JUMPDEST DUP3 MSTORE POP POP JUMP JUMPDEST PUSH1 0x0 DUP2 SWAP1 POP SWAP2 SWAP1 POP JUMP JUMPDEST PUSH1 0x0 DUP2 SWAP1 POP SWAP2 SWAP1 POP JUMP JUMPDEST PUSH3 0x335 PUSH3 0x32F DUP3 PUSH3 0x30C JUMP JUMPDEST PUSH3 0x316 JUMP JUMPDEST DUP3 MSTORE POP POP JUMP JUMPDEST PUSH1 0x0 PUSH3 0x349 DUP3 DUP8 PUSH3 0x2F1 JUMP JUMPDEST PUSH1 0x20 DUP3 ADD SWAP2 POP PUSH3 0x35B DUP3 DUP7 PUSH3 0x2F1 JUMP JUMPDEST PUSH1 0x20 DUP3 ADD SWAP2 POP PUSH3 0x36D DUP3 DUP6 PUSH3 0x320 JUMP JUMPDEST PUSH1 0x20 DUP3 ADD SWAP2 POP PUSH3 0x37F DUP3 DUP5 PUSH3 0x320 JUMP JUMPDEST PUSH1 0x20 DUP3 ADD SWAP2 POP DUP2 SWAP1 POP SWAP6 SWAP5 POP POP POP POP POP JUMP JUMPDEST PUSH2 0x7F9 DUP1 PUSH3 0x3A1 PUSH1 0x0 CODECOPY PUSH1 0x0 RETURN INVALID PUSH1 0x80 PUSH1 0x40 MSTORE CALLVALUE DUP1 ISZERO PUSH2 0x10 JUMPI PUSH1 0x0 DUP1 REVERT JUMPDEST POP PUSH1 0x4 CALLDATASIZE LT PUSH2 0x41 JUMPI PUSH1 0x0 CALLDATALOAD PUSH1 0xE0 SHR DUP1 PUSH4 0x4FDAFDE8 EQ PUSH2 0x46 JUMPI DUP1 PUSH4 0x61D6F78A EQ PUSH2 0x62 JUMPI DUP1 PUSH4 0xC25B1EAF EQ PUSH2 0x80 JUMPI JUMPDEST PUSH1 0x0 DUP1 REVERT JUMPDEST PUSH2 0x60 PUSH1 0x4 DUP1 CALLDATASIZE SUB DUP2 ADD SWAP1 PUSH2 0x5B SWAP2 SWAP1 PUSH2 0x448 JUMP JUMPDEST PUSH2 0xB4 JUMP JUMPDEST STOP JUMPDEST PUSH2 0x6A PUSH2 0x1F3 JUMP JUMPDEST PUSH1 0x40 MLOAD PUSH2 0x77 SWAP2 SWAP1 PUSH2 0x52B JUMP JUMPDEST PUSH1 0x40 MLOAD DUP1 SWAP2 SUB SWAP1 RETURN JUMPDEST PUSH2 0x9A PUSH1 0x4 DUP1 CALLDATASIZE SUB DUP2 ADD SWAP1 PUSH2 0x95 SWAP2 SWAP1 PUSH2 0x572 JUMP JUMPDEST PUSH2 0x270 JUMP JUMPDEST PUSH1 0x40 MLOAD PUSH2 0xAB SWAP6 SWAP5 SWAP4 SWAP3 SWAP2 SWAP1 PUSH2 0x5BD JUMP JUMPDEST PUSH1 0x40 MLOAD DUP1 SWAP2 SUB SWAP1 RETURN JUMPDEST PUSH1 0x0 DUP1 DUP1 SLOAD SWAP1 POP SWAP1 POP PUSH1 0x0 TIMESTAMP SWAP1 POP PUSH1 0x0 DUP1 DUP4 GT PUSH2 0xD4 JUMPI PUSH1 0x0 DUP1 SHL PUSH2 0x107 JUMP JUMPDEST PUSH1 0x0 PUSH1 0x1 DUP5 PUSH2 0xE3 SWAP2 SWAP1 PUSH2 0x63F JUMP JUMPDEST DUP2 SLOAD DUP2 LT PUSH2 0xF4 JUMPI PUSH2 0xF3 PUSH2 0x673 JUMP JUMPDEST JUMPDEST SWAP1 PUSH1 0x0 MSTORE PUSH1 0x20 PUSH1 0x0 KECCAK256 SWAP1 PUSH1 0x5 MUL ADD PUSH1 0x4 ADD SLOAD JUMPDEST SWAP1 POP PUSH1 0x0 DUP5 PUSH1 0x40 MLOAD PUSH1 0x20 ADD PUSH2 0x11C SWAP2 SWAP1 PUSH2 0x71C JUMP JUMPDEST PUSH1 0x40 MLOAD PUSH1 0x20 DUP2 DUP4 SUB SUB DUP2 MSTORE SWAP1 PUSH1 0x40 MSTORE DUP1 MLOAD SWAP1 PUSH1 0x20 ADD KECCAK256 SWAP1 POP PUSH1 0x0 DUP5 DUP5 DUP5 DUP5 PUSH1 0x40 MLOAD PUSH1 0x20 ADD PUSH2 0x14D SWAP5 SWAP4 SWAP3 SWAP2 SWAP1 PUSH2 0x775 JUMP JUMPDEST PUSH1 0x40 MLOAD PUSH1 0x20 DUP2 DUP4 SUB SUB DUP2 MSTORE SWAP1 PUSH1 0x40 MSTORE DUP1 MLOAD SWAP1 PUSH1 0x20 ADD KECCAK256 SWAP1 POP PUSH1 0x0 PUSH1 0x40 MLOAD DUP1 PUSH1 0xA0 ADD PUSH1 0x40 MSTORE DUP1 DUP8 DUP2 MSTORE PUSH1 0x20 ADD DUP7 DUP2 MSTORE PUSH1 0x20 ADD DUP6 DUP2 MSTORE PUSH1 0x20 ADD DUP5 DUP2 MSTORE PUSH1 0x20 ADD DUP4 DUP2 MSTORE POP SWAP1 DUP1 PUSH1 0x1 DUP2 SLOAD ADD DUP1 DUP3 SSTORE DUP1 SWAP2 POP POP PUSH1 0x1 SWAP1 SUB SWAP1 PUSH1 0x0 MSTORE PUSH1 0x20 PUSH1 0x0 KECCAK256 SWAP1 PUSH1 0x5 MUL ADD PUSH1 0x0 SWAP1 SWAP2 SWAP1 SWAP2 SWAP1 SWAP2 POP PUSH1 0x0 DUP3 ADD MLOAD DUP2 PUSH1 0x0 ADD SSTORE PUSH1 0x20 DUP3 ADD MLOAD DUP2 PUSH1 0x1 ADD SSTORE PUSH1 0x40 DUP3 ADD MLOAD DUP2 PUSH1 0x2 ADD SSTORE PUSH1 0x60 DUP3 ADD MLOAD DUP2 PUSH1 0x3 ADD SSTORE PUSH1 0x80 DUP3 ADD MLOAD DUP2 PUSH1 0x4 ADD SSTORE POP POP POP POP POP POP POP POP JUMP JUMPDEST PUSH2 0x1FB PUSH2 0x2B6 JUMP JUMPDEST PUSH1 0x0 PUSH1 0x1 PUSH1 0x0 DUP1 SLOAD SWAP1 POP PUSH2 0x20F SWAP2 SWAP1 PUSH2 0x63F JUMP JUMPDEST DUP2 SLOAD DUP2 LT PUSH2 0x220 JUMPI PUSH2 0x21F PUSH2 0x673 JUMP JUMPDEST JUMPDEST SWAP1 PUSH1 0x0 MSTORE PUSH1 0x20 PUSH1 0x0 KECCAK256 SWAP1 PUSH1 0x5 MUL ADD PUSH1 0x40 MLOAD DUP1 PUSH1 0xA0 ADD PUSH1 0x40 MSTORE SWAP1 DUP2 PUSH1 0x0 DUP3 ADD SLOAD DUP2 MSTORE PUSH1 0x20 ADD PUSH1 0x1 DUP3 ADD SLOAD DUP2 MSTORE PUSH1 0x20 ADD PUSH1 0x2 DUP3 ADD SLOAD DUP2 MSTORE PUSH1 0x20 ADD PUSH1 0x3 DUP3 ADD SLOAD DUP2 MSTORE PUSH1 0x20 ADD PUSH1 0x4 DUP3 ADD SLOAD DUP2 MSTORE POP POP SWAP1 POP SWAP1 JUMP JUMPDEST PUSH1 0x0 DUP2 DUP2 SLOAD DUP2 LT PUSH2 0x280 JUMPI PUSH1 0x0 DUP1 REVERT JUMPDEST SWAP1 PUSH1 0x0 MSTORE PUSH1 0x20 PUSH1 0x0 KECCAK256 SWAP1 PUSH1 0x5 MUL ADD PUSH1 0x0 SWAP2 POP SWAP1 POP DUP1 PUSH1 0x0 ADD SLOAD SWAP1 DUP1 PUSH1 0x1 ADD SLOAD SWAP1 DUP1 PUSH1 0x2 ADD SLOAD SWAP1 DUP1 PUSH1 0x3 ADD SLOAD SWAP1 DUP1 PUSH1 0x4 ADD SLOAD SWAP1 POP DUP6 JUMP JUMPDEST PUSH1 0x40 MLOAD DUP1 PUSH1 0xA0 ADD PUSH1 0x40 MSTORE DUP1 PUSH1 0x0 DUP2 MSTORE PUSH1 0x20 ADD PUSH1 0x0 DUP2 MSTORE PUSH1 0x20 ADD PUSH1 0x0 DUP1 NOT AND DUP2 MSTORE PUSH1 0x20 ADD PUSH1 0x0 DUP1 NOT AND DUP2 MSTORE PUSH1 0x20 ADD PUSH1 0x0 DUP1 NOT AND DUP2 MSTORE POP SWAP1 JUMP JUMPDEST PUSH1 0x0 PUSH1 0x40 MLOAD SWAP1 POP SWAP1 JUMP JUMPDEST PUSH1 0x0 DUP1 REVERT JUMPDEST PUSH1 0x0 DUP1 REVERT JUMPDEST PUSH1 0x0 DUP1 REVERT JUMPDEST PUSH1 0x0 DUP1 REVERT JUMPDEST PUSH1 0x0 PUSH1 0x1F NOT PUSH1 0x1F DUP4 ADD AND SWAP1 POP SWAP2 SWAP1 POP JUMP JUMPDEST PUSH32 0x4E487B7100000000000000000000000000000000000000000000000000000000 PUSH1 0x0 MSTORE PUSH1 0x41 PUSH1 0x4 MSTORE PUSH1 0x24 PUSH1 0x0 REVERT JUMPDEST PUSH2 0x355 DUP3 PUSH2 0x30C JUMP JUMPDEST DUP2 ADD DUP2 DUP2 LT PUSH8 0xFFFFFFFFFFFFFFFF DUP3 GT OR ISZERO PUSH2 0x374 JUMPI PUSH2 0x373 PUSH2 0x31D JUMP JUMPDEST JUMPDEST DUP1 PUSH1 0x40 MSTORE POP POP POP JUMP JUMPDEST PUSH1 0x0 PUSH2 0x387 PUSH2 0x2EE JUMP JUMPDEST SWAP1 POP PUSH2 0x393 DUP3 DUP3 PUSH2 0x34C JUMP JUMPDEST SWAP2 SWAP1 POP JUMP JUMPDEST PUSH1 0x0 PUSH8 0xFFFFFFFFFFFFFFFF DUP3 GT ISZERO PUSH2 0x3B3 JUMPI PUSH2 0x3B2 PUSH2 0x31D JUMP JUMPDEST JUMPDEST PUSH2 0x3BC DUP3 PUSH2 0x30C JUMP JUMPDEST SWAP1 POP PUSH1 0x20 DUP2 ADD SWAP1 POP SWAP2 SWAP1 POP JUMP JUMPDEST DUP3 DUP2 DUP4 CALLDATACOPY PUSH1 0x0 DUP4 DUP4 ADD MSTORE POP POP POP JUMP JUMPDEST PUSH1 0x0 PUSH2 0x3EB PUSH2 0x3E6 DUP5 PUSH2 0x398 JUMP JUMPDEST PUSH2 0x37D JUMP JUMPDEST SWAP1 POP DUP3 DUP2 MSTORE PUSH1 0x20 DUP2 ADD DUP5 DUP5 DUP5 ADD GT ISZERO PUSH2 0x407 JUMPI PUSH2 0x406 PUSH2 0x307 JUMP JUMPDEST JUMPDEST PUSH2 0x412 DUP5 DUP3 DUP6 PUSH2 0x3C9 JUMP JUMPDEST POP SWAP4 SWAP3 POP POP POP JUMP JUMPDEST PUSH1 0x0 DUP3 PUSH1 0x1F DUP4 ADD SLT PUSH2 0x42F JUMPI PUSH2 0x42E PUSH2 0x302 JUMP JUMPDEST JUMPDEST DUP2 CALLDATALOAD PUSH2 0x43F DUP5 DUP3 PUSH1 0x20 DUP7 ADD PUSH2 0x3D8 JUMP JUMPDEST SWAP2 POP POP SWAP3 SWAP2 POP POP JUMP JUMPDEST PUSH1 0x0 PUSH1 0x20 DUP3 DUP5 SUB SLT ISZERO PUSH2 0x45E JUMPI PUSH2 0x45D PUSH2 0x2F8 JUMP JUMPDEST JUMPDEST PUSH1 0x0 DUP3 ADD CALLDATALOAD PUSH8 0xFFFFFFFFFFFFFFFF DUP2 GT ISZERO PUSH2 0x47C JUMPI PUSH2 0x47B PUSH2 0x2FD JUMP JUMPDEST JUMPDEST PUSH2 0x488 DUP5 DUP3 DUP6 ADD PUSH2 0x41A JUMP JUMPDEST SWAP2 POP POP SWAP3 SWAP2 POP POP JUMP JUMPDEST PUSH1 0x0 DUP2 SWAP1 POP SWAP2 SWAP1 POP JUMP JUMPDEST PUSH2 0x4A4 DUP2 PUSH2 0x491 JUMP JUMPDEST DUP3 MSTORE POP POP JUMP JUMPDEST PUSH1 0x0 DUP2 SWAP1 POP SWAP2 SWAP1 POP JUMP JUMPDEST PUSH2 0x4BD DUP2 PUSH2 0x4AA JUMP JUMPDEST DUP3 MSTORE POP POP JUMP JUMPDEST PUSH1 0xA0 DUP3 ADD PUSH1 0x0 DUP3 ADD MLOAD PUSH2 0x4D9 PUSH1 0x0 DUP6 ADD DUP3 PUSH2 0x49B JUMP JUMPDEST POP PUSH1 0x20 DUP3 ADD MLOAD PUSH2 0x4EC PUSH1 0x20 DUP6 ADD DUP3 PUSH2 0x49B JUMP JUMPDEST POP PUSH1 0x40 DUP3 ADD MLOAD PUSH2 0x4FF PUSH1 0x40 DUP6 ADD DUP3 PUSH2 0x4B4 JUMP JUMPDEST POP PUSH1 0x60 DUP3 ADD MLOAD PUSH2 0x512 PUSH1 0x60 DUP6 ADD DUP3 PUSH2 0x4B4 JUMP JUMPDEST POP PUSH1 0x80 DUP3 ADD MLOAD PUSH2 0x525 PUSH1 0x80 DUP6 ADD DUP3 PUSH2 0x4B4 JUMP JUMPDEST POP POP POP POP JUMP JUMPDEST PUSH1 0x0 PUSH1 0xA0 DUP3 ADD SWAP1 POP PUSH2 0x540 PUSH1 0x0 DUP4 ADD DUP5 PUSH2 0x4C3 JUMP JUMPDEST SWAP3 SWAP2 POP POP JUMP JUMPDEST PUSH2 0x54F DUP2 PUSH2 0x491 JUMP JUMPDEST DUP2 EQ PUSH2 0x55A JUMPI PUSH1 0x0 DUP1 REVERT JUMPDEST POP JUMP JUMPDEST PUSH1 0x0 DUP2 CALLDATALOAD SWAP1 POP PUSH2 0x56C DUP2 PUSH2 0x546 JUMP JUMPDEST SWAP3 SWAP2 POP POP JUMP JUMPDEST PUSH1 0x0 PUSH1 0x20 DUP3 DUP5 SUB SLT ISZERO PUSH2 0x588 JUMPI PUSH2 0x587 PUSH2 0x2F8 JUMP JUMPDEST JUMPDEST PUSH1 0x0 PUSH2 0x596 DUP5 DUP3 DUP6 ADD PUSH2 0x55D JUMP JUMPDEST SWAP2 POP POP SWAP3 SWAP2 POP POP JUMP JUMPDEST PUSH2 0x5A8 DUP2 PUSH2 0x491 JUMP JUMPDEST DUP3 MSTORE POP POP JUMP JUMPDEST PUSH2 0x5B7 DUP2 PUSH2 0x4AA JUMP JUMPDEST DUP3 MSTORE POP POP JUMP JUMPDEST PUSH1 0x0 PUSH1 0xA0 DUP3 ADD SWAP1 POP PUSH2 0x5D2 PUSH1 0x0 DUP4 ADD DUP9 PUSH2 0x59F JUMP JUMPDEST PUSH2 0x5DF PUSH1 0x20 DUP4 ADD DUP8 PUSH2 0x59F JUMP JUMPDEST PUSH2 0x5EC PUSH1 0x40 DUP4 ADD DUP7 PUSH2 0x5AE JUMP JUMPDEST PUSH2 0x5F9 PUSH1 0x60 DUP4 ADD DUP6 PUSH2 0x5AE JUMP JUMPDEST PUSH2 0x606 PUSH1 0x80 DUP4 ADD DUP5 PUSH2 0x5AE JUMP JUMPDEST SWAP7 SWAP6 POP POP POP POP POP POP JUMP JUMPDEST PUSH32 0x4E487B7100000000000000000000000000000000000000000000000000000000 PUSH1 0x0 MSTORE PUSH1 0x11 PUSH1 0x4 MSTORE PUSH1 0x24 PUSH1 0x0 REVERT JUMPDEST PUSH1 0x0 PUSH2 0x64A DUP3 PUSH2 0x491 JUMP JUMPDEST SWAP2 POP PUSH2 0x655 DUP4 PUSH2 0x491 JUMP JUMPDEST SWAP3 POP DUP3 DUP3 LT ISZERO PUSH2 0x668 JUMPI PUSH2 0x667 PUSH2 0x610 JUMP JUMPDEST JUMPDEST DUP3 DUP3 SUB SWAP1 POP SWAP3 SWAP2 POP POP JUMP JUMPDEST PUSH32 0x4E487B7100000000000000000000000000000000000000000000000000000000 PUSH1 0x0 MSTORE PUSH1 0x32 PUSH1 0x4 MSTORE PUSH1 0x24 PUSH1 0x0 REVERT JUMPDEST PUSH1 0x0 DUP2 MLOAD SWAP1 POP SWAP2 SWAP1 POP JUMP JUMPDEST PUSH1 0x0 DUP2 SWAP1 POP SWAP3 SWAP2 POP POP JUMP JUMPDEST PUSH1 0x0 JUMPDEST DUP4 DUP2 LT ISZERO PUSH2 0x6D6 JUMPI DUP1 DUP3 ADD MLOAD DUP2 DUP5 ADD MSTORE PUSH1 0x20 DUP2 ADD SWAP1 POP PUSH2 0x6BB JUMP JUMPDEST DUP4 DUP2 GT ISZERO PUSH2 0x6E5 JUMPI PUSH1 0x0 DUP5 DUP5 ADD MSTORE JUMPDEST POP POP POP POP JUMP JUMPDEST PUSH1 0x0 PUSH2 0x6F6 DUP3 PUSH2 0x6A2 JUMP JUMPDEST PUSH2 0x700 DUP2 DUP6 PUSH2 0x6AD JUMP JUMPDEST SWAP4 POP PUSH2 0x710 DUP2 DUP6 PUSH1 0x20 DUP7 ADD PUSH2 0x6B8 JUMP JUMPDEST DUP1 DUP5 ADD SWAP2 POP POP SWAP3 SWAP2 POP POP JUMP JUMPDEST PUSH1 0x0 PUSH2 0x728 DUP3 DUP5 PUSH2 0x6EB JUMP JUMPDEST SWAP2 POP DUP2 SWAP1 POP SWAP3 SWAP2 POP POP JUMP JUMPDEST PUSH1 0x0 DUP2 SWAP1 POP SWAP2 SWAP1 POP JUMP JUMPDEST PUSH2 0x74E PUSH2 0x749 DUP3 PUSH2 0x491 JUMP JUMPDEST PUSH2 0x733 JUMP JUMPDEST DUP3 MSTORE POP POP JUMP JUMPDEST PUSH1 0x0 DUP2 SWAP1 POP SWAP2 SWAP1 POP JUMP JUMPDEST PUSH2 0x76F PUSH2 0x76A DUP3 PUSH2 0x4AA JUMP JUMPDEST PUSH2 0x754 JUMP JUMPDEST DUP3 MSTORE POP POP JUMP JUMPDEST PUSH1 0x0 PUSH2 0x781 DUP3 DUP8 PUSH2 0x73D JUMP JUMPDEST PUSH1 0x20 DUP3 ADD SWAP2 POP PUSH2 0x791 DUP3 DUP7 PUSH2 0x73D JUMP JUMPDEST PUSH1 0x20 DUP3 ADD SWAP2 POP PUSH2 0x7A1 DUP3 DUP6 PUSH2 0x75E JUMP JUMPDEST PUSH1 0x20 DUP3 ADD SWAP2 POP PUSH2 0x7B1 DUP3 DUP5 PUSH2 0x75E JUMP JUMPDEST PUSH1 0x20 DUP3 ADD SWAP2 POP DUP2 SWAP1 POP SWAP6 SWAP5 POP POP POP POP POP JUMP INVALID LOG2 PUSH5 0x6970667358 0x22 SLT KECCAK256 SWAP1 0x4A 0xEA 0x1E SWAP14 SWAP8 0xAC 0x4B KECCAK256 0xC2 0xD 0x1E 0xB0 0xC1 SDIV 0xA7 CALLDATASIZE 0x26 0x1E SWAP3 STATICCALL 0x25 DUP14 PUSH9 0xE7F3AD7A02752CB564 PUSH20 0x6F6C634300080F00330000000000000000000000 "
		},
		"gasEstimates": {
			"creation": {
				"codeDepositCost": "408200",
				"executionCost": "infinite",
				"totalCost": "infinite"
			},
			"external": {
				"blockchain(uint256)": "infinite",
				"createBlock(string)": "infinite",
				"getLatestBlock()": "infinite"
			}
		},
		"methodIdentifiers": {
			"blockchain(uint256)": "c25b1eaf",
			"createBlock(string)": "4fdafde8",
			"getLatestBlock()": "61d6f78a"
		}
	},
	"abi": [
		{
			"inputs": [],
			"stateMutability": "nonpayable",
			"type": "constructor"
		},
		{
			"inputs": [
				{
					"internalType": "uint256",
					"name": "",
					"type": "uint256"
				}
			],
			"name": "blockchain",
			"outputs": [
				{
					"internalType": "uint256",
					"name": "index",
					"type": "uint256"
				},
				{
					"internalType": "uint256",
					"name": "timestamp",
					"type": "uint256"
				},
				{
					"internalType": "bytes32",
					"name": "previousHash",
					"type": "bytes32"
				},
				{
					"internalType": "bytes32",
					"name": "merkleRoot",
					"type": "bytes32"
				},
				{
					"internalType": "bytes32",
					"name": "blockHash",
					"type": "bytes32"
				}
			],
			"stateMutability": "view",
			"type": "function"
		},
		{
			"inputs": [
				{
					"internalType": "string",
					"name": "data",
					"type": "string"
				}
			],
			"name": "createBlock",
			"outputs": [],
			"stateMutability": "nonpayable",
			"type": "function"
		},
		{
			"inputs": [],
			"name": "getLatestBlock",
			"outputs": [
				{
					"components": [
						{
							"internalType": "uint256",
							"name": "index",
							"type": "uint256"
						},
						{
							"internalType": "uint256",
							"name": "timestamp",
							"type": "uint256"
						},
						{
							"internalType": "bytes32",
							"name": "previousHash",
							"type": "bytes32"
						},
						{
							"internalType": "bytes32",
							"name": "merkleRoot",
							"type": "bytes32"
						},
						{
							"internalType": "bytes32",
							"name": "blockHash",
							"type": "bytes32"
						}
					],
					"internalType": "struct SimpleBlockchain.Block",
					"name": "",
					"type": "tuple"
				}
			],
			"stateMutability": "view",
			"type": "function"
		}
	]
}