{
	"data": {
		"bytecode": {
			"linkReferences": {},
			"object": "608060405234801561001057600080fd5b506107fc806100206000396000f3fe608060405234801561001057600080fd5b50600436106100365760003560e01c806329f0de3f1461003b57806390f18d8314610059575b600080fd5b610043610075565b6040516100509190610303565b60405180910390f35b610073600480360381019061006e9190610392565b610103565b005b60008054610082906103ee565b80601f01602080910402602001604051908101604052809291908181526020018280546100ae906103ee565b80156100fb5780601f106100d0576101008083540402835291602001916100fb565b820191906000526020600020905b8154815290600101906020018083116100de57829003601f168201915b505050505081565b60008190508073ffffffffffffffffffffffffffffffffffffffff1663625676a26040518163ffffffff1660e01b815260040160006040518083038186803b15801561014e57600080fd5b505afa92505050801561015f575060015b6102205761016b61042c565b806308c379a0036101a0575061017f6104ae565b8061018a57506101a2565b806000908161019991906106f4565b505061021b565b505b3d80600081146101ce576040519150601f19603f3d011682016040523d82523d6000602084013e6101d3565b606091505b506040518060400160405280600f81526020017f4c6f772d6c6576656c206572726f7200000000000000000000000000000000008152506000908161021891906106f4565b50505b610266565b6040518060400160405280600e81526020017f43616c6c207375636365656465640000000000000000000000000000000000008152506000908161026491906106f4565b505b5050565b600081519050919050565b600082825260208201905092915050565b60005b838110156102a4578082015181840152602081019050610289565b838111156102b3576000848401525b50505050565b6000601f19601f8301169050919050565b60006102d58261026a565b6102df8185610275565b93506102ef818560208601610286565b6102f8816102b9565b840191505092915050565b6000602082019050818103600083015261031d81846102ca565b905092915050565b6000604051905090565b600080fd5b600073ffffffffffffffffffffffffffffffffffffffff82169050919050565b600061035f82610334565b9050919050565b61036f81610354565b811461037a57600080fd5b50565b60008135905061038c81610366565b92915050565b6000602082840312156103a8576103a761032f565b5b60006103b68482850161037d565b91505092915050565b7f4e487b7100000000000000000000000000000000000000000000000000000000600052602260045260246000fd5b6000600282049050600182168061040657607f821691505b602082108103610419576104186103bf565b5b50919050565b60008160e01c9050919050565b600060033d111561044b5760046000803e61044860005161041f565b90505b90565b7f4e487b7100000000000000000000000000000000000000000000000000000000600052604160045260246000fd5b610486826102b9565b810181811067ffffffffffffffff821117156104a5576104a461044e565b5b80604052505050565b600060443d1061053b576104c0610325565b60043d036004823e80513d602482011167ffffffffffffffff821117156104e857505061053b565b808201805167ffffffffffffffff811115610506575050505061053b565b80602083010160043d03850181111561052357505050505061053b565b6105328260200185018661047d565b82955050505050505b90565b60008190508160005260206000209050919050565b60006020601f8301049050919050565b600082821b905092915050565b6000600883026105a07fffffffffffffffffffffffffffffffffffffffffffffffffffffffffffffffff82610563565b6105aa8683610563565b95508019841693508086168417925050509392505050565b6000819050919050565b6000819050919050565b60006105f16105ec6105e7846105c2565b6105cc565b6105c2565b9050919050565b6000819050919050565b61060b836105d6565b61061f610617826105f8565b848454610570565b825550505050565b600090565b610634610627565b61063f818484610602565b505050565b5b818110156106635761065860008261062c565b600181019050610645565b5050565b601f8211156106a8576106798161053e565b61068284610553565b81016020851015610691578190505b6106a561069d85610553565b830182610644565b50505b505050565b600082821c905092915050565b60006106cb600019846008026106ad565b1980831691505092915050565b60006106e483836106ba565b9150826002028217905092915050565b6106fd8261026a565b67ffffffffffffffff8111156107165761071561044e565b5b61072082546103ee565b61072b828285610667565b600060209050601f83116001811461075e576000841561074c578287015190505b61075685826106d8565b8655506107be565b601f19841661076c8661053e565b60005b828110156107945784890151825560018201915060208501945060208101905061076f565b868310156107b157848901516107ad601f8916826106ba565b8355505b6001600288020188555050505b50505050505056fea2646970667358221220ed2b7da2d520133283d2a2e4d0f50b1f0749e1f2c57a292512e0acbf3c9a754e64736f6c634300080f0033",
			"opcodes": "PUSH1 0x80 PUSH1 0x40 MSTORE CALLVALUE DUP1 ISZERO PUSH2 0x10 JUMPI PUSH1 0x0 DUP1 REVERT JUMPDEST POP PUSH2 0x7FC DUP1 PUSH2 0x20 PUSH1 0x0 CODECOPY PUSH1 0x0 RETURN INVALID PUSH1 0x80 PUSH1 0x40 MSTORE CALLVALUE DUP1 ISZERO PUSH2 0x10 JUMPI PUSH1 0x0 DUP1 REVERT JUMPDEST POP PUSH1 0x4 CALLDATASIZE LT PUSH2 0x36 JUMPI PUSH1 0x0 CALLDATALOAD PUSH1 0xE0 SHR DUP1 PUSH4 0x29F0DE3F EQ PUSH2 0x3B JUMPI DUP1 PUSH4 0x90F18D83 EQ PUSH2 0x59 JUMPI JUMPDEST PUSH1 0x0 DUP1 REVERT JUMPDEST PUSH2 0x43 PUSH2 0x75 JUMP JUMPDEST PUSH1 0x40 MLOAD PUSH2 0x50 SWAP2 SWAP1 PUSH2 0x303 JUMP JUMPDEST PUSH1 0x40 MLOAD DUP1 SWAP2 SUB SWAP1 RETURN JUMPDEST PUSH2 0x73 PUSH1 0x4 DUP1 CALLDATASIZE SUB DUP2 ADD SWAP1 PUSH2 0x6E SWAP2 SWAP1 PUSH2 0x392 JUMP JUMPDEST PUSH2 0x103 JUMP JUMPDEST STOP JUMPDEST PUSH1 0x0 DUP1 SLOAD PUSH2 0x82 SWAP1 PUSH2 0x3EE JUMP JUMPDEST DUP1 PUSH1 0x1F ADD PUSH1 0x20 DUP1 SWAP2 DIV MUL PUSH1 0x20 ADD PUSH1 0x40 MLOAD SWAP1 DUP2 ADD PUSH1 0x40 MSTORE DUP1 SWAP3 SWAP2 SWAP1 DUP2 DUP2 MSTORE PUSH1 0x20 ADD DUP3 DUP1 SLOAD PUSH2 0xAE SWAP1 PUSH2 0x3EE JUMP JUMPDEST DUP1 ISZERO PUSH2 0xFB JUMPI DUP1 PUSH1 0x1F LT PUSH2 0xD0 JUMPI PUSH2 0x100 DUP1 DUP4 SLOAD DIV MUL DUP4 MSTORE SWAP2 PUSH1 0x20 ADD SWAP2 PUSH2 0xFB JUMP JUMPDEST DUP3 ADD SWAP2 SWAP1 PUSH1 0x0 MSTORE PUSH1 0x20 PUSH1 0x0 KECCAK256 SWAP1 JUMPDEST DUP2 SLOAD DUP2 MSTORE SWAP1 PUSH1 0x1 ADD SWAP1 PUSH1 0x20 ADD DUP1 DUP4 GT PUSH2 0xDE JUMPI DUP3 SWAP1 SUB PUSH1 0x1F AND DUP3 ADD SWAP2 JUMPDEST POP POP POP POP POP DUP2 JUMP JUMPDEST PUSH1 0x0 DUP2 SWAP1 POP DUP1 PUSH20 0xFFFFFFFFFFFFFFFFFFFFFFFFFFFFFFFFFFFFFFFF AND PUSH4 0x625676A2 PUSH1 0x40 MLOAD DUP2 PUSH4 0xFFFFFFFF AND PUSH1 0xE0 SHL DUP2 MSTORE PUSH1 0x4 ADD PUSH1 0x0 PUSH1 0x40 MLOAD DUP1 DUP4 SUB DUP2 DUP7 DUP1 EXTCODESIZE ISZERO DUP1 ISZERO PUSH2 0x14E JUMPI PUSH1 0x0 DUP1 REVERT JUMPDEST POP GAS STATICCALL SWAP3 POP POP POP DUP1 ISZERO PUSH2 0x15F JUMPI POP PUSH1 0x1 JUMPDEST PUSH2 0x220 JUMPI PUSH2 0x16B PUSH2 0x42C JUMP JUMPDEST DUP1 PUSH4 0x8C379A0 SUB PUSH2 0x1A0 JUMPI POP PUSH2 0x17F PUSH2 0x4AE JUMP JUMPDEST DUP1 PUSH2 0x18A JUMPI POP PUSH2 0x1A2 JUMP JUMPDEST DUP1 PUSH1 0x0 SWAP1 DUP2 PUSH2 0x199 SWAP2 SWAP1 PUSH2 0x6F4 JUMP JUMPDEST POP POP PUSH2 0x21B JUMP JUMPDEST POP JUMPDEST RETURNDATASIZE DUP1 PUSH1 0x0 DUP2 EQ PUSH2 0x1CE JUMPI PUSH1 0x40 MLOAD SWAP2 POP PUSH1 0x1F NOT PUSH1 0x3F RETURNDATASIZE ADD AND DUP3 ADD PUSH1 0x40 MSTORE RETURNDATASIZE DUP3 MSTORE RETURNDATASIZE PUSH1 0x0 PUSH1 0x20 DUP5 ADD RETURNDATACOPY PUSH2 0x1D3 JUMP JUMPDEST PUSH1 0x60 SWAP2 POP JUMPDEST POP PUSH1 0x40 MLOAD DUP1 PUSH1 0x40 ADD PUSH1 0x40 MSTORE DUP1 PUSH1 0xF DUP2 MSTORE PUSH1 0x20 ADD PUSH32 0x4C6F772D6C6576656C206572726F720000000000000000000000000000000000 DUP2 MSTORE POP PUSH1 0x0 SWAP1 DUP2 PUSH2 0x218 SWAP2 SWAP1 PUSH2 0x6F4 JUMP JUMPDEST POP POP JUMPDEST PUSH2 0x266 JUMP JUMPDEST PUSH1 0x40 MLOAD DUP1 PUSH1 0x40 ADD PUSH1 0x40 MSTORE DUP1 PUSH1 0xE DUP2 MSTORE PUSH1 0x20 ADD PUSH32 0x43616C6C20737563636565646564000000000000000000000000000000000000 DUP2 MSTORE POP PUSH1 0x0 SWAP1 DUP2 PUSH2 0x264 SWAP2 SWAP1 PUSH2 0x6F4 JUMP JUMPDEST POP JUMPDEST POP POP JUMP JUMPDEST PUSH1 0x0 DUP2 MLOAD SWAP1 POP SWAP2 SWAP1 POP JUMP JUMPDEST PUSH1 0x0 DUP3 DUP3 MSTORE PUSH1 0x20 DUP3 ADD SWAP1 POP SWAP3 SWAP2 POP POP JUMP JUMPDEST PUSH1 0x0 JUMPDEST DUP4 DUP2 LT ISZERO PUSH2 0x2A4 JUMPI DUP1 DUP3 ADD MLOAD DUP2 DUP5 ADD MSTORE PUSH1 0x20 DUP2 ADD SWAP1 POP PUSH2 0x289 JUMP JUMPDEST DUP4 DUP2 GT ISZERO PUSH2 0x2B3 JUMPI PUSH1 0x0 DUP5 DUP5 ADD MSTORE JUMPDEST POP POP POP POP JUMP JUMPDEST PUSH1 0x0 PUSH1 0x1F NOT PUSH1 0x1F DUP4 ADD AND SWAP1 POP SWAP2 SWAP1 POP JUMP JUMPDEST PUSH1 0x0 PUSH2 0x2D5 DUP3 PUSH2 0x26A JUMP JUMPDEST PUSH2 0x2DF DUP2 DUP6 PUSH2 0x275 JUMP JUMPDEST SWAP4 POP PUSH2 0x2EF DUP2 DUP6 PUSH1 0x20 DUP7 ADD PUSH2 0x286 JUMP JUMPDEST PUSH2 0x2F8 DUP2 PUSH2 0x2B9 JUMP JUMPDEST DUP5 ADD SWAP2 POP POP SWAP3 SWAP2 POP POP JUMP JUMPDEST PUSH1 0x0 PUSH1 0x20 DUP3 ADD SWAP1 POP DUP2 DUP2 SUB PUSH1 0x0 DUP4 ADD MSTORE PUSH2 0x31D DUP2 DUP5 PUSH2 0x2CA JUMP JUMPDEST SWAP1 POP SWAP3 SWAP2 POP POP JUMP JUMPDEST PUSH1 0x0 PUSH1 0x40 MLOAD SWAP1 POP SWAP1 JUMP JUMPDEST PUSH1 0x0 DUP1 REVERT JUMPDEST PUSH1 0x0 PUSH20 0xFFFFFFFFFFFFFFFFFFFFFFFFFFFFFFFFFFFFFFFF DUP3 AND SWAP1 POP SWAP2 SWAP1 POP JUMP JUMPDEST PUSH1 0x0 PUSH2 0x35F DUP3 PUSH2 0x334 JUMP JUMPDEST SWAP1 POP SWAP2 SWAP1 POP JUMP JUMPDEST PUSH2 0x36F DUP2 PUSH2 0x354 JUMP JUMPDEST DUP2 EQ PUSH2 0x37A JUMPI PUSH1 0x0 DUP1 REVERT JUMPDEST POP JUMP JUMPDEST PUSH1 0x0 DUP2 CALLDATALOAD SWAP1 POP PUSH2 0x38C DUP2 PUSH2 0x366 JUMP JUMPDEST SWAP3 SWAP2 POP POP JUMP JUMPDEST PUSH1 0x0 PUSH1 0x20 DUP3 DUP5 SUB SLT ISZERO PUSH2 0x3A8 JUMPI PUSH2 0x3A7 PUSH2 0x32F JUMP JUMPDEST JUMPDEST PUSH1 0x0 PUSH2 0x3B6 DUP5 DUP3 DUP6 ADD PUSH2 0x37D JUMP JUMPDEST SWAP2 POP POP SWAP3 SWAP2 POP POP JUMP JUMPDEST PUSH32 0x4E487B7100000000000000000000000000000000000000000000000000000000 PUSH1 0x0 MSTORE PUSH1 0x22 PUSH1 0x4 MSTORE PUSH1 0x24 PUSH1 0x0 REVERT JUMPDEST PUSH1 0x0 PUSH1 0x2 DUP3 DIV SWAP1 POP PUSH1 0x1 DUP3 AND DUP1 PUSH2 0x406 JUMPI PUSH1 0x7F DUP3 AND SWAP2 POP JUMPDEST PUSH1 0x20 DUP3 LT DUP2 SUB PUSH2 0x419 JUMPI PUSH2 0x418 PUSH2 0x3BF JUMP JUMPDEST JUMPDEST POP SWAP2 SWAP1 POP JUMP JUMPDEST PUSH1 0x0 DUP2 PUSH1 0xE0 SHR SWAP1 POP SWAP2 SWAP1 POP JUMP JUMPDEST PUSH1 0x0 PUSH1 0x3 RETURNDATASIZE GT ISZERO PUSH2 0x44B JUMPI PUSH1 0x4 PUSH1 0x0 DUP1 RETURNDATACOPY PUSH2 0x448 PUSH1 0x0 MLOAD PUSH2 0x41F JUMP JUMPDEST SWAP1 POP JUMPDEST SWAP1 JUMP JUMPDEST PUSH32 0x4E487B7100000000000000000000000000000000000000000000000000000000 PUSH1 0x0 MSTORE PUSH1 0x41 PUSH1 0x4 MSTORE PUSH1 0x24 PUSH1 0x0 REVERT JUMPDEST PUSH2 0x486 DUP3 PUSH2 0x2B9 JUMP JUMPDEST DUP2 ADD DUP2 DUP2 LT PUSH8 0xFFFFFFFFFFFFFFFF DUP3 GT OR ISZERO PUSH2 0x4A5 JUMPI PUSH2 0x4A4 PUSH2 0x44E JUMP JUMPDEST JUMPDEST DUP1 PUSH1 0x40 MSTORE POP POP POP JUMP JUMPDEST PUSH1 0x0 PUSH1 0x44 RETURNDATASIZE LT PUSH2 0x53B JUMPI PUSH2 0x4C0 PUSH2 0x325 JUMP JUMPDEST PUSH1 0x4 RETURNDATASIZE SUB PUSH1 0x4 DUP3 RETURNDATACOPY DUP1 MLOAD RETURNDATASIZE PUSH1 0x24 DUP3 ADD GT PUSH8 0xFFFFFFFFFFFFFFFF DUP3 GT OR ISZERO PUSH2 0x4E8 JUMPI POP POP PUSH2 0x53B JUMP JUMPDEST DUP1 DUP3 ADD DUP1 MLOAD PUSH8 0xFFFFFFFFFFFFFFFF DUP2 GT ISZERO PUSH2 0x506 JUMPI POP POP POP POP PUSH2 0x53B JUMP JUMPDEST DUP1 PUSH1 0x20 DUP4 ADD ADD PUSH1 0x4 RETURNDATASIZE SUB DUP6 ADD DUP2 GT ISZERO PUSH2 0x523 JUMPI POP POP POP POP POP PUSH2 0x53B JUMP JUMPDEST PUSH2 0x532 DUP3 PUSH1 0x20 ADD DUP6 ADD DUP7 PUSH2 0x47D JUMP JUMPDEST DUP3 SWAP6 POP POP POP POP POP POP JUMPDEST SWAP1 JUMP JUMPDEST PUSH1 0x0 DUP2 SWAP1 POP DUP2 PUSH1 0x0 MSTORE PUSH1 0x20 PUSH1 0x0 KECCAK256 SWAP1 POP SWAP2 SWAP1 POP JUMP JUMPDEST PUSH1 0x0 PUSH1 0x20 PUSH1 0x1F DUP4 ADD DIV SWAP1 POP SWAP2 SWAP1 POP JUMP JUMPDEST PUSH1 0x0 DUP3 DUP3 SHL SWAP1 POP SWAP3 SWAP2 POP POP JUMP JUMPDEST PUSH1 0x0 PUSH1 0x8 DUP4 MUL PUSH2 0x5A0 PUSH32 0xFFFFFFFFFFFFFFFFFFFFFFFFFFFFFFFFFFFFFFFFFFFFFFFFFFFFFFFFFFFFFFFF DUP3 PUSH2 0x563 JUMP JUMPDEST PUSH2 0x5AA DUP7 DUP4 PUSH2 0x563 JUMP JUMPDEST SWAP6 POP DUP1 NOT DUP5 AND SWAP4 POP DUP1 DUP7 AND DUP5 OR SWAP3 POP POP POP SWAP4 SWAP3 POP POP POP JUMP JUMPDEST PUSH1 0x0 DUP2 SWAP1 POP SWAP2 SWAP1 POP JUMP JUMPDEST PUSH1 0x0 DUP2 SWAP1 POP SWAP2 SWAP1 POP JUMP JUMPDEST PUSH1 0x0 PUSH2 0x5F1 PUSH2 0x5EC PUSH2 0x5E7 DUP5 PUSH2 0x5C2 JUMP JUMPDEST PUSH2 0x5CC JUMP JUMPDEST PUSH2 0x5C2 JUMP JUMPDEST SWAP1 POP SWAP2 SWAP1 POP JUMP JUMPDEST PUSH1 0x0 DUP2 SWAP1 POP SWAP2 SWAP1 POP JUMP JUMPDEST PUSH2 0x60B DUP4 PUSH2 0x5D6 JUMP JUMPDEST PUSH2 0x61F PUSH2 0x617 DUP3 PUSH2 0x5F8 JUMP JUMPDEST DUP5 DUP5 SLOAD PUSH2 0x570 JUMP JUMPDEST DUP3 SSTORE POP POP POP POP JUMP JUMPDEST PUSH1 0x0 SWAP1 JUMP JUMPDEST PUSH2 0x634 PUSH2 0x627 JUMP JUMPDEST PUSH2 0x63F DUP2 DUP5 DUP5 PUSH2 0x602 JUMP JUMPDEST POP POP POP JUMP JUMPDEST JUMPDEST DUP2 DUP2 LT ISZERO PUSH2 0x663 JUMPI PUSH2 0x658 PUSH1 0x0 DUP3 PUSH2 0x62C JUMP JUMPDEST PUSH1 0x1 DUP2 ADD SWAP1 POP PUSH2 0x645 JUMP JUMPDEST POP POP JUMP JUMPDEST PUSH1 0x1F DUP3 GT ISZERO PUSH2 0x6A8 JUMPI PUSH2 0x679 DUP2 PUSH2 0x53E JUMP JUMPDEST PUSH2 0x682 DUP5 PUSH2 0x553 JUMP JUMPDEST DUP2 ADD PUSH1 0x20 DUP6 LT ISZERO PUSH2 0x691 JUMPI DUP2 SWAP1 POP JUMPDEST PUSH2 0x6A5 PUSH2 0x69D DUP6 PUSH2 0x553 JUMP JUMPDEST DUP4 ADD DUP3 PUSH2 0x644 JUMP JUMPDEST POP POP JUMPDEST POP POP POP JUMP JUMPDEST PUSH1 0x0 DUP3 DUP3 SHR SWAP1 POP SWAP3 SWAP2 POP POP JUMP JUMPDEST PUSH1 0x0 PUSH2 0x6CB PUSH1 0x0 NOT DUP5 PUSH1 0x8 MUL PUSH2 0x6AD JUMP JUMPDEST NOT DUP1 DUP4 AND SWAP2 POP POP SWAP3 SWAP2 POP POP JUMP JUMPDEST PUSH1 0x0 PUSH2 0x6E4 DUP4 DUP4 PUSH2 0x6BA JUMP JUMPDEST SWAP2 POP DUP3 PUSH1 0x2 MUL DUP3 OR SWAP1 POP SWAP3 SWAP2 POP POP JUMP JUMPDEST PUSH2 0x6FD DUP3 PUSH2 0x26A JUMP JUMPDEST PUSH8 0xFFFFFFFFFFFFFFFF DUP2 GT ISZERO PUSH2 0x716 JUMPI PUSH2 0x715 PUSH2 0x44E JUMP JUMPDEST JUMPDEST PUSH2 0x720 DUP3 SLOAD PUSH2 0x3EE JUMP JUMPDEST PUSH2 0x72B DUP3 DUP3 DUP6 PUSH2 0x667 JUMP JUMPDEST PUSH1 0x0 PUSH1 0x20 SWAP1 POP PUSH1 0x1F DUP4 GT PUSH1 0x1 DUP2 EQ PUSH2 0x75E JUMPI PUSH1 0x0 DUP5 ISZERO PUSH2 0x74C JUMPI DUP3 DUP8 ADD MLOAD SWAP1 POP JUMPDEST PUSH2 0x756 DUP6 DUP3 PUSH2 0x6D8 JUMP JUMPDEST DUP7 SSTORE POP PUSH2 0x7BE JUMP JUMPDEST PUSH1 0x1F NOT DUP5 AND PUSH2 0x76C DUP7 PUSH2 0x53E JUMP JUMPDEST PUSH1 0x0 JUMPDEST DUP3 DUP2 LT ISZERO PUSH2 0x794 JUMPI DUP5 DUP10 ADD MLOAD DUP3 SSTORE PUSH1 0x1 DUP3 ADD SWAP2 POP PUSH1 0x20 DUP6 ADD SWAP5 POP PUSH1 0x20 DUP2 ADD SWAP1 POP PUSH2 0x76F JUMP JUMPDEST DUP7 DUP4 LT ISZERO PUSH2 0x7B1 JUMPI DUP5 DUP10 ADD MLOAD PUSH2 0x7AD PUSH1 0x1F DUP10 AND DUP3 PUSH2 0x6BA JUMP JUMPDEST DUP4 SSTORE POP JUMPDEST PUSH1 0x1 PUSH1 0x2 DUP9 MUL ADD DUP9 SSTORE POP POP POP JUMPDEST POP POP POP POP POP POP JUMP INVALID LOG2 PUSH5 0x6970667358 0x22 SLT KECCAK256 0xED 0x2B PUSH30 0xA2D520133283D2A2E4D0F50B1F0749E1F2C57A292512E0ACBF3C9A754E64 PUSH20 0x6F6C634300080F00330000000000000000000000 "
		},
		"gasEstimates": {
			"creation": {
				"codeDepositCost": "408800",
				"executionCost": "443",
				"totalCost": "409243"
			},
			"external": {
				"callExternalFunction(address)": "infinite",
				"lastError()": "infinite"
			}
		},
		"methodIdentifiers": {
			"callExternalFunction(address)": "90f18d83",
			"lastError()": "29f0de3f"
		}
	},
	"abi": [
		{
			"inputs": [
				{
					"internalType": "address",
					"name": "_contract",
					"type": "address"
				}
			],
			"name": "callExternalFunction",
			"outputs": [],
			"stateMutability": "nonpayable",
			"type": "function"
		},
		{
			"inputs": [],
			"name": "lastError",
			"outputs": [
				{
					"internalType": "string",
					"name": "",
					"type": "string"
				}
			],
			"stateMutability": "view",
			"type": "function"
		}
	]
}